:020000040800F2
:1000000098FC002045010008D7CC0008399D000865
:10001000D5CC00081D1700087F2C01080000000047
:10002000000000000000000000000000991301081B
:10003000F1250008000000008F0D00087DD90008A0
:100040005F0100085F0100085F01000819F6000861
:100050005F0100085F0100085F0100085F01000800
:100060005F010008492D00085F0100085F010008DA
:100070005F0100085F0100085F0100085F010008E0
:100080005F0100085F0100085F010008852B01087F
:10009000F12B01085F0100085F0100085F01000803
:1000A0005F0100085F0100085F0100085F010008B0
:1000B0005F0100085F0100085F0100085F010008A0
:1000C0005F0100085F0100085F0100085F01000890
:1000D0005F0100085F0100080129010825290108C6
:1000E0005F0100085F0100085F0100085F01000870
:1000F0005F0100085F0100085F0100085F01000860
:100100005F0100085F0100085F0100085F0100084F
:100110005F0100085F0100085F0100085F0100083F
:100120005F0100085F0100085F0100085F0100082F
:10013000DFF80CD000F0A8FB004800476D5F020814
:1001400098FC00200648804706480047FEE7FEE787
:10015000FEE7FEE7FEE7FEE7FEE7FEE7FEE7FEE777
:10016000F91B01083101000872B6704762B670478A
:10017000EFF3108072B6704780F31088704730BF7D
:10018000704720BF7047B0FA80F0704790FAA0F037
:10019000B0FA80F0704790FAA0F070472DE9F05F58
:1001A0000546002092469B468846064681464024E6
:1001B0001BE0284641464746224600F066FA534671
:1001C0005A46C01A914110D311461846224600F0F3
:1001D0004DFA2D1A67EB01084F46224601200021F7
:1001E00000F044FA17EB00094E41201EA4F101046F
:1001F000DFDC484631462A464346BDE8F09F000012
:100200000649074A0868504343F23902104408601F
:10021000400870470149086070470000DC0C00206E
:100220006D4EC64110B5431A934209D283188818FF
:1002300003E010F8011D03F8011D521EF9D210BD94
:1002400040EA01039B0703D009E008C9121F08C058
:10025000042AFAD203E011F8013B00F8013B521ED8
:10026000F9D210BDD2B201E000F8012B491EFBD239
:1002700070470022F6E710B513460A4604461946B1
:10028000FFF7F0FF204610BD30B505462A460B4665
:1002900012F8010B13F8014B08B1A042F8D01CB1C1
:1002A000002802D06D1CF1E7284630BD10B5044689
:1002B00004E00B7800F8013B03B1491C521EF8D250
:1002C000204610BD421C10F8011B0029FBD1801AEA
:1002D000704730B504460020034600E05B1C9342A3
:1002E00003D2E05CCD5C401BF8D030BD034611F872
:1002F000012B00F8012B002AF9D1184670472DE98F
:10030000FE4F804681EA0300C00F0C46009021F0AA
:10031000004123F00045B8EB0200A94105D2404658
:10032000214690461C460B46024623F000401043EF
:1003300047D0270DC7F30A00C3F30A510290401AB1
:10034000019040286BDAC3F3130040F4801B00983F
:10035000924620B10023D2EB030A63EB0B0B01980A
:100360005946C0F14002504600F080F906460D465D
:1003700050465946019A00F098F910EB0800614187
:10038000002487EA115284EAE7731A4340D0009AA6
:1003900062B3019A012A4FEA075215DC001B61EB98
:1003A00002014FF0004202EA0752CDE90042001C70
:1003B00041F5801132462B4600F0E7F903B0BDE865
:1003C000F08F40462146F9E7001B61EB0201001C5B
:1003D00041F5801300185B412018A2F5001747EB88
:1003E000030140EAD570B6196D4111E06D084FEA7E
:1003F000360645EAC0754FEA0752001B61EB020161
:10040000001C41F5801149084FEA300000195141A4
:1004100032462B4603B0BDE8F04F00F0A7B9009874
:10042000012240000023D0EB020263EBE07300984E
:1004300021464FEAE074B8EB000061EB0401E9E704
:1004400083F000435BE781F0004158E72DE9FE4F60
:1004500081EA030404F0004421F0004100944FF0CD
:10046000000B23F0004350EA01045ED052EA03047B
:100470005BD0C3F30A54C1F30A552C44A4F2F334FD
:100480000194A0FB0254C1F3130141F48011C3F3A2
:10049000130343F4801301FB024400FB034E840A60
:1004A000970A44EA815447EA8357A4FB07680295F8
:1004B0008D0A05FB07854FEA932C04FB0C54270596
:1004C000029D4FEA065847EA1637B5EB08056EEB72
:1004D000070C870E920E47EA811742EA8312A7FBA8
:1004E0000201B6EB0B0164EB00042B0D43EA0C3365
:1004F0005E1844EB1C50DA465146E7FB0201C5F397
:1005000013044FEA0B3343EA14534FEA0432019CBD
:1005100043EA0603A4F10C040294009CCDE900B464
:1005200000F033F903B0BDE8F08F00200146F9E791
:100530002DE9F04D81EA030404F0004B21F0004561
:1005400014464FF0000A23F0004150EA050220D083
:1005500054EA01021DD0C5F30A570246C5F313033E
:10056000C1F31300C1F30A5640F4801543F480131D
:10057000A7EB0608101BD64608F2FD3873EB050002
:1005800002D308F1010801E092185B41B8F1000FB5
:1005900003DA00200146BDE8F08D00204FF4801101
:1005A000064684460EE0171B73EB050705D3121BA6
:1005B00063EB050306434CEA010C49084FEA30009F
:1005C00092185B4150EA0107EDD152EA030012D0C4
:1005D00082EA040083EA0501084305D0101BAB4101
:1005E00006D20122002306E000224FF0004302E081
:1005F0006FF0010253101AEB06004CEB085110EBA0
:100600000A0041EB0B01BDE8F04D00F0AFB800006F
:1006100030B5041E71F1000404DB4FF00044404289
:1006200064EB0101141E73F1000405DB1C464FF05E
:100630000043524263EB04038B4208BF824230BD49
:1006400030B50B46014600202022012409E021FAA2
:1006500002F59D4205D303FA02F5491B04FA02F59F
:100660002844151EA2F10102F1DC30BD202A04DB72
:10067000203A00FA02F1002070479140C2F12003B5
:1006800020FA03F3194390407047202A04DB203AF4
:1006900021FA02F00021704721FA02F3D040C2F1A2
:1006A00020029140084319467047202A06DBCB17E9
:1006B000203A41FA02F043EAE07306E041FA02F31D
:1006C000D040C2F120029140084319467047000013
:1006D0000FB4002300B589B00CA900910B996FF0FD
:1006E0000042CB601E4B06931E4B07930423CDE9BB
:1006F00001321D4A089202466B46002000F05CF968
:1007000009B05DF814FB70B586B006464FF0FF30B7
:100710000091CDE90101002015460C4604903246B7
:10072000694604A8FFF7D4FF03460498211825B1B1
:1007300008B10A4600E022462A6000280DD0002BAE
:1007400002DD0098884208D0081B0094CDE901041E
:100750003246694604A8FFF7BBFF06B070BD000033
:10076000F10B00080F0C0008AD08000810B5141EAE
:1007700073F1000408DA401C41F1000192185B415A
:100780001A4301D120F0010010BD2DE9F04D924631
:100790009B4611B1B1FA81F202E0B0FA80F2203248
:1007A0009046FFF763FF04460F4640EA0A0041EA1D
:1007B0000B0153465A46084313D0114653EA010031
:1007C00019D0C8F140025046FFF75FFF05460E46BC
:1007D000504659464246FFF749FF084305D00120DD
:1007E00004E020463946BDE8F08D0020054346EA86
:1007F000E0762C4337430A986305E40AA0EB08002F
:100800000022FD0A44EA47540A3002D5002001467E
:10081000E9E7010510196941DDE908450019694159
:10082000BDE8F04DA2E7C1F30A52C1F3130140F253
:10083000FF3341F480119A4202DA002001467047EA
:1008400040F233439A42A2F2334202DC5242FFF7B3
:100850001CBFFFF70BBF000030B5041E71F1000490
:1008600004DB4FF00044404264EB0101141E73F1BD
:10087000000405DB1C464FF00043524263EB0403C7
:10088000994208BF904230BD064C074D06E0E06833
:1008900040F0010394E8070098471034AC42F6D3C7
:1008A000FFF74AFC24C8040844C80408C0B24FF447
:1008B000F05100F0BDB900002DE9FF4F087881B07C
:1008C0009946FF2805D0491C2D2804D00024002378
:1008D00008E000230BE00124F9E703EB830300EBBE
:1008E0004303491C0878FF28F7D104B15B4200207C
:1008F0000090147801462D2C01D02B2C04D1521CD1
:100900002D2C12D00024009400251678FF2E0ED036
:100910000A24A0FB04C801FB0481002700FB071187
:10092000521C16EB0C006941EFE70124EBE79944F8
:1009300050EA01020ED00024AA4D2646DFF8A88214
:1009400000F08AF982468B46B9F1000009DAC9F154
:1009500000071BE001980021C0E9001105B0BDE8C7
:10096000F08F074612E0F80707D022462B463046A4
:100970004146FFF76BFD0646884622462B46104649
:100980001946FFF763FD04460D467F10002FEAD19C
:10099000B9F1000F324643465046594602DAFFF796
:1009A000C7FD01E0FFF752FD009A0AB181F0004156
:1009B000019AC2E90001D1E72DE9FF4F1F468DB032
:1009C000D7E901464FF0FF382E2045464FF0000989
:1009D0000B90B9696D1C0E988847396A8246884722
:1009E0000028F6D1BAF1FF3F0AD024F4D064002EDB
:1009F00011DDBAF12B0F08D0BAF12D0F0BD102E0A7
:100A0000404611B0ABE744F48064B9696D1C0E98A0
:100A100088478246761E6946600501D52D2000E094
:100A20002B208DF8000001F1010B0DF1200809E0E9
:100A3000B9696D1C0E98884782460F9844F400747B
:100A4000761E0560002E02DDBAF1300FF0D00B9952
:100A50008A453ED144F0800406E00F99681CA9F154
:100A6000010944F400740860B9696D1C761E0E9883
:100A7000884782463028F0D02BE00B998A4505D173
:100A8000200603D444F08004761E18E0504623F07C
:100A9000DAFA08B30DF11301761E44F400748B45A5
:100AA00008D2AAF130000BF8010B200607D5A9F1F6
:100AB000010003E0200602D409F101008146A005EF
:100AC00002D50F99681C0860B9696D1C0E9888479B
:100AD0008246002ED1DC53E0002E51DDBAF1650FC5
:100AE00002D0BAF1450F4BD1A00549D5B9696D1CAB
:100AF00024F44074761E0E9888478246002E0CDD42
:100B00002B2804D0BAF12D0F07D144F48074B969B1
:100B10006D1C0E9888478246761EE00501D52D2172
:100B200000E02B2108F8011BCDF82C8021E00DF10D
:100B30002901761E44F4007488450CD2AAF13000D5
:100B400010F0FF0088F8000002D10B99884509D900
:100B500008F1010806E0E00501D5244801E042F271
:100B60000F708146B9696D1C0E98884782460F98B0
:100B70000560002E04DD504623F065FA0028D6D12A
:100B8000F9690E988847FF208BF8000088F800006C
:100B90000020069007904B466A4608A906A8FFF772
:100BA0008BFEA00502D46FF001002AE714F0240F99
:100BB0000AD0E00714D1DDE906123868031D3B6056
:100BC0000068C0E900120BE0DDE9060100F050F812
:100BD0000146E00704D13868021D3A6000680160F0
:100BE00028460EE7000024400000F03FF1D8FFFF48
:100BF000426842B1016811F8013B23B1521EC0E9BD
:100C00000012184670470121C160881E7047426873
:100C10005AB1C368016843B983688B4205D0491E45
:100C2000521CC0E90012002070474FF0FF3070479F
:100C30007F2801D9002208E0064A02EB5002C007D3
:100C4000127800D1120902F00F02012090400840F2
:100C50007047000000C404080EB540F2334202920F
:100C60000022CDE900221346FFF78FFD03B000BD3F
:100C700001F0004330B421F0004150EA010206D0F7
:100C80000A0DA2F56072C1F31301002A02DC30BC28
:100C900000207047440F44EAC104C100E01830BC92
:100CA00000EBC250AFF300800029A8BF7047401C82
:100CB000490008BF20F00100704710B4B0FA80FC72
:100CC00000FA0CF050EA010404BF10BC704749B1AF
:100CD000CCF1200421FA04F411FA0CF118BF01211F
:100CE00021430843A3EB0C01CB1D4FEA00614FEAFF
:100CF000102042BF002010BC704700EBC3501044CE
:100D00000029A4BF10BC7047401C490008BF20F058
:100D1000010010BC704770B58C1810F8015B15F01D
:100D2000070301D110F8013B2A1106D110F8012B5D
:100D300003E010F8016B01F8016B5B1EF9D12B0782
:100D400005D40023521E0DD401F8013BFAE710F838
:100D5000013BCB1A921C03E013F8015B01F8015B25
:100D6000521EF9D5A142D8D3002070BD18484FF0CB
:100D7000FF010170002080F309881648016881F3A3
:100D8000088815484FF08051016062B6FEE772B6E0
:100D9000EFF3098028B1203880E8F00F0F49096887
:100DA000086000B50E4880475DF804EB0D480E4919
:100DB0000A78027009480D490A680260106890E8D4
:100DC000F00F203080F309884EF0040E62B67047B1
:100DD00022ED00E09000002004ED00E088000020FB
:100DE000A5D7000844000020450000208C0000200A
:100DF000002800DC404270477047000070B58AB0A0
:100E0000002405940C20144BCDE9013009AE0325D4
:100E1000CDE90756012180220694CDE903210090F7
:100E200023460E4A0EA112480CF0F8FA06AB0594C0
:100E300070C36802CDE9030499210E4ACDE901216E
:100E40000D2000900A4800230B4A0CA1B4300CF08E
:100E5000E5FA0AB070BD000004110020350F00084B
:100E6000417070205461736B20557064617465002B
:100E70009C0D002008130020B10F00084170702065
:100E80005461736B205573657261707000000000CF
:100E90000EB500F0BFF800F00FFE00F041F902A817
:100EA0000CF064FA0BA021F031FAFFF7A7FF15A0B0
:100EB00021F02CFAFFF7A0FF002502AC06F018FF86
:100EC0000022CDE900540F23114610460CF0C4FC5B
:100ED000F4E700003C3C2D4F532D494E464F2D3E2C
:100EE0003E204372656174696E67204170706C6961
:100EF000636174696F6E205461736B732E2E2E0ABA
:100F00000D0A00003C3C2D4F532D494E464F2D3EBF
:100F10003E204372656174696E67204170706C6930
:100F2000636174696F6E204576656E74732E2E2E24
:100F30000A0D0A000EB51B4C4FF47A7508E0A17833
:100F4000491CC9B2A1700A2906D2284623F034FCF4
:100F500011F0CEFA0028F2D101274FF48079DFF8A2
:100F600048A0124E00250DF1080817E0002011F0EE
:100F70003FFB38B13078012800D1677049465046B0
:100F800003F0EEFE0022CDE900586423114610461E
:100F90000CF062FC4946504603F0E0FEA0780A28B7
:100FA000F0D2E3E72800002000080140AC01002057
:100FB00004480078552801D024F00EFF11F060FE9F
:100FC000FCE700002800002010B501200EF090F989
:100FD000BDE8104000200EF08BB9000008B50349B1
:100FE000084400900098008808BD0000006C004094
:100FF00008B5034A104400900098016008BD000045
:10100000006C004000B585B068460EF07FF901988D
:1010100005B000BD30B585B000200190029003906E
:1010200004902E4C2C486060012140200EF036F9CF
:1010300000F070FB0AF0ECFA09F04AFB09F05EFBE5
:1010400000F02CFB11F010FC14F03AFB042013F01C
:1010500025FB05F019FD012221A1606824F05EF94D
:10106000204D287020A021F051F92878254D30B16D
:1010700025A021F04BF9E020287005B030BD0122F9
:101080004FF4FF111F480FF0CFFF287855281CD1CF
:101090001022214901A80FF0C7FFBDF808000090F9
:1010A000BDF81030BDF80C20BDF80410002006F08B
:1010B000C7FDBDF80A000090BDF81230BDF80E2043
:1010C000BDF80610012006F0BBFD0EF0D1FA134862
:1010D0000EF0ACF92070D0E71458002094000020E6
:1010E000303A00002B0000206D6F756E742066751D
:1010F0006E6374696F6E206973206F766572210A62
:1011000000000000280000204D6F756E74204661BD
:10111000696C65642100000002E01F00B4400020FB
:1011200010B5FFF76FFF04490968B0FBF1F0BDE8A7
:1011300010400CF035BC0000EC64020838B545687E
:1011400004460146284611F0A1FE00282AD0206856
:10115000304A0F2819D006DC0B2824D00C2810D0D8
:101160000E2851D12FE0112802D028284CD145E07B
:101170009268002A16D02146284601B0BDE83040CA
:101180001047214628465268F7E7284604F026FA19
:101190000090406E0468684604F08AFA002C01D082
:1011A0002846A04738BD284604F018FA0090683059
:1011B00004F06EF9009803216C3004F077F968466A
:1011C00004F076FA20E0E168486809680D2902D049
:1011D000202913D105E0002810DD28461CF0F5FA7F
:1011E00006E0002804DD2846BDE838401CF0EDBAD2
:1011F0002846BDE8384002211CF0FDBAE06818B965
:101200000021284600F0CAF92046BDE8384012F017
:101210001DBA0000140500202DE9FF410AAF70CF70
:10122000002703958DE8D00000F003F804B0BDE876
:10123000F081F0B585B00DF1280CBCE8F0004FF05E
:10124000000C8DE8F01000F025F805B0F0BDF0B509
:10125000044685B08069B4F90850668A0027CDE954
:101260000265CDE900170490B4F90C00B4F91060E0
:10127000C118B4F90A00B4F90E50104433462A4696
:1012800000F008F80546616800F0A7F905B02846A7
:10129000F0BD00002DE9F04F85B01F46DDE911B427
:1012A000DDE90E5690468946824605F057FC4C34DF
:1012B0001548CDE90204CDE900563B464246494671
:1012C000504612F009F9040018D004F087F91022F2
:1012D0005946049012F00CF8049830220B4934302F
:1012E000FEF7A0FF094D04990C3D2868486604A844
:1012F00004F0DEF9286841682046884706F0A0FF20
:1013000005B02046BDE8F08F3D1100082005002003
:10131000F0B5044680688B4989B051F82050606868
:1013200000287DD0052804D006287AD0122879D14B
:10133000AEE0E86900284FD095E80E008DE80F0078
:1013400004F110010FC907F033FD002655F82600FF
:1013500006F06FFAA169E8690A1A21690144606917
:10136000304405F031F8A169E8690A1A216901449D
:10137000E069801B05F028F8E169E8690A1A6169EB
:1013800001442069304405F0F5F8E169E8690A1A7A
:1013900061690144A069801B05F0ECF8761C022EFF
:1013A000D4DBA86806F045FAE069E9696669431A82
:1013B00020694218521E3144801C05F091F9E16900
:1013C000E869A2690B1A61690144101A401C921E57
:1013D00005F086F9EE6913E05FF0000655F8260087
:1013E00006F027FAE069831BA069821B60698119F6
:1013F0002069304405F05EF8761C022EEEDB0226F2
:10140000D5E90301CDE900016169E06908444310B1
:10141000A069891C821B2069304404F099FF02E016
:1014200089E012E08AE0D5E90501CDE90001E36930
:1014300060690121184401EB6001A0699B1E821BB9
:101440002069304404F084FF78E0206804F0C6F896
:101450000490206813F06AFD40B1A06808B1002034
:1014600008E00498006F28B1012003E00498406F61
:1014700000B10220049901EB8000C56E04A804F0BD
:1014800017F900231A462846216804F091FC55E01C
:10149000206804F0A3F80490866EEEB3B0F95C7097
:1014A000A168D1B3032942D05FF0000100EB8101B4
:1014B000406D0C6C06F0E6F9204606F0BAF905A876
:1014C00005F0D0F9BDF81410A88B0144ADF8141044
:1014D000BDF81810081AADF81800BDF81600801CE9
:1014E000ADF81600BDF81A00801EADF81A00049879
:1014F0005E30B0F90220B0F9001005A805F0A7FF92
:1015000004A804F0D5F8022006F046FA304604F0AC
:1015100065F83A4605A901E00BE006E0079004F003
:1015200065FD07A804F0C4F808E00121BEE7022128
:10153000BCE704A8F6E7206813F070F909B00020B2
:10154000F0BD0000B0A40408044A03491160044936
:101550004A6A486210467047500500201405002072
:101560002005002000294FF0100101D011F01DBD11
:1015700011F065BC38B50D4604000ED005F0EEFA4A
:10158000204604F02BF800904565684604F090F87A
:10159000204612F0E1FD06F053FE38BD4FF4807294
:1015A0000029114601D011F000BD11F048BC08B56A
:1015B0000023009300F001F808BD70B516460C46F4
:1015C000054619463046049A04F0D4FB02462146EB
:1015D0002846BDE8704000F042B82DE9FF410E46B4
:1015E00005004FF0010421D005F0B8FA284603F0B9
:1015F000F5FF0190876E01A8009704F059F8314675
:10160000684607F083FF78B100980024B84208D0FC
:10161000284603F0E3FF01900099816601A804F0D9
:1016200047F8284612F098FD06F00AFE04B020465E
:10163000BDE8F08138B50C4605000FD005F08EFAF4
:10164000284603F0CBFF0090A0F85C40684604F009
:101650002FF8284612F080FD06F0F2FD38BDF8B5EF
:1016600015460C46060018D005F078FA304603F00F
:10167000B5FF0090032C0BD800EB84006C3003F016
:1016800007FF009800EB8400C566304612F064FD49
:10169000684604F00DF806F0D3FDF8BD38B5012119
:1016A00004200DF017FE4FF48074ADF800401020B8
:1016B0008DF8030003208DF80200054D6946284689
:1016C00003F0F2FA2146284603F048FB38BD00003B
:1016D0000008014010B500280FD04FF480540128B5
:1016E00011D0022815D1102101200FF0D7FF21467B
:1016F000BDE8104002200FF087BF1021BDE8104068
:1017000001200FF0CBBF2146BDE8104002200FF0B2
:101710007BBF10BD4FF4A0600BF026BBFEE7C1B24B
:10172000000A40EA0120704770B500208F4B904CB2
:101730005988A4F1400202E0155C2554401C8842FF
:10174000FAD38B48626820304260A26882601F2909
:101750000FD00220FFF7BEFF00202060607B1A221E
:10176000052110F03BF8BDE870400021012010F089
:1017700015B8E17B282901D02A290FD1207D627C70
:10178000E57C40EA0260A27C120442EA0522104392
:101790005860E07DA27D40EA02209860754A20688A
:1017A00090427DD1744A607B1268904203D8A27B3C
:1017B0000AB1102A0DD90220FFF78CFF607B24228A
:1017C000052110F00BF8BDE87040002101200FF05A
:1017D000E5BF252968D01ADC15297CD00DDC082945
:1017E0007AD005DCF1B303293FD004292DD177E06D
:1017F0000A2972D0122928D13BE01A390A2924D2A9
:10180000DFE801F0433B237A3F232323234B8A293C
:101810007DD00EDC552967D006DC28294CD02A293A
:1018200050D02F2911D153E05A2932D088290CD118
:1018300072E0A82968D004DC8F2969D09E2904D1E0
:101840006EE0AA2974D0AF297AD00220FFF742FFB8
:10185000607B202205210FF0C1FFBDE87040002110
:10186000012000E024E00FF099BFBDE870400EF0C9
:1018700005BDBDE870400EF00FBCBDE870400EF035
:1018800009BDBDE870400EF005BDBDE870400EF02A
:1018900043BCBDE870400EF039BCBDE8704001E0CB
:1018A00056E001E00EF0B4BCBDE870400EF076BC2E
:1018B000BDE870400EF0F2BCD3E90112BDE8704003
:1018C0000EF030BCD3E90112BDE870400EF020BD2F
:1018D000BDE8704002E00BE012E025E00EF0FABC3B
:1018E000BDE870400EF0C0BBBDE870400EF0EEBB2E
:1018F000BDE870400EF0EABBBDE870400EF0E6BBFC
:10190000BDE870400EF0E2BBBDE8704002E013E0BD
:101910001AE00DE00EF0DABBBDE870400EF0D6BB69
:10192000BDE870400EF0D2BBBDE870400EF0CEBBFB
:10193000BDE870400EF0CABBBDE870400EF0C6BBFB
:10194000BDE870400EF0C2BBBDE870400EF0BEBBFB
:101950000220FFF7BFFE607B202205210FF03EFF33
:10196000BDE87040002101200FF018BF8003002067
:10197000A8E9002055534243E40300202DE9FF4726
:101980000446006810B113F0D1FA68B10022314862
:1019900050F8221060680A2841D007DCF0B306280E
:1019A0000DD0072854D106E00122F0E712280AD012
:1019B00019284DD137E0204615F068FC48E0204654
:1019C00017F068F844E0206803F008FE0290B0F9D0
:1019D000548090F85650476C466B02A803F068FE9E
:1019E000206800F039F88146684611F04DFFBDF8D7
:1019F000001009EB05000844ADF80000246A3046E9
:101A000005F040FF022005F0C7FF384605F011FF42
:101A100042466946204604F0E9FA19E007E020460C
:101A200017F033FF14E0886904B0BDE8F087206840
:101A300012F0F4FE206803F0D1FD0390B0F9061017
:101A4000B0F90220891A491CC16703A803F030FECF
:101A50000020E9E7C0A4040838B5044605F07EF884
:101A6000204603F0BBFD0090C46F684603F020FEE3
:101A700006F0E6FB204638BD044A034911600449DC
:101A8000CA69C86110467047DC0500203C0B002085
:101A9000400B002000B589B024216846FEF7E9FB21
:101AA00019200190034800688068416868468847AB
:101AB00009B000BD3C0B0020AFF3008002490020BC
:101AC000086000F009B800003000002001490860FB
:101AD000704700003000002010B50948016841F04F
:101AE00080710160074800214160016841F00101F7
:101AF0000160FFF787FABDE81040FFF7E7BF00007D
:101B0000FCED00E0001000E0014840687047000074
:101B1000001000E02DE9F041194E1A4F1A4C1B4DF0
:101B200028E047F6FF702060288800F00F01317030
:101B300007EB8100D0F8002C92B213040CD5D0F83A
:101B4000002C40F68F731A40C0F8002C1048491E34
:101B500050F8210080470DE012060BD5D0F8002C7C
:101B600048F60F731A40C0F8002C0A48491E50F876
:101B700021008047206828800004D2D4BDE8F0818D
:101B8000B002002000500040445C0040E003002010
:101B9000C4030020A80300202DE9F84F0020009086
:101BA0004BF6BF7748F28008614E624D40F68F7A5F
:101BB000DFF8849148F60F7B604C2CE0088800F039
:101BC0000F0089F8000078B304EB8001D1F8002CF5
:101BD0000092BDF8002012040AD5D1F8002C02EAC8
:101BE0000A02C1F8002C5649401E51F820008047D7
:101BF000BDF8000000060ED599F8000004EB800146
:101C0000D1F8002C02EA0B02C1F8002C4D49401E0D
:101C100051F8200080474648443000684A4908800F
:101C20000004CBD4BDE8F88FFFE73068288028880F
:101C300000F030006880288800F440502880306828
:101C4000384080F4005080F0200040EA0800306006
:101C50000888C00620D4306800EA0B00306008F025
:101C6000E9FC306838402988C90401D580F48050E7
:101C70002988890401D580F400506988C90601D5F6
:101C800080F010006988890601D580F0200080B2BC
:101C900040EA08003060C5E730680090BDF80000F9
:101CA000000520D5306800EA0A0030600FF09CFD86
:101CB000306838402988C90401D580F480502988CB
:101CC000890401D580F400506988C90601D580F0E7
:101CD00010006988890601D580F0200080B240EAB2
:101CE000080030609EE7BDF80000000493D530681E
:101CF00000EA0A0030600DF0A1F830683840298809
:101D0000C90401D580F480502988890401D580F464
:101D100000506988C90601D580F0100069888906DD
:101D200001D580F0200080B240EA0800306079E7F9
:101D3000005C0040C2020020B002002000500040C1
:101D4000C4030020A8030020E0030020810008480D
:101D50000844D0F8001C490409D5D0F8001C48F606
:101D60008F7211404CF280021143C0F8001C704782
:101D700000500040810008480844D0F8001C490683
:101D800009D5D0F8001C48F68F72114048F2C00205
:101D90001143C0F8001C7047005000408100064805
:101DA0000844D0F8001C48F68F62114048F28002C7
:101DB0001143C0F8001C70470050004070B500256A
:101DC0004FF4803400E0641E24B180200EF084FBC8
:101DD0000028F8D02CB140F2FF500EF03DFB284611
:101DE00070BD032070BD00000548416B11F0450F28
:101DF000FBD040F2FF518163406900F0080070475A
:101E00000080014010B500240E4A516B00E0516B78
:101E100011F0450FFBD0480705D5032404200EF030
:101E20001BFB204610BDC80705D0012401200EF081
:101E300013FB204610BD40F2FF500EF00DFB204674
:101E400010BD00000080014010B500240A4A516B0B
:101E500000E0516B11F0450FFBD0480705D5032476
:101E600004200EF0F9FA204610BD40F2FF500EF0AB
:101E7000F3FA204610BD00000080014070B5064610
:101E80000C4600251C4A506B00E0506B10F0450FCB
:101E9000FBD0410705D5032404200EF0DDFA2046CF
:101EA00070BDC00705D0012401200EF0D5FA2046F0
:101EB00070BD0EF00BFBB04201D0102070BD40F29F
:101EC000FF500EF0C9FA00200EF018FB10F4604F1E
:101ED00003D0810405D5132070BD000C2080284656
:101EE00070BD410401D5102070BD000401D50F2044
:101EF00070BD284670BD00000080014010B5002074
:101F00004FF480310D4B5A6B01E0491E5A6B12F0B1
:101F1000450F01D10029F8D109B1510705D5032496
:101F200004200EF099FA204610BD5106FCD500247D
:101F300040200EF091FA204610BD000000800140C4
:101F400070B586B011F0CEFC30214FF41472CDE99B
:101F5000032105910321CDE90001174800230293D5
:101F6000036A74224FF481713E2007F0BAFF134DCB
:101F7000A8610024124E13A2A86956F8341007F085
:101F8000E7FE641CE4B2022CF5D30F4A0121A869D4
:101F900008F01EF84FF0FF31A86908F063F80A2234
:101FA0000021A86908F06DF8A86906B00821BDE80D
:101FB000704008F040B80000EC570020AC01002051
:101FC000486502080000000080FFFF80F0B587B080
:101FD000002411F087FC2C4A0223CDE901322B4D5D
:101FE0000090042105F1080003910FC811F074FA64
:101FF00068623A213022CDE90421002640F25123C3
:10200000CDE902630321CDE90001E8692A681430B3
:1020100000EB4003D21E3146032007F062FF1C4D47
:1020200028611C4E6FF07F4706EBC40056F8341051
:102030004268286907F08CFE3A462146286908F074
:1020400041F8641CE4B20C2CEED3134A0121286938
:1020500007F0BEFF1149286907F0D6FF4FF0FF31A6
:10206000286907F0FFFF0A220021286908F009F813
:102070000C220121286908F004F8286907B008211A
:10208000BDE8F04007F0D7BFE93C0208EC5700205C
:10209000AC0100205865020880FFFF80202804085A
:1020A000F0B585B011F01EFC0C230226CDE90163CA
:1020B0001CA14FF4B072CDE90321009010233C2203
:1020C000314600200FF002FE194CE06019490FF074
:1020D0009FFE6FF07F452946E0680FF0EFFE11F09C
:1020E00001FC15490E2740F261130A688DE8C10012
:1020F00012A1CDE9033102EBD2706FF0180101EBB0
:1021000060001023322202210FF0E0FDE06029463A
:102110000FF0D4FEE06805B00B49BDE8F0400FF0C9
:1021200077BE000057696C6466697265204F530082
:10213000AC01002020280408EC57002031313A354A
:10214000363A3030000000001021040801480068D1
:102150007047000028060020C10002D5024908602F
:102160007047024948607047040402400000024082
:10217000002904D0016841F0010101607047016845
:102180004FF6FE72114001607047000002460020C9
:10219000D10002D50449096801E0044909681142E7
:1021A00000D00120704700000004024000000240FF
:1021B00030B5026847F6F0739A430C6A8B68234384
:1021C000D1E904452C4323438C692343CC69234341
:1021D0004C6A23438C6A234313430360CA684260FA
:1021E0000A6882604968C16030BD0000F8B50546E4
:1021F000006803F0F3F90090448ED0F888606846D8
:1022000003F056FA06B1012604F00104286812F022
:102210008DFE0EB1002006E00CB1012003E008B1F4
:10222000022000E003201B4951F82010686858B3D1
:1022300002280CD0052802D0122828D103E0284615
:1022400015F050F823E0284617F0F9FE1FE06A6900
:10225000E8694FF0FF33801AA0F1080203EB620433
:10226000421CAB69001B4510A3EB6206C86905F070
:10227000E0FA06E03219311B284604F0A5F8641E86
:102280006D1C002CF6DA02E0286812F0C7FA002074
:10229000F8BD000020A50408044A03491160044960
:1022A0000A6B0863104670472C0600207C0B002048
:1022B000800B002038B50D46002403F08FF9009004
:1022C000C06B294603F0B9FA0546684603F0F0F9F9
:1022D0001DB1284603F082F90446204638BD0000AF
:1022E0002DE9F047DFF89880D8F8001001F11005CB
:1022F00028880E7A234F4FF03009002801D1042E90
:1023000004D0AC88A04215D8042614E01E480178F9
:10231000012903D00726102038802BE01B4A00211A
:1023200012681B4B92B2921C43F81210A7F800904F
:1023300001701FE00226844200D90446A968A0B2B9
:1023400088478246002007F01DFA0146A2B2504697
:1023500010F018FDA1B200200FF092F92888001BA0
:102360002880688820446880A7F8009009494FF4C5
:1023700040500880D8F800000672BDE8F0870000E1
:10238000B4020020C4020020AC020020505C0040D7
:1023900000600040C20200202DE9F041214E346867
:1023A00010342088A168002915D0A0B1A5888542E5
:1023B00000D90546A8B2884707462088401B2080E0
:1023C000608828446080002007F0BCF90146AAB26A
:1023D00038460CF091FD2088134F302538B1134951
:1023E00028020880002108460FF04AF93D80208825
:1023F000A188884204D3316803200872BDE8F081C7
:1024000018B1316805200872F8E7316806200872B3
:10241000074800210068074A80B2801C42F810106B
:102420003D80EBE7B4020020C4020020C20200207D
:10243000505C0040006000402DE9F843634E306876
:1024400042780024624D062A296801D08AB117E03B
:102450000278520669D18078012804D0022804D07D
:10246000032804D061E0CC695FE00C6A5DE04C6A4F
:102470005BE0438823B9C388022B01D1037923B1E0
:10248000082A39D00A2A3CD04FE00278530601D1FD
:10249000838833B102F07F02012A04D0022A0CD0D3
:1024A00043E04C4C41E08A6940790021904710BBE1
:1024B0003068807AF8B1474C37E0417901F00F007D
:1024C00001F070020B06444907D501EB8001D1F8F9
:1024D000001CC1F30111090106E001EB8001D1F8F4
:1024E000001CC1F3013109033C4B1B7883421CD90A
:1024F0000AB901B1374C18E00078400615D1384CC4
:1025000013E0027802F07F02012A0ED1827A62B1D2
:10251000428852B9027942B9C288012A05D18A6932
:1025200040790021904700B92E4C09274FF0000850
:102530003CB13068A0F8128084610020A0470020E0
:1025400006E029683068096940788847032816D072
:1025500031680A8AA2F57F43FF3B0DD0022811D0D3
:1025600082B1087800062AD5C88800900098824277
:102570000CD9009808821AE00F72BDE8F883306821
:102580000772FAE74FF008000872F6E70FD22868E2
:10259000154B90F82C00824202D283F8008006E0AE
:1025A000B2FBF0F400FB142008B901201870286871
:1025B00090F82C008882BDE8F843FFF791BE032015
:1025C00008720A4900030880D7E70000B40200201F
:1025D000B8020020011A01080050004050040020F9
:1025E00091190108D9190108AC020020C20200208B
:1025F000704700002DE9FF41224D4021284602F09E
:10260000AFFB8021284602F0ABFB08240194002692
:102610008DF80A6001A800F0E7FB09208DF80C0096
:102620008DF80F6003A80AF06DFB10266E61164945
:10263000042008602020286114480460081F0460FA
:10264000012108200CF046FE4FF47F40ADF8000059
:102650008DF8036003278DF8027069460C4802F07C
:1026600023FB012110200CF035FEADF800408DF861
:1026700003608DF802706946284602F015FBBDE83C
:10268000FF810000001001401408014010140140B7
:10269000000C01402DE9FC470E465FEA00097FD09F
:1026A00004F05CFA484602F099FF009090F85470EC
:1026B000D0F85880456BC46C684602F0F9FFB8F159
:1026C000000F04D0314648464246904761E0122E42
:1026D00018D006DC082E43D0102E3CD0112E06D187
:1026E00012E0132E21D01D2E43D01E2E3DD0202EC1
:1026F0004FDB17B1484614F0F8FAB1B248461AF069
:1027000081FC60B3611C27E04DB3284602F066FFF0
:1027100005462146019005F06FFC4419204605F05E
:102720000BFC01462346012210E0C5B1284602F009
:1027300055FF05462146019005F05EFC44192046F0
:1027400005F0FAFB014623464FF0FF32484613F0EE
:1027500089FF01A81BE0611E484600F06BFA18E0F3
:10276000BCB1611E484600F065FA484614F0BDFA57
:102770000FE0484602F032FF0090012F12D00121F5
:1027800080F854102146484600F054FA684602F09A
:102790008FFF484611F0E0FC00E001E005F050FD3D
:1027A000BDE8FC87002180F85410EFE7FEB54468CF
:1027B0000546204612F0BAFB06462946204610F090
:1027C00065FB002834D028680E283DD004DC0B2897
:1027D0002FD00C284AD116E00F2825D0A0F5807004
:1027E000133843D1204611F07DFE204600211BF016
:1027F0009AFE204602F0F2FE0190C06F002111F017
:1028000049FE01A81DE0E86860B1017A29B10168BC
:10281000204600F0EAF8012100E00221204611F0F4
:102820007EFD23E00321F9E7012120461BF07BFE1A
:10283000FEBD204602F0D2FE0090343002F028FEA9
:10284000684602F035FF11E086B1E868416800296A
:102850000CDD0168092909D00A2907D00D2905D006
:102860001B2903D02046FFF715FFFEBD284610F0B8
:10287000EDFEFEBDF0B587B004460DF1080CD4E9BD
:102880000567B0F90850408AACE8E1000020CDE9C6
:102890000010B4F90C00B4F91060C118B4F90A00C2
:1028A000B4F90E50104433462A4600F009F80500EA
:1028B00002D0618A00F072F907B02846F0BD00002E
:1028C0002DE9FF5F1F46DDE91254DDE90E6A9046EF
:1028D0008946834604F042F90DF1040C4AF4805015
:1028E00058341E490096ACE813003B464246494620
:1028F000584610F0F1FD04002AD002F06FFE1022BD
:102900000090119910F0F4FC00981C2214496030DA
:10291000FDF788FC009A012082F85500681C00D061
:10292000012082F88000002D00DC08252DB21587DB
:102930000020508750636D1C684602F0B9FE29469E
:1029400020461AF098F918B9204610F0B7FE002476
:1029500005F076FC04B02046BDE8F09FAD270008E6
:10296000E80600202DE9FC4115460E00044627D05C
:10297000002C25D004F0F2F8204602F02FFE0027AC
:1029800001903770406BB0B102F028FE009006F065
:102990003DFC0146009805F02FFB0446681E84426A
:1029A00000DD0446224630460099FDF73BFC6846B0
:1029B00002F07EFE375501A802F07AFE05F040FCD9
:1029C000BDE8FC8138B505004FF000040BD004F0E1
:1029D000C5F8284602F002FE0090846C684602F0BA
:1029E00067FE05F02DFC204638BD2DE9F04186B08C
:1029F0000C46060055D004F0B1F8304602F0EEFD6A
:102A00000090406B98B302F0E9FD03900098806E4F
:102A100004F038FF8046304611F0D6F80746039898
:102A200003F09EFF0546009890F8601001F0030146
:102A3000012916D002290DD0416EC06A00680844F1
:102A4000241A641E039806F0E1FB0146002C0FDAFD
:102A5000002115E0781B401C00EBD070A4EB600453
:102A6000F0E7406E791B081A241A641CEAE713E0A9
:102A7000AC4205DC02462146039806F067FB01469E
:102A8000304600F0D7F803A802F012FE404604F0EA
:102A9000F9FE304611F060FB684602F009FE05F0D1
:102AA000CFFB06B0BDE8F08138B50C4605000FD06D
:102AB00004F054F8284602F091FD009018B18466A5
:102AC000284611F049FB684602F0F2FD05F0B8FB1C
:102AD00038BD2DE9FC4788465FEA00094FF0000544
:102AE0005AD004F03BF8484602F078FD0090B0F967
:102AF0003860446B684602F0DBFD0027B8F1000F38
:102B00003ED04CB1204602F069FD0190FDF7DAFBA2
:102B1000451C01A802F0CCFD404606F077FB0446B8
:102B2000B04200DD34462146404605F065FA461CB9
:102B3000711B48461AF0B6FB08B3484602F04EFD3A
:102B40000090406B02F04AFD324641460190FDF78D
:102B500069FB0198304400F8017C0098C464B0F926
:102B600038108C4205D190F85410012901D1641E0F
:102B7000C464684602F09CFD01A802F099FD06E0DD
:102B80000098343002F084FC00984787C7644846B8
:102B900011F0E2FA05F054FBBDE8FC8738B50C46AD
:102BA00005000FD003F0DAFF284602F017FD009071
:102BB00018B10466284611F0CFFA684602F078FD95
:102BC00005F03EFB38BD0000F8B51D4616460C4624
:102BD000074603F0C3FF2FB3384602F0FFFC009016
:102BE000AC4201D92C4602E0B44200D234460F492F
:102BF00081650F49C1650021C0E91241C0E90F6537
:102C0000012180F85410B0F938100A2901DD0A2199
:102C10000187684602F04CFD38461EF019FE384622
:102C200011F09AFA05F00CFBF8BD0000C15801083C
:102C3000511802081CB50C4602F0D0FC0090406B05
:102C4000F0B102F0CBFC019006F0E0FA009991F8A7
:102C5000542002B10122002C00DA0024844200DD5D
:102C60000446B1F93800801AA04200DA0446C86C64
:102C7000A04200D0CC640020086501A802F018FD35
:102C8000684602F015FD1CBD01221EF061BB08B5AF
:102C900068460AF01FFA09F0B1FF68460AF03AFAEE
:102CA00008BD08B568460AF015FA09F0D7FF68466E
:102CB0000AF030FA08BD000038B5012108200CF0F8
:102CC00009FB4FF48070ADF8000010208DF8030070
:102CD00003208DF80200064C6946204601F0E4FF0F
:102CE0006115ADF800106946204601F0DDFF38BDE2
:102CF000000C014010B5FFF7DFFF114C4FF40071DD
:102D0000204602F02BF8A115204602F027F80D4CC2
:102D1000002240F2255120460FF091FE002240F2A1
:102D2000244120460FF08BFE002120460FF054FE78
:102D3000BDE8104000214FF480200CF0BDBA000027
:102D4000000C01400048004070B5FDF711FA134A2D
:102D50001178491C1170FDF70FFA082000F034F8C3
:102D6000C0B10F490822087810B101280AD00EE03E
:102D70000C4B102058610C4C226001250D70226014
:102D8000186104E00848001D026002200870082055
:102D900000F00CF8BDE870400AF000B93C000020DB
:102DA0008B0100200010014010140140014908600F
:102DB000704700001404014002490A6802430A6097
:102DC000704700001004014001460020054A1268C7
:102DD0000A40044B14331B680B4202D0002A00D077
:102DE000012070470004014030B51B4A8379016817
:102DF000002B2AD013688B431360111D0B680468E5
:102E0000A3430B60017911440B68046823430B60F2
:102E1000114C08342168036899432160231D196807
:102E20000568A94319604179102905D011440A6841
:102E3000006802430A6030BD2168026811432160C6
:102E4000196800680143196030BD007910440268B8
:102E50008A43026030BD0000000401402DE9F843C0
:102E600010258DF8035003268DF8026001212020E3
:102E70000CF030FA0824ADF800406946234801F010
:102E800013FF012110200CF025FAADF80050204F5F
:102E90006946384601F008FF012104200CF01AFAB7
:102EA0000425ADF80050DFF86C806946404601F01B
:102EB000FBFE012104200CF00DFAADF8004069463C
:102EC000404601F0F1FE012110200CF003FA202110
:102ED000ADF800106946384601F0E6FE01210820F1
:102EE0000CF0F8F94FF47F40ADF800008DF8035076
:102EF0008DF802606946084801F0D6FE0548143096
:102F00000460024810300460BDE8F88300140140FA
:102F10000010014000080140000C01402DE9F04381
:102F200089B0984615460F4606004FF000042DD094
:102F300000F0DCFB0446304600F09FFB814603F0C6
:102F40000DFE03A9304600F064FDF80706D0BDF978
:102F50001C00001B401B401C822109E0B807002810
:102F6000BDF91800284402DA40F2022100E00221F3
:102F70000096CDE9018123461A464946FEF74CF9F1
:102F800004460021FEF7EEFA05F05AF909B0204692
:102F9000BDE8F08310B50523FFF7C0FF0446054ADE
:102FA0000021FEF704FB0449204611F0ECFA20460C
:102FB00010BD000081710108FD2402082DE9F047D1
:102FC000456804468EB00026284602F007FB0090B4
:102FD0005C30B0F820A0D0F80C90D0F82480C76AFC
:102FE000006800B10668684602F062FB05E0796897
:102FF0002046884700283DD13F68002FF7D1206840
:10300000142844D009DCA0F10B00072839D2DFE8EE
:1030100000F0BE3989B434B4110020287ED004DC1D
:1030200017283ED01E282CD14BE026283CD02A2839
:1030300027D110E02846E66802F0D0FA0190717AB4
:1030400039B9317A012904D130F87C1F41F48071FB
:10305000018001A88FE0284602F0C0FA0090E168E4
:1030600011B1C0F8841002E0D0F88400E060684636
:1030700002F01EFB0EB0BDE8F087002E7DD0284682
:10308000B0477AE0214628461BF032F8F2E705A95E
:10309000284600F0BEFCE06806990160079941608F
:1030A000E8E7C4F80C90E5E7E0680228E2D10C9567
:1030B000E0680D9027200A900AA9A06812F050F944
:1030C000D8E7E068012804D00021284600F086FBFC
:1030D000D0E7404611F09BF858B1404611F018FB7C
:1030E000404610F065FF88B1012140460FF05DFFBA
:1030F0000CE0484611F060FB8046284602F06EFA6C
:103100000090C0F88080684602F0D2FA012128467B
:1031100000F064FBB8F1000FACD100E00EE000203D
:10312000E060A7E75FEA0A7027D4E068C06820B3D0
:10313000007A10B3284611F0EBFA1EE0E668E6B11B
:103140002946706811F0DBFE20B1012128461DF0F0
:10315000A3FA12E0002128461DF09EFA29463068A5
:1031600011F0BCFE48B1284602F038FA03903168ED
:10317000C0F8801003A802F09BFA214628460FF001
:1031800085FE00288CD0204610F060FA72E72846B1
:1031900002F024FA0090703002F07AF96846EAE70B
:1031A000F0B587B0B0F908400DF10C0C0C9E8769A2
:1031B0004568ACE8F000448A0025CDE9001502948A
:1031C000B0F90C10B0F91050B0F90E40B0F90A0087
:1031D000194410442B46224600F002F807B0F0BD17
:1031E0002DE9F04F8BB09846DDE9155691468A4699
:1031F0008346149F1A9C03F0B1FC6034314845F4B7
:103200008055CDE90204CDE9007543464A46514652
:10321000584610F061F904004DD002F0DFF9302279
:103220000490179910F064F8049828222649343045
:10323000FCF7F8FF049819995C30234F81600684ED
:10324000002646620661083FC6627968016004A8EC
:1032500002F02EFA05A9204600F0DBFB1B4841F2E4
:10326000827103960094CDE90110BDF91E00BDF9ED
:103270001A10BDF91C20431ABDF918005B1C121A64
:10328000521C10F029F906467868416820468847A4
:10329000204602F0A3F90490866604A802F008FA1A
:1032A00042F20400054202D1204610F06FFA204697
:1032B000189900F018FB04F0C3FF0BB02046BDE8DE
:1032C000F08F0000BD2F00080C070020213D0008F2
:1032D0002DE9F041044694B0006800F0B7F908B158
:1032E000D94D01E0D84D2C35606815281ED00CDC76
:1032F0000B281FD004DC00287ED005287DD12EE1CC
:103300000E287BD01228F9D141E1162806D01728C3
:1033100008D0182808D01C28F0D109E0E86914B0BA
:10332000BDE8F081286AFAE7686AF8E7A86AF6E774
:103330006869F4E720680B901C200C90206802F06C
:103340004DF90390016D0BA88847064603A802F0CB
:10335000AFF9022E0EDB95E807008DE80700D4E9EF
:1033600004023346A16905F0E9FC20698719A069C8
:10337000801B2BE0286804F05CFA2169E8690A18D0
:10338000521E606903F020F8A269E869111A491C0D
:10339000606903F019F8676920697F1C394603F0FA
:1033A00063F83946A06903F05FF8686804F041FAF1
:1033B00020693946401C03F057F8A0693946401E81
:1033C00003F052F82769A069BF1C801E8046286858
:1033D00004F02FFA42463946606902F0F5FF68684A
:1033E00004F027FA60694246401C394602F0ECFFBF
:1033F000686A02280FDD02E015E1AFE000E1A8688D
:1034000004F017FA61696A6A881C8B1801465B1E12
:103410004246384627E0296AB14226DD6069022E1D
:10342000074600F1020801DB374401E007F102071B
:10343000206901DB304401E000F1020022693B46D3
:103440000A44A2F10102414603F04AF9022E02DBCE
:10345000A069821B01E0A269921EA069E9693B464E
:10346000401A401C414603F03BF9022E02DB606922
:10347000064401E06669B61CE76928687F1E04F00F
:10348000D8F93A463146206903F074F83A46314695
:10349000A06903F06FF8E7696868BF1E04F0C9F916
:1034A00020693A46401C314603F064F8A0693A4668
:1034B000401E314603F05EF8E869022802DC286A03
:1034C000022823DDA86A022802DDE1690F1A01E063
:1034D000E769BF1EA86804F0ACF9E969022909DDB3
:1034E00020693B46421800F1020C521E31466046EC
:1034F00003F0F6F8286A022808DDA269E8693B466D
:10350000101A401C921E314603F0EAF8286804F0B5
:1035100090F9D4E90620216902F056FF686804F0AA
:1035200088F9A2692169E069521E491C401E02F017
:103530004BFFA86A022811DD2669A169E469B61C5F
:10354000271AA1F102087F1CA41EA86804F071F9D3
:10355000234642463946304603F0C2F872E0208ADC
:1035600006B2ADF81460A08A01B2ADF81610208B37
:1035700002B2ADF81820A08B03B2ADF81A30D5E92D
:103580000304CDE90004304602F0E2FE5AE0208A4E
:10359000298B0844ADF81400A08AADF81600208BE2
:1035A000298B401AADF81800A08BADF81A002068DE
:1035B00002F014F80390006FF0B1022004F0ECF96F
:1035C000039991F87C00C0F3C00001EB8000006C0F
:1035D00004F02FF90398406B04F054F90398006F3E
:1035E00001F0FCFF03990A90B1F95A2005A902F0F5
:1035F000FDFC0AA802F05CF803A802F059F821E0EB
:10360000208AADF81400A08AADF81600208BADF822
:103610001800A08BADF81A00A86804F00AF905A8F4
:1036200003F08AF80EE0206801F0D8FF039030F82C
:103630005A1F41F00C01018003A802F039F82068FC
:1036400011F0ECF800206AE64807002038B50500C4
:103650004FF000040FD003F081FA284601F0BEFFBE
:10366000009090F87C00000700D50124684602F025
:103670001FF804F0E5FD204638BD38B505004FF0D1
:10368000000411D003F06AFA284601F0A7FF009069
:10369000C06D00218068026828469047044668464D
:1036A00002F006F804F0CCFD204638BDF8B50E4611
:1036B00005004FF0000411D003F050FA284601F045
:1036C0008DFF0090C06D31468068026828469047A3
:1036D0000446684601F0ECFF04F0B2FD2046F8BD58
:1036E00001480068704700000C07002030B587B023
:1036F00005004FF0000413D003F030FA01A928466A
:1037000000F087F9284601F069FF0090B0F95440B5
:10371000684601F0CDFF0CB9BDF9044004F090FDFE
:1037200007B0204630BD30B504468BB0006801F0CC
:1037300055FF009090F87C10246A006FC1F3C0051B
:1037400008B101F04BFF0690E068029020690390F9
:10375000A088401EADF81000E089ADF81200208965
:10376000401CADF81400608AADF81600BDF80800E2
:10377000401CADF80800BDF80A00401CADF80A0076
:10378000BDF80C00401EADF80C000098406B04F032
:1037900079F8009808AA02A9B0F95A30069804F0FE
:1037A00011FF009800EB8500806B07F0F5FB009897
:1037B00000EB8500006C07F027FC08AB02AA04A907
:1037C00006980FF0BBFC684601F072FF069810B136
:1037D00006A801F06DFF0BB0002030BD70B50D469E
:1037E000040009D003F0BAF9294620461CF054FF22
:1037F000BDE8704004F024BD70BD38B50C4605002E
:1038000011D003F0ABF9284601F0E8FE0090816C7E
:10381000A14203D08464806E10F09EFC684601F0E3
:1038200047FF04F00DFD38BD074A0649054B1160FE
:10383000064A083BD16958601B68C2E90630084651
:10384000704700003C070020080700200C070020FC
:103850002DE9FC410D46804603F080F95FEA08003F
:1038600028D001F0BBFE0190C16D8C6800F038F9E2
:1038700007460198456301A801F01AFF226801215B
:103880004046904706462268032140469047054639
:1038900022680021404690470446404600F009FA5D
:1038A0002B46324639464046009400F091F9404696
:1038B00010F052FC04F0C4FCBDE8FC8138B50C46A5
:1038C000054603F04BF955B1284601F087FE0090FC
:1038D0000466684601F0ECFE284610F03DFCBDE8A9
:1038E000384004F0ADBC7CB50D4604001DD003F09B
:1038F00035F9204601F072FE0090006F0190684695
:1039000001F0D6FE294601A805F000FE58B1204678
:1039100001F064FE009001990167684601F0C8FE5D
:10392000204610F019FC04F08BFC7CBD38B50C4629
:10393000050013D003F012F9284601F04FFE009065
:10394000B0F95A10A14204D0A0F85A40284610F00D
:1039500003FC684601F0ACFE04F072FC38BD0000C8
:1039600038B50C46050015D003F0F8F8284601F0EC
:1039700035FE0022CDF8000000EB8201521C0C64E1
:10398000022AF9D3684601F093FE284610F0E4FBC2
:1039900004F056FC38BD2DE9FC470D465FEA0009EE
:1039A0004FF0000432D003F0D9F8484601F016FE7B
:1039B0000190B0F95440A54223D000F091F8804620
:1039C00001980121A0F85450C06D856848462A68C6
:1039D000904707462A6803214846904706462A68CA
:1039E0000021484690470546484600F062F93346B4
:1039F0003A4641464846009500F0EAF8484610F03D
:103A0000ABFB01A801F054FE04F01AFC2046BDE80F
:103A1000FC872DE9F34F85B000270C46B846059882
:103A200001F0DCFD0090C06D0121856805982A68D1
:103A3000904782462A6803210598904704902A6897
:103A400002210598904703902A6800210598904725
:103A50000646009811F0F0F88346009811F0F3F84C
:103A60008146009890F83210890601D5B0F9588047
:103A700000F036F805460098C06E10B110F0BBF8A3
:103A8000074625806780A4F804A0049AABEB0200E7
:103A900006EB0802401E2A4420813A44E280039B40
:103AA000A9EB0302521E6281A4F80CA020827019B7
:103AB000E681401E6082684601F0FAFDB4F90C0010
:103AC0000190B4F91000029002AA01A9059800F033
:103AD00039F80198A0810298208207B0BDE8F08FE4
:103AE00010B50146002091F83220920607D5B1F9B1
:103AF0005400002803D1486B02F0A0FF801C10BDC9
:103B000070B58AB00C46054601F068FD0990C06D9D
:103B1000866809A801F0CCFD009534B1012C06D0CF
:103B2000022C0BD0032C04D10AE0182000E0162050
:103B300001907168684688470AB070BD1520F7E7A4
:103B40001720F5E72DE9FC4790468946044601F029
:103B500045FD0090C16D056868468E6801F0A8FDBE
:103B60003268002120469047064620460FF0E1FECD
:103B70002F1404462DB227E001F030FD0190B0F97A
:103B80000010B0F90420B0F90230491B521BDB1BB6
:103B9000B34212D190F82800000607D5D8F80000EB
:103BA00088420ADB491EC8F8001006E0D9F8000078
:103BB000904202DC521CC9F8002001A801F078FDF7
:103BC00020460FF05BFF0446002CD5D1BDE8FC87F2
:103BD0002DE9FF4F83B00E460746DDF8409001F017
:103BE000FDFC0190C16D8D68FFF77AFF044601A8C6
:103BF00001F05EFD2A6801213846904783462A6815
:103C000003213846904782462A680021384690476B
:103C10000546B44207D105998B4504D106998A45DA
:103C200001D14D4542D0A41B0026B04638460FF0C6
:103C300080FE39E001F0D2FC0090806A010602D5D6
:103C40004FEA805002E0810528D50006002825DBD8
:103C500024B122461146384610F0A1FB009890F896
:103C6000280000060AD50698A5EB0902A0EB0A0079
:103C700004FB1601761C384610F042FB0098008DBC
:103C800080050BD50599A5EB0902ABEB010004FB00
:103C9000080108F10108384610F032FB684601F0CF
:103CA00007FD38460FF0EAFE0700C3D107B0BDE8B4
:103CB000F08F70B586B0064601F090FC0590D0E913
:103CC0001A4505A801F0F4FC54EA050026D069461F
:103CD0003046FFF79EFEACB1BDF90620BDF90410D9
:103CE000204610F0D1FABDF90A00BDF90610421ABB
:103CF000BDF90800BDF90410521C411A491C2046A8
:103D000010F0E1FD002D09D0BDF90600BDF902104B
:103D1000421ABDF90410284610F0B6FA06B070BD7C
:103D20002DE9F0430446406885B006460FF0B3FE27
:103D3000814601F053FC0090D0F88080876C456E7E
:103D4000684601F0B5FC2068172859D008DC0E2819
:103D500037D00F280BD0142852D015283AD14FE075
:103D60001E2818D01F2827D0222833D146E06FF014
:103D70007040874204D0384607F00EF901F088FE03
:103D8000002D12D0D4E902122068CDE90106CDE958
:103D9000031201A822E0E068002806D05FEA0800CC
:103DA00006D0B04504D010F0B3FC05B0BDE8F083F8
:103DB000304610F001FD16E0214648460FF066F847
:103DC000F3E7E0684168002904DD00680928EFD0C6
:103DD0000A2805D0A5B12046C4F80490A847E4E716
:103DE000304610F0F8FC0446484601F0F7FB00901E
:103DF000C0F88040684601F05BFCD6E7E760D4E796
:103E000020460FF023FCD0E78000A0F1C04000293D
:103E100004D0016841F00101016070470168024A65
:103E20001140016070470000FEFF0F0010B5D0E99F
:103E300001121143D0E903231A431143426911438C
:103E400082691143C2691143026A1143426A1143F4
:103E5000826A1143C26A1143026B114302689200E5
:103E6000A2F1C04211608168082907D10168890068
:103E7000A1F1C0410A6842F040020A60416BD1E9F9
:103E8000002342EA03128B688C891B0243EA044335
:103E90001A430B8A42EA03520B7D896942EA0362A4
:103EA0000A430168491C8900A1F1C0410A60C16A46
:103EB000B1F5804F08D000686FF070418000A0F12C
:103EC000C040C0F8041110BD816BD1E9002342EA63
:103ED00003128B680C8A1B0243EA04531A430B7DBE
:103EE000896942EA036200680A438000A0F1C04089
:103EF000C0F8042110BD00007CB51FA01EF006FA1A
:103F00000FF0F0FC0346002000900190224A0E21A1
:103F1000224801F009FE064630460FF0D8FC002387
:103F2000FA2219460FF0AAFA0A2001F079FF1C4C78
:103F3000207818B11B480BF079FA2070207828B14E
:103F4000012219A11AA003F07BFA06E04FF4B87120
:103F500030460FF0DDFC0FF02BFC1B4C1B4D07E037
:103F6000207810B130460FF0A9FB0A2001F058FF6D
:103F700028780028F4D17CBD3C3C2D4F532D494E70
:103F8000464F2D3E3E20436C6F636B617070206323
:103F900072656174650A0A00ED2B0208D4110408E9
:103FA00094000020B44000206572726F720000001F
:103FB0000D0A2052544320576F726B20446F776E66
:103FC000212121200D0A000029000020AF0100203E
:103FD0007CB50FA01EF09AF90FF084FC0346002078
:103FE00000900190124A0421124801F09DFD0646FE
:103FF000114C124D07E0217811B130460FF05EFBF5
:104000000A2001F00DFF29780029F4D17CBD0000C1
:104010003C3C2D4F532D494E464F2D3E3E20436193
:104020006C656E646172206372656174650A0A0072
:10403000112502084815040829000020B0010020BD
:104040002DE9F04F8DB00024FEF754FE7CA01EF049
:104050005DF90FF047FCA24682490226CDE9021A1B
:10406000CDE900064FF4A073F022514650460FF000
:1040700033FA0C90642001F0D3FE0AF005FF4FF4F0
:104080007A7507E00AF008FF30B9284620F094FB63
:10409000641CE4B20A2CF5D30A2C5AD006F018FBA3
:1040A00007F0B6FA70A01EF031F97248012270A133
:1040B000006821F033F9704C207070A01EF026F9D2
:1040C000207810B16FA01EF021F90EF09FFEDFF8EE
:1040D000D4B18BF800A0022006F0B5F80A2020F039
:1040E0006BFBDFF8C49199F813000AF0DAFD99F838
:1040F0000F000AF047FD99F910000AF027FD99F921
:1041000011000AF0F5FC99F912000AF02FFD99F858
:1041100013000AF0C6FD99F800000090B9F80830C5
:10412000B9F80620B9F80410B9F802000AF01DFE2B
:1041300099F80E0006F087F85C4C0127202504F161
:1041400004085BA01EF0E2F89BF80000022815D0DE
:1041500034E00C9810F000F8022256A157A008F0A5
:10416000B3F902F08BFA5E4C0C980FF0A7FA2078A6
:10417000002861D00A2001F053FEF5E759A01EF097
:10418000C5F80BA808F0A6FF57480421016057485E
:1041900045610561544A121F116045610561B9F816
:1041A0000830B9F80620B9F80C10B9F80A0006F082
:1041B00011FA0BA808F0AEFF8BF800A04A480121C5
:1041C000143806F0B1FA012824D149480178491C75
:1041D000CAB2027047A101A81EF0A8F827602660A5
:1041E000C8F8005047A01EF091F899F80E0006F0AC
:1041F0002AF801A8002100904FF4A073F02208468D
:104200000DF0CCF880B146A01EF080F8C8F8007020
:10421000266025604648007810B10C980FF04EFAE1
:10422000012001F0FDFD8CE742A01EF06FF8276031
:10423000C8F800602560EDE70DB0BDE8F08F000024
:104240003C3C2D4F532D494E464F2D3E3E20436161
:104250006D657261617070206372656174650A0AD0
:104260000000000085480208302D300A00000000E0
:10427000303A0000980000202B000020302D310A39
:10428000000000000D0A53442D434152442046498A
:104290004C452053595354454D204552524F5221BD
:1042A0000D0A00008B010020DC000020100C0140F2
:1042B000310000006572726F720000000D0A205418
:1042C00068652043616D657261206472697665205E
:1042D00063616E6E6F7420776F726B21200D0A0020
:1042E000B10100203200000014080140001001401C
:1042F0005C020020303A70686F746F5F25642E6234
:104300006D7000000D0A436170747572696E6720EC
:1043100074686520706963747572652E2E2E0000B6
:104320000D0A2073617665206661696C6564210001
:10433000290000200D0A536176652073756363655B
:10434000737366756C6C7921000000007CB50FA05A
:104350001DF0DCFF0FF0C6FA03460020009001902C
:10436000144A0321144801F0DFFB0646134C144D98
:1043700007E0217811B130460FF0A0F90A2001F0D2
:104380004FFD29780029F4D17CBD00003C3C2D4F25
:10439000532D494E464F2D3E3E2043616C63756C54
:1043A00061746F72617070206372656174650A0A6E
:1043B0000000000045260208D81404082900002047
:1043C000B20100207CB50FA01DF0A0FF0FF08AFA0B
:1043D0000346002000900190124A0121124801F08A
:1043E000A3FB0646114C124D07E0217811B130466F
:1043F0000FF064F90A2001F013FD29780029F4D1A7
:104400007CBD00003C3C2D4F532D494E464F2D3E68
:104410003E20534E414B45206372656174650A0A24
:1044200000000000453202082C1504082900002075
:10443000B30100202DE9FC470E4600240027009719
:104440000197584D4FF0080AC5F800A01020686089
:104450004FF04008C5F80880EF604FF48069C5F858
:10446000109028460CF07EF81020FDF7BDFC0028C7
:1044700032D14D4800890004286037206860C5F8B3
:104480000880EF60C5F8109028460CF06BF83720D4
:10449000FDF7AAFC00281FD1411E05F114000160A0
:1044A000C0F804A0302181600221C16007610121B0
:1044B00041610BF0E3FF2F6033206860C5F808808E
:1044C000EF60C5F8109028460CF04CF83320FDF74B
:1044D0008BFC0546280001D0BDE8FC874FF4001A8C
:1044E0006F46DFF8C88040F22A690AE050460BF0B8
:1044F000F3FF30B10CF030F847F82400641C012CB5
:1045000004D8D8F8340010EA090FEFD008200BF0D7
:10451000E3FF20B108200BF09FFF0420DCE702201E
:104520000BF0DAFF20B102200BF096FF0220D3E758
:1045300020200BF0D1FF20B120200BF08DFF0620B2
:10454000CAE74FF4007420460BF0C6FF20B12046A6
:104550000BF082FF0720BFE740F2FF500BF07CFF1B
:1045600000980099000601F47F4140EA012000997B
:1045700001F47F0140EA1120009940EA1160706067
:1045800001980199000601F47F4140EA0120019958
:1045900001F47F0140EA1120019940EA1160306086
:1045A000284699E79057002098010020008001409C
:1045B0002DE9F0430446C56887B09046894600203F
:1045C00003F053F9064625B1287910B146F00200F0
:1045D00001E026F0020003F048F92069012558B1F6
:1045E000D4E902128DE826000395638822880468C6
:1045F00041464846A0471EE0124F134B21463868FB
:104600001B68427CE068984730B9E088012801D0F7
:10461000002001E03868806BA288E388A1680095DB
:10462000CDE90410CDE90232019563882288414624
:10463000484606F0B3F807B03046BDE8F04303F053
:1046400014B900006C040020640400201CB5002490
:10465000019401AC009400F0E7F81CBD2DE9FF4F78
:1046600083B0814606988A46A0EB0A08109E002077
:104670000090A2EB09043568934654EA080018D06C
:104680002046FCF7B5FB07464046FCF7B1FB8742E6
:104690000BDA2046444680464846D1468246584674
:1046A000DDF818B0069001200090002C07DD2046B0
:1046B00006E007B04846BDE8F04F00F03BB9604265
:1046C000A0420AD04846D9466442C8F10008834651
:1046D0004FF0FF37DDF818A000E001275148B8F18E
:1046E000000F11D004EBD4714FEA610B01DACBF16A
:1046F000000B4C480068807E88B3002F02DA3068D7
:104700002044306000257BE000990029016821D019
:10471000897E11B10027804615E007B05A46494608
:104720005046BDE8F04F06F09DB928466D1C1CF0C0
:1047300077F938B9D8F8000009EB0701C06E426874
:10474000504690477F1CA742EFDD6D1E356007B0D5
:10475000BDE8F08F8A7E1AB10027804617E019E085
:10476000C86E5A465146036807B04846BDE8F04F48
:10477000184728466D1C1CF053F938B9D8F80010BA
:1047800009EB0700C96E4A68514690477F1CA74253
:10479000EFDDDAE700250FE008FB05B090FBF4F150
:1047A00001EB0A00009951B11E4A09EB050112689C
:1047B000D26E526890476D1CA542EDDDC7E71949DE
:1047C00009EB05030968C96E4A6801461846F1E716
:1047D00008FB05B090FBF4F101EB0A000190306892
:1047E000384430601CF01CF948B9009890B10D486D
:1047F00009EB05010068C06E4268019890476D1C86
:10480000A542E5DD3068002F01DA20443060C01B8E
:1048100030609CE7034909EB05000968C96E4A68E6
:104820000199EBE76C0400202DE9FF470F46404952
:104830001646804609680C981D460A7E012A1CD03F
:10484000A8EB0600791B50EA01031CD0A2F1010974
:104850001DF09CFD00F58060824604F045FF00FBE2
:1048600009F4504604F044FF00FB09F1002C0CDA77
:10487000C4F50070801240420AE00090324639468A
:104880004046FFF7EBFEBDE8FF8704F50074A01279
:10489000002904DAC1F5007189124C4202E001F5E9
:1048A00000718C12002804DD411C01EBD17149100C
:1048B00003E000EBD0714910401E00EBD0704210B5
:1048C000002C04DD601C00EBD070401003E004EB12
:1048D000D4704010641E04EBD47308EB0104ADF8EF
:1048E00000403C18ADF80240A8EB02045B10B21A7D
:1048F000ADF80440ADF808203144FC1AEA1AADF8CE
:104900000C102844ADF80A20ADF80E000023ADF8D5
:1049100006401A460421684600F07AF839464046B7
:1049200015F08AFA2946304615F086FAABE7000002
:104930006C040020064A13681A7E012A05D0521E14
:1049400002EBD272521000F005B8DA6E52681047CE
:104950006C0400202DE9F05F0646884640F2C32033
:1049600050434FF47A7190FBF1F702FB02F002EB37
:10497000D27100EB610B254914467F1C0968324453
:10498000301BC96E0B684146984701253AE000BFCD
:1049900005FB05F004FB040159451CDDBC4219DD93
:1049A0001A4B06EB050AA6EB05091B68AAF10102E2
:1049B00008EB0401DB6E09F101001B689847134BFB
:1049C000AAF10102A8EB04011B6809F10100DB6EEA
:1049D0001B689847641E0D4806EB040AA6EB040901
:1049E000006808EB05015246C06E036848469847C8
:1049F0000648A8EB050152460068C06E03684846A9
:104A000098476D1CBD42C3DDBDE8F09F6C040020DB
:104A10002DE9FF4F40F6FF740F46664283B09B4678
:104A2000814600210BE000BF09EB8100B0F90200D4
:104A3000A04200DA0446B04200DD0646491CB942F5
:104A4000F2DB68480068406900280DD0B0F9061014
:104A50001A46A1EB0B01B14200DA0E46B0F9020092
:104A6000801AA04200DD0446B5E0DFF87CA10020FA
:104A70000546CAF8000089E0781E854201DA6B1C01
:104A800000E0002309EB850C09EB8302BCF902006E
:104A9000B2F90210A04245D1A14215D139F9233013
:104AA000059A39F9251003EB020C4E4A0598126855
:104AB000084404EB0B01D26E6045136801DA6246CC
:104AC0002BE00246604628E02846A4464FF0000846
:104AD0007A1E0BE008B1401E00E0781E09EB80034F
:104AE000B3F90230634504D108F101089045F1DBC8
:104AF0002346A34249D0A3EB040239F92500A1EBD8
:104B0000040C059B92EA0C0209D4364A184404EBC3
:104B10000B011268D26E13680246984735E010F018
:104B200077FE32E0A14230D001DBA04203DDA0429B
:104B30002BDBA14229DCE04688420ADC0346A04286
:104B400023DC0846A14220DBB8F900C0B2F900100E
:104B500008E00B46A14218DCA04216DBB2F900C007
:104B6000B8F90010E21AA1EB0C0151430029A0EBA7
:104B7000030202DD01EB620102E0A1EB6201491CCC
:104B8000C01A91FBF0F06044C9E76D1CBD42FFF60E
:104B900073AF0598009004EB0B0001900020804655
:104BA000054613E01149B8F1000F31F915A009D0FD
:104BB000009901EB0A0208440A490968C96E0B68AA
:104BC0000199984788F0010850466D1C064909680C
:104BD0008D42E7DB641CB4427FF747AF07B0BDE806
:104BE000F08F00006C040020B00C00205CEC002072
:104BF00010B5002002F006FE6FF07F4002F019FEB3
:104C0000012002F0ABFE002002F0B6FE002002F010
:104C1000C3FE002002F029FE0448006802F032FEC4
:104C2000BDE81040002002F06BBE000068040020C8
:104C300008B5012130200AF04DFB4FF4F850ADF8D3
:104C4000000003208DF8020018208DF8030069464B
:104C5000094800F029F80420ADF80000694607482B
:104C600000F022F8012188020AF018FB012102203D
:104C70000AF014FB08BD00000010014000140140C0
:104C800010B58A07120F0F23934021F00304054942
:104C900021448C689C438C608B68904003438B60FC
:104CA00010BD0000000001402DE9F0410022CC7849
:104CB00004F00F03E40601D58C7823430C784FF001
:104CC0000F0714F0FF0F4FF0010C1CD005680CFA11
:104CD00002F40E882640A64211D1960007FA06F883
:104CE00025EA080503FA06F848EA0505CE78282ED5
:104CF00002D0482E02D002E0446100E00461521C60
:104D0000082AE4D305600A88FF2A1ED945680022D4
:104D100002F108060CFA06F40E882640A64210D1CD
:104D2000960007FA06F825EA080503FA06F848EAA5
:104D30000505CE78282E00D14461CE78482E00D1CA
:104D40000461521C082AE3D34560BDE8F0810246A5
:104D5000002092680A4200D00120704741617047EC
:104D60000161704770B50C46054600F0F1F8A8687F
:104D70002168C16261680163A1684163490707D581
:104D8000D0E90021C0E90012D0E90221C0E90212F5
:104D9000A18981842169002903D001DC4FF0000141
:104DA000016270BD2DE9F0411E4617468846054652
:104DB00000F0CEF8AC686822414604F58470FBF739
:104DC00031FA2846B8472846B047286980688047A6
:104DD000A062BDE8F081000010B5044600F0B8F80C
:104DE000A0680E494C30114AC1650D4981650D49D5
:104DF00001660D4981660021C166136843660C4B4C
:104E0000C0E91E315168416730F8261C21F00301CA
:104E100020F8261C0749416410BD00002D0B020834
:104E2000C90F0208F50A0208DD0202080C0500207D
:104E300041040208F109020810B5044600F088F8A0
:104E4000A4680C489034102120650B4860650B481D
:104E5000A0650B48E0650B48E0600B482061206BC3
:104E6000A06654F89029204690471020A063074878
:104E7000606410BDA189010825AC0108914E0008AD
:104E8000C14F000897020208E11A020878B7040827
:104E9000F8B5846815460F4694F8260080074CD56F
:104EA000D4F8FC30204698470646D4F800312A460C
:104EB000394620469847D4F8943005461BB1002265
:104EC0000121204698472069B04201DD012000E021
:104ED0000020A169B14201DA012100E0002108436C
:104EE0006169A94201DD012100E000210843E16977
:104EF000A94201DA012100E0002108430AD06068DC
:104F0000401E00902368D4F8A4705B1E0022114656
:104F10002046B847D4F8A8302A463146204698475C
:104F2000D4F89C1020468847D4F8943005466BB1DD
:104F3000012200212046984708E0D4F8A8302046F6
:104F40009847D4F89C102046884705462846F8BD67
:104F500070B504468068002812D14FF4B875284611
:104F600000F0B2FA2A460021A06004F041FBA068DC
:104F70000221C1840121046401620249C0F80411C4
:104F800070BD0000894F000810B590B00446202283
:104F90000A496846FBF746F908492022203108A84B
:104FA000FBF740F9606B5DF82010C4F8FC1008A90D
:104FB00051F82000C4F8000110B010BDD41A040844
:104FC0002DE9F84384689846154694F826000F4664
:104FD000800740D5D4F8FC30204698470646D4F8E0
:104FE00000312A4639462046984705462069B04296
:104FF00001DD012000E00020A169B14201DA0121B8
:1050000000E0002108436169A94201DD012100E0BF
:1050100000210843E169A94201DA012100E00021F1
:1050200008430AD06068401E00902368D4F8A4703A
:105030005B1E002211462046B847D4F8A8302A4605
:10504000314620469847D4F8A02001B0414620467A
:10505000BDE8F0431047D4F8A830F2E72DE9F04F4F
:10506000DFF828B191B04FF0FF35DBF80030B3F92D
:1050700022100691DE69B3F924A0F469A189814266
:1050800006D8E289824203D3471AD4F8008012E09E
:10509000D4E90181002970D00A8882426DD84D88F8
:1050A00085426AD3801A82B2486800EB8200B0F968
:1050B0000070B0F90250781C5FD0307EA27C0146AF
:1050C00000FB02F9207CCDE90810B3F92A603046D4
:1050D00005F0ACFFC0B20E90DBF8001007FB0980B2
:1050E000A37C8A6B0127CDE90402CDE90273C8696C
:1050F000DDE90832C17E807ECDE900015146069887
:1051000005F04CFB681C18D046F0020005F08EFF3D
:10511000DBF80000A37C05FB0981826BCDE90273FB
:10512000CDE90412C069DDE90832C17E807ECDE997
:1051300000015146069805F031FBDBF800005D46A2
:10514000C069417E007E814214D9022E12D086F0C1
:10515000040005F06BFF2868C069027EC37E857E6F
:1051600002FB03A1437E099A0698534402FB050201
:1051700005F0A2FC0E9805F059FFDBF80000627CF8
:10518000418C1144418411B0BDE8F08F6C040020C3
:1051900004480068C069C06909B1027C0A60407CAB
:1051A000704700006C040020022008807047C0692E
:1051B00082898A4202D8C2898A4210D2806880B12C
:1051C00002888A420DD843888B420AD3406800EB9C
:1051D0008100A0EB8200B0F90000002801DB012073
:1051E00070470020704700002DE9F0432F4C034624
:1051F00087B020681946B0F92A80C069C06900F0FC
:1052000082F800284ED041680088181A01EBC005CA
:105210004046AE7805F00AFF814620686A6801239F
:10522000816BCDE90236CDE90421C169CB7E8A7E4E
:10523000CDE900230B7EB0F924102A78B0F92200C2
:1052400005F0ACFA2068C069477E067EB7421DD9DA
:10525000C07E47434643B8F1020F17D001F007FB69
:10526000804601F0CDFA02F0E4FA21682A78CB6991
:10527000B1F92200B1F92410DB7E02FB0302CB1945
:10528000314405F019FC404602F0D3FA484605F0D7
:10529000CDFE20686A78C369B0F922109B7E02FBBC
:1052A0000311418407B0BDE8F08300006C040020C6
:1052B00030B50E4C05460B4620682946C069C069CA
:1052C00000F021F8002810D04168008824682A1ACC
:1052D0000120E46900EBC200085CA47E6043002B5F
:1052E00003D011F832106143196030BD6C04002006
:1052F00001200880704700B5C06900F004F800285C
:1053000000D0012000BD06E002888A4202D842880F
:105310008A4202D280680028F6D1704770B5002416
:105320000E4D16E028690E4900EBC410001D7822CE
:105330000968FAF777FF2869002100EBC4100160C3
:1053400000F10C018161011D0A1DC0E90F12641CEE
:105350004164A8688442E5DB70BD0000D40A0020E7
:105360006C04002070B50D490B480860084604F035
:10537000C5F80A4C143CA068C501284600F0A4F802
:105380002A460021206104F033F94FF0FF302060FD
:10539000BDE8704003F0BAB825D90108E80A00203A
:1053A000F8B50C0005460FD001F0D8FB204600F000
:1053B00017F8060010D000F011F9224600902DB128
:1053C0002946FAF72FFF04E00020F8BD002104F081
:1053D0000FF9684600F06CF902F032FF3046F8BD74
:1053E00010B5040009D001F0B9FB204610F0DCFD37
:1053F000044602F025FF204610BD002010BD38B540
:10540000054601F0ABFB2846FFF7EAFF040009D090
:1054100000F0E4F82A460021009004F0E9F868461C
:1054200000F046F902F00CFF204638BD024A106039
:1054300021F003005060704794EA002010B504008A
:1054400016D001F08BFB0B48006B10F8341059B1EB
:10545000022909D2042101EBC4014158486810F027
:10546000F3F920461AF0FAFEBDE8104002F0E8BE5B
:1054700010BD0000D8E90020002805D0034A916B38
:10548000016001B14860906370470000D8E90020D6
:1054900010B5044601F062FB2068FFF7CFFF002043
:1054A0002060BDE8104002F0CBBE000070B50D4694
:1054B0000646002405E000BF06EB8400FFF7E8FF86
:1054C000641CAC42F8DB70BD2DE9F041044617F0D6
:1054D00047FD2648E41C24F00305C16B2D1DA9429D
:1054E00000D90D46846B13E054F8042CAA420ED167
:1054F00084B1216809B162684A60616809B12268B3
:105500000A60826BA2422ED1216881632BE024685D
:10551000002CE9D18046416B80680F1857F8040CC5
:105520003E1A306838B100201BF010F857F8040C10
:105530003E1A3068B8B97068A84214DB3044441B86
:1055400030461AF0BBFFD8F80810491BC8F80810FD
:10555000D8F810102944C8F8101070683146401B64
:1055600010F072F920C42046BDE8F081D8E900208F
:1055700010B5002417F0F4FC0C490F2001EBC00219
:10558000126C1AB101EBC000006C08E0401EF5D5AA
:1055900008E04168A14200D90C46806810B18068DB
:1055A0000028F6D1A4F10C0010BD0000D8E90020BD
:1055B000002138B10449042202EBC000096B0858ED
:1055C00041680C3908467047D8E900200248416913
:1055D000491C416170470000D8E9002005498A69EB
:1055E000521C8A61096B01EBC0010A78521C0A70D7
:1055F00000F076B8D8E900207CB506460C4608468F
:10560000FFF7EEFE050020D0FEB13046FFF7D0FFD9
:10561000A04200DA044601F0A1FA2846FFF7DEFFB7
:1056200000903046FFF7DAFF0146019022460098CD
:10563000FAF7F8FD684600F03BF801A800F038F8EA
:105640003046FFF7FBFE02F0FBFD28467CBD000064
:1056500010B501F083FAFFF78BFF64220849B0F51B
:10566000800F04D990FBF2F4C869444303E0C96990
:105670004143B1FBF2F402F0E3FD204610BD00000F
:10568000D8E900200549102805D94A68B0EB520F27
:1056900002D3500800E010208860704794EA002090
:1056A00002484169491E416170470000D8E9002065
:1056B0000A4902680B6B52F8082C03EBC2021378FC
:1056C000022B03D38B690BB15B1E8B611178491ED2
:1056D000117000210160084670470000D8E90020E1
:1056E000002806D00349042202EBC000096B0858C9
:1056F00008307047D8E900202DE9FC414FF0000642
:105700000B465FEA000834462BD032B111461846EA
:10571000FFF746FE060000D101244046FFF75EFF7A
:105720000090078845686846FFF7C2FFCCB9B9000A
:10573000091D2846FFF760FF050015D0FFF74EFF53
:10574000019040F8276001A8FFF7B2FF4046FFF73D
:1057500045FF009045600188491C01806846FFF7BD
:10576000A7FF2046BDE8FC813046FFF767FE012415
:10577000F7E70820FFF743BE7CB5050023D0FFF70D
:105780002DFF00904068C0B1FFF728FF0024019072
:1057900005E0019800EB8400FFF77AFE641C009896
:1057A0000088A042F5DC01A8FFF782FF0098001DE9
:1057B000FFF76EFE0099002008806846FFF778FF2B
:1057C0002846FFF73BFE7CBD7CB50C46FFF706FF85
:1057D00000900188A14220D94568F5B101F0BEF9D9
:1057E0002846FFF7FBFE019000EB8400FFF750FE18
:1057F00000990888401E80B20880401E019905E08B
:1058000001EB8402526841F82420641C8442F7DDD5
:1058100001A8FFF74DFF02F013FD6846FFF748FFB0
:105820007CBD38B5002430B1FFF7D8FE0090048865
:105830006846FFF73DFF204638BD38B50D460024C9
:1058400048B1FFF7CBFE2946009000F016F8044659
:105850006846FFF72DFF204638BD38B50D460024B9
:1058600048B1FFF7BBFE2946009000F018F8044647
:105870006846FFF71DFF204638BD38B50D46018844
:105880000024A94209D9406838B1FFF7A7FE00906B
:1058900050F825406846FFF70BFF204638BD10B58D
:1058A0000024FFF7EAFF10B1FFF798FE04462046F8
:1058B00010BD000010B5136808290FD85C181460DB
:1058C00000222270064A04E000F00F040009145D73
:1058D0005C540C00A1F10101C9B2F5D110BD00006A
:1058E0004CC3040810B5044601F038F9044904EB30
:1058F000840001EB8000447902F0A2FC204610BD38
:1059000034EC00202DE9FC5F8946044601F026F9BD
:10591000484600F0B9FF2C4E09EB8907824656F83D
:105920002700019029484FF00108016841B9274933
:10593000C0F80080091D26480860084603F0DEFD17
:10594000214A09EB89015FEA0A0002EB81051BD0BD
:1059500001F004FF83464FF07F4001F053FF00F059
:1059600097F800221146206800F034FC2068428835
:105970000188504601F0A6FF46F8274085F80580CB
:10598000584601F0EBFE17E046F8274085F8058001
:105990002869464618B101F017FE0020286174B14D
:1059A0000096E868A1684B46421AA8686168411AE7
:1059B000206801F063FE286148461BF0FDFC02F000
:1059C0003FFC0198BDE8FC9F34EC0020A40C0020B3
:1059D0005DD9010870B514460D46064601F0BEF8C3
:1059E000204600F051FF0300174804EB840109D062
:1059F00050F8210041688068711A2A1A184601F08F
:105A000051FF1CE000EB8104A268B24201D00122E8
:105A100000E00022E368AB4201D0012300E0002354
:105A20001A430CD0236943B150F8210081684068C3
:105A30006A1A311A184601F0ECFDC4E90265BDE8A6
:105A4000704002F0FDBB000034EC002010B5C2B283
:105A5000CBB2D21A02D5C2F1000212B293B2C0F395
:105A60000722C1F3072403FB03F3121B01D55242A3
:105A700012B2000C92B2A0EB114002FB023200B253
:105A8000002801DA404200B280B200FB002010BDC5
:105A900010B50021084600F0E5FF40F6FF725042C5
:105AA000BDE8104013460146AFF300802DE9FC41EC
:105AB0001C4615460E46074601F050F8042005F036
:105AC000B5FA80461248C068C16C006D0F440644A8
:105AD0000D440444ADF80070ADF80450ADF8026018
