:020000040800F2
:1000000088FF0020650100082BF40008F9BC0008F7
:1000100029F40008611B00086B4F01080000000074
:10002000000000000000000000000000D12F0108C7
:10003000B12B000800000000AB0F0008C50001084C
:100040007F0100087F0100087F010008351A0108C0
:100050007F0100087F0100087F0100087F01000880
:100060007F010008893800087F0100087F0100082F
:100070007F0100087F0100087F0100087F01000860
:100080007F0100087F0100087F010008114E010870
:10009000DD4E01087F0100087F0100087F01000894
:1000A0007F0100087F0100087F0100087F01000830
:1000B0007F0100087F0100087F0100087F01000820
:1000C0007F0100087F0100087F0100087F01000810
:1000D0007F0100087F01000891490108994A010841
:1000E0007F0100087F0100087F0100087F010008F0
:1000F0007F0100087F0100087F0100087F010008E0
:100100007F0100087F0100087F0100087F010008CF
:100110007F0100087F0100087F0100087F010008BF
:100120007F0100087F0100087F0100087F010008AF
:10013000DFF80CD000F008FD00480047C1C60208F7
:1001400088FF0020EFF30980704780F3098870472B
:10015000EFF30880704780F30888704740BA704713
:10016000C0BA70470648804706480047FEE7FEE7EA
:10017000FEE7FEE7FEE7FEE7FEE7FEE7FEE7FEE757
:10018000713801083101000872B6704762B67047D5
:10019000EFF3108072B6704780F31088704730BF5D
:1001A000704720BF7047B0FA80F0704790FAA0F017
:1001B000B0FA80F0704790FAA0F070472DE9F05F38
:1001C0000546002092469B468846064681464024C6
:1001D0001BE0284641464746224600F080FB534636
:1001E0005A46C01A914110D311461846224600F0D3
:1001F00067FB2D1A67EB01084F46224601200021BC
:1002000000F05EFB17EB00094E41201EA4F1010433
:10021000DFDC484631462A464346BDE8F09F0000F1
:100220000649074A0868504343F2390210440860FF
:10023000400870470149086070470000200E002008
:100240006D4EC64110B5431A934209D283188818DF
:1002500003E010F8011D03F8011D521EF9D210BD74
:1002600040EA01039B0703D009E008C9121F08C038
:10027000042AFAD203E011F8013B00F8013B521EB8
:10028000F9D210BDD2B201E000F8012B491EFBD219
:1002900070470022F6E710B513460A460446194691
:1002A000FFF7F0FF204610BD30B505462A460B4645
:1002B00012F8010B13F8014B08B1A042F8D01CB1A1
:1002C000002802D06D1CF1E7284630BD421C10F812
:1002D000011B0029FBD1801A704730B5044600206D
:1002E000034600E05B1C934203D2E05CCD5C401B04
:1002F000F8D030BD034611F8012B00F8012B002A7D
:10030000F9D118467047F0B480EA0102D40F4200D8
:10031000B2EB410F02D20246084611464A0042D0D3
:10032000C30DDDB2C1F3C752AD1A202D35DAC1F3CA
:10033000160141F4000204B15242C5F1200602FA4E
:1003400006F12A411044B3EBD05F23D0C4B1012D94
:10035000A0EBC35009DCF0BC4FF0004202EAC352EC
:10036000DBB200F5000000F034BB400000F180700B
:1003700000EBC350A0F1807040EAD170490009E061
:10038000490841EAC071A0EBC35000F500004008E5
:1003900000EBC350F0BC00F013BB6142012202EB42
:1003A0004101001BF6E7F0BC704781F00041AAE76D
:1003B00080F00040A7E780EA010210B502F0004398
:1003C000400022D04A001FD0010E01EB1261C0F3A1
:1003D0005600C2F3560240F4000042F40002A0FBB3
:1003E000022000047F39140400D0401C50EA12405F
:1003F00001D44000491EC2B20C0604EBD010401CD0
:100400004008802A02D003E0002010BD20F0010047
:10041000002900DA0020184310BD2DE9FE4F804668
:1004200081EA0300C00F0C46009021F0004123F048
:100430000045B8EB0200A94105D24046214690464E
:100440001C460B46024623F00040104347D0270DC0
:10045000C7F30A00C3F30A510290401A01904028E2
:100460006BDAC3F3130040F4801B0098924620B16E
:100470000023D2EB030A63EB0B0B01985946C0F142
:100480004002504600F01CFA06460D4650465946BA
:10049000019A00F034FA10EB08006141002487EA69
:1004A000115284EAE7731A4340D0009A62B3019A6A
:1004B000012A4FEA075215DC001B61EB02014FF0E5
:1004C000004202EA0752CDE90042001C41F58011CA
:1004D00032462B4600F0BAFA03B0BDE8F08F404632
:1004E0002146F9E7001B61EB0201001C41F5801376
:1004F00000185B412018A2F5001747EB030140EA02
:10050000D570B6196D4111E06D084FEA360645EA1F
:10051000C0754FEA0752001B61EB0201001C41F558
:10052000801149084FEA30000019514132462B46EC
:1005300003B0BDE8F04F00F07ABA00980122400005
:100540000023D0EB020263EBE073009821464FEAF0
:10055000E074B8EB000061EB0401E9E783F00043CD
:100560005BE781F0004158E72DE9FE4F81EA030483
:1005700004F0004421F0004100944FF0000B23F000
:10058000004350EA01045ED052EA03045BD0C3F397
:100590000A54C1F30A552C44A4F2F3340194A0FB8D
:1005A0000254C1F3130141F48011C3F3130343F464
:1005B000801301FB024400FB034E840A970A44EABD
:1005C000815447EA8357A4FB076802958D0A05FB0F
:1005D00007854FEA932C04FB0C542705029D4FEA34
:1005E000065847EA1637B5EB08056EEB070C870E81
:1005F000920E47EA811742EA8312A7FB0201B6EB8B
:100600000B0164EB00042B0D43EA0C335E1844EB42
:100610001C50DA465146E7FB0201C5F313044FEACA
:100620000B3343EA14534FEA0432019C43EA0603B6
:10063000A4F10C040294009CCDE900B400F006FA89
:1006400003B0BDE8F08F00200146F9E72DE9F04D39
:1006500081EA030404F0004B21F0004514464FF0FA
:10066000000A23F0004150EA050220D054EA0102BA
:100670001DD0C5F30A570246C5F31303C1F3130097
:10068000C1F30A5640F4801543F48013A7EB060823
:10069000101BD64608F2FD3873EB050002D308F1B3
:1006A000010801E092185B41B8F1000F03DA002065
:1006B0000146BDE8F08D00204FF4801106468446C7
:1006C0000EE0171B73EB050705D3121B63EB050345
:1006D00006434CEA010C49084FEA300092185B418E
:1006E00050EA0107EDD152EA030012D082EA040079
:1006F00083EA0501084305D0101BAB4106D2012255
:10070000002306E000224FF0004302E06FF00102F8
:1007100053101AEB06004CEB085110EB0A0041EBAA
:100720000B01BDE8F04D00F082B970B521F0004337
:1007300003430CD0C1F30A550024D5EB040564EB48
:100740000403D617AD1AB34102DB0020014670BD89
:10075000201841EB025170BDC10F80EAE0700844DF
:10076000CA079623002100F034B9962300221146CF
:1007700000F02FB90EB5C10F80EAE0700844CA0737
:10078000002140F233438DE80E000A460B4600F08C
:100790005DF903B000BD00F0004220F00040C10D43
:1007A000C0F3160040F400007F2901DA00207047F2
:1007B000962903DCC1F19601C84001E096398840D2
:1007C000002AF4D04042704720F00040C10DC0F331
:1007D000160040F400007F2901DA002070479629B6
:1007E00003DCC1F19601C8407047963988407047D4
:1007F00000F0004230F000400AD0C10D01F56071F8
:10080000C0F3160042EA0151C20840071143704785
:10081000002001467047000030B5041E71F100044D
:1008200004DB4FF00044404264EB0101141E73F1FD
:10083000000405DB1C464FF00043524263EB040307
:100840008B4208BF824230BD01F0004330B421F03A
:10085000004150EA010206D00A0DA2F56072C1F310
:100860001301002A02DC30BC00207047440F44EA28
:10087000C104C100E01830BC00EBC25000F0A0B8C9
:10088000002801DBC0F10040002901DBC1F100417B
:100890008142704730B50B460146002020220124DA
:1008A00009E021FA02F59D4205D303FA02F5491B3E
:1008B00004FA02F52844151EA2F10102F1DC30BD54
:1008C000202A04DB203A00FA02F100207047914010
:1008D000C2F1200320FA03F3194390407047202A05
:1008E00004DB203A21FA02F00021704721FA02F3DA
:1008F000D040C2F120029140084319467047202A97
:1009000006DBCB17203A41FA02F043EAE07306E037
:1009100041FA02F3D040C2F1200291400843194647
:10092000704700000FB4002300B589B00CA90091F6
:100930000B996FF00042CB601E4B06931E4B079342
:100940000423CDE901321D4A089202466B4600207D
:1009500000F092F909B05DF814FB70B586B0064658
:100960004FF0FF300091CDE90101002015460C4603
:1009700004903246694604A8FFF7D4FF0346049862
:10098000211825B108B10A4600E022462A60002855
:100990000DD0002B02DD0098884208D0081B00947F
:1009A000CDE901043246694604A8FFF7BBFF06B053
:1009B00070BD0000B10E0008CF0E00086D0B0008DE
:1009C0000029A8BF7047401C490008BF20F0010063
:1009D000704710B4B0FA80FC00FA0CF050EA010441
:1009E00004BF10BC704749B1CCF1200421FA04F4D3
:1009F00011FA0CF118BF012121430843A3EB0C01AC
:100A0000CB1D4FEA00614FEA102042BF002010BC0E
:100A1000704700EBC35010440029A4BF10BC7047BE
:100A2000401C490008BF20F0010010BC704710B501
:100A3000141E73F1000408DA401C41F10001921801
:100A40005B411A4301D120F0010010BD2DE9F04DAA
:100A500092469B4611B1B1FA81F202E0B0FA80F2FF
:100A600020329046FFF72CFF04460F4640EA0A006A
:100A700041EA0B0153465A46084313D0114653EA44
:100A8000010019D0C8F140025046FFF728FF054683
:100A90000E46504659464246FFF712FF084305D01E
:100AA000012004E020463946BDE8F08D00200543D2
:100AB00046EAE0762C4337430A986305E40AA0EB44
:100AC00008000022FD0A44EA47540A3002D50020FB
:100AD0000146E9E7010510196941DDE908450019FA
:100AE0006941BDE8F04DA2E7C1F30A52C1F3130119
:100AF00040F2FF3341F480119A4202DA00200146AD
:100B0000704740F233439A42A2F2334202DC52422F
:100B1000FFF7E5BEFFF7D4BE30B5041E71F1000447
:100B200004DB4FF00044404264EB0101141E73F1FA
:100B3000000405DB1C464FF00043524263EB040304
:100B4000994208BF904230BD064C074D06E0E06870
:100B500040F0010394E8070098471034AC42F6D304
:100B6000FFF7EAFA447E0508647E0508C0B24FF438
:100B7000F05100F0BDB900002DE9FF4F087881B0B9
:100B80009946FF2805D0491C2D2804D000240023B5
:100B900008E000230BE00124F9E703EB830300EBFB
:100BA0004303491C0878FF28F7D104B15B420020B9
:100BB0000090147801462D2C01D02B2C04D1521C0E
:100BC0002D2C12D00024009400251678FF2E0ED074
:100BD0000A24A0FB04C801FB0481002700FB0711C5
:100BE000521C16EB0C006941EFE70124EBE7994436
:100BF00050EA01020ED00024AA4D2646DFF8A88252
:100C000000F08AF982468B46B9F1000009DAC9F191
:100C100000071BE001980021C0E9001105B0BDE804
:100C2000F08F074612E0F80707D022462B463046E1
:100C30004146FFF799FC0646884622462B46104659
:100C40001946FFF791FC04460D467F10002FEAD1AC
:100C5000B9F1000F324643465046594602DAFFF7D3
:100C6000F5FC01E0FFF780FC009A0AB181F0004139
:100C7000019AC2E90001D1E72DE9FF4F1F468DB06F
:100C8000D7E901464FF0FF382E2045464FF00009C6
:100C90000B90B9696D1C0E988847396A824688475F
:100CA0000028F6D1BAF1FF3F0AD024F4D064002E18
:100CB00011DDBAF12B0F08D0BAF12D0F0BD102E0E4
:100CC000404611B0ABE744F48064B9696D1C0E98DE
:100CD00088478246761E6946600501D52D2000E0D2
:100CE0002B208DF8000001F1010B0DF1200809E027
:100CF000B9696D1C0E98884782460F9844F40074B9
:100D0000761E0560002E02DDBAF1300FF0D00B998F
:100D10008A453ED144F0800406E00F99681CA9F191
:100D2000010944F400740860B9696D1C761E0E98C0
:100D3000884782463028F0D02BE00B998A4505D1B0
:100D4000200603D444F08004761E18E0504629F0B3
:100D5000A7F808B30DF11301761E44F400748B4517
:100D600008D2AAF130000BF8010B200607D5A9F133
:100D7000010003E0200602D409F101008146A0052C
:100D800002D50F99681C0860B9696D1C0E988847D8
:100D90008246002ED1DC53E0002E51DDBAF1650F02
:100DA00002D0BAF1450F4BD1A00549D5B9696D1CE8
:100DB00024F44074761E0E9888478246002E0CDD7F
:100DC0002B2804D0BAF12D0F07D144F48074B969EF
:100DD0006D1C0E9888478246761EE00501D52D21B0
:100DE00000E02B2108F8011BCDF82C8021E00DF14B
:100DF0002901761E44F4007488450CD2AAF1300013
:100E000010F0FF0088F8000002D10B99884509D93D
:100E100008F1010806E0E00501D5244801E042F2AE
:100E20000F708146B9696D1C0E98884782460F98ED
:100E30000560002E04DD504629F032F80028D6D196
:100E4000F9690E988847FF208BF8000088F80000A9
:100E50000020069007904B466A4608A906A8FFF7AF
:100E60008BFEA00502D46FF001002AE714F0240FD6
:100E70000AD0E00714D1DDE906123868031D3B6093
:100E80000068C0E900120BE0DDE90601FFF7DCFCB9
:100E90000146E00704D13868021D3A60006801602D
:100EA00028460EE7000024400000F03FF1D8FFFF85
:100EB000426842B1016811F8013B23B1521EC0E9FA
:100EC0000012184670470121C160881E70474268B1
:100ED0005AB1C368016843B983688B4205D0491E83
:100EE000521CC0E90012002070474FF0FF307047DD
:100EF0007F2801D9002208E0064A02EB5002C00711
:100F0000127800D1120902F00F020120904008402F
:100F100070470000B87805080EB540F233420292DF
:100F20000022CDE900221346FFF790FD03B000BD7B
:100F300070B58C1810F8015B15F0070301D110F89B
:100F4000013B2A1106D110F8012B03E010F8016BC8
:100F500001F8016B5B1EF9D12B0705D40023521E4B
:100F60000DD401F8013BFAE710F8013BCB1A921CB3
:100F700003E013F8015B01F8015B521EF9D5A142B1
:100F8000D8D3002070BD000018484FF0FF01017059
:100F9000002080F309881648016881F30888154805
:100FA0004FF08051016062B6FEE772B6EFF3098040
:100FB00028B1203880E8F00F0F490968086000B5B3
:100FC0000E4880475DF804EB0D480E490A78027020
:100FD00009480D490A680260106890E8F00F203057
:100FE00080F309884EF0040E62B6704722ED00E0EF
:100FF0009400002004ED00E08C000020EDFE0008CD
:1010000048000020490000209000002008B5012180
:10101000084610F04BFB01214FF4047010F062FB06
:101020000220ADF8000000208DF803006946024858
:1010300005F078F908BD00000010014010B5FFF779
:10104000E5FFBDE8104000F001B8000070B590B0B9
:101050002B4E304601F034FA2A4805902A48069073
:10106000002407940125089509940A9428020B90FE
:1010700080000C9020200D9000020E900F9405A986
:10108000304601F099FA0121304601F00BFA009444
:101090008DF804408DF805504FF4602002900394C1
:1010A0008DF81050174C69464C3C204600F054F81F
:1010B0004FF4404010F0F0FA052301220B212046A6
:1010C00000F06EF80121204600F02CF801212046A6
:1010D00000F01CF8204600F09DF8204600F035F89E
:1010E0000028FAD1204600F0A6F8204600F026F8A5
:1010F0000028FAD10121204600F091F810B070BD0F
:10110000080002404C2401404C020020002904D079
:10111000816841F0010181607047816821F001011F
:1011200081607047002904D0816841F4807181603A
:101130007047816821F4807181607047014600200A
:101140008968490700D50120704701460020896859
:10115000090700D50120704710B542680E4B1A40B0
:101160000C790B6842EA04221343436082680B4BFC
:101170001A40D1E9024323434C7942EA4402134323
:101180008360C26A22F47002097C491EC9B242EA35
:101190000151C16210BD0000FFFEF0FFFDF7F1FF3D
:1011A00070B5072609290AD9C568A1F10A0404EB1C
:1011B0004404A640B543A3401D43C56007E005694C
:1011C00001EB4104A640B543A3401D4305611F2325
:1011D000072A09D2446B521E02EB820293409C43C1
:1011E00091400C43446370BD0D2A09D2046BD21F99
:1011F00002EB820293409C4391400C43046370BD18
:10120000C46A0D3A02EB820293409C4391400C4326
:10121000C46270BD816841F0080181607047002997
:1012200004D0816841F4A00181607047816821F495
:10123000A00181607047816841F0040181607047BE
:10124000002800DC404270477047000070B58AB04B
:10125000002405940C20144BCDE9013009AE032580
:10126000CDE90756012180220694CDE903210090A3
:1012700023460E4A0EA112480EF074FC06AB0594EC
:1012800070C36802CDE9030499210E4ACDE901211A
:101290000D2000900A4800230B4A0CA1B4300EF038
:1012A00061FC0AB070BD00005412002085130008D4
:1012B000417070205461736B2055706461746500D7
:1012C000EC0E00205814002001140008417070201A
:1012D0005461736B2055736572617070000000007B
:1012E0000EB500F0BFF800F04FFE00F025F902A89F
:1012F0000EF0E0FB0BA025F0C9F9FFF7A7FF15A042
:1013000025F0C4F9FFF7A0FF002502AC08F060FC4F
:101310000022CDE900540F23114610460EF040FE86
:10132000F4E700003C3C2D4F532D494E464F2D3ED7
:101330003E204372656174696E67204170706C690C
:10134000636174696F6E205461736B732E2E2E0A65
:101350000D0A00003C3C2D4F532D494E464F2D3E6B
:101360003E204372656174696E67204170706C69DC
:10137000636174696F6E204576656E74732E2E2ED0
:101380000A0D0A000EB51B4C4FF47A7508E0A178DF
:10139000491CC9B2A1700A2906D2284629F03AF997
:1013A00013F0A6F80028F2D101274FF48079DFF876
:1013B00048A0124E00250DF1080817E0002013F098
:1013C00017F938B13078012800D167704946504686
:1013D00005F033F80022CDE9005864231146104689
:1013E0000EF0DEFD4946504605F025F8A0780A28A3
:1013F000F0D2E3E72800002000080140800100202F
:1014000004480078552801D02AF0D0FF13F0AEFD33
:10141000FCE700002800002010B5012010F070F952
:10142000BDE81040002010F06BB9000008B503497A
:10143000084400900098008808BD0000006C00403F
:1014400008B5034A104400900098016008BD0000F0
:10145000006C004000B585B0684610F05FF9019857
:1014600005B000BD30B585B000200190029003901A
:1014700004902B4C294860600121402010F016F99F
:1014800000F06AFB0CF082F80BF084F80BF098F88F
:1014900000F026FB13F0E8F916F0DCFA042015F052
:1014A000C7FA07F04BFA01221EA160682AF03AF849
:1014B0001D4908701D4D18B1E020287005B030BDE1
:1014C00001224FF4FF11194811F0CAFB2878552862
:1014D0001CD11022164901A811F0C2FBBDF808006A
:1014E0000090BDF81030BDF80C20BDF804100020AD
:1014F00008F016FBBDF80A000090BDF81230BDF8E8
:101500000E20BDF80610012008F00AFB10F0BEFA0C
:10151000084810F099F92070D0E70000A05800208A
:1015200098000020303A00002B0000202800002006
:1015300002E01F002852002010B5FFF78BFF04497E
:101540000968B0FBF1F0BDE810400EF0CDBD000021
:10155000CCD3020838B5456804460146284613F046
:101560000BFE00282AD02068304A0F2819D006DC4C
:101570000B2824D00C2810D00E2851D12FE0112890
:1015800002D028284CD145E09268002A16D0214686
:10159000284601B0BDE83040104721462846526831
:1015A000F7E7284605F034FE0090406E0468684670
:1015B00005F098FE002C01D02846A04738BD2846EB
:1015C00005F026FE0090683005F07CFD00980321B0
:1015D0006C3005F085FD684605F084FE20E0E1688A
:1015E000486809680D2902D0202913D105E0002898
:1015F00010DD28461FF001FE06E0002804DD284625
:10160000BDE838401FF0F9BD2846BDE8384002214A
:101610001FF009BEE06818B90021284600F0E0F983
:101620002046BDE8384014F0A9B90000100600209B
:101630002DE9FF410AAF70CF002703958DE8D00058
:1016400000F003F804B0BDE8F081F0B585B00DF10D
:10165000280CBCE8F0004FF0000C8DE8F01000F012
:1016600025F805B0F0BDF0B5044685B08069B4F941
:101670000850668A0027CDE90265CDE9001704907D
:10168000B4F90C00B4F91060C118B4F90A00B4F947
:101690000E50104433462A4600F008F805466168AB
:1016A00000F0BDF905B02846F0BD00002DE9F04F6F
:1016B00085B01F46DDE911B4DDE90E569046894636
:1016C000824607F0A5F94C341548CDE90204CDE96E
:1016D00000563B4642464946504614F095F80400F1
:1016E00018D005F095FD10225946049013F098FF8C
:1016F000049830220B493430FEF7A4FD094D0499BB
:101700000C3D2868486604A805F0ECFD286841688F
:101710002046884708F040FD05B02046BDE8F08F20
:10172000551500081C060020F0B5044680688B495A
:1017300089B051F82050606800287DD0052804D079
:1017400006287AD0122879D1AEE0E86900284FD077
:1017500095E80E008DE80F0004F110010FC909F0A3
:10176000D3FA002655F8260007F0D3FFA169E869EF
:101770000A1A216901446069304406F071FDA169CB
:10178000E8690A1A21690144E069801B06F068FDD6
:10179000E169E8690A1A616901442069304406F088
:1017A00035FEE169E8690A1A61690144A069801B94
:1017B00006F02CFE761C022ED4DBA86807F0A9FFE9
:1017C000E069E9696669431A20694218521E31448A
:1017D000801C06F0D1FEE169E869A2690B1A616913
:1017E0000144101A401C921E06F0C6FEEE6913E07A
:1017F0005FF0000655F8260007F08BFFE069831BB9
:10180000A069821B606981192069304406F09EFD41
:10181000761C022EEEDB0226D5E90301CDE900019C
:101820006169E06908444310A069891C821B206932
:10183000304406F0AFFC02E089E012E08AE0D5E92E
:101840000501CDE90001E36960690121184401EB5C
:101850006001A0699B1E821B2069304406F09AFC3F
:1018600078E0206805F0D4FC0490206815F028FD8D
:1018700040B1A06808B1002008E00498006F28B1CA
:10188000012003E00498406F00B10220049901EBAD
:101890008000C56E04A805F025FD00231A462846E1
:1018A000216806F023F955E0206805F0B1FC0490AA
:1018B000866EEEB3B0F95C70A168D1B3032942D053
:1018C0005FF0000100EB8101406D0C6C07F04AFFF6
:1018D000204607F01EFF05A806F010FFBDF8141003
:1018E000A88B0144ADF81410BDF81810081AADF813
:1018F0001800BDF81600801CADF81600BDF81A00DF
:10190000801EADF81A0004985E30B0F90220B0F9DC
:10191000001005A807F00BFD04A805F0E3FC022069
:1019200007F0AAFF304605F073FC3A4605A901E02E
:101930000BE006E0079006F07BFA07A805F0D2FC62
:1019400008E00121BEE70221BCE704A8F6E7206811
:1019500015F02EF909B00020F0BD00004061050827
:1019600008B50023009300F001F808BD70B51646D5
:101970000C46054619463046049A06F079F80246A8
:1019800021462846BDE8704000F08BB8044A034960
:10199000116004494A6A4862104670474C060020AC
:1019A000100600201C06002000294FF0100101D075
:1019B00013F071BC13F0B9BB38B50D4604000ED05E
:1019C00007F026F8204605F023FC009045656846A0
:1019D00005F088FC204614F089FD08F0DDFB38BDD9
:1019E0004FF480720029114601D013F054BC13F05B
:1019F0009CBB08B50023009300F001F808BD70B54A
:101A000016460C46054619463046049A06F050F82C
:101A1000024621462846BDE8704000F042B82DE954
:101A2000FF410E4605004FF0010421D006F0F0FF03
:101A3000284605F0EDFB0190876E01A8009705F0A0
:101A400051FC3146684609F00DFD78B1009800243C
:101A5000B84208D0284605F0DBFB0190009981666A
:101A600001A805F03FFC284614F040FD08F094FB67
:101A700004B02046BDE8F08138B50C4605000FD013
:101A800006F0C6FF284605F0C3FB0090A0F85C40B6
:101A9000684605F027FC284614F028FD08F07CFB7A
:101AA00038BDF8B515460C46060018D006F0B0FF54
:101AB000304605F0ADFB0090032C0BD800EB840002
:101AC0006C3005F0FFFA009800EB8400C5663046E4
:101AD00014F00CFD684605F005FC08F05DFBF8BD50
:101AE00038B5012104200FF0FDFD4FF48074ADF8EE
:101AF000004010208DF8030003208DF80200054DF2
:101B00006946284604F00EFC2146284604F093FC62
:101B100038BD00000008014010B500280FD04FF478
:101B20008054012811D0022815D11021012011F074
:101B3000E5FB2146BDE81040022011F095BB1021C5
:101B4000BDE81040012011F0D9BB2146BDE810408E
:101B5000022011F089BB10BD4FF4A0600DF0A8BCAD
:101B6000FEE7C1B2000A40EA0120704770B50020CC
:101B70008F4B904C5988A4F1400202E0155C25542B
:101B8000401C8842FAD38B48626820304260A268C9
:101B900082601F290FD00220FFF7BEFF00202060C7
:101BA000607B1A22052111F049FCBDE8704000213C
:101BB000012011F023BCE17B282901D02A290FD173
:101BC000207D627CE57C40EA0260A27C120442EA4D
:101BD000052210435860E07DA27D40EA0220986013
:101BE000754A206890427DD1744A607B12689042A9
:101BF00003D8A27B0AB1102A0DD90220FFF78CFF6F
:101C0000607B2422052111F019FCBDE87040002101
:101C1000012011F0F3BB252968D01ADC15297CD0EE
:101C20000DDC08297AD005DCF1B303293FD0042963
:101C30002DD177E00A2972D0122928D13BE01A3938
:101C40000A2924D2DFE801F0433B237A3F232323F0
:101C5000234B8A297DD00EDC552967D006DC282944
:101C60004CD02A2950D02F2911D153E05A2932D0F3
:101C700088290CD172E0A82968D004DC8F2969D0AA
:101C80009E2904D16EE0AA2974D0AF297AD002200F
:101C9000FFF742FF607B2022052111F0CFFBBDE85A
:101CA00070400021012000E024E011F0A7BBBDE856
:101CB000704010F081BDBDE8704010F08BBCBDE8F5
:101CC000704010F085BDBDE8704010F081BDBDE8EA
:101CD000704010F0BFBCBDE8704010F0B5BCBDE86E
:101CE000704001E056E001E010F030BDBDE870400A
:101CF00010F0F2BCBDE8704010F06EBDD3E90112E7
:101D0000BDE8704010F0ACBCD3E90112BDE87040F2
:101D100010F09CBDBDE8704002E00BE012E025E051
:101D200010F076BDBDE8704010F03CBCBDE87040DE
:101D300010F06ABCBDE8704010F066BCBDE87040B1
:101D400010F062BCBDE8704010F05EBCBDE87040B1
:101D500002E013E01AE00DE010F056BCBDE8704060
:101D600010F052BCBDE8704010F04EBCBDE87040B1
:101D700010F04ABCBDE8704010F046BCBDE87040B1
:101D800010F042BCBDE8704010F03EBCBDE87040B1
:101D900010F03ABC0220FFF7BFFE607B2022052135
:101DA00011F04CFBBDE870400021012011F026BB72
:101DB0001C04002068EA00205553424380040020A0
:101DC0002DE9FF470446006810B115F079FA68B1B3
:101DD0000022314850F8221060680A2841D007DC00
:101DE000F0B306280DD0072854D106E00122F0E711
:101DF00012280AD019284DD137E0204617F086FD69
:101E000048E0204619F07AFC44E0206805F000FA2A
:101E10000290B0F9548090F85650476C466B02A877
:101E200005F060FA206800F039F88146684613F042
:101E3000C5FEBDF8001009EB05000844ADF8000030
:101E4000246A304607F08EFC022007F015FD384664
:101E500007F05FFC42466946204605F0E9FF19E0BD
:101E600007E020461AF021FD14E0886904B0BDE8BF
:101E7000F087206814F09CFE206805F0C9F90390F3
:101E8000B0F90610B0F90220891A491CC16703A8ED
:101E900005F028FA0020E9E75061050838B5044646
:101EA00006F0B6FD204605F0B3F90090C46F684611
:101EB00005F018FA08F070F9204638BD044A0349C5
:101EC00011600449CA69C86110467047D8060020ED
:101ED0009C0C0020A00C002000B589B0242168468D
:101EE000FEF7D7F91920019003480068806841681F
:101EF0006846884709B000BD9C0C00207CB5214C89
:101F00000546216831F8220F4A8D10440880488820
:101F1000CA8D10444880284606F0CAFB2168498CC7
:101F2000ADF800104618284609F038F93044401E34
:101F3000ADF8040006F036FC2168898CADF802107B
:101F40000844401EADF80600684615F04DF804E060
:101F5000284603F073FE14F0FBFF0028F8D10A2D89
:101F600004D0BDF804002168401C4884206830F883
:101F7000221F428D891A01804188C28D891A4180B1
:101F80007CBD00002C050020AFF30080024900203A
:101F9000086000F009B80000340000200149086022
:101FA000704700003400002010B50948016841F076
:101FB00080710160074800214160016841F0010122
:101FC0000160FFF747FABDE81040FFF7E7BF0000E8
:101FD000FCED00E0001000E00148406870470000A0
:101FE000001000E02DE9F041194E1A4F1A4C1B4D1C
:101FF00028E047F6FF702060288800F00F0131705C
:1020000007EB8100D0F8002C92B213040CD5D0F865
:10201000002C40F68F731A40C0F8002C1048491E5F
:1020200050F8210080470DE012060BD5D0F8002CA7
:1020300048F60F731A40C0F8002C0A48491E50F8A1
:1020400021008047206828800004D2D4BDE8F081B8
:102050004C03002000500040445C00407C04002001
:1020600060040020440400202DE9F84F0020009077
:102070004BF6BF7748F28008614E624D40F68F7A8A
:10208000DFF8849148F60F7B604C2CE0088800F064
:102090000F0089F8000078B304EB8001D1F8002C20
:1020A0000092BDF8002012040AD5D1F8002C02EAF3
:1020B0000A02C1F8002C5649401E51F82000804702
:1020C000BDF8000000060ED599F8000004EB800171
:1020D000D1F8002C02EA0B02C1F8002C4D49401E39
:1020E00051F8200080474648443000684A4908803B
:1020F0000004CBD4BDE8F88FFFE73068288028883B
:1021000000F030006880288800F440502880306853
:10211000384080F4005080F0200040EA0800306031
:102120000888C00620D4306800EA0B0030600AF04E
:1021300069F9306838402988C90401D580F4805095
:102140002988890401D580F400506988C90601D521
:1021500080F010006988890601D580F0200080B2E7
:1021600040EA08003060C5E730680090BDF8000024
:10217000000520D5306800EA0A00306011F070F9DF
:10218000306838402988C90401D580F480502988F6
:10219000890401D580F400506988C90601D580F012
:1021A00010006988890601D580F0200080B240EADD
:1021B000080030609EE7BDF80000000493D5306849
:1021C00000EA0A0030600FF037F83068384029889C
:1021D000C90401D580F480502988890401D580F490
:1021E00000506988C90601D580F010006988890609
:1021F00001D580F0200080B240EA0800306079E725
:10220000005C00405E0300204C03002000500040B2
:1022100060040020440400207C0400208100084861
:102220000844D0F8001C490409D5D0F8001C48F631
:102230008F7211404CF280021143C0F8001C7047AD
:1022400000500040810008480844D0F8001C4906AE
:1022500009D5D0F8001C48F68F72114048F2C00230
:102260001143C0F8001C7047005000408100064830
:102270000844D0F8001C48F68F62114048F28002F2
:102280001143C0F8001C70470050004070B586B084
:1022900013F0C2FC30214FF41472CDE903210591F3
:1022A0000321CDE90001174800230293036A742239
:1022B0004FF481713E2009F0F4FD134D2862002493
:1022C000124E13A2286A56F8341009F021FD641C3E
:1022D000E4B2022CF5D30F4A0121286A09F058FE16
:1022E0004FF0FF31286A09F09DFE0A220021286A7A
:1022F00009F0A7FE286A06B00821BDE8704009F081
:102300007ABE0000785800208001002028D40208FE
:102310000000000080FFFF80F0B587B0002413F0BC
:102320007BFC2C4A0223CDE901322B4D0090042185
:1023300005F1080003910FC813F066FA68623A21AC
:102340003022CDE90421002640F25123CDE9026379
:102350000321CDE90001E8692A68143000EB40034D
:10236000D21E3146032009F09CFD1C4DA8611C4E75
:102370006FF07F4706EBC40056F834104268A86936
:1023800009F0C6FC3A462146A86909F07BFE641CA8
:10239000E4B20C2CEED3134A0121A86909F0F8FD30
:1023A0001149A86909F010FE4FF0FF31A86909F042
:1023B00039FE0A220021A86909F043FE0C220121FE
:1023C000A86909F03EFEA86907B00821BDE8F04001
:1023D00009F011BEC19B020878580020800100203E
:1023E00038D4020880FFFF802CDA0408F0B585B0ED
:1023F00013F012FC0C230226CDE901631CA14FF45B
:10240000B072CDE90321009010233C223146002018
:1024100011F0CEFA194C6061194911F06BFB6FF0A5
:102420007F452946606911F0BBFB13F0F5FB1549A8
:102430000E2740F261130A688DE8C10012A1CDE9B0
:10244000033102EBD2706FF0180101EB6000102332
:102450003222022111F0ACFA6061294611F0A0FB92
:10246000606905B00B49BDE8F04011F043BB0000C6
:1024700057696C6466697265204F530080010020C3
:102480002CDA04087858002031313A35363A3030A9
:10249000000000001CD304080148006870470000D9
:1024A00024070020002904D0016841F001010160E7
:1024B000704701684FF6FE721140016070470000DE
:1024C00001684FF6FE721140016000210160416019
:1024D0008160C1603649364A0839904204D1486863
:1024E00040F00F0048607047314A1432904204D1E6
:1024F000486840F0F000486070472D4A283290420A
:1025000004D1486840F4706048607047284A3C3203
:10251000904204D1486840F4704048607047244AB3
:102520005032904204D1486840F4702048607047AF
:102530001F4A6432904204D1486840F470004860F9
:1025400070471B4A7832904204D1486840F070606E
:1025500048607047174A111F904204D1086840F044
:102560000F0008607047134A1432904204D1086883
:1025700040F0F000086070470E4A2832904204D1C3
:10258000086840F47060086070470A4A3C32904224
:1025900004D1086840F4704008607047054A503222
:1025A0009042FAD1086840F470200860704700003B
:1025B000080002400804024030B5026847F6F07394
:1025C0009A430C6A8B682343D1E904452C43234387
:1025D0008C692343CC6923434C6A23438C6A23438D
:1025E00013430360CA6842600A6882604968C16038
:1025F00030BD0000F8B50546006804F009FE009003
:10260000448ED0F88860684604F06CFE06B101265E
:1026100004F00104286814F053FE0EB1002006E017
:102620000CB1012003E008B1022000E003201B49A7
:1026300051F82010686858B302280CD0052802D041
:10264000122828D103E0284617F08CF923E0284609
:102650001AF087FE1FE06A69E8694FF0FF33801ABD
:10266000A0F1080203EB6204421CAB69001B451099
:10267000A3EB6206C86907F04CF806E03219311B7B
:10268000284605F0EDFD641E6D1C002CF6DA02E014
:10269000286814F08DFA0020F8BD0000B06105082C
:1026A000044A0349116004490A6B086310467047E5
:1026B00028070020DC0C0020E00C002038B50D4677
:1026C000002404F0A5FD0090C06B294604F0CFFE65
:1026D0000546684604F006FE1DB1284604F098FD44
:1026E0000446204638BD10B500F094F800F03AF8E2
:1026F000CC2000F0A7F8442000F0A4F800F08AF8FD
:1027000000F030F8CC2000F09DF8BE2000F09AF8E0
:1027100000F072F8044600F06FF8000200B22043A7
:102720006FF0030400280ADAC043401CFEF722F8C9
:102730002246FDF7FAFFBDE81040FEF785B8FEF728
:1027400019F82246FDF7F1FFBDE81040FEF77CB80E
:1027500010B511F0B5F800F05DF8BDE8104000F0DC
:1027600001B8000070B5002411F0C0F8124D04E06B
:10277000641CE4B2012027F04DFF4021284603F0FD
:1027800053FE08B1642CF3D3642C01D3002070BD38
:10279000002404E0641CE4B2012027F03BFF402148
:1027A000284603F041FE08B9F02CF3D3F02C01D3F6
:1027B000002070BD012070BD0018014010B511F05F
:1027C000A3F80C4C4021204603F035FE0A2027F0E8
:1027D00021FF11F08BF84021204603F025FE01284F
:1027E00005D000242D2027F015FF204610BD012420
:1027F000F8E700000018014070B500250024FFF73D
:10280000DDFFA0402843C5B2641CE4B2082CF6D317
:10281000284670BD10B511F077F8094C40212046CC
:1028200003F009FE40F2EE2027F0F4FE402120469E
:1028300003F003FEBDE810400F2027F0EBBE0000C0
:102840000018014070B5054611F05EF80024134EE3
:1028500005F001006D0870B14021304603F0EBFD3A
:10286000082027F0D7FE4021304603F0E6FD3A204D
:1028700027F0D0FE0DE04021304603F0DCFD46207D
:1028800027F0C8FE4021304603F0D7FD022027F094
:10289000C1FE641CE4B2082CDAD370BD00180140FC
:1028A0002DE9F047DFF89880D8F8001001F1100505
:1028B00028880E7A234F4FF03009002801D1042ECA
:1028C00004D0AC88A04215D8042614E01E48017834
:1028D000012903D00726102038802BE01B4A002155
:1028E00012681B4B92B2921C43F81210A7F800908A
:1028F00001701FE00226844200D90446A968A0B2F4
:1029000088478246002008F0E9FE0146A2B2504600
:1029100012F0AEFBA1B2002010F0E2FC2888001BF0
:102920002880688820446880A7F8009009494FF4FF
:1029300040500880D8F800000672BDE8F08700001B
:10294000500300206003002048030020505C00403A
:10295000006000405E0300202DE9F041214E346804
:1029600010342088A168002915D0A0B1A58885421F
:1029700000D90546A8B2884707462088401B20801A
:10298000608828446080002008F088FE0146AAB2D2
:1029900038460EF0AFFC2088134F302538B113496C
:1029A000280208800021084610F09AFC3D8020880B
:1029B000A188884204D3316803200872BDE8F08101
:1029C00018B1316805200872F8E7316806200872EE
:1029D000074800210068074A80B2801C42F81010A6
:1029E0003D80EBE750030020600300205E030020E1
:1029F000505C0040006000402DE9F843634E3068B1
:102A000042780024624D062A296801D08AB117E075
:102A10000278520669D18078012804D0022804D0B7
:102A2000032804D061E0CC695FE00C6A5DE04C6A89
:102A30005BE0438823B9C388022B01D1037923B11A
:102A4000082A39D00A2A3CD04FE00278530601D137
:102A5000838833B102F07F02012A04D0022A0CD00D
:102A600043E04C4C41E08A6940790021904710BB1B
:102A70003068807AF8B1474C37E0417901F00F00B7
:102A800001F070020B06444907D501EB8001D1F833
:102A9000001CC1F30111090106E001EB8001D1F82E
:102AA000001CC1F3013109033C4B1B7883421CD944
:102AB0000AB901B1374C18E00078400615D1384CFE
:102AC00013E0027802F07F02012A0ED1827A62B10D
:102AD000428852B9027942B9C288012A05D18A696D
:102AE00040790021904700B92E4C09274FF000088B
:102AF0003CB13068A0F8128084610020A04700201B
:102B000006E029683068096940788847032816D0AC
:102B100031680A8AA2F57F43FF3B0DD0022811D00D
:102B200082B1087800062AD5C888009000988242B1
:102B30000CD9009808821AE00F72BDE8F88330685B
:102B40000772FAE74FF008000872F6E70FD228681C
:102B5000154B90F82C00824202D283F8008006E0E8
:102B6000B2FBF0F400FB142008B9012018702868AB
:102B700090F82C008882BDE8F843FFF791BE03204F
:102B800008720A4900030880D7E7000050030020BC
:102B9000540300207936010800500040EC04002066
:102BA0000936010851360108480300205E03002061
:102BB000704700002DE9FF41224D4021284603F0D7
:102BC0003CFC8021284603F038FC082401940026B0
:102BD0008DF80A6001A800F0A7FE09208DF80C000E
:102BE0008DF80F6003A80CF031FC10266E611649B9
:102BF000042008602020286114480460081F046035
:102C0000012108200EF06EFD4FF47F40ADF800006A
:102C10008DF8036003278DF8027069460C4803F0B5
:102C200081FB012110200EF05DFDADF800408DF814
:102C300003608DF802706946284603F073FBBDE817
:102C4000FF810000001001401408014010140140F1
:102C5000000C01402DE9FC470E465FEA00097FD0D9
:102C600005F0D6FE484604F0D3FA009090F8547070
:102C7000D0F85880456BC46C684604F033FBB8F15B
:102C8000000F04D0314648464246904761E0122E7C
:102C900018D006DC082E43D0102E3CD0112E06D1C1
:102CA00012E0132E21D01D2E43D01E2E3DD0202EFB
:102CB0004FDB17B1484616F08CFAB1B248461DF00A
:102CC000B9FC60B3611C27E04DB3284604F0A0FABC
:102CD00005462146019007F03BF94419204607F0CC
:102CE000D7F801462346012210E0C5B1284604F07A
:102CF0008FFA05462146019007F02AF9441920462B
:102D000007F0C6F8014623464FF0FF32484615F05B
:102D10009DFE01A81BE0611E484600F096FA18E0EF
:102D2000BCB1611E484600F090FA484616F051FAD0
:102D30000FE0484604F06CFA0090012F12D00121F8
:102D400080F854102146484600F07FFA684604F0A7
:102D5000C9FA484613F0CAFB00E001E007F01CFA8C
:102D6000BDE8FC87002180F85410EFE7FEB5446809
:102D70000546204614F0A4FA06462946204612F0DD
:102D8000FBF9002834D028680E283DD004DC0B283D
:102D90002FD00C284AD116E00F2825D0A0F580703E
:102DA000133843D1204613F067FD204600211FF061
:102DB000EBFB204604F02CFA0190C06F002113F0C9
:102DC00033FD01A81DE0E86860B1017A29B101680E
:102DD000204600F012F9012100E00221204613F004
:102DE00068FC23E00321F9E7012120461FF0CCFB1A
:102DF000FEBD204604F00CFA0090343004F062F975
:102E0000684604F06FFA11E086B1E868416800296D
:102E10000CDD0168092909D00A2907D00D2905D040
:102E20001B2903D02046FFF715FFFEBD284612F0F0
:102E3000A5FDFEBDF0B587B004460DF1080CD4E940
:102E40000567B0F90850408AACE8E1000020CDE900
:102E50000010B4F90C00B4F91060C118B4F90A00FC
:102E6000B4F90E50104433462A4600F009F8050024
:102E700002D0618A00F09AF907B02846F0BD000040
:102E80002DE9FF5F1F46DDE91254DDE90E6A904629
:102E90008946834605F0BCFD0DF1040C4AF48050D0
:102EA00058341E490096ACE813003B46424649465A
:102EB000584612F0A9FC04002AD004F0A9F9102207
:102EC0000090119912F0ACFB00981C22144960305C
:102ED000FDF7B8F9009A012082F85500681C00D06F
:102EE000012082F88000002D00DC08252DB2158716
:102EF0000020508750636D1C684604F0F3F92946A2
:102F000020461DF0D0F918B9204612F06FFD0024BC
:102F100007F042F904B02046BDE8F09F6D2D00088F
:102F2000E4070020F8B515460E46040021D005F050
:102F30006FFD65B1002332461946204612F036FC7B
:102F40000546204604F064F90090C5670CE0204671
:102F500004F05EF90090C06F12F033FD009900207C
:102F6000C867204613F0C2FA684604F0BBF907F0C0
:102F700013F9F8BD2DE9FC4115460E00044627D093
:102F8000002C25D005F044FD204604F041F900272F
:102F900001903770406BB0B104F03AF9009008F03E
:102FA000E1F80146009806F0D3FF0446681E84420B
:102FB00000DD0446224630460099FDF743F9684695
:102FC00004F090F9375501A804F08CF907F0E4F803
:102FD000BDE8FC8138B505004FF000040BD005F0CA
:102FE00017FD284604F014F90090846C684604F03C
:102FF00079F907F0D1F8204638BD2DE9F04186B0C7
:103000000C46060055D005F003FD304604F000F9EB
:103010000090406B98B304F0FBF803900098806E2A
:1030200006F0A0FB8046304612F098FF0746039852
:1030300005F0EFFB0546009890F8601001F00301E1
:10304000012916D002290DD0416EC06A00680844DB
:10305000241A641E039808F085F80146002C0FDA44
:10306000002115E0781B401C00EBD070A4EB60043D
:10307000F0E7406E791B081A241A641CEAE713E093
:10308000AC4205DC02462146039808F00BF80146E5
:10309000304600F0DAF803A804F024F9404606F0C0
:1030A00061FB304613F022FA684604F01BF907F082
:1030B00073F806B0BDE8F08138B50C4605000FD0B6
:1030C00005F0A6FC284604F0A3F8009018B1846629
:1030D000284613F00BFA684604F004F907F05CF890
:1030E00038BD2DE9FC4788465FEA00094FF000052E
:1030F0005AD005F08DFC484604F08AF80090B0F9EB
:103100003860446B684604F0EDF80027B8F1000F12
:103110003ED04CB1204604F07BF80190FDF7D6F884
:10312000451C01A804F0DEF8404608F01BF80446F0
:10313000B04200DD34462146404606F009FF461CF9
:10314000711B48461DF091FC08B3484604F060F836
:103150000090406B04F05CF8324641460190FDF768
:1031600071F80198304400F8017C0098C464B0F90B
:1031700038108C4205D190F85410012901D1641EF9
:10318000C464684604F0AEF801A804F0ABF806E0A9
:103190000098343003F096FF00984787C76448468C
:1031A00013F0A4F906F0F8FFBDE8FC8738B50C462B
:1031B00005000FD005F02CFC284604F029F80090FB
:1031C00018B10466284613F091F9684604F08AF8AD
:1031D00006F0E2FF38BD0000F8B51D4616460C4665
:1031E000074605F015FC2FB3384604F011F800909F
:1031F000AC4201D92C4602E0B44200D234460F4919
:1032000081650F49C1650021C0E91241C0E90F6520
:10321000012180F85410B0F938100A2901DD0A2183
:103220000187684604F05EF8384622F093FC384681
:1032300013F05CF906F0B0FFF8BD0000557C010802
:10324000555B0208002222F017B91CB50C4603F0AA
:10325000DFFF0090406BF0B103F0DAFF019007F060
:1032600081FF009991F8542002B10122002C00DA6C
:103270000024844200DD0446B1F93800801AA042DF
:1032800000DA0446C86CA04200D0CC640020086577
:1032900001A804F027F8684604F024F81CBD0122B8
:1032A00022F0EAB808B568460CF0B8FA0CF030F82D
:1032B00068460CF0D3FA08BD08B568460CF0AEFAC3
:1032C0000CF056F868460CF0C9FA08BD70B5002439
:1032D0004FF400710D4803F0B0F84FF47A7004F029
:1032E0003DFC4FF4FA750CE02B46002208A109A022
:1032F00000F012F808B1012070BD00F0B7F9641CAD
:10330000E4B20A2CF0D3002070BD0000000C014094
:103310004F4B0000415400002DE9F04184460C461B
:1033200015461F461D4EB6F800046FF30E00A6F8B2
:10333000000462461AA11C4811F0BCFC54EA0500C6
:1033400010D0384604F00AFCB6F800140020C1F38F
:103350000E0170548CB185B121463046FCF7A4FFB4
:1033600048B902E00120BDE8F08129460B48FCF78E
:103370009BFF0028F7D00120F5E73CB12146074824
:10338000FCF792FF0028EED00120ECE72946034825
:10339000FCF78AFF0028E6D00120E4E74452002031
:1033A00025730D0A000000000048004000B585B0FC
:1033B000002801D0012200E0002208A1684623F085
:1033C00075F94FF4FA73002208A16846FFF7A4FFCD
:1033D00010B1012005B000BD0020FBE741542B4394
:1033E00049504D55583D2564000000004F4B0000EA
:1033F00010B54FF47A7004F0B1FB05A1054811F047
:1034000059FCBDE810404FF4FA7004F0A7BB00006F
:103410002B2B2B000048004038B5012108200EF06E
:1034200061F94FF48070ADF8000010208DF80300B2
:1034300003208DF80200064C6946204602F072FF18
:103440006115ADF800106946204602F06BFF38BDEB
:10345000000C014010B54FF4FA7300220DA10EA02C
:10346000FFF75AFFA0B110A11248FCF71DFF08B1E9
:10347000022010BD10A10F48FCF716FF08B1032071
:1034800010BD10A10B48FCF70FFF08B1042010BDC0
:10349000002010BD4F4B000041542B434950535462
:1034A00041545553000000005354415455533A328F
:1034B0000D0A0000445200205354415455533A33EE
:1034C0000D0A00005354415455533A340D0A00007C
:1034D00010B5FFF7A1FF00F025F9BDE810404FF44B
:1034E0000071014802F0A9BF000C014000B59FB077
:1034F0000B46024608A101A823F0D8F841F2883310
:1035000000220AA101A8FFF707FF10B101201FB098
:1035100000BD0020FBE7000041542B43574A4150B7
:103520003D222573222C2225732200004F4B0000E0
:10353000F0B5B9B004460F4615461E46642120A8D2
:10354000FCF7A7FE14B1012C0FD107E03B4612A2F5
:1035500012A120A8009523F0A9F806E03B4613A28B
:103560000EA120A8009523F0A1F8052E06D220ABCD
:1035700032460FA102A823F099F804E020AA11A175
:1035800002A823F093F84FF47A6312A215A102A8BF
:10359000FFF7C2FE39B0F0BD54435000222573221C
:1035A0002C222573222C2573000000005544500066
:1035B00041542B43495053544152543D25642C25CA
:1035C0007300000041542B43495053544152543D21
:1035D00025730000414C5245415920434F4E4E4502
:1035E000435400004F4B000070B50446002540F6E0
:1035F000C4165CB1012C10D0022C15D0002000287C
:1036000003D16D1CEDB20A2DF3D370BD33460AA26F
:103610000CA10DA0FFF780FEF1E7334606A209A139
:103620000CA0FFF779FEEAE7334603A205A10CA040
:10363000FFF772FEE3E700006E6F206368616E675C
:10364000650000004F4B000041542B43574D4F4441
:10365000453D310041542B43574D4F44453D3200C9
:1036600041542B43574D4F44453D330070B5084DF1
:103670004FF400742146284602F0DDFE4FF4FA7044
:1036800004F06CFA21462846BDE8704002F0D5BE31
:10369000000C014030B5044685B00D461846002C9C
:1036A00007D02A4611A1124811F004FB012005B0F1
:1036B00030BD052806D2931C02460EA1684622F0B2
:1036C000F5FF04E0921C10A1684622F0EFFF4FF4D2
:1036D0007A742346002210A16846FFF71DFE234698
:1036E00000220EA12846FFF717FEE0E72573000031
:1036F0000048004041542B43495053454E443D251A
:10370000642C25640000000041542B43495053456C
:103710004E443D25640000003E20000053454E44C9
:10372000204F4B0010B586B0012188040DF0CCFF6E
:10373000012108200DF0D6FF4FF48060ADF8140091
:1037400018208DF8170003208DF816001B4C05A9D2
:10375000204602F0E7FDE114ADF8141004218DF8C5
:10376000171005A9204602F0DDFD4FF4E13001906D
:103770000020ADF80800ADF80A00ADF80C00ADF877
:1037800010000C20ADF80E000D4C01A9204611F0E0
:103790002BFA012240F22551204611F00AFA0122AB
:1037A00040F22441204611F004FA00F00BF8012108
:1037B000204611F0CBF906B010BD0000000C01400E
:1037C0000048004008B527208DF8000000208DF843
:1037D000010002208DF8020001208DF803006846E8
:1037E0000BF034FE08BD000010B54FF47A74234688
:1037F000002207A107A0FFF78FFD38B12346BDE8DF
:10380000104008A202A108A0FFF786BD002010BD4D
:103810004F4B000041542B4349504D4F44453D31DF
:10382000000000003E00000041542B434950534526
:103830004E44000010B5FFF7EFFD114C4FF400713E
:10384000204602F0F8FDA115204602F0F4FD0D4CD3
:10385000002240F22551204611F0ABF9002240F23F
:103860002441204611F0A5F90021204611F06EF9FF
:10387000BDE8104000214FF480200DF025BF00006E
:10388000000C01400048004070B5FCF781FC134A71
:103890001178491C1170FCF77FFC082000F034F807
:1038A000C0B10F490822087810B101280AD00EE0F3
:1038B0000C4B102058610C4C226001250D702260C9
:1038C000186104E00848001D02600220087008200A
:1038D00000F00CF8BDE870400BF004BF4000002081
:1038E0007B010020001001401014014001490860D4
:1038F000704700001404014002490A6802430A604C
:10390000704700001004014001460020054A12687B
:103910000A40044B14331B680B4202D0002A00D02B
:10392000012070470004014030B51B4A83790168CB
:10393000002B2AD013688B431360111D0B68046899
:10394000A3430B60017911440B68046823430B60A7
:10395000114C08342168036899432160231D1968BC
:103960000568A94319604179102905D011440A68F6
:10397000006802430A6030BD21680268114321607B
:10398000196800680143196030BD0079104402686D
:103990008A43026030BD0000000401402DE9F0417F
:1039A000CCB0054600244FF4967841466846FCF7B3
:1039B00070FC012224A12B4827F0DAFD2A4F387031
:1039C00028B1284827F033FC4CB0BDE8F0814BA863
:1039D0000BF024FF05EB851000EB8001214827F058
:1039E00035FC3870224E214B40F245121D48F169DA
:1039F00027F0A4FE38701F4D002748B12F70F069E2
:103A000007704BA80BF02AFF164827F010FCDBE7E5
:103A1000F16914220E46491D1648FCF713FC285D77
:103A200020280FD0641CA4B2142CF8D3424606F10F
:103A300019016846FCF706FC42463146684628F004
:103A400083FBDEE72F55F1E7303A2F537973746526
:103A50006D2F6D6573736167656C6973742E74780F
:103A600074000000582C00202B0000202C000020A7
:103A7000FC020020906C00202DE9F84310258DF801
:103A8000035003268DF80260012120200DF02AFE4C
:103A90000824ADF800406946234802F043FC0121A8
:103AA00010200DF01FFEADF80050204F694638463B
:103AB00002F038FC012104200DF014FE0425ADF8BD
:103AC0000050DFF86C806946404602F02BFC012173
:103AD00004200DF007FEADF800406946404602F0B4
:103AE00021FC012110200DF0FDFD2021ADF800107A
:103AF0006946384602F016FC012108200DF0F2FD5F
:103B00004FF47F40ADF800008DF803508DF802604F
:103B10006946084802F006FC054814300460024873
:103B200010300460BDE8F88300140140001001402B
:103B300000080140000C01402DE9F04389B098468F
:103B400015460F4606004FF000042DD000F0DCFBB8
:103B50000446304600F09FFB814604F059FF03A95C
:103B6000304600F064FDF80706D0BDF91C00001BCC
:103B7000401B401C822109E0B8070028BDF918004D
:103B8000284402DA40F2022100E002210096CDE949
:103B9000018123461A464946FDF74AFD04460021A5
:103BA000FDF702FF06F0F8FA09B02046BDE8F08301
:103BB00010B50523FFF7C0FF0446054A0021FDF7B5
:103BC00018FF0449204612F0A8FE204610BD000050
:103BD00001980108856802082DE9F0474568044608
:103BE0008EB00026284603F013FB00905C30B0F83E
:103BF00020A0D0F80C90D0F82480C76A006800B1EB
:103C00000668684603F06EFB05E079682046884741
:103C100000283DD13F68002FF7D12068142844D0F8
:103C200009DCA0F10B00072839D2DFE800F0BE392B
:103C300089B434B4110020287ED004DC17283ED08B
:103C40001E282CD14BE026283CD02A2827D110E072
:103C50002846E66803F0DCFA0190717A39B9317AC6
:103C6000012904D130F87C1F41F48071018001A842
:103C70008FE0284603F0CCFA0090E16811B1C0F85B
:103C8000841002E0D0F88400E060684603F02AFB6C
:103C90000EB0BDE8F087002E7DD02846B0477AE010
:103CA000214628461EF0EAF9F2E705A9284600F069
:103CB000BEFCE0680699016007994160E8E7C4F836
:103CC0000C90E5E7E0680228E2D10C95E0680D90E1
:103CD00027200A900AA9A06813F00CFDD8E7E06835
:103CE000012804D00021284600F086FBD0E740469A
:103CF00012F057FC58B1404612F0D4FE404612F084
:103D000021FB88B10121404611F0C5FA0CE048467C
:103D100012F01CFF8046284603F07AFA0090C0F8A3
:103D20008080684603F0DEFA0121284600F064FB3B
:103D3000B8F1000FACD100E00EE00020E060A7E792
:103D40005FEA0A7027D4E068C06820B3007A10B335
:103D5000284612F0A7FE1EE0E668E6B12946706824
:103D600013F097FA20B10121284620F0E9FC12E077
:103D70000021284620F0E4FC2946306813F078FA48
:103D800048B1284603F044FA03903168C0F8801027
:103D900003A803F0A7FA2146284611F0EDF9002800
:103DA0008CD0204611F0EAFD72E7284603F030FA85
:103DB0000090703003F086F96846EAE7F0B587B006
:103DC000B0F908400DF10C0C0C9E87694568ACE811
:103DD000F000448A0025CDE900150294B0F90C10DA
:103DE000B0F91050B0F90E40B0F90A00194410446F
:103DF0002B46224600F002F807B0F0BD2DE9F04F47
:103E00008BB09846DDE9155691468A468346149F45
:103E10001A9C04F0FDFD6034314845F48055CDE92D
:103E20000204CDE9007543464A465146584611F012
:103E3000EBFC04004DD003F0EBF93022049017990D
:103E400011F0EEFB0498282226493430FCF7FAF9E9
:103E5000049819995C30234F8160068400264662DD
:103E60000661083FC6627968016004A803F03AFA67
:103E700005A9204600F0DBFB1B4841F28271039646
:103E80000094CDE90110BDF91E00BDF91A10BDF96D
:103E90001C20431ABDF918005B1C121A521C11F0A9
:103EA000B3FC06467868416820468847204603F000
:103EB000AFF90490866604A803F014FA42F20400F5
:103EC000054202D1204611F0F9FD2046189900F074
:103ED00018FB06F061F90BB02046BDE8F08F00003A
:103EE000D93B0008080800203D4900082DE9F041B1
:103EF000044694B0006800F0B7F908B1D94D01E06C
:103F0000D84D2C35606815281ED00CDC0B281FD02E
:103F100004DC00287ED005287DD12EE10E287BD040
:103F20001228F9D141E1162806D0172808D0182800
:103F300008D01C28F0D109E0E86914B0BDE8F08190
:103F4000286AFAE7686AF8E7A86AF6E76869F4E7B2
:103F500020680B901C200C90206803F059F9039006
:103F6000016D0BA88847064603A803F0BBF9022E93
:103F70000EDB95E807008DE80700D4E9040233461C
:103F8000A16906F087FE20698719A069801B2BE0D4
:103F9000286805F0BEFB2169E8690A18521E6069AD
:103FA00004F05EF9A269E869111A491C606904F01D
:103FB00057F9676920697F1C394604F0A1F9394631
:103FC000A06904F09DF9686805F0A3FB20693946F3
:103FD000401C04F095F9A0693946401E04F090F9A0
:103FE0002769A069BF1C801E8046286805F091FBE8
:103FF00042463946606904F033F9686805F089FB88
:1040000060694246401C394604F02AF9686A022871
:104010000FDD02E015E1AFE000E1A86805F079FBF3
:1040200061696A6A881C8B1801465B1E42463846E5
:1040300027E0296AB14226DD6069022E074600F1B9
:10404000020801DB374401E007F10207206901DBC8
:10405000304401E000F1020022693B460A44A2F12B
:104060000102414604F088FA022E02DBA069821B9D
:1040700001E0A269921EA069E9693B46401A401C12
:10408000414604F079FA022E02DB6069064401E041
:104090006669B61CE76928687F1E05F03AFB3A4658
:1040A0003146206904F0B2F93A463146A06904F07D
:1040B000ADF9E7696868BF1E05F02BFB20693A4639
:1040C000401C314604F0A2F9A0693A46401E314630
:1040D00004F09CF9E869022802DC286A022823DD42
:1040E000A86A022802DDE1690F1A01E0E769BF1E34
:1040F000A86805F00EFBE969022909DD20693B4645
:10410000421800F1020C521E3146604604F034FAA7
:10411000286A022808DDA269E8693B46101A401C9B
:10412000921E314604F028FA286805F0F2FAD4E924
:104130000620216904F094F8686805F0EAFAA2699B
:104140002169E069521E491C401E04F089F8A86AE2
:10415000022811DD2669A169E469B61C271AA1F1BC
:1041600002087F1CA41EA86805F0D3FA2346424625
:104170003946304604F000FA72E0208A06B2ADF803
:104180001460A08A01B2ADF81610208B02B2ADF80F
:104190001820A08B03B2ADF81A30D5E90304CDE99D
:1041A0000004304603F0F6FF5AE0208A298B0844C9
:1041B000ADF81400A08AADF81600208B298B401AA8
:1041C000ADF81800A08BADF81A00206803F020F8B5
:1041D0000390006FF0B1022005F04EFB039991F8B7
:1041E0007C00C0F3C00001EB8000006C05F091FA88
:1041F0000398406B05F0B6FA0398006F03F008F8D7
:1042000003990A90B1F95A2005A903F011FE0AA8F2
:1042100003F068F803A803F065F821E0208AADF800
:104220001400A08AADF81600208BADF81800A08B02
:10423000ADF81A00A86805F06CFA05A804F0C8F9F2
:104240000EE0206802F0E4FF039030F85A1F41F0BE
:104250000C01018003A803F045F8206812F0A8FCC7
:1042600000206AE64408002038B505004FF000043D
:104270000FD004F0CDFB284602F0CAFF009090F862
:104280007C00000700D50124684603F02BF805F0F8
:1042900083FF204638BD38B505004FF0000411D02B
:1042A00004F0B6FB284602F0B3FF0090C06D002179
:1042B00080680268284690470446684603F012F872
:1042C00005F06AFF204638BDF8B50E4605004FF0F0
:1042D000000411D004F09CFB284602F099FF0090E6
:1042E000C06D31468068026828469047044668469B
:1042F00002F0F8FF05F050FF2046F8BD01480068C5
:10430000704700000808002030B587B005004FF066
:10431000000413D004F07CFB01A9284600F087F9C3
:10432000284602F075FF0090B0F95440684602F04C
:10433000D9FF0CB9BDF9044005F02EFF07B02046A7
:1043400030BD30B504468BB0006802F061FF0090CC
:1043500090F87C10246A006FC1F3C00508B102F028
:1043600057FF0690E068029020690390A088401EE5
:10437000ADF81000E089ADF812002089401CADF8BE
:104380001400608AADF81600BDF80800401CADF8B6
:104390000800BDF80A00401CADF80A00BDF80C008A
:1043A000401EADF80C000098406B05F0DBF900985A
:1043B00008AA02A9B0F95A30069806F0AFF800989A
:1043C00000EB8500806B08F0A5FD009800EB8500F0
:1043D000006C08F0D7FD08AB02AA04A9069811F0FA
:1043E0002FF8684602F07EFF069810B106A802F08A
:1043F00079FF0BB0002030BD70B50D46040009D028
:1044000004F006FB2946204620F09AF9BDE87040EA
:1044100005F0C2BE70BD38B50C46050011D004F0E1
:10442000F7FA284602F0F4FE0090816CA14203D016
:104430008464806E12F05AF8684602F053FF05F06B
:10444000ABFE38BD074A0649054B1160064A083BDA
:10445000D16958601B68C2E9063008467047000001
:104460003808002004080020080800202DE9FC413D
:104470000D46804604F0CCFA5FEA080028D002F02E
:10448000C7FE0190C16D8C6800F038F907460198AD
:10449000456301A802F026FF2268012140469047AB
:1044A00006462268032140469047054622680021BF
:1044B000404690470446404600F009FA2B463246F3
:1044C00039464046009400F091F9404612F00EF84B
:1044D00005F062FEBDE8FC8138B50C46054604F0E7
:1044E00097FA55B1284602F093FE0090046668469C
:1044F00002F0F8FE284611F0F9FFBDE8384005F05B
:104500004BBE7CB50D4604001DD004F081FA204658
:1045100002F07EFE0090006F0190684602F0E2FE1D
:10452000294601A806F09EFF58B1204602F070FE11
:10453000009001990167684602F0D4FE204611F010
:10454000D5FF05F029FE7CBD38B50C46050013D01B
:1045500004F05EFA284602F05BFE0090B0F95A10B3
:10456000A14204D0A0F85A40284611F0BFFF684687
:1045700002F0B8FE05F010FE38BD000038B50C465C
:10458000050015D004F044FA284602F041FE00224E
:10459000CDF8000000EB8201521C0C64022AF9D312
:1045A000684602F09FFE284611F0A0FF05F0F4FDDA
:1045B00038BD2DE9FC470D465FEA00094FF00004C5
:1045C00032D004F025FA484602F022FE0190B0F9FC
:1045D0005440A54223D000F091F880460198012173
:1045E000A0F85450C06D856848462A689047074631
:1045F0002A6803214846904706462A680021484613
:1046000090470546484600F062F933463A4641462F
:104610004846009500F0EAF8484611F067FF01A807
:1046200002F060FE05F0B8FD2046BDE8FC872DE9EC
:10463000F34F85B000270C46B846059802F0E8FD18
:104640000090C06D0121856805982A6890478246D0
:104650002A6803210598904704902A68022105984A
:10466000904703902A6800210598904706460098D5
:1046700012F0ACFC8346009812F0AFFC8146009823
:1046800090F83210890601D5B0F9588000F036F85C
:1046900005460098C06E10B111F077FC07462580E2
:1046A0006780A4F804A0049AABEB020006EB0802B2
:1046B000401E2A4420813A44E280039BA9EB030276
:1046C000521E6281A4F80CA020827019E681401E5F
:1046D0006082684602F006FEB4F90C000190B4F95D
:1046E0001000029002AA01A9059800F039F801987B
:1046F000A0810298208207B0BDE8F08F10B5014676
:10470000002091F83220920607D5B1F95400002814
:1047100003D1486B04F0ECF8801C10BD70B58AB072
:104720000C46054602F074FD0990C06D866809A824
:1047300002F0D8FD009534B1012C06D0022C0BD02C
:10474000032C04D10AE0182000E0162001907168C3
:10475000684688470AB070BD1520F7E71720F5E7CF
:104760002DE9FC4790468946044602F051FD009031
:10477000C16D056868468E6802F0B4FD326800219C
:10478000204690470646204611F06DFA2F14044645
:104790002DB227E002F03CFD0190B0F90010B0F915
:1047A0000420B0F90230491B521BDB1BB34212D16B
:1047B00090F82800000607D5D8F8000088420ADBE8
:1047C000491EC8F8001006E0D9F80000904202DC4B
:1047D000521CC9F8002001A802F084FD204611F007
:1047E00007FB0446002CD5D1BDE8FC872DE9FF4F1F
:1047F00083B00E460746DDF8409002F009FD0190B7
:10480000C16D8D68FFF77AFF044601A802F06AFDCA
:104810002A6801213846904783462A680321384692
:10482000904782462A680021384690470546B442A0
:1048300007D105998B4504D106998A4501D14D458B
:1048400042D0A41B0026B046384611F00CFA39E0DD
:1048500002F0DEFC0090806A010602D54FEA80502B
:1048600002E0810528D50006002825DB24B1224678
:104870001146384611F05DFF009890F828000006B8
:104880000AD50698A5EB0902A0EB0A0004FB160165
:10489000761C384611F0FEFE0098008D80050BD581
:1048A0000599A5EB0902ABEB010004FB080108F137
:1048B0000108384611F0EEFE684602F013FD384656
:1048C00011F096FA0700C3D107B0BDE8F08F70B5BC
:1048D00086B0064602F09CFC0590D0E91A4505A872
:1048E00002F000FD54EA050026D069463046FFF785
:1048F0009EFEACB1BDF90620BDF90410204611F0B2
:104900008DFEBDF90A00BDF90610421ABDF9080076
:10491000BDF90410521C411A491C204612F09DF9A1
:10492000002D09D0BDF90600BDF90210421ABDF9EB
:104930000410284611F072FE06B070BD2DE9F04358
:104940000446406885B0064611F070FA814602F0D0
:104950005FFC0090D0F88080876C456E684602F05E
:10496000C1FC2068172859D008DC0E2837D00F2842
:104970000BD0142852D015283AD14FE01E2818D059
:104980001F2827D0222833D146E06FF0704087429D
:1049900004D0384608F0BEFA02F0F8FE002D12D01E
:1049A000D4E902122068CDE90106CDE9031201A87D
:1049B00022E0E068002806D05FEA080006D0B04593
:1049C00004D012F06FF805B0BDE8F083304612F065
:1049D000BDF816E02146484610F0CEFBF3E7E0684C
:1049E0004168002904DD00680928EFD00A2805D0B5
:1049F000A5B12046C4F80490A847E4E7304612F079
:104A0000B4F80446484602F003FC0090C0F8804029
:104A1000684602F067FCD6E7E760D4E7204610F06E
:104A2000ADFFD0E78000A0F1C040002904D00168AC
:104A300041F00101016070470168024A11400160C4
:104A400070470000FEFF0F0010B5D0E901121143BE
:104A5000D0E903231A431143426911438269114388
:104A6000C2691143026A1143426A1143826A1143C7
:104A7000C26A1143026B114302689200A2F1C04264
:104A800011608168082907D101688900A1F1C0413E
:104A90000A6842F040020A60416BD1E9002342EA11
:104AA00003128B688C891B0243EA04431A430B8A66
:104AB00042EA03520B7D896942EA03620A430168B4
:104AC000491C8900A1F1C0410A60C16AB1F5804F5B
:104AD00008D000686FF070418000A0F1C040C0F8BD
:104AE000041110BD816BD1E9002342EA03128B68E7
:104AF0000C8A1B0243EA04531A430B7D896942EA7C
:104B0000036200680A438000A0F1C040C0F804219D
:104B100010BD00002DE9F0478AB0142105A8FBF76D
:104B2000B8FB00244E4D00262E7005F110003121F7
:104B30000170417032218170C6704AA021F0A6FD3B
:104B400011F06AF8034600964E4A07214E48019636
:104B500002F068FE07464D480221CDE90071CDE91B
:104B60000206BE23E6224121052010F04DFE6860BA
:104B700010F0CCFD28F0C6F9454EDFF8188198B149
:104B8000022245A146A009F06DFD03F0C3FC307878
:104B900010B1384610F02AFF98F8000000285CD0C9
:104BA0000A2002F0DBFFF2E725F094FE45A248A1BF
:104BB00048480FF0FFFE4FF48079DFF81CA148E071
:104BC000642C3CD905A807F0B7FC88BB4946504681
:104BD00001F033FC05A9E8680EF0A3FF686811F046
:104BE000C1FBA86811F0BEFB40F2611421463846B3
:104BF00011F028F839A10EF094FF2146384611F043
:104C000021F812F06EF840F27111384611F01AF8DE
:104C100012F067F84FF4B971384611F013F812F03A
:104C200060F840F27311384611F00CF811F09AFB5D
:104C300025F050FE4946504601F0FDFB0024641C5F
:104C4000E4B2307810B1384610F0D0FE0A2002F0FD
:104C500085FF98F800000028B2D10AB0BDE8F087BF
:104C6000D00200203C3C2D4F532D494E464F2D3E47
:104C70003E2050686F6E656170702063726561746C
:104C8000650A0A0029830208B8A10408799202087B
:104C900029000020810100206572726F72000000FF
:104CA0000D0A204E6F20646574656374656420533B
:104CB000494D39303041206D6F64756C6521200D90
:104CC0000A00000041542B434C49503D310D000077
:104CD000257300000044004000080140E696B0E65D
:104CE0009DA5E794B52E2E2E000000002DE9F0437F
:104CF000DBB00024142156A8FBF7CBFA502142A8C0
:104D0000FBF7C7FA4FF48078414602A8FBF7C1FAD7
:104D10004FF48051374825F04EFE38493648C86177
:104D200037A021F0B3FC3FA025F032FE10F074FF55
:104D300003460020009001903D4A07213D4802F0C3
:104D400071FD074628F0DEF83B4D98B102223BA1E9
:104D50003CA009F087FC03F0DDFB434C287810B140
:104D6000384610F043FE2078002840D00A2002F098
:104D7000F5FEF3E725F0AEFDDFF8F0903C4E33E0B2
:104D8000642C27D907F096FB044620001BD041462F
:104D9000484601F052FB174A42A9204627F022FF5D
:104DA00038B102A9134827F059FB02A942A827F0FD
:104DB000C1FF22462FA156A821F078FC56AA30A1A7
:104DC00030480FF0F7FD25F085FD4146484601F0DB
:104DD00032FB0024641CE4B2287810B1384610F08D
:104DE00005FE0A2002F0BAFE30780028C8D15BB078
:104DF000BDE8F083A0580020A05C0020FC02002049
:104E00003C3C2D4F532D494E464F2D3E3E204D6587
:104E10007373616765617070206372656174650AA0
:104E20000A000000303A2F53797374656D0000005A
:104E3000017F02087CA20408290000206572726FBD
:104E4000720000000D0A204E6F2064657465637463
:104E500065642053494D39303041206D6F64756C65
:104E60006521200D0A00000081010020000801409A
:104E70008201002041542B434D47443D25640D00E1
:104E800025730000004400407CB510F0C5FE0346C9
:104E9000002000900190224A0521224802F0C2FC25
:104EA000064621A021F0F2FB2749284807F09EFB87
:104EB00026482749083007F099FB264C264D2BE061
:104EC000224807F0A1FB2148083007F09DFB002194
:104ED0001E4807F093FB38B1206880F00100206085
:104EE00001211A4807F08AFB18480021083007F012
:104EF00085FB40B1206880F002002060134801214A
:104F0000083007F07BFB1548007810B1304610F0F0
:104F10006DFD0A2002F022FE28780028D0D17CBD49
:104F2000497C02089C3304083C3C2D4F532D494ECC
:104F3000464F2D3E3E204B4559617070206372658F
:104F40006174650A0A000000F9B60008AC0100208F
:104F500015B700080C0C0140830100202900002037
:104F60007CB5164CDA20207025206070C420A0701B
:104F700013A021F08BFB0EF047FFA2786178207818
:104F80000EF012F910F048FE034600200090019048
:104F9000144A0721144802F045FC0646134C144DF0
:104FA00007E0217811B1304610F020FD0A2002F010
:104FB000D5FD29780029F4D17CBD0000BC0100207A
:104FC0003C3C2D4F532D494E464F2D3E3E204272C4
:104FD00065617468696E6761707020637265617481
:104FE000650A0A00D969020828340408290000204B
:104FF000840100202DE9F04F8BB000261C2104A86D
:10500000FBF747F959A021F041FB10F005FE002500
:10501000034600955D4A03215D48019502F002FCBC
:105020008346584610F0EDFD02228DE825004FF42E
:1050300008710391C823DC225021052001F08AFA6F
:10504000074600231A46FA21FF2001F0F1FA514CDD
:10505000A060012232231146192001F043FB814652
:10506000322300220221BE2001F03CFB82464FF693
:10507000FF784146504601F07FFB4749384610F023
:1050800023F900231A4619463846009501F08EFB95
:105090004249384601F005FC3221384601F0A7FBB1
:1050A0000121384601F0E1FB0121384601F0B9FB4E
:1050B0000021A06801F0FCFA3949484601F03EFBA6
:1050C0004146484601F058FB3846A16801F0B7F95F
:1050D0004946384601F0D5F95146384601F0D1F934
:1050E000304F3CE0761CF6B2322E2FD32088064695
:1050F000FBF73BFBFBF77CFB4FF066322A4BFBF7E1
:1051000033FA6FF00B02FBF710FBFBF79DFB6060BF
:10511000FBF76EFBCDE90001324624A104A821F083
:10512000C5FA8DF8285040F26111584610F08AFDFA
:1051300004A90EF0F6FC21496068FBF73CF9FBF787
:105140002AFB01B2A06801F055FA00261C4800783D
:1051500010B1584610F04AFC0A2002F0FFFC3878E3
:105160000028BFD10BB0BDE8F08F00003C3C2D4FB4
:10517000532D494E464F2D3E3E20414443617070B1
:10518000206372656174650A0A000000996802086C
:105190005C9B04084C020020C86105087D5C020885
:1051A0000AD7A33C8501002066660A403078253086
:1051B0003458202D2D3E2025665600000000484220
:1051C000290000207CB50FA021F060FA10F024FD2A
:1051D0000346002000900190124A0121124802F07B
:1051E00021FB0646114C124D07E0217811B13046E3
:1051F00010F0FCFB0A2002F0B1FC29780029F4D160
:105200007CBD00003C3C2D4F532D494E464F2D3E5A
:105210003E2055534552617070206372656174651C
:105220000A0A00005D89020828C704082900002036
:105230008D0100207CB51FA021F028FA10F0ECFCB5
:105240000346002000900190224A0E21224802F0DD
:10525000E9FA0646304610F0D4FC0023FA2219463B
:1052600010F0A4FA0A2002F079FC1C4C207818B146
:105270001B480CF0E9FA2070207828B1012219A10E
:105280001AA004F04DF806E04FF4B871304610F063
:10529000D9FC10F028FC1B4C1B4D07E0207810B106
:1052A000304610F0A3FB0A2002F058FC28780028B2
:1052B000F4D17CBD3C3C2D4F532D494E464F2D3EE5
:1052C0003E20436C6F636B61707020637265617424
:1052D000650A0A0069730208B09B04089800002060
:1052E000285200206572726F720000000D0A205271
:1052F000544320576F726B20446F776E2121212019
:105300000D0A000029000020870100202DE9FC473C
:1053100010F082FC0026034600961E4A02211E4819
:10532000019602F07FFA82461CA021F0AFF94FF4FB
:105330008051224825F03FFB2149204808600FF0AA
:105340004DFD204D204C214FDFF88480DFF8849004
:105350001AE0287858B10EF077F80EF077F80FF0D1
:105360007DFD0FF067FD20680528FCD12E703868A0
:1053700080F00100386098F8000010B1504610F03D
:1053800035FBC82002F0EAFB99F800000028E0D1C4
:10539000BDE8FC87E9860208389D04083C3C2D4F97
:1053A000532D494E464F2D3E3E205553426170705D
:1053B000206372656174650A0A000000A05800202D
:1053C0009803002058020020140500200C0C014016
:1053D00029000020880100202DE9FE4F0025CCA0E7
:1053E00021F054F9D24E0027377001207070B77049
:1053F00010F012FC03460097CE4A0A21CE480197CE
:1054000002F010FA02904FF48051CC4825F0D3FA04
:10541000DFF82C83DFF82CB372E1B07800287DD15F
:10542000307800287AD07078002878D0DFF818A378
:10543000DAF8000010F054FB4FF4B871029810F045
:1054400001FCC2A1FCF7EBFA0A2002F087FBFEF791
:105450003FF84FF48071C04800F0EFFFFDF736FFD2
:1054600018B9B07840F00100B0700020FEF7BCF829
:1054700018B9B07840F00200B07000244FF0FF0976
:105480000FE0AB492331A1F11500FEF72FF860B909
:1054900098F8000008B9307808B986F80290641CC2
:1054A000A4B2B07808B90A2CEBD30A2C03D1B17896
:1054B00041F00401B17000240CE00020FDF776FFFC
:1054C00060B998F8000008B9307808B986F80290F9
:1054D000641CA4B2B07808B90A2CEED30A2C03D10C
:1054E000B17841F00801B170002411E0904A052321
:1054F000083202F130010020FEF71AF860B998F87E
:10550000000008B9307808B986F80290641CA4B28B
:10551000B07808B90A2CE9D30A2C01E0E5E02BE0C9
:1055200003D1B17841F01001B17000240BE0FEF717
:105530005BF960B998F8000008B9307808B986F8C6
:105540000290641CA4B2B07808B90A2CEFD30A2CDC
:1055500003D1B07840F02000B070804801886FF32C
:105560000E010180018821F4004101807770DAF892
:10557000000010F0B8FA7BE0142D79D34FF4B87A1C
:105580005146029810F05EFB75A1FCF748FA40F214
:1055900071194946029810F055FB10F0A4FA734CAB
:1055A000B4F80004000422D54FF48061634825F06C
:1055B00002FAB4F80004C0F30E0027542546052370
:1055C000002229460120FEF765F85C49284625F0AF
:1055D000FAF9706809F0D2FBB0F57A7F03DB64A1B9
:1055E000706809F06CFC5549706809F046F961482B
:1055F000007890B3FDF7FCFEFDF72CFF0028FBD0F0
:1056000004282AD13770777040F20311029810F005
:1056100019FB10F068FA4FF48171029810F012FB38
:1056200010F061FA40F20111029810F00BFB10F03B
:105630005AFA4FF48071029810F004FB10F053FAFC
:105640004946029810F0FEFA10F04AFA51460298C4
:1056500010F0F8FA48A1FCF7E2F904F5806420881C
:105660006FF30E002080208820F400402080002569
:10567000B078D0B39BF80000B8B340F203110298A1
:1056800010F0E0FA10F02FFA4FF48171029810F048
:10569000D9FA10F028FA40F20111029810F0D2FA6B
:1056A00010F021FA4FF48071029810F0CBFA10F04C
:1056B0001AFA40F27111029810F0C4FA10F010FAC0
:1056C0004FF4B871029810F0BDFA2BA1FCF7A7F9BE
:1056D00037707770B078FF2806D0012229A12BA05F
:1056E00003F01EFE01207070B7706D1CEDB298F8CB
:1056F000000010B1029810F079F90A2002F02EFA99
:105700009BF8000000287FF488AEBDE8FE8F000003
:105710003C3C2D4F532D494E464F2D3E3E20576960
:105720006669617070206372656174650A0A0000C1
:105730005C020020518C0208709D0408A0580020D3
:10574000290000208901002090010020E8BF9EE68A
:105750008EA5E4B8AD000000000C014044560020C6
:10576000E9809AE4BFA1E4B8AD00000044520020F3
:105770000000000030000020E69CAAE8BF9EE68EF4
:10578000A50000006572726F720000000D0A2054BF
:10579000686520576966692064726976652063616F
:1057A0006E6E6F7420776F726B21200D0A000000FF
:1057B000F0B587B00024002604960596029603965D
:1057C0003EA020F063FF464D2E700EF079F8FCF7F6
:1057D000BFFF012806D005F108000CF0D7F9012819
:1057E00006D007E001202870FCF77DFF686001E02B
:1057F0000220287010F010FA03460096394A04215E
:105800003948019602F00EF80746384E51E02878E4
:1058100008B1641CE4B2782C42D306A809F0FEFF5C
:105820002878022802D0012823D035E02C480830FF
:105830000CF0ACF92A4C2EA1083404A8E378A27825
:1058400020F034FF40F26111384610F0FBF904A952
:105850000EF067F96378227825A102A820F026FFD0
:105860004FF4B171384610F0EDF902A90EF059F974
:1058700012E0FCF738FF6860FAF7BAFF02460B4601
:105880001DA104A820F012FF4FF4B071384610F0AB
:10589000D9F904A90EF045F906A809F0DFFF0024A4
:1058A0001748007810B1384610F0A0F80A2002F02E
:1058B00055F930780028AAD107B0F0BD3C3C2D4FF7
:1058C000532D494E464F2D3E3E2048756D697475E7
:1058D0007265617070206372656174650A0A000008
:1058E000A4020020C1790208889E04088A010020D1
:1058F00025642E256400000025302E32660000004D
:10590000290000202DE9F04F85B00024FDF792FF1B
:1059100043A020F0BBFE10F07FF900270222494986
:10592000CDE90002CDE902174FF4A073F022394609
:1059300038460FF069FF8346642002F00FF90BF040
:10594000A1FC4FF47A7507E00BF0A4FC30B92846AF
:1059500024F060FE641CE4B20A2CF5D3DFF8E8A062
:105960000A2C0CD00FF0C8FB384E3770022006F01E
:1059700043FC0A2024F04EFE2024354D49E05846D1
:1059800010F0B4FD022233A134A008F06BFE02F047
:10599000C1FD584610F02AF89AF8000000283CD0C3
:1059A0000A2002F0DBF8F4E73078022828D104A8B6
:1059B00009F034FF3249042008606C612C61091F32
:1059C00008606C612C610021DFF8B8C0DFF8B88096
:1059D0004FF496396C61DCF8002002F47F422C61B0
:1059E0006C61DCF80030C3F3072313432C61A8F883
:1059F0000030491C4945EDD304A809F02FFF37704A
:105A00002248007810B158460FF0F0FF012002F054
:105A1000A5F89AF800000028C6D105B0BDE8F08FBF
:105A20003C3C2D4F532D494E464F2D3E3E20436169
:105A30006D657261617070206372656174650A0AD8
:105A400000000000E1A602088B0100207B0100207D
:105A5000001001406572726F720000000D0A205440
:105A600068652043616D65726120647269766520A6
:105A700063616E6E6F7420776F726B21200D0A0068
:105A800014080140080C01400000026029000020B9
:105A90007CB50FA020F0FAFD10F0BEF80346002000
:105AA00000900190144A0321144801F0BBFE064601
:105AB000134C144D07E0217811B130460FF096FFDA
:105AC0000A2002F04BF829780029F4D17CBD0000AF
:105AD0003C3C2D4F532D494E464F2D3E3E204361B9
