:020000040800F2
:1000000078FF002065010008D7F30008A5BC0008B0
:10001000D5F30008611B0008174F0108000000001D
:100020000000000000000000000000007D2F01081B
:10003000B12B000800000000AB0F000871000108A0
:100040007F0100087F0100087F010008E119010815
:100050007F0100087F0100087F0100087F01000880
:100060007F010008893800087F0100087F0100082F
:100070007F0100087F0100087F0100087F01000860
:100080007F0100087F0100087F010008BD4D0108C5
:10009000894E01087F0100087F0100087F010008E8
:1000A0007F0100087F0100087F0100087F01000830
:1000B0007F0100087F0100087F0100087F01000820
:1000C0007F0100087F0100087F0100087F01000810
:1000D0007F0100087F0100083D490108454A0108E9
:1000E0007F0100087F0100087F0100087F010008F0
:1000F0007F0100087F0100087F0100087F010008E0
:100100007F0100087F0100087F0100087F010008CF
:100110007F0100087F0100087F0100087F010008BF
:100120007F0100087F0100087F0100087F010008AF
:10013000DFF80CD000F008FD004800471DC702089A
:1001400078FF0020EFF30980704780F3098870473B
:10015000EFF30880704780F30888704740BA704713
:10016000C0BA70470648804706480047FEE7FEE7EA
:10017000FEE7FEE7FEE7FEE7FEE7FEE7FEE7FEE757
:100180001D3801083101000872B6704762B6704729
:10019000EFF3108072B6704780F31088704730BF5D
:1001A000704720BF7047B0FA80F0704790FAA0F017
:1001B000B0FA80F0704790FAA0F070472DE9F05F38
:1001C0000546002092469B468846064681464024C6
:1001D0001BE0284641464746224600F080FB534636
:1001E0005A46C01A914110D311461846224600F0D3
:1001F00067FB2D1A67EB01084F46224601200021BC
:1002000000F05EFB17EB00094E41201EA4F1010433
:10021000DFDC484631462A464346BDE8F09F0000F1
:100220000649074A0868504343F2390210440860FF
:10023000400870470149086070470000100E002018
:100240006D4EC64110B5431A934209D283188818DF
:1002500003E010F8011D03F8011D521EF9D210BD74
:1002600040EA01039B0703D009E008C9121F08C038
:10027000042AFAD203E011F8013B00F8013B521EB8
:10028000F9D210BDD2B201E000F8012B491EFBD219
:1002900070470022F6E710B513460A460446194691
:1002A000FFF7F0FF204610BD30B505462A460B4645
:1002B00012F8010B13F8014B08B1A042F8D01CB1A1
:1002C000002802D06D1CF1E7284630BD421C10F812
:1002D000011B0029FBD1801A704730B5044600206D
:1002E000034600E05B1C934203D2E05CCD5C401B04
:1002F000F8D030BD034611F8012B00F8012B002A7D
:10030000F9D118467047F0B480EA0102D40F4200D8
:10031000B2EB410F02D20246084611464A0042D0D3
:10032000C30DDDB2C1F3C752AD1A202D35DAC1F3CA
:10033000160141F4000204B15242C5F1200602FA4E
:1003400006F12A411044B3EBD05F23D0C4B1012D94
:10035000A0EBC35009DCF0BC4FF0004202EAC352EC
:10036000DBB200F5000000F034BB400000F180700B
:1003700000EBC350A0F1807040EAD170490009E061
:10038000490841EAC071A0EBC35000F500004008E5
:1003900000EBC350F0BC00F013BB6142012202EB42
:1003A0004101001BF6E7F0BC704781F00041AAE76D
:1003B00080F00040A7E780EA010210B502F0004398
:1003C000400022D04A001FD0010E01EB1261C0F3A1
:1003D0005600C2F3560240F4000042F40002A0FBB3
:1003E000022000047F39140400D0401C50EA12405F
:1003F00001D44000491EC2B20C0604EBD010401CD0
:100400004008802A02D003E0002010BD20F0010047
:10041000002900DA0020184310BD2DE9FE4F804668
:1004200081EA0300C00F0C46009021F0004123F048
:100430000045B8EB0200A94105D24046214690464E
:100440001C460B46024623F00040104347D0270DC0
:10045000C7F30A00C3F30A510290401A01904028E2
:100460006BDAC3F3130040F4801B0098924620B16E
:100470000023D2EB030A63EB0B0B01985946C0F142
:100480004002504600F01CFA06460D4650465946BA
:10049000019A00F034FA10EB08006141002487EA69
:1004A000115284EAE7731A4340D0009A62B3019A6A
:1004B000012A4FEA075215DC001B61EB02014FF0E5
:1004C000004202EA0752CDE90042001C41F58011CA
:1004D00032462B4600F0BAFA03B0BDE8F08F404632
:1004E0002146F9E7001B61EB0201001C41F5801376
:1004F00000185B412018A2F5001747EB030140EA02
:10050000D570B6196D4111E06D084FEA360645EA1F
:10051000C0754FEA0752001B61EB0201001C41F558
:10052000801149084FEA30000019514132462B46EC
:1005300003B0BDE8F04F00F07ABA00980122400005
:100540000023D0EB020263EBE073009821464FEAF0
:10055000E074B8EB000061EB0401E9E783F00043CD
:100560005BE781F0004158E72DE9FE4F81EA030483
:1005700004F0004421F0004100944FF0000B23F000
:10058000004350EA01045ED052EA03045BD0C3F397
:100590000A54C1F30A552C44A4F2F3340194A0FB8D
:1005A0000254C1F3130141F48011C3F3130343F464
:1005B000801301FB024400FB034E840A970A44EABD
:1005C000815447EA8357A4FB076802958D0A05FB0F
:1005D00007854FEA932C04FB0C542705029D4FEA34
:1005E000065847EA1637B5EB08056EEB070C870E81
:1005F000920E47EA811742EA8312A7FB0201B6EB8B
:100600000B0164EB00042B0D43EA0C335E1844EB42
:100610001C50DA465146E7FB0201C5F313044FEACA
:100620000B3343EA14534FEA0432019C43EA0603B6
:10063000A4F10C040294009CCDE900B400F006FA89
:1006400003B0BDE8F08F00200146F9E72DE9F04D39
:1006500081EA030404F0004B21F0004514464FF0FA
:10066000000A23F0004150EA050220D054EA0102BA
:100670001DD0C5F30A570246C5F31303C1F3130097
:10068000C1F30A5640F4801543F48013A7EB060823
:10069000101BD64608F2FD3873EB050002D308F1B3
:1006A000010801E092185B41B8F1000F03DA002065
:1006B0000146BDE8F08D00204FF4801106468446C7
:1006C0000EE0171B73EB050705D3121B63EB050345
:1006D00006434CEA010C49084FEA300092185B418E
:1006E00050EA0107EDD152EA030012D082EA040079
:1006F00083EA0501084305D0101BAB4106D2012255
:10070000002306E000224FF0004302E06FF00102F8
:1007100053101AEB06004CEB085110EB0A0041EBAA
:100720000B01BDE8F04D00F082B970B521F0004337
:1007300003430CD0C1F30A550024D5EB040564EB48
:100740000403D617AD1AB34102DB0020014670BD89
:10075000201841EB025170BDC10F80EAE0700844DF
:10076000CA079623002100F034B9962300221146CF
:1007700000F02FB90EB5C10F80EAE0700844CA0737
:10078000002140F233438DE80E000A460B4600F08C
:100790005DF903B000BD00F0004220F00040C10D43
:1007A000C0F3160040F400007F2901DA00207047F2
:1007B000962903DCC1F19601C84001E096398840D2
:1007C000002AF4D04042704720F00040C10DC0F331
:1007D000160040F400007F2901DA002070479629B6
:1007E00003DCC1F19601C8407047963988407047D4
:1007F00000F0004230F000400AD0C10D01F56071F8
:10080000C0F3160042EA0151C20840071143704785
:10081000002001467047000030B5041E71F100044D
:1008200004DB4FF00044404264EB0101141E73F1FD
:10083000000405DB1C464FF00043524263EB040307
:100840008B4208BF824230BD01F0004330B421F03A
:10085000004150EA010206D00A0DA2F56072C1F310
:100860001301002A02DC30BC00207047440F44EA28
:10087000C104C100E01830BC00EBC25000F0A0B8C9
:10088000002801DBC0F10040002901DBC1F100417B
:100890008142704730B50B460146002020220124DA
:1008A00009E021FA02F59D4205D303FA02F5491B3E
:1008B00004FA02F52844151EA2F10102F1DC30BD54
:1008C000202A04DB203A00FA02F100207047914010
:1008D000C2F1200320FA03F3194390407047202A05
:1008E00004DB203A21FA02F00021704721FA02F3DA
:1008F000D040C2F120029140084319467047202A97
:1009000006DBCB17203A41FA02F043EAE07306E037
:1009100041FA02F3D040C2F1200291400843194647
:10092000704700000FB4002300B589B00CA90091F6
:100930000B996FF00042CB601E4B06931E4B079342
:100940000423CDE901321D4A089202466B4600207D
:1009500000F092F909B05DF814FB70B586B0064658
:100960004FF0FF300091CDE90101002015460C4603
:1009700004903246694604A8FFF7D4FF0346049862
:10098000211825B108B10A4600E022462A60002855
:100990000DD0002B02DD0098884208D0081B00947F
:1009A000CDE901043246694604A8FFF7BBFF06B053
:1009B00070BD0000B10E0008CF0E00086D0B0008DE
:1009C0000029A8BF7047401C490008BF20F0010063
:1009D000704710B4B0FA80FC00FA0CF050EA010441
:1009E00004BF10BC704749B1CCF1200421FA04F4D3
:1009F00011FA0CF118BF012121430843A3EB0C01AC
:100A0000CB1D4FEA00614FEA102042BF002010BC0E
:100A1000704700EBC35010440029A4BF10BC7047BE
:100A2000401C490008BF20F0010010BC704710B501
:100A3000141E73F1000408DA401C41F10001921801
:100A40005B411A4301D120F0010010BD2DE9F04DAA
:100A500092469B4611B1B1FA81F202E0B0FA80F2FF
:100A600020329046FFF72CFF04460F4640EA0A006A
:100A700041EA0B0153465A46084313D0114653EA44
:100A8000010019D0C8F140025046FFF728FF054683
:100A90000E46504659464246FFF712FF084305D01E
:100AA000012004E020463946BDE8F08D00200543D2
:100AB00046EAE0762C4337430A986305E40AA0EB44
:100AC00008000022FD0A44EA47540A3002D50020FB
:100AD0000146E9E7010510196941DDE908450019FA
:100AE0006941BDE8F04DA2E7C1F30A52C1F3130119
:100AF00040F2FF3341F480119A4202DA00200146AD
:100B0000704740F233439A42A2F2334202DC52422F
:100B1000FFF7E5BEFFF7D4BE30B5041E71F1000447
:100B200004DB4FF00044404264EB0101141E73F1FA
:100B3000000405DB1C464FF00043524263EB040304
:100B4000994208BF904230BD064C074D06E0E06870
:100B500040F0010394E8070098471034AC42F6D304
:100B6000FFF7EAFA887C0508A87C0508C0B24FF4B4
:100B7000F05100F0BDB900002DE9FF4F087881B0B9
:100B80009946FF2805D0491C2D2804D000240023B5
:100B900008E000230BE00124F9E703EB830300EBFB
:100BA0004303491C0878FF28F7D104B15B420020B9
:100BB0000090147801462D2C01D02B2C04D1521C0E
:100BC0002D2C12D00024009400251678FF2E0ED074
:100BD0000A24A0FB04C801FB0481002700FB0711C5
:100BE000521C16EB0C006941EFE70124EBE7994436
:100BF00050EA01020ED00024AA4D2646DFF8A88252
:100C000000F08AF982468B46B9F1000009DAC9F191
:100C100000071BE001980021C0E9001105B0BDE804
:100C2000F08F074612E0F80707D022462B463046E1
:100C30004146FFF799FC0646884622462B46104659
:100C40001946FFF791FC04460D467F10002FEAD1AC
:100C5000B9F1000F324643465046594602DAFFF7D3
:100C6000F5FC01E0FFF780FC009A0AB181F0004139
:100C7000019AC2E90001D1E72DE9FF4F1F468DB06F
:100C8000D7E901464FF0FF382E2045464FF00009C6
:100C90000B90B9696D1C0E988847396A824688475F
:100CA0000028F6D1BAF1FF3F0AD024F4D064002E18
:100CB00011DDBAF12B0F08D0BAF12D0F0BD102E0E4
:100CC000404611B0ABE744F48064B9696D1C0E98DE
:100CD00088478246761E6946600501D52D2000E0D2
:100CE0002B208DF8000001F1010B0DF1200809E027
:100CF000B9696D1C0E98884782460F9844F40074B9
:100D0000761E0560002E02DDBAF1300FF0D00B998F
:100D10008A453ED144F0800406E00F99681CA9F191
:100D2000010944F400740860B9696D1C761E0E98C0
:100D3000884782463028F0D02BE00B998A4505D1B0
:100D4000200603D444F08004761E18E0504629F0B3
:100D5000EEF808B30DF11301761E44F400748B45D0
:100D600008D2AAF130000BF8010B200607D5A9F133
:100D7000010003E0200602D409F101008146A0052C
:100D800002D50F99681C0860B9696D1C0E988847D8
:100D90008246002ED1DC53E0002E51DDBAF1650F02
:100DA00002D0BAF1450F4BD1A00549D5B9696D1CE8
:100DB00024F44074761E0E9888478246002E0CDD7F
:100DC0002B2804D0BAF12D0F07D144F48074B969EF
:100DD0006D1C0E9888478246761EE00501D52D21B0
:100DE00000E02B2108F8011BCDF82C8021E00DF14B
:100DF0002901761E44F4007488450CD2AAF1300013
:100E000010F0FF0088F8000002D10B99884509D93D
:100E100008F1010806E0E00501D5244801E042F2AE
:100E20000F708146B9696D1C0E98884782460F98ED
:100E30000560002E04DD504629F079F80028D6D14F
:100E4000F9690E988847FF208BF8000088F80000A9
:100E50000020069007904B466A4608A906A8FFF7AF
:100E60008BFEA00502D46FF001002AE714F0240FD6
:100E70000AD0E00714D1DDE906123868031D3B6093
:100E80000068C0E900120BE0DDE90601FFF7DCFCB9
:100E90000146E00704D13868021D3A60006801602D
:100EA00028460EE7000024400000F03FF1D8FFFF85
:100EB000426842B1016811F8013B23B1521EC0E9FA
:100EC0000012184670470121C160881E70474268B1
:100ED0005AB1C368016843B983688B4205D0491E83
:100EE000521CC0E90012002070474FF0FF307047DD
:100EF0007F2801D9002208E0064A02EB5002C00711
:100F0000127800D1120902F00F020120904008402F
:100F100070470000007705080EB540F23342029298
:100F20000022CDE900221346FFF790FD03B000BD7B
:100F300070B58C1810F8015B15F0070301D110F89B
:100F4000013B2A1106D110F8012B03E010F8016BC8
:100F500001F8016B5B1EF9D12B0705D40023521E4B
:100F60000DD401F8013BFAE710F8013BCB1A921CB3
:100F700003E013F8015B01F8015B521EF9D5A142B1
:100F8000D8D3002070BD000018484FF0FF01017059
:100F9000002080F309881648016881F30888154805
:100FA0004FF08051016062B6FEE772B6EFF3098040
:100FB00028B1203880E8F00F0F490968086000B5B3
:100FC0000E4880475DF804EB0D480E490A78027020
:100FD00009480D490A680260106890E8F00F203057
:100FE00080F309884EF0040E62B6704722ED00E0EF
:100FF0009400002004ED00E08C00002099FE000821
:1010000048000020490000209000002008B5012180
:10101000084610F021FB01214FF4047010F038FB5A
:101020000220ADF8000000208DF803006946024858
:1010300005F04EF908BD00000010014010B5FFF7A3
:10104000E5FFBDE8104000F001B8000070B590B0B9
:101050002B4E304601F034FA2A4805902A48069073
:10106000002407940125089509940A9428020B90FE
:1010700080000C9020200D9000020E900F9405A986
:10108000304601F099FA0121304601F00BFA009444
:101090008DF804408DF805504FF4602002900394C1
:1010A0008DF81050174C69464C3C204600F054F81F
:1010B0004FF4404010F0C6FA052301220B212046D0
:1010C00000F06EF80121204600F02CF801212046A6
:1010D00000F01CF8204600F09DF8204600F035F89E
:1010E0000028FAD1204600F0A6F8204600F026F8A5
:1010F0000028FAD10121204600F091F810B070BD0F
:10110000080002404C2401404C020020002904D079
:10111000816841F0010181607047816821F001011F
:1011200081607047002904D0816841F4807181603A
:101130007047816821F4807181607047014600200A
:101140008968490700D50120704701460020896859
:10115000090700D50120704710B542680E4B1A40B0
:101160000C790B6842EA04221343436082680B4BFC
:101170001A40D1E9024323434C7942EA4402134323
:101180008360C26A22F47002097C491EC9B242EA35
:101190000151C16210BD0000FFFEF0FFFDF7F1FF3D
:1011A00070B5072609290AD9C568A1F10A0404EB1C
:1011B0004404A640B543A3401D43C56007E005694C
:1011C00001EB4104A640B543A3401D4305611F2325
:1011D000072A09D2446B521E02EB820293409C43C1
:1011E00091400C43446370BD0D2A09D2046BD21F99
:1011F00002EB820293409C4391400C43046370BD18
:10120000C46A0D3A02EB820293409C4391400C4326
:10121000C46270BD816841F0080181607047002997
:1012200004D0816841F4A00181607047816821F495
:10123000A00181607047816841F0040181607047BE
:10124000002800DC404270477047000070B58AB04B
:10125000002405940C20144BCDE9013009AE032580
:10126000CDE90756012180220694CDE903210090A3
:1012700023460E4A0EA112480EF04AFC06AB059416
:1012800070C36802CDE9030499210E4ACDE901211A
:101290000D2000900A4800230B4A0CA1B4300EF038
:1012A00037FC0AB070BD000044120020851300080E
:1012B000417070205461736B2055706461746500D7
:1012C000DC0E00204814002001140008417070203A
:1012D0005461736B2055736572617070000000007B
:1012E0000EB500F0BFF800F04FFE00F025F902A89F
:1012F0000EF0B6FB0BA025F0A5F9FFF7A7FF15A090
:1013000025F0A0F9FFF7A0FF002502AC08F036FC9D
:101310000022CDE900540F23114610460EF016FEB0
:10132000F4E700003C3C2D4F532D494E464F2D3ED7
:101330003E204372656174696E67204170706C690C
:10134000636174696F6E205461736B732E2E2E0A65
:101350000D0A00003C3C2D4F532D494E464F2D3E6B
:101360003E204372656174696E67204170706C69DC
:10137000636174696F6E204576656E74732E2E2ED0
:101380000A0D0A000EB51B4C4FF47A7508E0A178DF
:10139000491CC9B2A1700A2906D2284629F080F951
:1013A00013F07CF80028F2D101274FF48079DFF8A0
:1013B00048A0124E00250DF1080817E0002013F098
:1013C000EDF838B13078012800D1677049465046B1
:1013D00005F009F80022CDE90058642311461046B3
:1013E0000EF0B4FD4946504604F0FBFFA0780A28F1
:1013F000F0D2E3E72800002000080140800100202F
:1014000004480078552801D02AF0FEFF13F084FD2F
:10141000FCE700002800002010B5012010F046F97C
:10142000BDE81040002010F041B9000008B50349A4
:10143000084400900098008808BD0000006C00403F
:1014400008B5034A104400900098016008BD0000F0
:10145000006C004000B585B0684610F035F9019881
:1014600005B000BD30B585B000200190029003901A
:1014700004902B4C294860600121402010F0ECF8CA
:1014800000F06AFB0CF058F80BF05AF80BF06EF80D
:1014900000F026FB13F0BEF916F0B2FA042015F0A6
:1014A0009DFA07F021FA01221EA160682AF080F857
:1014B0001D4908701D4D18B1E020287005B030BDE1
:1014C00001224FF4FF11194811F0A0FB287855288C
:1014D0001CD11022164901A811F098FBBDF8080094
:1014E0000090BDF81030BDF80C20BDF804100020AD
:1014F00008F0ECFABDF80A000090BDF81230BDF813
:101500000E20BDF80610012008F0E0FA10F094FA61
:10151000084810F06FF92070D0E7000090580020C4
:1015200098000020303A00002B0000202800002006
:1015300002E01F001852002010B5FFF78BFF04498E
:101540000968B0FBF1F0BDE810400EF0A3BD00004B
:1015500030D2020838B5456804460146284613F0E3
:10156000E1FD00282AD02068304A0F2819D006DC77
:101570000B2824D00C2810D00E2851D12FE0112890
:1015800002D028284CD145E09268002A16D0214686
:10159000284601B0BDE83040104721462846526831
:1015A000F7E7284605F00AFE0090406E046868469A
:1015B00005F06EFE002C01D02846A04738BD284615
:1015C00005F0FCFD0090683005F052FD0098032105
:1015D0006C3005F05BFD684605F05AFE20E0E168DE
:1015E000486809680D2902D0202913D105E0002898
:1015F00010DD28461FF0DDFD06E0002804DD28464A
:10160000BDE838401FF0D5BD2846BDE8384002216E
:101610001FF0E5BDE06818B90021284600F0E0F9A8
:101620002046BDE8384014F07FB9000000060020D5
:101630002DE9FF410AAF70CF002703958DE8D00058
:1016400000F003F804B0BDE8F081F0B585B00DF10D
:10165000280CBCE8F0004FF0000C8DE8F01000F012
:1016600025F805B0F0BDF0B5044685B08069B4F941
:101670000850668A0027CDE90265CDE9001704907D
:10168000B4F90C00B4F91060C118B4F90A00B4F947
:101690000E50104433462A4600F008F805466168AB
:1016A00000F0BDF905B02846F0BD00002DE9F04F6F
:1016B00085B01F46DDE911B4DDE90E569046894636
:1016C000824607F07BF94C341548CDE90204CDE998
:1016D00000563B4642464946504614F06BF804001B
:1016E00018D005F06BFD10225946049013F06EFFE0
:1016F000049830220B493430FEF7A4FD094D0499BB
:101700000C3D2868486604A805F0C2FD28684168B9
:101710002046884708F016FD05B02046BDE8F08F4A
:10172000551500080C060020F0B5044680688B496A
:1017300089B051F82050606800287DD0052804D079
:1017400006287AD0122879D1AEE0E86900284FD077
:1017500095E80E008DE80F0004F110010FC909F0A3
:10176000A9FA002655F8260007F0A9FFA169E86943
:101770000A1A216901446069304406F047FDA169F5
:10178000E8690A1A21690144E069801B06F03EFD00
:10179000E169E8690A1A616901442069304406F088
:1017A0000BFEE169E8690A1A61690144A069801BBE
:1017B00006F002FE761C022ED4DBA86807F07FFF3D
:1017C000E069E9696669431A20694218521E31448A
:1017D000801C06F0A7FEE169E869A2690B1A61693D
:1017E0000144101A401C921E06F09CFEEE6913E0A4
:1017F0005FF0000655F8260007F061FFE069831BE3
:10180000A069821B606981192069304406F074FD6B
:10181000761C022EEEDB0226D5E90301CDE900019C
:101820006169E06908444310A069891C821B206932
:10183000304406F085FC02E089E012E08AE0D5E958
:101840000501CDE90001E36960690121184401EB5C
:101850006001A0699B1E821B2069304406F070FC69
:1018600078E0206805F0AAFC0490206815F0FEFCE2
:1018700040B1A06808B1002008E00498006F28B1CA
:10188000012003E00498406F00B10220049901EBAD
:101890008000C56E04A805F0FBFC00231A4628460C
:1018A000216806F0F9F855E0206805F087FC0490FF
:1018B000866EEEB3B0F95C70A168D1B3032942D053
:1018C0005FF0000100EB8101406D0C6C07F020FF20
:1018D000204607F0F4FE05A806F0E6FEBDF8141059
:1018E000A88B0144ADF81410BDF81810081AADF813
:1018F0001800BDF81600801CADF81600BDF81A00DF
:10190000801EADF81A0004985E30B0F90220B0F9DC
:10191000001005A807F0E1FC04A805F0B9FC0220BE
:1019200007F080FF304605F049FC3A4605A901E082
:101930000BE006E0079006F051FA07A805F0A8FCB6
:1019400008E00121BEE70221BCE704A8F6E7206811
:1019500015F004F909B00020F0BD0000885F05080B
:1019600008B50023009300F001F808BD70B51646D5
:101970000C46054619463046049A06F04FF80246D2
:1019800021462846BDE8704000F08BB8044A034960
:10199000116004494A6A4862104670473C060020BC
:1019A000000600200C06002000294FF0100101D095
:1019B00013F047BC13F08FBB38B50D4604000ED0B2
:1019C00006F0FCFF204605F0F9FB009045656846EF
:1019D00005F05EFC204614F05FFD08F0B3FB38BD57
:1019E0004FF480720029114601D013F02ABC13F085
:1019F00072BB08B50023009300F001F808BD70B574
:101A000016460C46054619463046049A06F026F856
:101A1000024621462846BDE8704000F042B82DE954
:101A2000FF410E4605004FF0010421D006F0C6FF2D
:101A3000284605F0C3FB0190876E01A8009705F0CA
:101A400027FC3146684609F0E3FC78B10098002491
:101A5000B84208D0284605F0B1FB01900099816694
:101A600001A805F015FC284614F016FD08F06AFBE5
:101A700004B02046BDE8F08138B50C4605000FD013
:101A800006F09CFF284605F099FB0090A0F85C400A
:101A9000684605F0FDFB284614F0FEFC08F052FBFA
:101AA00038BDF8B515460C46060018D006F086FF7E
:101AB000304605F083FB0090032C0BD800EB84002C
:101AC0006C3005F0D5FA009800EB8400C56630460E
:101AD00014F0E2FC684605F0DBFB08F033FBF8BDD0
:101AE00038B5012104200FF0D3FD4FF48074ADF818
:101AF000004010208DF8030003208DF80200054DF2
:101B00006946284604F0E4FB2146284604F069FCB7
:101B100038BD00000008014010B500280FD04FF478
:101B20008054012811D0022815D11021012011F074
:101B3000BBFB2146BDE81040022011F06BBB102119
:101B4000BDE81040012011F0AFBB2146BDE81040B8
:101B5000022011F05FBB10BD4FF4A0600DF07EBC01
:101B6000FEE7C1B2000A40EA0120704770B50020CC
:101B70008F4B904C5988A4F1400202E0155C25542B
:101B8000401C8842FAD38B48626820304260A268C9
:101B900082601F290FD00220FFF7BEFF00202060C7
:101BA000607B1A22052111F01FFCBDE87040002166
:101BB000012011F0F9BBE17B282901D02A290FD19E
:101BC000207D627CE57C40EA0260A27C120442EA4D
:101BD000052210435860E07DA27D40EA0220986013
:101BE000754A206890427DD1744A607B12689042A9
:101BF00003D8A27B0AB1102A0DD90220FFF78CFF6F
:101C0000607B2422052111F0EFFBBDE8704000212C
:101C1000012011F0C9BB252968D01ADC15297CD018
:101C20000DDC08297AD005DCF1B303293FD0042963
:101C30002DD177E00A2972D0122928D13BE01A3938
:101C40000A2924D2DFE801F0433B237A3F232323F0
:101C5000234B8A297DD00EDC552967D006DC282944
:101C60004CD02A2950D02F2911D153E05A2932D0F3
:101C700088290CD172E0A82968D004DC8F2969D0AA
:101C80009E2904D16EE0AA2974D0AF297AD002200F
:101C9000FFF742FF607B2022052111F0A5FBBDE884
:101CA00070400021012000E024E011F07DBBBDE880
:101CB000704010F057BDBDE8704010F061BCBDE849
:101CC000704010F05BBDBDE8704010F057BDBDE83E
:101CD000704010F095BCBDE8704010F08BBCBDE8C2
:101CE000704001E056E001E010F006BDBDE8704034
:101CF00010F0C8BCBDE8704010F044BDD3E901123B
:101D0000BDE8704010F082BCD3E90112BDE870401C
:101D100010F072BDBDE8704002E00BE012E025E07B
:101D200010F04CBDBDE8704010F012BCBDE8704032
:101D300010F040BCBDE8704010F03CBCBDE8704005
:101D400010F038BCBDE8704010F034BCBDE8704005
:101D500002E013E01AE00DE010F02CBCBDE870408A
:101D600010F028BCBDE8704010F024BCBDE8704005
:101D700010F020BCBDE8704010F01CBCBDE8704005
:101D800010F018BCBDE8704010F014BCBDE8704005
:101D900010F010BC0220FFF7BFFE607B202205215F
:101DA00011F022FBBDE870400021012011F0FCBAC7
:101DB0000C04002058EA00205553424370040020D0
:101DC0002DE9FF470446006810B115F04FFA68B1DD
:101DD0000022314850F8221060680A2841D007DC00
:101DE000F0B306280DD0072854D106E00122F0E711
:101DF00012280AD019284DD137E0204617F05CFD93
:101E000048E0204619F050FC44E0206805F0D6F97F
:101E10000290B0F9548090F85650476C466B02A877
:101E200005F036FA206800F039F88146684613F06C
:101E30009BFEBDF8001009EB05000844ADF800005A
:101E4000246A304607F064FC022007F0EBFC3846B9
:101E500007F035FC42466946204605F0BFFF19E011
:101E600007E020461AF0F7FC14E0886904B0BDE8EA
:101E7000F087206814F072FE206805F09FF9039047
:101E8000B0F90610B0F90220891A491CC16703A8ED
:101E900005F0FEF90020E9E7985F050838B504462B
:101EA00006F08CFD204605F089F90090C46F684665
:101EB00005F0EEF908F046F9204638BD044A03491A
:101EC00011600449CA69C86110467047C8060020FD
:101ED0008C0C0020900C002000B589B024216846AD
:101EE000FEF7D7F91920019003480068806841681F
:101EF0006846884709B000BD8C0C00207CB5214C99
:101F00000546216831F8220F4A8D10440880488820
:101F1000CA8D10444880284606F0A0FB2168498CF1
:101F2000ADF800104618284609F00EF93044401E5E
:101F3000ADF8040006F00CFC2168898CADF80210A5
:101F40000844401EADF80600684615F023F804E08A
:101F5000284603F049FE14F0D1FF0028F8D10A2DDD
:101F600004D0BDF804002168401C4884206830F883
:101F7000221F428D891A01804188C28D891A4180B1
:101F80007CBD00001C050020AFF30080024900204A
:101F9000086000F009B80000340000200149086022
:101FA000704700003400002010B50948016841F076
:101FB00080710160074800214160016841F0010122
:101FC0000160FFF747FABDE81040FFF7E7BF0000E8
:101FD000FCED00E0001000E00148406870470000A0
:101FE000001000E02DE9F041194E1A4F1A4C1B4D1C
:101FF00028E047F6FF702060288800F00F0131705C
:1020000007EB8100D0F8002C92B213040CD5D0F865
:10201000002C40F68F731A40C0F8002C1048491E5F
:1020200050F8210080470DE012060BD5D0F8002CA7
:1020300048F60F731A40C0F8002C0A48491E50F8A1
:1020400021008047206828800004D2D4BDE8F081B8
:102050003C03002000500040445C00406C04002021
:1020600050040020340400202DE9F84F0020009097
:102070004BF6BF7748F28008614E624D40F68F7A8A
:10208000DFF8849148F60F7B604C2CE0088800F064
:102090000F0089F8000078B304EB8001D1F8002C20
:1020A0000092BDF8002012040AD5D1F8002C02EAF3
:1020B0000A02C1F8002C5649401E51F82000804702
:1020C000BDF8000000060ED599F8000004EB800171
:1020D000D1F8002C02EA0B02C1F8002C4D49401E39
:1020E00051F8200080474648443000684A4908803B
:1020F0000004CBD4BDE8F88FFFE73068288028883B
:1021000000F030006880288800F440502880306853
:10211000384080F4005080F0200040EA0800306031
:102120000888C00620D4306800EA0B0030600AF04E
:102130003FF9306838402988C90401D580F48050BF
:102140002988890401D580F400506988C90601D521
:1021500080F010006988890601D580F0200080B2E7
:1021600040EA08003060C5E730680090BDF8000024
:10217000000520D5306800EA0A00306011F046F909
:10218000306838402988C90401D580F480502988F6
:10219000890401D580F400506988C90601D580F012
:1021A00010006988890601D580F0200080B240EADD
:1021B000080030609EE7BDF80000000493D5306849
:1021C00000EA0A0030600FF00DF8306838402988C6
:1021D000C90401D580F480502988890401D580F490
:1021E00000506988C90601D580F010006988890609
:1021F00001D580F0200080B240EA0800306079E725
:10220000005C00404E0300203C03002000500040D2
:1022100050040020340400206C0400208100084891
:102220000844D0F8001C490409D5D0F8001C48F631
:102230008F7211404CF280021143C0F8001C7047AD
:1022400000500040810008480844D0F8001C4906AE
:1022500009D5D0F8001C48F68F72114048F2C00230
:102260001143C0F8001C7047005000408100064830
:102270000844D0F8001C48F68F62114048F28002F2
:102280001143C0F8001C70470050004070B586B084
:1022900013F098FC30214FF41472CDE9032105911D
:1022A0000321CDE90001174800230293036A742239
:1022B0004FF481713E2009F0CAFD134D28620024BD
:1022C000124E13A2286A56F8341009F0F7FC641C69
:1022D000E4B2022CF5D30F4A0121286A09F02EFE40
:1022E0004FF0FF31286A09F073FE0A220021286AA4
:1022F00009F07DFE286A06B00821BDE8704009F0AB
:1023000050BE000068580020800100208CD20208D6
:102310000000000080FFFF80F0B587B0002413F0BC
:1023200051FC2C4A0223CDE901322B4D00900421AF
:1023300005F1080003910FC813F03CFA68623A21D6
:102340003022CDE90421002640F25123CDE9026379
:102350000321CDE90001E8692A68143000EB40034D
:10236000D21E3146032009F072FD1C4DA8611C4E9F
:102370006FF07F4706EBC40056F834104268A86936
:1023800009F09CFC3A462146A86909F051FE641CFC
:10239000E4B20C2CEED3134A0121A86909F0CEFD5A
:1023A0001149A86909F0E6FD4FF0FF31A86909F06D
:1023B0000FFE0A220021A86909F019FE0C22012152
:1023C000A86909F014FEA86907B00821BDE8F0402B
:1023D00009F0E7BDD19B0208685800208001002069
:1023E0009CD2020880FFFF8074D80408F0B585B045
:1023F00013F0E8FB0C230226CDE901631CA14FF486
:10240000B072CDE90321009010233C223146002018
:1024100011F0A4FA194C6061194911F041FB6FF0F9
:102420007F452946606911F091FB13F0CBFB1549FC
:102430000E2740F261130A688DE8C10012A1CDE9B0
:10244000033102EBD2706FF0180101EB6000102332
:102450003222022111F082FA6061294611F076FBE6
:10246000606905B00B49BDE8F04011F019BB0000F0
:1024700057696C6466697265204F530080010020C3
:1024800074D804086858002031313A35363A303073
:102490000000000064D10408014800687047000093
:1024A00014070020002904D0016841F001010160F7
:1024B000704701684FF6FE721140016070470000DE
:1024C00001684FF6FE721140016000210160416019
:1024D0008160C1603649364A0839904204D1486863
:1024E00040F00F0048607047314A1432904204D1E6
:1024F000486840F0F000486070472D4A283290420A
:1025000004D1486840F4706048607047284A3C3203
:10251000904204D1486840F4704048607047244AB3
:102520005032904204D1486840F4702048607047AF
:102530001F4A6432904204D1486840F470004860F9
:1025400070471B4A7832904204D1486840F070606E
:1025500048607047174A111F904204D1086840F044
:102560000F0008607047134A1432904204D1086883
:1025700040F0F000086070470E4A2832904204D1C3
:10258000086840F47060086070470A4A3C32904224
:1025900004D1086840F4704008607047054A503222
:1025A0009042FAD1086840F470200860704700003B
:1025B000080002400804024030B5026847F6F07394
:1025C0009A430C6A8B682343D1E904452C43234387
:1025D0008C692343CC6923434C6A23438C6A23438D
:1025E00013430360CA6842600A6882604968C16038
:1025F00030BD0000F8B50546006804F0DFFD00902E
:10260000448ED0F88860684604F042FE06B1012688
:1026100004F00104286814F029FE0EB1002006E041
:102620000CB1012003E008B1022000E003201B49A7
:1026300051F82010686858B302280CD0052802D041
:10264000122828D103E0284617F062F923E0284633
:102650001AF05DFE1FE06A69E8694FF0FF33801AE7
:10266000A0F1080203EB6204421CAB69001B451099
:10267000A3EB6206C86907F022F806E03219311BA5
:10268000284605F0C3FD641E6D1C002CF6DA02E03E
:10269000286814F063FA0020F8BD0000F85F050810
:1026A000044A0349116004490A6B086310467047E5
:1026B00018070020CC0C0020D00C002038B50D46A7
:1026C000002404F07BFD0090C06B294604F0A5FEB9
:1026D0000546684604F0DCFD1DB1284604F06EFD99
:1026E0000446204638BD10B500F094F800F03AF8E2
:1026F000CC2000F0A7F8442000F0A4F800F08AF8FD
:1027000000F030F8CC2000F09DF8BE2000F09AF8E0
:1027100000F072F8044600F06FF8000200B22043A7
:102720006FF0030400280ADAC043401CFEF722F8C9
:102730002246FDF7FAFFBDE81040FEF785B8FEF728
:1027400019F82246FDF7F1FFBDE81040FEF77CB80E
:1027500010B511F08BF800F05DF8BDE8104000F006
:1027600001B8000070B5002411F096F8124D04E095
:10277000641CE4B2012027F093FF4021284603F0B7
:1027800029FE08B1642CF3D3642C01D3002070BD62
:10279000002404E0641CE4B2012027F081FF402102
:1027A000284603F017FE08B9F02CF3D3F02C01D320
:1027B000002070BD012070BD0018014010B511F05F
:1027C00079F80C4C4021204603F00BFE0A2027F03C
:1027D00067FF11F061F84021204603F0FBFD01285E
:1027E00005D000242D2027F05BFF204610BD0124DA
:1027F000F8E700000018014070B500250024FFF73D
:10280000DDFFA0402843C5B2641CE4B2082CF6D317
:10281000284670BD10B511F04DF8094C40212046F6
:1028200003F0DFFD40F2EE2027F03AFF4021204682
:1028300003F0D9FDBDE810400F2027F031BF0000A4
:102840000018014070B5054611F034F80024134E0D
:1028500005F001006D0870B14021304603F0C1FD64
:10286000082027F01DFF4021304603F0BCFD3A2030
:1028700027F016FF0DE04021304603F0B2FD462060
:1028800027F00EFF4021304603F0ADFD022027F077
:1028900007FF641CE4B2082CDAD370BD00180140B5
:1028A0002DE9F047DFF89880D8F8001001F1100505
:1028B00028880E7A234F4FF03009002801D1042ECA
:1028C00004D0AC88A04215D8042614E01E48017834
:1028D000012903D00726102038802BE01B4A002155
:1028E00012681B4B92B2921C43F81210A7F800908A
:1028F00001701FE00226844200D90446A968A0B2F4
:1029000088478246002008F0BFFE0146A2B250462A
:1029100012F084FBA1B2002010F0B8FC2888001B44
:102920002880688820446880A7F8009009494FF4FF
:1029300040500880D8F800000672BDE8F08700001B
:10294000400300205003002038030020505C00406A
:10295000006000404E0300202DE9F041214E346814
:1029600010342088A168002915D0A0B1A58885421F
:1029700000D90546A8B2884707462088401B20801A
:10298000608828446080002008F05EFE0146AAB2FC
:1029900038460EF085FC2088134F302538B1134996
:1029A000280208800021084610F070FC3D80208835
:1029B000A188884204D3316803200872BDE8F08101
:1029C00018B1316805200872F8E7316806200872EE
:1029D000074800210068074A80B2801C42F81010A6
:1029E0003D80EBE740030020500300204E03002011
:1029F000505C0040006000402DE9F843634E3068B1
:102A000042780024624D062A296801D08AB117E075
:102A10000278520669D18078012804D0022804D0B7
:102A2000032804D061E0CC695FE00C6A5DE04C6A89
:102A30005BE0438823B9C388022B01D1037923B11A
:102A4000082A39D00A2A3CD04FE00278530601D137
:102A5000838833B102F07F02012A04D0022A0CD00D
:102A600043E04C4C41E08A6940790021904710BB1B
:102A70003068807AF8B1474C37E0417901F00F00B7
:102A800001F070020B06444907D501EB8001D1F833
:102A9000001CC1F30111090106E001EB8001D1F82E
:102AA000001CC1F3013109033C4B1B7883421CD944
:102AB0000AB901B1374C18E00078400615D1384CFE
:102AC00013E0027802F07F02012A0ED1827A62B10D
:102AD000428852B9027942B9C288012A05D18A696D
:102AE00040790021904700B92E4C09274FF000088B
:102AF0003CB13068A0F8128084610020A04700201B
:102B000006E029683068096940788847032816D0AC
:102B100031680A8AA2F57F43FF3B0DD0022811D00D
:102B200082B1087800062AD5C888009000988242B1
:102B30000CD9009808821AE00F72BDE8F88330685B
:102B40000772FAE74FF008000872F6E70FD228681C
:102B5000154B90F82C00824202D283F8008006E0E8
:102B6000B2FBF0F400FB142008B9012018702868AB
:102B700090F82C008882BDE8F843FFF791BE03204F
:102B800008720A4900030880D7E7000040030020CC
:102B9000440300202536010800500040DC040020DA
:102BA000B5350108FD350108380300204E0300202B
:102BB000704700002DE9FF41224D4021284603F0D7
:102BC00012FC8021284603F00EFC08240194002604
:102BD0008DF80A6001A800F0A7FE09208DF80C000E
:102BE0008DF80F6003A80CF007FC10266E611649E3
:102BF000042008602020286114480460081F046035
:102C0000012108200EF044FD4FF47F40ADF8000094
:102C10008DF8036003278DF8027069460C4803F0B5
:102C200057FB012110200EF033FDADF800408DF868
:102C300003608DF802706946284603F049FBBDE841
:102C4000FF810000001001401408014010140140F1
:102C5000000C01402DE9FC470E465FEA00097FD0D9
:102C600005F0ACFE484604F0A9FA009090F85470C4
:102C7000D0F85880456BC46C684604F009FBB8F185
:102C8000000F04D0314648464246904761E0122E7C
:102C900018D006DC082E43D0102E3CD0112E06D1C1
:102CA00012E0132E21D01D2E43D01E2E3DD0202EFB
:102CB0004FDB17B1484616F062FAB1B248461DF034
:102CC00095FC60B3611C27E04DB3284604F076FA0A
:102CD00005462146019007F011F94419204607F0F6
:102CE000ADF801462346012210E0C5B1284604F0A4
:102CF00065FA05462146019007F000F9441920467F
:102D000007F09CF8014623464FF0FF32484615F085
:102D100073FE01A81BE0611E484600F096FA18E019
:102D2000BCB1611E484600F090FA484616F027FAFA
:102D30000FE0484604F042FA0090012F12D0012122
:102D400080F854102146484600F07FFA684604F0A7
:102D50009FFA484613F0A0FB00E001E007F0F2F90B
:102D6000BDE8FC87002180F85410EFE7FEB5446809
:102D70000546204614F07AFA06462946204612F007
:102D8000D1F9002834D028680E283DD004DC0B2867
:102D90002FD00C284AD116E00F2825D0A0F580703E
:102DA000133843D1204613F03DFD204600211FF08B
:102DB000C7FB204604F002FA0190C06F002113F017
:102DC00009FD01A81DE0E86860B1017A29B1016838
:102DD000204600F012F9012100E00221204613F004
:102DE0003EFC23E00321F9E7012120461FF0A8FB68
:102DF000FEBD204604F0E2F90090343004F038F9CA
:102E0000684604F045FA11E086B1E8684168002997
:102E10000CDD0168092909D00A2907D00D2905D040
:102E20001B2903D02046FFF715FFFEBD284612F0F0
:102E30007BFDFEBDF0B587B004460DF1080CD4E96A
:102E40000567B0F90850408AACE8E1000020CDE900
:102E50000010B4F90C00B4F91060C118B4F90A00FC
:102E6000B4F90E50104433462A4600F009F8050024
:102E700002D0618A00F09AF907B02846F0BD000040
:102E80002DE9FF5F1F46DDE91254DDE90E6A904629
:102E90008946834605F092FD0DF1040C4AF48050FA
:102EA00058341E490096ACE813003B46424649465A
:102EB000584612F07FFC04002AD004F07FF910225B
:102EC0000090119912F082FB00981C221449603086
:102ED000FDF7B8F9009A012082F85500681C00D06F
:102EE000012082F88000002D00DC08252DB2158716
:102EF0000020508750636D1C684604F0C9F92946CC
:102F000020461DF0ACF918B9204612F045FD00240A
:102F100007F018F904B02046BDE8F09F6D2D0008B9
:102F2000D4070020F8B515460E46040021D005F060
:102F300045FD65B1002332461946204612F00CFCCF
:102F40000546204604F03AF90090C5670CE020469B
:102F500004F034F90090C06F12F009FD00990020D0
:102F6000C867204613F098FA684604F091F907F014
:102F7000E9F8F8BD2DE9FC4115460E00044627D0BE
:102F8000002C25D005F01AFD204604F017F9002783
:102F900001903770406BB0B104F010F9009008F068
:102FA000B7F80146009806F0A9FF0446681E84425F
:102FB00000DD0446224630460099FDF743F9684695
:102FC00004F066F9375501A804F062F907F0BAF881
:102FD000BDE8FC8138B505004FF000040BD005F0CA
:102FE000EDFC284604F0EAF80090846C684604F092
:102FF0004FF907F0A7F8204638BD2DE9F04186B01B
:103000000C46060055D005F0D9FC304604F0D6F841
:103010000090406B98B304F0D1F803900098806E54
:1030200006F076FB8046304612F06EFF07460398A6
:1030300005F0C5FB0546009890F8601001F003010B
:10304000012916D002290DD0416EC06A00680844DB
:10305000241A641E039808F05BF80146002C0FDA6E
:10306000002115E0781B401C00EBD070A4EB60043D
:10307000F0E7406E791B081A241A641CEAE713E093
:10308000AC4205DC02462146039807F0E1FF014609
:10309000304600F0DAF803A804F0FAF8404606F0EB
:1030A00037FB304613F0F8F9684604F0F1F807F002
:1030B00049F806B0BDE8F08138B50C4605000FD0E0
:1030C00005F07CFC284604F079F8009018B184667D
:1030D000284613F0E1F9684604F0DAF807F032F810
:1030E00038BD2DE9FC4788465FEA00094FF000052E
:1030F0005AD005F063FC484604F060F80090B0F93F
:103100003860446B684604F0C3F80027B8F1000F3C
:103110003ED04CB1204604F051F80190FDF7D6F8AE
:10312000451C01A804F0B4F8404607F0F1FF04463E
:10313000B04200DD34462146404606F0DFFE461C24
:10314000711B48461DF06DFC08B3484604F036F884
:103150000090406B04F032F8324641460190FDF792
:1031600071F80198304400F8017C0098C464B0F90B
:1031700038108C4205D190F85410012901D1641EF9
:10318000C464684604F084F801A804F081F806E0FD
:103190000098343003F06CFF00984787C7644846B6
:1031A00013F07AF906F0CEFFBDE8FC8738B50C467F
:1031B00005000FD005F002FC284603F0FFFF009049
:1031C00018B10466284613F067F9684604F060F801
:1031D00006F0B8FF38BD0000F8B51D4616460C468F
:1031E000074605F0EBFB2FB3384603F0E7FF0090EE
:1031F000AC4201D92C4602E0B44200D234460F4919
:1032000081650F49C1650021C0E91241C0E90F6520
:10321000012180F85410B0F938100A2901DD0A2183
:103220000187684604F034F8384622F06FFC3846CF
:1032300013F032F906F086FFF8BD0000017C0108AA
:103240000D5B0208002222F0F3B81CB50C4603F017
:10325000B5FF0090406BF0B103F0B0FF019007F0B4
:1032600057FF009991F8542002B10122002C00DA96
:103270000024844200DD0446B1F93800801AA042DF
:1032800000DA0446C86CA04200D0CC640020086577
:1032900001A803F0FDFF684603F0FAFF1CBD012200
:1032A00022F0C6B808B568460CF08EFA0CF006F8A5
:1032B00068460CF0A9FA08BD08B568460CF084FA17
:1032C0000CF02CF868460CF09FFA08BD70B500248D
:1032D0004FF400710D4803F086F84FF47A7004F053
:1032E00013FC4FF4FA750CE02B46002208A109A04C
:1032F00000F012F808B1012070BD00F0B7F9641CAD
:10330000E4B20A2CF0D3002070BD0000000C014094
:103310004F4B0000415400002DE9F04184460C461B
:1033200015461F461D4EB6F800046FF30E00A6F8B2
:10333000000462461AA11C4811F092FC54EA0500F0
:1033400010D0384604F0E0FBB6F800140020C1F3BA
:103350000E0170548CB185B121463046FCF7A4FFB4
:1033600048B902E00120BDE8F08129460B48FCF78E
:103370009BFF0028F7D00120F5E73CB12146074824
:10338000FCF792FF0028EED00120ECE72946034825
:10339000FCF78AFF0028E6D00120E4E73452002041
:1033A00025730D0A000000000048004000B585B0FC
:1033B000002801D0012200E0002208A1684623F085
:1033C00051F94FF4FA73002208A16846FFF7A4FFF1
:1033D00010B1012005B000BD0020FBE741542B4394
:1033E00049504D55583D2564000000004F4B0000EA
:1033F00010B54FF47A7004F087FB05A1054811F071
:103400002FFCBDE810404FF4FA7004F07DBB0000C3
:103410002B2B2B000048004038B5012108200EF06E
:1034200037F94FF48070ADF8000010208DF80300DC
:1034300003208DF80200064C6946204602F048FF42
:103440006115ADF800106946204602F041FF38BD15
:10345000000C014010B54FF4FA7300220DA10EA02C
:10346000FFF75AFFA0B110A11248FCF71DFF08B1E9
:10347000022010BD10A10F48FCF716FF08B1032071
:1034800010BD10A10B48FCF70FFF08B1042010BDC0
:10349000002010BD4F4B000041542B434950535462
:1034A00041545553000000005354415455533A328F
:1034B0000D0A0000345200205354415455533A33FE
:1034C0000D0A00005354415455533A340D0A00007C
:1034D00010B5FFF7A1FF00F025F9BDE810404FF44B
:1034E0000071014802F07FBF000C014000B59FB0A1
:1034F0000B46024608A101A823F0B4F841F2883334
:1035000000220AA101A8FFF707FF10B101201FB098
:1035100000BD0020FBE7000041542B43574A4150B7
:103520003D222573222C2225732200004F4B0000E0
:10353000F0B5B9B004460F4615461E46642120A8D2
:10354000FCF7A7FE14B1012C0FD107E03B4612A2F5
:1035500012A120A8009523F085F806E03B4613A2AF
:103560000EA120A8009523F07DF8052E06D220ABF1
:1035700032460FA102A823F075F804E020AA11A199
:1035800002A823F06FF84FF47A6312A215A102A8E3
:10359000FFF7C2FE39B0F0BD54435000222573221C
:1035A0002C222573222C2573000000005544500066
:1035B00041542B43495053544152543D25642C25CA
:1035C0007300000041542B43495053544152543D21
:1035D00025730000414C5245415920434F4E4E4502
:1035E000435400004F4B000070B50446002540F6E0
:1035F000C4165CB1012C10D0022C15D0002000287C
:1036000003D16D1CEDB20A2DF3D370BD33460AA26F
:103610000CA10DA0FFF780FEF1E7334606A209A139
:103620000CA0FFF779FEEAE7334603A205A10CA040
:10363000FFF772FEE3E700006E6F206368616E675C
:10364000650000004F4B000041542B43574D4F4441
:10365000453D310041542B43574D4F44453D3200C9
:1036600041542B43574D4F44453D330070B5084DF1
:103670004FF400742146284602F0B3FE4FF4FA706E
:1036800004F042FA21462846BDE8704002F0ABBE85
:10369000000C014030B5044685B00D461846002C9C
:1036A00007D02A4611A1124811F0DAFA012005B01C
:1036B00030BD052806D2931C02460EA1684622F0B2
:1036C000D1FF04E0921C10A1684622F0CBFF4FF41A
:1036D0007A742346002210A16846FFF71DFE234698
:1036E00000220EA12846FFF717FEE0E72573000031
:1036F0000048004041542B43495053454E443D251A
:10370000642C25640000000041542B43495053456C
:103710004E443D25640000003E20000053454E44C9
:10372000204F4B0010B586B0012188040DF0A2FF98
:10373000012108200DF0ACFF4FF48060ADF81400BB
:1037400018208DF8170003208DF816001B4C05A9D2
:10375000204602F0BDFDE114ADF8141004218DF8EF
:10376000171005A9204602F0B3FD4FF4E130019097
:103770000020ADF80800ADF80A00ADF80C00ADF877
:1037800010000C20ADF80E000D4C01A9204611F0E0
:1037900001FA012240F22551204611F0E0F9012200
:1037A00040F22441204611F0DAF900F00BF8012133
:1037B000204611F0A1F906B010BD0000000C014038
:1037C0000048004008B527208DF8000000208DF843
:1037D000010002208DF8020001208DF803006846E8
:1037E0000BF00AFE08BD000010B54FF47A742346B2
:1037F000002207A107A0FFF78FFD38B12346BDE8DF
:10380000104008A202A108A0FFF786BD002010BD4D
:103810004F4B000041542B4349504D4F44453D31DF
:10382000000000003E00000041542B434950534526
:103830004E44000010B5FFF7EFFD114C4FF400713E
:10384000204602F0CEFDA115204602F0CAFD0D4C27
:10385000002240F22551204611F081F9002240F269
:103860002441204611F07BF90021204611F044F953
:10387000BDE8104000214FF480200DF0FBBE000099
:10388000000C01400048004070B5FCF781FC134A71
:103890001178491C1170FCF77FFC082000F034F807
:1038A000C0B10F490822087810B101280AD00EE0F3
:1038B0000C4B102058610C4C226001250D702260C9
:1038C000186104E00848001D02600220087008200A
:1038D00000F00CF8BDE870400BF0DABE40000020AC
:1038E0007B010020001001401014014001490860D4
:1038F000704700001404014002490A6802430A604C
:10390000704700001004014001460020054A12687B
:103910000A40044B14331B680B4202D0002A00D02B
:10392000012070470004014030B51B4A83790168CB
:10393000002B2AD013688B431360111D0B68046899
:10394000A3430B60017911440B68046823430B60A7
:10395000114C08342168036899432160231D1968BC
:103960000568A94319604179102905D011440A68F6
:10397000006802430A6030BD21680268114321607B
:10398000196800680143196030BD0079104402686D
:103990008A43026030BD0000000401402DE9F0417F
:1039A000CCB0054600244FF4967841466846FCF7B3
:1039B00070FC012224A12B4827F020FE2A4F3870EA
:1039C00028B1284827F079FC4CB0BDE8F0814BA81D
:1039D0000BF0FAFE05EB851000EB8001214827F083
:1039E0007BFC3870224E214B40F245121D48F16994
:1039F00027F0EAFE38701F4D002748B12F70F0699C
:103A000007704BA80BF000FF164827F056FCDBE7C9
:103A1000F16914220E46491D1648FCF713FC285D77
:103A200020280FD0641CA4B2142CF8D3424606F10F
:103A300019016846FCF706FC42463146684628F004
:103A4000B1FBDEE72F55F1E7303A2F5379737465F8
:103A50006D2F6D6573736167656C6973742E74780F
:103A600074000000482C00202B0000202C000020B7
:103A7000FC020020806C00202DE9F84310258DF811
:103A8000035003268DF80260012120200DF000FE76
:103A90000824ADF800406946234802F019FC0121D2
:103AA00010200DF0F5FDADF80050204F6946384666
:103AB00002F00EFC012104200DF0EAFD0425ADF812
:103AC0000050DFF86C806946404602F001FC01219D
:103AD00004200DF0DDFDADF800406946404602F0DF
:103AE000F7FB012110200DF0D3FD2021ADF80010CF
:103AF0006946384602F0ECFB012108200DF0C8FDB4
:103B00004FF47F40ADF800008DF803508DF802604F
:103B10006946084802F0DCFB05481430046002489E
:103B200010300460BDE8F88300140140001001402B
:103B300000080140000C01402DE9F04389B098468F
:103B400015460F4606004FF000042DD000F0DCFBB8
:103B50000446304600F09FFB814604F02FFF03A986
:103B6000304600F064FDF80706D0BDF91C00001BCC
:103B7000401B401C822109E0B8070028BDF918004D
:103B8000284402DA40F2022100E002210096CDE949
:103B9000018123461A464946FDF74AFD04460021A5
:103BA000FDF702FF06F0CEFA09B02046BDE8F0832B
:103BB00010B50523FFF7C0FF0446054A0021FDF7B5
:103BC00018FF0449204612F07EFE204610BD00007A
:103BD000AD9701083D6802082DE9F04745680446A5
:103BE0008EB00026284603F0E9FA00905C30B0F869
:103BF00020A0D0F80C90D0F82480C76A006800B1EB
:103C00000668684603F044FB05E07968204688476B
:103C100000283DD13F68002FF7D12068142844D0F8
:103C200009DCA0F10B00072839D2DFE800F0BE392B
:103C300089B434B4110020287ED004DC17283ED08B
:103C40001E282CD14BE026283CD02A2827D110E072
:103C50002846E66803F0B2FA0190717A39B9317AF0
:103C6000012904D130F87C1F41F48071018001A842
:103C70008FE0284603F0A2FA0090E16811B1C0F885
:103C8000841002E0D0F88400E060684603F000FB96
:103C90000EB0BDE8F087002E7DD02846B0477AE010
:103CA000214628461EF0C6F9F2E705A9284600F08D
:103CB000BEFCE0680699016007994160E8E7C4F836
:103CC0000C90E5E7E0680228E2D10C95E0680D90E1
:103CD00027200A900AA9A06813F0E2FCD8E7E06860
:103CE000012804D00021284600F086FBD0E740469A
:103CF00012F02DFC58B1404612F0AAFE404612F0D8
:103D0000F7FA88B10121404611F09BFA0CE04846D1
:103D100012F0F2FE8046284603F050FA0090C0F8F8
:103D20008080684603F0B4FA0121284600F064FB65
:103D3000B8F1000FACD100E00EE00020E060A7E792
:103D40005FEA0A7027D4E068C06820B3007A10B335
:103D5000284612F07DFE1EE0E668E6B1294670684E
:103D600013F06DFA20B10121284620F0C5FC12E0C5
:103D70000021284620F0C0FC2946306813F04EFA96
:103D800048B1284603F01AFA03903168C0F8801051
:103D900003A803F07DFA2146284611F0C3F9002854
:103DA0008CD0204611F0C0FD72E7284603F006FAD9
:103DB0000090703003F05CF96846EAE7F0B587B030
:103DC000B0F908400DF10C0C0C9E87694568ACE811
:103DD000F000448A0025CDE900150294B0F90C10DA
:103DE000B0F91050B0F90E40B0F90A00194410446F
:103DF0002B46224600F002F807B0F0BD2DE9F04F47
:103E00008BB09846DDE9155691468A468346149F45
:103E10001A9C04F0D3FD6034314845F48055CDE957
:103E20000204CDE9007543464A465146584611F012
:103E3000C1FC04004DD003F0C1F930220490179961
:103E400011F0C4FB0498282226493430FCF7FAF913
:103E5000049819995C30234F8160068400264662DD
:103E60000661083FC6627968016004A803F010FA91
:103E700005A9204600F0DBFB1B4841F28271039646
:103E80000094CDE90110BDF91E00BDF91A10BDF96D
:103E90001C20431ABDF918005B1C121A521C11F0A9
:103EA00089FC06467868416820468847204603F02A
:103EB00085F90490866604A803F0EAF942F204004A
:103EC000054202D1204611F0CFFD2046189900F09E
:103ED00018FB06F037F90BB02046BDE8F08F000064
:103EE000D93B0008F80700203D4900082DE9F041C2
:103EF000044694B0006800F0B7F908B1D94D01E06C
:103F0000D84D2C35606815281ED00CDC0B281FD02E
:103F100004DC00287ED005287DD12EE10E287BD040
:103F20001228F9D141E1162806D0172808D0182800
:103F300008D01C28F0D109E0E86914B0BDE8F08190
:103F4000286AFAE7686AF8E7A86AF6E76869F4E7B2
:103F500020680B901C200C90206803F02FF9039030
:103F6000016D0BA88847064603A803F091F9022EBD
:103F70000EDB95E807008DE80700D4E9040233461C
:103F8000A16906F05DFE20698719A069801B2BE0FE
:103F9000286805F094FB2169E8690A18521E6069D7
:103FA00004F034F9A269E869111A491C606904F047
:103FB0002DF9676920697F1C394604F077F9394685
:103FC000A06904F073F9686805F079FB2069394647
:103FD000401C04F06BF9A0693946401E04F066F9F4
:103FE0002769A069BF1C801E8046286805F067FB12
:103FF00042463946606904F009F9686805F05FFBDC
:1040000060694246401C394604F000F9686A02289B
:104010000FDD02E015E1AFE000E1A86805F04FFB1D
:1040200061696A6A881C8B1801465B1E42463846E5
:1040300027E0296AB14226DD6069022E074600F1B9
:10404000020801DB374401E007F10207206901DBC8
:10405000304401E000F1020022693B460A44A2F12B
:104060000102414604F05EFA022E02DBA069821BC7
:1040700001E0A269921EA069E9693B46401A401C12
:10408000414604F04FFA022E02DB6069064401E06B
:104090006669B61CE76928687F1E05F010FB3A4682
:1040A0003146206904F088F93A463146A06904F0A7
:1040B00083F9E7696868BF1E05F001FB20693A468D
:1040C000401C314604F078F9A0693A46401E31465A
:1040D00004F072F9E869022802DC286A022823DD6C
:1040E000A86A022802DDE1690F1A01E0E769BF1E34
:1040F000A86805F0E4FAE969022909DD20693B4670
:10410000421800F1020C521E3146604604F00AFAD1
:10411000286A022808DDA269E8693B46101A401C9B
:10412000921E314604F0FEF9286805F0C8FAD4E979
:104130000620216904F06AF8686805F0C0FAA269EF
:104140002169E069521E491C401E04F05FF8A86A0C
:10415000022811DD2669A169E469B61C271AA1F1BC
:1041600002087F1CA41EA86805F0A9FA234642464F
:104170003946304604F0D6F972E0208A06B2ADF82E
:104180001460A08A01B2ADF81610208B02B2ADF80F
:104190001820A08B03B2ADF81A30D5E90304CDE99D
:1041A0000004304603F0CCFF5AE0208A298B0844F3
:1041B000ADF81400A08AADF81600208B298B401AA8
:1041C000ADF81800A08BADF81A00206802F0F6FFD9
:1041D0000390006FF0B1022005F024FB039991F8E1
:1041E0007C00C0F3C00001EB8000006C05F067FAB2
:1041F0000398406B05F08CFA0398006F02F0DEFF25
:1042000003990A90B1F95A2005A903F0E7FD0AA81D
:1042100003F03EF803A803F03BF821E0208AADF854
:104220001400A08AADF81600208BADF81800A08B02
:10423000ADF81A00A86805F042FA05A804F09EF946
:104240000EE0206802F0BAFF039030F85A1F41F0E8
:104250000C01018003A803F01BF8206812F07EFC1B
:1042600000206AE63408002038B505004FF000044D
:104270000FD004F0A3FB284602F0A0FF009090F8B6
:104280007C00000700D50124684603F001F805F022
:1042900059FF204638BD38B505004FF0000411D055
:1042A00004F08CFB284602F089FF0090C06D0021CD
:1042B00080680268284690470446684602F0E8FF96
:1042C00005F040FF204638BDF8B50E4605004FF01A
:1042D000000411D004F072FB284602F06FFF00903A
:1042E000C06D31468068026828469047044668469B
:1042F00002F0CEFF05F026FF2046F8BD0148006819
:1043000070470000F807002030B587B005004FF077
:10431000000413D004F052FB01A9284600F087F9ED
:10432000284602F04BFF0090B0F95440684602F076
:10433000AFFF0CB9BDF9044005F004FF07B02046FB
:1043400030BD30B504468BB0006802F037FF0090F6
:1043500090F87C10246A006FC1F3C00508B102F028
:104360002DFF0690E068029020690390A088401E0F
:10437000ADF81000E089ADF812002089401CADF8BE
:104380001400608AADF81600BDF80800401CADF8B6
:104390000800BDF80A00401CADF80A00BDF80C008A
:1043A000401EADF80C000098406B05F0B1F9009884
:1043B00008AA02A9B0F95A30069806F085F80098C4
:1043C00000EB8500806B08F07BFD009800EB85001A
:1043D000006C08F0ADFD08AB02AA04A9069811F024
:1043E00005F8684602F054FF069810B106A802F0DE
:1043F0004FFF0BB0002030BD70B50D46040009D052
:1044000004F0DCFA2946204620F076F9BDE8704039
:1044100005F098BE70BD38B50C46050011D004F00B
:10442000CDFA284602F0CAFE0090816CA14203D06A
:104430008464806E12F030F8684602F029FF05F0BF
:1044400081FE38BD074A0649054B1160064A083B04
:10445000D16958601B68C2E9063008467047000001
:1044600028080020F4070020F80700202DE9FC416F
:104470000D46804604F0A2FA5FEA080028D002F058
:104480009DFE0190C16D8C6800F038F907460198D7
:10449000456301A802F0FCFE2268012140469047D6
:1044A00006462268032140469047054622680021BF
:1044B000404690470446404600F009FA2B463246F3
:1044C00039464046009400F091F9404611F0E4FF6F
:1044D00005F038FEBDE8FC8138B50C46054604F011
:1044E0006DFA55B1284602F069FE009004666846F0
:1044F00002F0CEFE284611F0CFFFBDE8384005F0AF
:1045000021BE7CB50D4604001DD004F057FA2046AC
:1045100002F054FE0090006F0190684602F0B8FE71
:10452000294601A806F074FF58B1204602F046FE65
:10453000009001990167684602F0AAFE204611F03A
:10454000ABFF05F0FFFD7CBD38B50C46050013D070
:1045500004F034FA284602F031FE0090B0F95A1007
:10456000A14204D0A0F85A40284611F095FF6846B1
:1045700002F08EFE05F0E6FD38BD000038B50C46B1
:10458000050015D004F01AFA284602F017FE0022A2
:10459000CDF8000000EB8201521C0C64022AF9D312
:1045A000684602F075FE284611F076FF05F0CAFD58
:1045B00038BD2DE9FC470D465FEA00094FF00004C5
:1045C00032D004F0FBF9484602F0F8FD0190B0F952
:1045D0005440A54223D000F091F880460198012173
:1045E000A0F85450C06D856848462A689047074631
:1045F0002A6803214846904706462A680021484613
:1046000090470546484600F062F933463A4641462F
:104610004846009500F0EAF8484611F03DFF01A831
:1046200002F036FE05F08EFD2046BDE8FC872DE940
:10463000F34F85B000270C46B846059802F0BEFD42
:104640000090C06D0121856805982A6890478246D0
:104650002A6803210598904704902A68022105984A
:10466000904703902A6800210598904706460098D5
:1046700012F082FC8346009812F085FC8146009877
:1046800090F83210890601D5B0F9588000F036F85C
:1046900005460098C06E10B111F04DFC074625800C
:1046A0006780A4F804A0049AABEB020006EB0802B2
:1046B000401E2A4420813A44E280039BA9EB030276
:1046C000521E6281A4F80CA020827019E681401E5F
:1046D0006082684602F0DCFDB4F90C000190B4F988
:1046E0001000029002AA01A9059800F039F801987B
:1046F000A0810298208207B0BDE8F08F10B5014676
:10470000002091F83220920607D5B1F95400002814
:1047100003D1486B04F0C2F8801C10BD70B58AB09C
:104720000C46054602F04AFD0990C06D866809A84E
:1047300002F0AEFD009534B1012C06D0022C0BD056
:10474000032C04D10AE0182000E0162001907168C3
:10475000684688470AB070BD1520F7E71720F5E7CF
:104760002DE9FC4790468946044602F027FD00905B
:10477000C16D056868468E6802F08AFD32680021C6
:10478000204690470646204611F043FA2F1404466F
:104790002DB227E002F012FD0190B0F90010B0F93F
:1047A0000420B0F90230491B521BDB1BB34212D16B
:1047B00090F82800000607D5D8F8000088420ADBE8
:1047C000491EC8F8001006E0D9F80000904202DC4B
:1047D000521CC9F8002001A802F05AFD204611F031
:1047E000DDFA0446002CD5D1BDE8FC872DE9FF4F4A
:1047F00083B00E460746DDF8409002F0DFFC0190E2
:10480000C16D8D68FFF77AFF044601A802F040FDF4
:104810002A6801213846904783462A680321384692
:10482000904782462A680021384690470546B442A0
:1048300007D105998B4504D106998A4501D14D458B
:1048400042D0A41B0026B046384611F0E2F939E008
:1048500002F0B4FC0090806A010602D54FEA805055
:1048600002E0810528D50006002825DB24B1224678
:104870001146384611F033FF009890F828000006E2
:104880000AD50698A5EB0902A0EB0A0004FB160165
:10489000761C384611F0D4FE0098008D80050BD5AB
:1048A0000599A5EB0902ABEB010004FB080108F137
:1048B0000108384611F0C4FE684602F0E9FC3846AB
:1048C00011F06CFA0700C3D107B0BDE8F08F70B5E6
:1048D00086B0064602F072FC0590D0E91A4505A89C
:1048E00002F0D6FC54EA050026D069463046FFF7B0
:1048F0009EFEACB1BDF90620BDF90410204611F0B2
:1049000063FEBDF90A00BDF90610421ABDF90800A0
:10491000BDF90410521C411A491C204612F073F9CB
:10492000002D09D0BDF90600BDF90210421ABDF9EB
:104930000410284611F048FE06B070BD2DE9F04382
:104940000446406885B0064611F046FA814602F0FA
:1049500035FC0090D0F88080876C456E684602F088
:1049600097FC2068172859D008DC0E2837D00F286C
:104970000BD0142852D015283AD14FE01E2818D059
:104980001F2827D0222833D146E06FF0704087429D
:1049900004D0384608F094FA02F0CEFE002D12D072
:1049A000D4E902122068CDE90106CDE9031201A87D
:1049B00022E0E068002806D05FEA080006D0B04593
:1049C00004D012F045F805B0BDE8F083304612F08F
:1049D00093F816E02146484610F0A4FBF3E7E068A0
:1049E0004168002904DD00680928EFD00A2805D0B5
:1049F000A5B12046C4F80490A847E4E7304612F079
:104A00008AF80446484602F0D9FB0090C0F880407E
:104A1000684602F03DFCD6E7E760D4E7204610F098
:104A200083FFD0E78000A0F1C040002904D00168D6
:104A300041F00101016070470168024A11400160C4
:104A400070470000FEFF0F0010B5D0E901121143BE
:104A5000D0E903231A431143426911438269114388
:104A6000C2691143026A1143426A1143826A1143C7
:104A7000C26A1143026B114302689200A2F1C04264
:104A800011608168082907D101688900A1F1C0413E
:104A90000A6842F040020A60416BD1E9002342EA11
:104AA00003128B688C891B0243EA04431A430B8A66
:104AB00042EA03520B7D896942EA03620A430168B4
:104AC000491C8900A1F1C0410A60C16AB1F5804F5B
:104AD00008D000686FF070418000A0F1C040C0F8BD
:104AE000041110BD816BD1E9002342EA03128B68E7
:104AF0000C8A1B0243EA04531A430B7D896942EA7C
:104B0000036200680A438000A0F1C040C0F804219D
:104B100010BD00002DE9F0478AB0142105A8FBF76D
:104B2000B8FB00244E4D00262E7005F110003121F7
:104B30000170417032218170C6704AA021F082FD5F
:104B400011F040F8034600964E4A07214E48019660
:104B500002F03EFE07464D480221CDE90071CDE945
:104B60000206BE23E6224121052010F023FE6860E4
:104B700010F0A2FD28F0F8F8454EDFF8188198B142
:104B8000022245A146A009F043FD03F099FC3078CC
:104B900010B1384610F000FF98F8000000285CD0F3
:104BA0000A2002F0B1FFF2E725F0DAFE45A248A1A3
:104BB00048480FF0D5FE4FF48079DFF81CA148E09B
:104BC000642C3CD905A807F08DFC88BB49465046AB
:104BD00001F009FC05A9E8680EF079FF686811F09A
:104BE00097FBA86811F094FB40F261142146384607
:104BF00010F0FEFF39A10EF06AFF2146384610F092
:104C0000F7FF12F044F840F27111384610F0F0FF4F
:104C100012F03DF84FF4B971384610F0E9FF12F088
:104C200036F840F27311384610F0E2FF11F070FBD5
:104C300025F096FE4946504601F0D3FB0024641C43
:104C4000E4B2307810B1384610F0A6FE0A2002F027
:104C50005BFF98F800000028B2D10AB0BDE8F087E9
:104C6000D00200203C3C2D4F532D494E464F2D3E47
:104C70003E2050686F6E656170702063726561746C
:104C8000650A0A00E18202081CA004088992020851
:104C900029000020810100206572726F72000000FF
:104CA0000D0A204E6F20646574656374656420533B
:104CB000494D39303041206D6F64756C6521200D90
:104CC0000A00000041542B434C49503D310D000077
:104CD000257300000044004000080140E696B0E65D
:104CE0009DA5E794B52E2E2E000000002DE9F0437F
:104CF000DBB00024142156A8FBF7CBFA502142A8C0
:104D0000FBF7C7FA4FF48078414602A8FBF7C1FAD7
:104D10004FF48051374825F094FE38493648C86131
:104D200037A021F08FFC3FA025F078FE10F04AFF5D
:104D300003460020009001903D4A07213D4802F0C3
:104D400047FD074628F010F83B4D98B102223BA1E1
:104D50003CA009F05DFC03F0B3FB434C287810B194
:104D6000384610F019FE2078002840D00A2002F0C2
:104D7000CBFEF3E725F0F4FDDFF8F0903C4E33E096
:104D8000642C27D907F06CFB044620001BD0414659
:104D9000484601F028FB174A42A9204627F054FE56
:104DA00038B102A9134827F087FB02A942A827F0CF
:104DB000F3FE22462FA156A821F054FC56AA30A19A
:104DC00030480FF0CDFD25F0CBFD4146484601F0BF
:104DD00008FB0024641CE4B2287810B1384610F0B7
:104DE000DBFD0A2002F090FE30780028C8D15BB0CD
:104DF000BDE8F08390580020905C0020FC02002069
:104E00003C3C2D4F532D494E464F2D3E3E204D6587
:104E10007373616765617070206372656174650AA0
:104E20000A000000303A2F53797374656D0000005A
:104E3000B97E0208E0A00408290000206572726FA4
:104E4000720000000D0A204E6F2064657465637463
:104E500065642053494D39303041206D6F64756C65
:104E60006521200D0A00000081010020000801409A
:104E70008201002041542B434D47443D25640D00E1
:104E800025730000004400407CB510F09BFE0346F3
:104E9000002000900190224A0521224802F098FC4F
:104EA000064621A021F0CEFB2749284807F074FBD5
:104EB00026482749083007F06FFB264C264D2BE08B
:104EC000224807F077FB2148083007F073FB0021E8
:104ED0001E4807F069FB38B1206880F001002060AF
:104EE00001211A4807F060FB18480021083007F03C
:104EF0005BFB40B1206880F0020020601348012174
:104F0000083007F051FB1548007810B1304610F01A
:104F100043FD0A2002F0F8FD28780028D0D17CBD9E
:104F2000017C0208003204083C3C2D4F532D494EB1
:104F3000464F2D3E3E204B4559617070206372658F
:104F40006174650A0A000000A5B60008AC010020E3
:104F5000C1B600080C0C014083010020290000208C
:104F60007CB5164CDA20207025206070C420A0701B
:104F700013A021F067FB0EF01DFFA2786178207866
:104F80000EF0E8F810F01EFE03460020009001909D
:104F9000144A0721144802F01BFC0646134C144D1A
:104FA00007E0217811B1304610F0F6FC0A2002F03B
:104FB000ABFD29780029F4D17CBD0000BC010020A4
:104FC0003C3C2D4F532D494E464F2D3E3E204272C4
:104FD00065617468696E6761707020637265617481
:104FE000650A0A00916902088C3204082900002031
:104FF000840100202DE9F04F8BB000261C2104A86D
:10500000FBF747F959A021F01DFB10F0DBFD00254F
:10501000034600955D4A03215D48019502F0D8FBE7
:105020008346584610F0C3FD02228DE825004FF458
:1050300008710391C823DC225021052001F060FA99
:10504000074600231A46FA21FF2001F0C7FA514C07
:10505000A060012232231146192001F019FB81467C
:10506000322300220221BE2001F012FB82464FF6BD
:10507000FF784146504601F055FB4749384610F04D
:10508000F9F800231A4619463846009501F064FBEA
:105090004249384601F0DBFB3221384601F07DFB06
:1050A0000121384601F0B7FB0121384601F08FFBA2
:1050B0000021A06801F0D2FA3949484601F014FBFA
:1050C0004146484601F02EFB3846A16801F08DF9B3
:1050D0004946384601F0ABF95146384601F0A7F988
:1050E000304F3CE0761CF6B2322E2FD32088064695
:1050F000FBF73BFBFBF77CFB4FF066322A4BFBF7E1
:1051000033FA6FF00B02FBF710FBFBF79DFB6060BF
:10511000FBF76EFBCDE90001324624A104A821F083
:10512000A1FA8DF8285040F26111584610F060FD48
:1051300004A90EF0CCFC21496068FBF73CF9FBF7B1
:105140002AFB01B2A06801F02BFA00261C48007867
:1051500010B1584610F020FC0A2002F0D5FC387837
:105160000028BFD10BB0BDE8F08F00003C3C2D4FB4
:10517000532D494E464F2D3E3E20414443617070B1
:10518000206372656174650A0A00000051680208B4
:10519000C09904084C02002010600508355C020824
:1051A0000AD7A33C8501002066660A403078253086
:1051B0003458202D2D3E2025665600000000484220
:1051C000290000207CB50FA021F03CFA10F0FAFC79
:1051D0000346002000900190124A0121124802F07B
:1051E000F7FA0646114C124D07E0217811B130460E
:1051F00010F0D2FB0A2002F087FC29780029F4D1B4
:105200007CBD00003C3C2D4F532D494E464F2D3E5A
:105210003E2055534552617070206372656174651C
:105220000A0A0000598B02088CC5040829000020D6
:105230008D0100207CB51FA021F004FA10F0C2FC03
:105240000346002000900190224A0E21224802F0DD
:10525000BFFA0646304610F0AAFC0023FA2219468F
:1052600010F07AFA0A2002F04FFC1C4C207818B19A
:105270001B480CF0BFFA2070207828B1012219A138
:105280001AA004F023F806E04FF4B871304610F08D
:10529000AFFC10F0FEFB1B4C1B4D07E0207810B15B
:1052A000304610F079FB0A2002F02EFC2878002806
:1052B000F4D17CBD3C3C2D4F532D494E464F2D3EE5
:1052C0003E20436C6F636B61707020637265617424
:1052D000650A0A0021730208149A04089800002045
:1052E000185200206572726F720000000D0A205281
:1052F000544320576F726B20446F776E2121212019
:105300000D0A000029000020870100202DE9FC473C
:1053100010F058FC0026034600961E4A02211E4843
:10532000019602F055FA82461CA021F08BF94FF449
:105330008051224825F085FB2149204808600FF064
:1053400023FD204D204C214FDFF88480DFF884902E
:105350001AE0287858B10EF04DF80EF04DF80FF025
:1053600053FD0FF03DFD20680528FCD12E703868F4
:1053700080F00100386098F8000010B1504610F03D
:105380000BFBC82002F0C0FB99F800000028E0D118
:10539000BDE8FC87E58802089C9B04083C3C2D4F37
:1053A000532D494E464F2D3E3E205553426170705D
:1053B000206372656174650A0A000000905800203D
:1053C0008803002058020020040500200C0C014036
:1053D00029000020880100202DE9FE4F0025CCA0E7
:1053E00021F030F9D24E0027377001207070B7706D
:1053F00010F0E8FB03460097CE4A0A21CE480197F9
:1054000002F0E6F902904FF48051CC4825F019FBE8
:10541000DFF82C83DFF82CB372E1B07800287DD15F
:10542000307800287AD07078002878D0DFF818A378
:10543000DAF8000010F02AFB4FF4B871029810F06F
:10544000D7FBC2A1FCF7EBFA0A2002F05DFBFEF7E6
:105450003FF84FF48071C04800F0C5FFFDF736FFFC
:1054600018B9B07840F00100B0700020FEF7BCF829
:1054700018B9B07840F00200B07000244FF0FF0976
:105480000FE0AB492331A1F11500FEF72FF860B909
:1054900098F8000008B9307808B986F80290641CC2
:1054A000A4B2B07808B90A2CEBD30A2C03D1B17896
:1054B00041F00401B17000240CE00020FDF776FFFC
:1054C00060B998F8000008B9307808B986F80290F9
:1054D000641CA4B2B07808B90A2CEED30A2C03D10C
:1054E000B17841F00801B170002411E0904A052321
:1054F000083202F130010020FEF71AF860B998F87E
:10550000000008B9307808B986F80290641CA4B28B
:10551000B07808B90A2CE9D30A2C01E0E5E02BE0C9
:1055200003D1B17841F01001B17000240BE0FEF717
:105530005BF960B998F8000008B9307808B986F8C6
:105540000290641CA4B2B07808B90A2CEFD30A2CDC
:1055500003D1B07840F02000B070804801886FF32C
:105560000E010180018821F4004101807770DAF892
:10557000000010F08EFA7BE0142D79D34FF4B87A46
:105580005146029810F034FB75A1FCF748FA40F23E
:1055900071194946029810F02BFB10F07AFA734CFF
:1055A000B4F80004000422D54FF48061634825F06C
:1055B00048FAB4F80004C0F30E002754254605232A
:1055C000002229460120FEF765F85C49284625F0AF
:1055D00040FA706809F0A8FBB0F57A7F03DB64A19C
:1055E000706809F042FC5549706809F01CF961487F
:1055F000007890B3FDF7FCFEFDF72CFF0028FBD0F0
:1056000004282AD13770777040F20311029810F005
:10561000EFFA10F03EFA4FF48171029810F0E8FAB8
:1056200010F037FA40F20111029810F0E1FA10F090
:1056300030FA4FF48071029810F0DAFA10F029FA7B
:105640004946029810F0D4FA10F020FA5146029818
:1056500010F0CEFA48A1FCF7E2F904F58064208846
:105660006FF30E002080208820F400402080002569
:10567000B078D0B39BF80000B8B340F203110298A1
:1056800010F0B6FA10F005FA4FF48171029810F09C
:10569000AFFA10F0FEF940F20111029810F0A8FAEA
:1056A00010F0F7F94FF48071029810F0A1FA10F0A1
:1056B000F0F940F27111029810F09AFA10F0E6F940
:1056C0004FF4B871029810F093FA2BA1FCF7A7F9E8
:1056D00037707770B078FF2806D0012229A12BA05F
:1056E00003F0F4FD01207070B7706D1CEDB298F8F6
:1056F000000010B1029810F04FF90A2002F004FAED
:105700009BF8000000287FF488AEBDE8FE8F000003
:105710003C3C2D4F532D494E464F2D3E3E20576960
:105720006669617070206372656174650A0A0000C1
:105730005C020020618C0208D49B04089058002071
:10574000290000208901002090010020E8BF9EE68A
:105750008EA5E4B8AD000000000C014034560020D6
:10576000E9809AE4BFA1E4B8AD0000003452002003
:105770000000000030000020E69CAAE8BF9EE68EF4
:10578000A50000006572726F720000000D0A2054BF
:10579000686520576966692064726976652063616F
:1057A0006E6E6F7420776F726B21200D0A000000FF
:1057B000F0B587B00024002604960596029603965D
:1057C0003EA020F03FFF464D2E700EF04FF8FCF744
:1057D000BFFF012806D005F108000CF0ADF9012843
:1057E00006D007E001202870FCF77DFF686001E02B
:1057F0000220287010F0E6F903460096394A042189
:105800003948019601F0E4FF0746384E51E0287808
:1058100008B1641CE4B2782C42D306A809F0D4FF86
:105820002878022802D0012823D035E02C480830FF
:105830000CF082F92A4C2EA1083404A8E378A2784F
:1058400020F010FF40F26111384610F0D1F904A9A0
:105850000EF03DF96378227825A102A820F002FF1E
:105860004FF4B171384610F0C3F902A90EF02FF9C8
:1058700012E0FCF738FF6860FAF7BAFF02460B4601
:105880001DA104A820F0EEFE4FF4B071384610F0D0
:10589000AFF904A90EF01BF906A809F0B5FF002422
:1058A0001748007810B1384610F076F80A2002F058
:1058B0002BF930780028AAD107B0F0BD3C3C2D4F21
:1058C000532D494E464F2D3E3E2048756D697475E7
:1058D0007265617070206372656174650A0A000008
:1058E000A402002079790208EC9C04088A010020B7
:1058F00025642E256400000025302E32660000004D
:10590000290000202DE9F04F85B00024FDF792FF1B
:1059100043A020F097FE10F055F9002702224949D4
:10592000CDE90002CDE902174FF4A073F022394609
:1059300038460FF03FFF8346642002F0E5F80BF095
:1059400077FC4FF47A7507E00BF07AFC30B9284603
:1059500024F0A6FE641CE4B20A2CF5D3DFF8E8A01C
:105960000A2C0CD00FF09EFB384E3770022006F048
:1059700019FC0A2024F094FE2024354D49E05846B5
:1059800010F08AFD022233A134A008F041FE02F09B
:1059900097FD584610F000F89AF8000000283CD017
:1059A0000A2002F0B1F8F4E73078022828D104A8E0
:1059B00009F00AFF3249042008606C612C61091F5C
:1059C00008606C612C610021DFF8B8C0DFF8B88096
:1059D0004FF496396C61DCF8002002F47F422C61B0
:1059E0006C61DCF80030C3F3072313432C61A8F883
:1059F0000030491C4945EDD304A809F005FF377074
:105A00002248007810B158460FF0C6FF012002F07E
:105A10007BF89AF800000028C6D105B0BDE8F08FE9
:105A20003C3C2D4F532D494E464F2D3E3E20436169
:105A30006D657261617070206372656174650A0AD8
:105A4000000000006DA702088B0100207B010020F0
:105A5000001001406572726F720000000D0A205440
:105A600068652043616D65726120647269766520A6
:105A700063616E6E6F7420776F726B21200D0A0068
:105A800014080140080C01400000026029000020B9
:105A90007CB50FA020F0D6FD10F094F8034600204E
:105AA00000900190144A0321144801F091FE06462B
:105AB000134C144D07E0217811B130460FF06CFF04
:105AC0000A2002F021F829780029F4D17CBD0000D9
:105AD0003C3C2D4F532D494E464F2D3E3E204361B9
