:020000040800F2
:1000000068FE0020650100085BF3000839BC0008A9
:1000100059F30008391B00089B4E0108000000003E
:10002000000000000000000000000000012F010897
:100030007D2B000800000000830F0008F5FF00087A
:100040007F0100087F0100087F0100086519010891
:100050007F0100087F0100087F0100087F01000880
:100060007F010008893800087F0100087F0100082F
:100070007F0100087F0100087F0100087F01000860
:100080007F0100087F0100087F010008414D010841
:100090000D4E01087F0100087F0100087F01000864
:1000A0007F0100087F0100087F0100087F01000830
:1000B0007F0100087F0100087F0100087F01000820
:1000C0007F0100087F0100087F0100087F01000810
:1000D0007F0100087F010008C1480108C9490108E3
:1000E0007F0100087F0100087F0100087F010008F0
:1000F0007F0100087F0100087F0100087F010008E0
:100100007F0100087F0100087F0100087F010008CF
:100110007F0100087F0100087F0100087F010008BF
:100120007F0100087F0100087F0100087F010008AF
:10013000DFF80CD000F0F4FC0048004759C4020876
:1001400068FE0020EFF30980704780F3098870474C
:10015000EFF30880704780F30888704740BA704713
:10016000C0BA70470648804706480047FEE7FEE7EA
:10017000FEE7FEE7FEE7FEE7FEE7FEE7FEE7FEE757
:10018000A13701083101000872B6704762B67047A6
:10019000EFF3108072B6704780F31088704730BF5D
:1001A000704720BF7047B0FA80F0704790FAA0F017
:1001B000B0FA80F0704790FAA0F070472DE9F05F38
:1001C0000546002092469B468846064681464024C6
:1001D0001BE0284641464746224600F06CFB53464A
:1001E0005A46C01A914110D311461846224600F0D3
:1001F00053FB2D1A67EB01084F46224601200021D0
:1002000000F04AFB17EB00094E41201EA4F1010447
:10021000DFDC484631462A464346BDE8F09F10B52C
:10022000431A934209D28318881803E010F8011D7D
:1002300003F8011D521EF9D210BD40EA01039B07CD
:1002400003D009E008C9121F08C0042AFAD203E04B
:1002500011F8013B00F8013B521EF9D210BDD2B299
:1002600001E000F8012B491EFBD270470022F6E79F
:1002700010B513460A4604461946FFF7F0FF20461C
:1002800010BD30B505462A460B4612F8010B13F88F
:10029000014B08B1A042F8D01CB1002802D06D1C5F
:1002A000F1E7284630BD421C10F8011B0029FBD1A4
:1002B000801A704730B504460020034600E05B1CFE
:1002C000934203D2E05CCD5C401BF8D030BD0346C6
:1002D00011F8012B00F8012B002AF9D118467047BC
:1002E000F0B480EA0102D40F4200B2EB410F02D217
:1002F0000246084611464A0042D0C30DDDB2C1F3A2
:10030000C752AD1A202D35DAC1F3160141F40002AF
:1003100004B15242C5F1200602FA06F12A41104406
:10032000B3EBD05F23D0C4B1012DA0EBC35009DCE7
:10033000F0BC4FF0004202EAC352DBB200F500000D
:1003400000F033BB400000F1807000EBC350A0F11F
:10035000807040EAD170490009E0490841EAC07163
:10036000A0EBC35000F50000400800EBC350F0BC08
:1003700000F012BB6142012202EB4101001BF6E7D3
:10038000F0BC704781F00041AAE780F00040A7E789
:1003900080EA010210B502F00043400022D04A007A
:1003A0001FD0010E01EB1261C0F35600C2F35602DA
:1003B00040F4000042F40002A0FB022000047F3958
:1003C000140400D0401C50EA124001D44000491EE1
:1003D000C2B20C0604EBD010401C4008802A02D0A8
:1003E00003E0002010BD20F00100002900DA002009
:1003F000184310BD2DE9FE4F804681EA0300C00F6F
:100400000C46009021F0004123F00045B8EB0200BB
:10041000A94105D24046214690461C460B4602465D
:1004200023F00040104347D0270DC7F30A00C3F361
:100430000A510290401A019040286BDAC3F313006E
:1004400040F4801B0098924620B10023D2EB030AAF
:1004500063EB0B0B01985946C0F14002504600F087
:100460001BFA06460D4650465946019A00F033FAEB
:1004700010EB08006141002487EA115284EAE77317
:100480001A4340D0009A62B3019A012A4FEA0752F8
:1004900015DC001B61EB02014FF0004202EA07523B
:1004A000CDE90042001C41F5801132462B4600F098
:1004B000B9FA03B0BDE8F08F40462146F9E7001BCA
:1004C00061EB0201001C41F5801300185B4120180C
:1004D000A2F5001747EB030140EAD570B6196D414C
:1004E00011E06D084FEA360645EAC0754FEA07523B
:1004F000001B61EB0201001C41F5801149084FEA25
:1005000030000019514132462B4603B0BDE8F04F90
:1005100000F079BA0098012240000023D0EB0202DB
:1005200063EBE073009821464FEAE074B8EB0000FB
:1005300061EB0401E9E783F000435BE781F00041F0
:1005400058E72DE9FE4F81EA030404F0004421F04E
:10055000004100944FF0000B23F0004350EA0104E7
:100560005ED052EA03045BD0C3F30A54C1F30A55C8
:100570002C44A4F2F3340194A0FB0254C1F3130100
:1005800041F48011C3F3130343F4801301FB0244CD
:1005900000FB034E840A970A44EA815447EA8357D2
:1005A000A4FB076802958D0A05FB07854FEA932C8B
:1005B00004FB0C542705029D4FEA065847EA1637FC
:1005C000B5EB08056EEB070C870E920E47EA811714
:1005D00042EA8312A7FB0201B6EB0B0164EB0004B5
:1005E0002B0D43EA0C335E1844EB1C50DA4651469F
:1005F000E7FB0201C5F313044FEA0B3343EA14533C
:100600004FEA0432019C43EA0603A4F10C0402946D
:10061000009CCDE900B400F005FA03B0BDE8F08F0E
:1006200000200146F9E72DE9F04D81EA030404F0CA
:10063000004B21F0004514464FF0000A23F0004122
:1006400050EA050220D054EA01021DD0C5F30A5732
:100650000246C5F31303C1F31300C1F30A5640F475
:10066000801543F48013A7EB0608101BD64608F24A
:10067000FD3873EB050002D308F1010801E0921880
:100680005B41B8F1000F03DA00200146BDE8F08DB0
:1006900000204FF48011064684460EE0171B73EBD2
:1006A000050705D3121B63EB050306434CEA010C57
:1006B00049084FEA300092185B4150EA0107EDD13A
:1006C00052EA030012D082EA040083EA05010843DB
:1006D00005D0101BAB4106D20122002306E0002208
:1006E0004FF0004302E06FF0010253101AEB0600D6
:1006F0004CEB085110EB0A0041EB0B01BDE8F04D4B
:1007000000F081B970B521F0004303430CD0C1F370
:100710000A550024D5EB040564EB0403D617AD1A83
:10072000B34102DB0020014670BD201841EB0251AD
:1007300070BDC10F80EAE0700844CA07962300210B
:1007400000F033B996230022114600F02EB90EB501
:10075000C10F80EAE0700844CA07002140F2334329
:100760008DE80E000A460B4600F05CF903B000BDB0
:1007700000F0004220F00040C10DC0F3160040F42C
:1007800000007F2901DA00207047962903DCC1F1BF
:100790009601C84001E096398840002AF4D04042D2
:1007A000704720F00040C10DC0F3160040F4000077
:1007B0007F2901DA00207047962903DCC1F19601F8
:1007C000C840704796398840704700F0004230F0CA
:1007D00000400AD0C10D01F56071C0F3160042EA75
:1007E0000151C2084007114370470020014670477D
:1007F00030B5041E71F1000404DB4FF000444042A8
:1008000064EB0101141E73F1000405DB1C464FF07C
:100810000043524263EB04038B4208BF824230BD67
:1008200001F0004330B421F0004150EA010206D04B
:100830000A0DA2F56072C1F31301002A02DC30BC7C
:1008400000207047440F44EAC104C100E01830BCE6
:1008500000EBC25000F0A0B8002801DBC0F100405E
:10086000002901DBC1F100418142704730B50B46E0
:10087000014600202022012409E021FA02F59D42D0
:1008800005D303FA02F5491B04FA02F52844151EA4
:10089000A2F10102F1DC30BD202A04DB203A00FA8B
:1008A00002F1002070479140C2F1200320FA03F3C7
:1008B000194390407047202A04DB203A21FA02F0C5
:1008C0000021704721FA02F3D040C2F1200291408A
:1008D000084319467047202A06DBCB17203A41FA15
:1008E00002F043EAE07306E041FA02F3D040C2F1BD
:1008F0002002914008431946704700000FB40023BE
:1009000000B589B00CA900910B996FF00042CB6043
:100910001E4B06931E4B07930423CDE901321D4A5B
:10092000089202466B46002000F092F909B05DF88B
:1009300014FB70B586B006464FF0FF300091CDE94C
:100940000101002015460C4604903246694604A871
:10095000FFF7D4FF03460498211825B108B10A46D1
:1009600000E022462A6000280DD0002B02DD00980E
:10097000884208D0081B0094CDE90104324669463C
:1009800004A8FFF7BBFF06B070BD0000890E000889
:10099000A70E0008450B00080029A8BF7047401C9F
:1009A000490008BF20F00100704710B4B0FA80FC85
:1009B00000FA0CF050EA010404BF10BC704749B1C2
:1009C000CCF1200421FA04F411FA0CF118BF012132
:1009D00021430843A3EB0C01CB1D4FEA00614FEA12
:1009E000102042BF002010BC704700EBC3501044E1
:1009F0000029A4BF10BC7047401C490008BF20F06C
:100A0000010010BC704710B5141E73F1000408DA21
:100A1000401C41F1000192185B411A4301D120F0C2
:100A2000010010BD2DE9F04D92469B4611B1B1FA7F
:100A300081F202E0B0FA80F220329046FFF72CFFFC
:100A400004460F4640EA0A0041EA0B0153465A4663
:100A5000084313D0114653EA010019D0C8F14002EF
:100A60005046FFF728FF05460E4650465946424677
:100A7000FFF712FF084305D0012004E02046394665
:100A8000BDE8F08D0020054346EAE0762C4337436D
:100A90000A986305E40AA0EB08000022FD0A44EA74
:100AA00047540A3002D500200146E9E70105101934
:100AB0006941DDE9084500196941BDE8F04DA2E74B
:100AC000C1F30A52C1F3130140F2FF3341F4801124
:100AD0009A4202DA00200146704740F233439A42BC
:100AE000A2F2334202DC5242FFF7E5BEFFF7D4BE6A
:100AF00030B5041E71F1000404DB4FF000444042A5
:100B000064EB0101141E73F1000405DB1C464FF079
:100B10000043524263EB0403994208BF904230BD48
:100B2000064C074D06E0E06840F0010394E807003A
:100B300098471034AC42F6D3FFF7FEFAC0600508C0
:100B4000E0600508C0B24FF4F05100F0BDB90000FC
:100B50002DE9FF4F087881B09946FF2805D0491C40
:100B60002D2804D00024002308E000230BE00124FA
:100B7000F9E703EB830300EB4303491C0878FF28E4
:100B8000F7D104B15B4200200090147801462D2C6F
:100B900001D02B2C04D1521C2D2C12D000240094F7
:100BA00000251678FF2E0ED00A24A0FB04C801FBF6
:100BB0000481002700FB0711521C16EB0C00694151
:100BC000EFE70124EBE7994450EA01020ED000243C
:100BD000AA4D2646DFF8A88200F08AF982468B46A5
:100BE000B9F1000009DAC9F100071BE00198002102
:100BF000C0E9001105B0BDE8F08F074612E0F80724
:100C000007D022462B4630464146FFF79AFC06465F
:100C1000884622462B4610461946FFF792FC0446AA
:100C20000D467F10002FEAD1B9F1000F324643463E
:100C30005046594602DAFFF7F6FC01E0FFF781FC67
:100C4000009A0AB181F00041019AC2E90001D1E79E
:100C50002DE9FF4F1F468DB0D7E901464FF0FF3811
:100C60002E2045464FF000090B90B9696D1C0E9877
:100C70008847396A824688470028F6D1BAF1FF3F93
:100C80000AD024F4D064002E11DDBAF12B0F08D065
:100C9000BAF12D0F0BD102E0404611B0ABE744F49E
:100CA0008064B9696D1C0E9888478246761E694635
:100CB000600501D52D2000E02B208DF8000001F10A
:100CC000010B0DF1200809E0B9696D1C0E988847E9
:100CD00082460F9844F40074761E0560002E02DDF3
:100CE000BAF1300FF0D00B998A453ED144F0800420
:100CF00006E00F99681CA9F1010944F4007408602A
:100D0000B9696D1C761E0E98884782463028F0D04F
:100D10002BE00B998A4505D1200603D444F08004CA
:100D2000761E18E0504628F045FE08B30DF1130179
:100D3000761E44F400748B4508D2AAF130000BF8FB
:100D4000010B200607D5A9F1010003E0200602D41B
:100D500009F101008146A00502D50F99681C0860C1
:100D6000B9696D1C0E9888478246002ED1DC53E08D
:100D7000002E51DDBAF1650F02D0BAF1450F4BD10B
:100D8000A00549D5B9696D1C24F44074761E0E98EF
:100D900088478246002E0CDD2B2804D0BAF12D0F97
:100DA00007D144F48074B9696D1C0E988847824657
:100DB000761EE00501D52D2100E02B2108F8011B4E
:100DC000CDF82C8021E00DF12901761E44F4007449
:100DD00088450CD2AAF1300010F0FF0088F800001E
:100DE00002D10B99884509D908F1010806E0E00510
:100DF00001D5244801E042F20F708146B9696D1CAB
:100E00000E98884782460F980560002E04DD5046F4
:100E100028F0D0FD0028D6D1F9690E988847FF2028
:100E20008BF8000088F800000020069007904B46E1
:100E30006A4608A906A8FFF78BFEA00502D46FF04A
:100E400001002AE714F0240F0AD0E00714D1DDE9ED
:100E500006123868031D3B600068C0E900120BE011
:100E6000DDE90601FFF7DCFC0146E00704D1386844
:100E7000021D3A600068016028460EE70000244029
:100E80000000F03FF1D8FFFF426842B1016811F85D
:100E9000013B23B1521EC0E90012184670470121E0
:100EA000C160881E704742685AB1C368016843B97F
:100EB00083688B4205D0491E521CC0E900120020F5
:100EC00070474FF0FF3070477F2801D9002208E0BB
:100ED000064A02EB5002C007127800D1120902F054
:100EE0000F0201209040084070470000985B050801
:100EF0000EB540F2334202920022CDE900221346A1
:100F0000FFF790FD03B000BD70B58C1810F8015BC1
:100F100015F0070301D110F8013B2A1106D110F892
:100F2000012B03E010F8016B01F8016B5B1EF9D196
:100F30002B0705D40023521E0DD401F8013BFAE71C
:100F400010F8013BCB1A921C03E013F8015B01F887
:100F5000015B521EF9D5A142D8D3002070BD00001C
:100F600018484FF0FF010170002080F309881648EF
:100F7000016881F3088815484FF08051016062B61E
:100F8000FEE772B6EFF3098028B1203880E8F00F51
:100F90000F490968086000B50E4880475DF804EB0A
:100FA0000D480E490A78027009480D490A68026026
:100FB000106890E8F00F203080F309884EF0040E9E
:100FC00062B6704722ED00E09400002004ED00E0DE
:100FD0008C0000201DFE0008480000204900002071
:100FE0009000002008B50121084610F0F7FA012111
:100FF0004FF4047010F00EFB0220ADF8000000204A
:101000008DF803006946024805F05CF908BD000050
:101010000010014010B5FFF7E5FFBDE8104000F0FB
:1010200001B8000070B590B02B4E304601F02EFA9A
:101030002A4805902A48069000240794012508951F
:1010400009940A9428020B9080000C9020200D90A7
:1010500000020E900F9405A9304601F093FA012189
:10106000304601F005FA00948DF804408DF80550E3
:101070004FF46020029003948DF81050174C69468D
:101080004C3C204600F054F84FF4404010F09CFADD
:10109000052301220B21204600F06EF80121204695
:1010A00000F02CF80121204600F01CF8204600F04A
:1010B0009DF8204600F035F80028FAD1204600F0CF
:1010C000A6F8204600F026F80028FAD10121204693
:1010D00000F091F810B070BD080002404C240140AF
:1010E0003C020020002904D0816841F001018160A8
:1010F0007047816821F0010181607047002904D0A8
:10110000816841F4807181607047816821F4807149
:1011100081607047014600208968490700D5012099
:101120007047014600208968090700D501207047F3
:1011300010B542680E4B1A400C790B6842EA042243
:101140001343436082680B4B1A40D1E902432343A7
:101150004C7942EA440213438360C26A22F470026B
:10116000097C491EC9B242EA0151C16210BD0000AA
:10117000FFFEF0FFFDF7F1FF70B5072609290AD938
:10118000C568A1F10A0404EB4404A640B543A3409A
:101190001D43C56007E0056901EB4104A640B54366
:1011A000A3401D4305611F23072A09D2446B521E29
:1011B00002EB820293409C4391400C43446370BD18
:1011C0000D2A09D2046BD21F02EB820293409C438A
:1011D00091400C43046370BDC46A0D3A02EB820275
:1011E00093409C4391400C43C46270BD816841F0C0
:1011F000080181607047002904D0816841F4A00192
:1012000081607047816821F4A00181607047816826
:1012100041F0040181607047002800DC40427047C3
:101220007047000070B58AB0002405940C20144B60
:10123000CDE9013009AE0325CDE907560121802211
:101240000694CDE90321009023460E4A0EA11248D0
:101250000EF020FC06AB059470C36802CDE90304D0
:1012600099210E4ACDE901210D2000900A48002362
:101270000B4A0CA1B4300EF00DFC0AB070BD00009A
:10128000241200205D130008417070205461736BBC
:101290002055706461746500BC0E00202814002085
:1012A000D9130008417070205461736B2055736529
:1012B00072617070000000000EB500F0BFF800F021
:1012C0004FFE00F025F902A80EF08CFB0BA024F0D5
:1012D0003DFFFFF7A7FF15A024F038FFFFF7A0FFA1
:1012E000002502AC08F014FC0022CDE900540F23C5
:1012F000114610460EF0ECFDF4E700003C3C2D4F8B
:10130000532D494E464F2D3E3E2043726561746910
:101310006E67204170706C69636174696F6E2054F0
:1013200061736B732E2E2E0A0D0A00003C3C2D4F6C
:10133000532D494E464F2D3E3E20437265617469E0
:101340006E67204170706C69636174696F6E2045CF
:1013500076656E74732E2E2E0A0D0A000EB51B4C88
:101360004FF47A7508E0A178491CC9B2A1700A2926
:1013700006D2284628F0D8FE13F052F80028F2D101
:1013800001274FF48079DFF848A0124E00250DF1B7
:10139000080817E0002013F0C3F838B130780128AE
:1013A00000D167704946504605F017F80022CDE994
:1013B00000586423114610460EF08AFD49465046F7
:1013C00005F009F8A0780A28F0D2E3E72800002009
:1013D000000801408401002004480078552801D00D
:1013E0002AF0D0FD13F05AFDFCE700002800002091
:1013F00010B5012010F01CF9BDE81040002010F0DD
:1014000017B9000008B50349084400900098008807
:1014100008BD0000006C004008B5034A104400906D
:101420000098016008BD0000006C004000B585B068
:10143000684610F00BF9019805B000BD30B585B0D5
:10144000002001900290039004902B4C294860608A
:101450000121402010F0C2F800F06AFB0CF02EF8D9
:101460000BF038F80BF04CF800F026FB13F094F971
:1014700016F088FA042015F073FA07F0FFF901223C
:101480001EA1606829F052FE1D4908701D4D18B15B
:10149000E020287005B030BD01224FF4FF1119483B
:1014A00011F076FB287855281CD11022164901A886
:1014B00011F06EFBBDF808000090BDF81030BDF8CB
:1014C0000C20BDF80410002008F0CAFABDF80A008C
:1014D0000090BDF81230BDF80E20BDF806100120B6
:1014E00008F0BEFA10F06AFA084810F045F92070CA
:1014F000D0E700007058002098000020303A00002B
:101500002B0000202800002002E01F00F8510020DE
:1015100010B5FFF78BFF04490968B0FBF1F0BDE897
:1015200010400EF079BD00006CCF020838B5456858
:1015300004460146284613F0B7FD00282AD020684B
:10154000304A0F2819D006DC0B2824D00C2810D0E4
:101550000E2851D12FE0112802D028284CD145E087
:101560009268002A16D02146284601B0BDE83040D6
:101570001047214628465268F7E7284605F018FE2E
:101580000090406E0468684605F07CFE002C01D097
:101590002846A04738BD284605F00AFE009068306E
:1015A00005F060FD009803216C3005F069FD684688
:1015B00005F068FE20E0E168486809680D2902D05E
:1015C000202913D105E0002810DD28461FF0EFFB8D
:1015D00006E0002804DD2846BDE838401FF0E7BBE0
:1015E0002846BDE8384002211FF0F7BBE06818B973
:1015F0000021284600F0E0F92046BDE8384014F00C
:1016000055B90000E00500202DE9FF410AAF70CF79
:10161000002703958DE8D00000F003F804B0BDE882
:10162000F081F0B585B00DF1280CBCE8F0004FF06A
:10163000000C8DE8F01000F025F805B0F0BDF0B515
:10164000044685B08069B4F90850668A0027CDE960
:101650000265CDE900170490B4F90C00B4F91060EC
:10166000C118B4F90A00B4F90E50104433462A46A2
:1016700000F008F80546616800F0BDF905B028469D
:10168000F0BD00002DE9F04F85B01F46DDE911B433
:10169000DDE90E5690468946824607F059F94C34EA
:1016A0001548CDE90204CDE900563B46424649467D
:1016B000504614F041F8040018D005F079FD1022CE
:1016C0005946049013F044FF049830220B493430FB
:1016D000FEF7A5FD094D04990C3D2868486604A84D
:1016E00005F0D0FD286841682046884708F0F4FCE2
:1016F00005B02046BDE8F08F2D150008EC05002050
:10170000F0B5044680688B4989B051F82050606874
:1017100000287DD0052804D006287AD0122879D157
:10172000AEE0E86900284FD095E80E008DE80F0084
:1017300004F110010FC909F087FA002655F82600B8
:1017400007F087FFA169E8690A1A21690144606905
:10175000304406F025FDA169E8690A1A21690144AF
:10176000E069801B06F01CFDE169E8690A1A6169FD
:1017700001442069304406F0E9FDE169E8690A1A8C
:1017800061690144A069801B06F0E0FD761C022E11
:10179000D4DBA86807F05DFFE069E9696669431A70
:1017A00020694218521E3144801C06F085FEE16912
:1017B000E869A2690B1A61690144101A401C921E63
:1017C00006F07AFEEE6913E05FF0000655F8260099
:1017D00007F03FFFE069831BA069821B60698119E4
:1017E0002069304406F052FD761C022EEEDB022604
:1017F000D5E90301CDE900016169E06908444310BE
:10180000A069891C821B2069304406F063FC02E059
:1018100089E012E08AE0D5E90501CDE90001E3693C
:1018200060690121184401EB6001A0699B1E821BC5
:101830002069304406F04EFC78E0206805F0B8FCE2
:101840000490206815F0D4FC40B1A06808B10020D5
:1018500008E00498006F28B1012003E00498406F6D
:1018600000B10220049901EB8000C56E04A805F0C8
:1018700009FD00231A462846216806F0FBF855E0CA
:10188000206805F095FC0490866EEEB3B0F95C70AC
:10189000A168D1B3032942D05FF0000100EB8101C0
:1018A000406D0C6C07F0FEFE204607F0D2FE05A846
:1018B00006F0C4FEBDF81410A88B0144ADF8141056
:1018C000BDF81810081AADF81800BDF81600801CF5
:1018D000ADF81600BDF81A00801EADF81A00049885
:1018E0005E30B0F90220B0F9001005A807F0BFFC87
:1018F00004A805F0C7FC022007F05EFF304605F0A3
:1019000057FC3A4605A901E00BE006E0079006F017
:101910002FFA07A805F0B6FC08E00121BEE7022176
:10192000BCE704A8F6E7206815F0DAF809B0002053
:10193000F0BD00002044050808B50023009300F026
:1019400001F808BD70B516460C46054619463046E6
:10195000049A06F051F8024621462846BDE8704038
:1019600000F08BB8044A0349116004494A6A48628E
:10197000104670471C060020E0050020EC05002002
:1019800000294FF0100101D013F01DBC13F065BB0E
:1019900038B50D4604000ED006F0DAFF204605F0FB
:1019A00007FC00904565684605F06CFC204614F085
:1019B00035FD08F091FB38BD4FF4807200291146C7
:1019C00001D013F000BC13F048BB08B5002300930E
:1019D00000F001F808BD70B516460C4605461946DC
:1019E0003046049A06F028F8024621462846BDE80B
:1019F000704000F042B82DE9FF410E4605004FF05F
:101A0000010421D006F0A4FF284605F0D1FB019087
:101A1000876E01A8009705F035FC3146684609F04D
:101A2000C1FC78B100980024B84208D0284605F0DF
:101A3000BFFB01900099816601A805F023FC2846B0
:101A400014F0ECFC08F048FB04B02046BDE8F0813F
:101A500038B50C4605000FD006F07AFF284605F091
:101A6000A7FB0090A0F85C40684605F00BFC2846F8
:101A700014F0D4FC08F030FB38BDF8B515460C4620
:101A8000060018D006F064FF304605F091FB009088
:101A9000032C0BD800EB84006C3005F0E3FA0098BF
:101AA00000EB8400C566304614F0B8FC684605F0CB
:101AB000E9FB08F011FBF8BD38B5012104200FF057
:101AC000A9FD4FF48074ADF8004010208DF803009C
:101AD00003208DF80200054D6946284604F0F2FB0C
:101AE0002146284604F077FC38BD0000000801407C
:101AF00010B500280FD04FF48054012811D00228CF
:101B000015D11021012011F091FB2146BDE81040B4
:101B1000022011F041BB1021BDE81040012011F05E
:101B200085BB2146BDE81040022011F035BB10BD39
:101B30004FF4A0600DF054BCFEE7C1B2000A40EAC9
:101B40000120704770B500208F4B904C5988A4F14C
:101B5000400202E0155C2554401C8842FAD38B48B1
:101B6000626820304260A26882601F290FD0022084
:101B7000FFF7BEFF00202060607B1A22052111F0D4
:101B8000F5FBBDE870400021012011F0CFBBE17BE7
:101B9000282901D02A290FD1207D627CE57C40EAEA
:101BA0000260A27C120442EA052210435860E07DE4
:101BB000A27D40EA02209860754A206890427DD15B
:101BC000744A607B1268904203D8A27B0AB1102A43
:101BD0000DD90220FFF78CFF607B2422052111F034
:101BE000C5FBBDE870400021012011F09FBB2529F5
:101BF00068D01ADC15297CD00DDC08297AD005DCE8
:101C0000F1B303293FD004292DD177E00A2972D0FE
:101C1000122928D13BE01A390A2924D2DFE801F041
:101C2000433B237A3F232323234B8A297DD00EDC99
:101C3000552967D006DC28294CD02A2950D02F29D5
:101C400011D153E05A2932D088290CD172E0A82949
:101C500068D004DC8F2969D09E2904D16EE0AA29BE
:101C600074D0AF297AD00220FFF742FF607B202298
:101C7000052111F07BFBBDE870400021012000E050
:101C800024E011F053BBBDE8704010F02DBDBDE85D
:101C9000704010F037BCBDE8704010F031BDBDE8B9
:101CA000704010F02DBDBDE8704010F06BBCBDE879
:101CB000704010F061BCBDE8704001E056E001E00A
:101CC00010F0DCBCBDE8704010F09EBCBDE8704078
:101CD00010F01ABDD3E90112BDE8704010F058BCF5
:101CE000D3E90112BDE8704010F048BDBDE8704076
:101CF00002E00BE012E025E010F022BDBDE87040EC
:101D000010F0E8BBBDE8704010F016BCBDE87040B4
:101D100010F012BCBDE8704010F00EBCBDE8704081
:101D200010F00ABCBDE8704002E013E01AE00DE0DC
:101D300010F002BCBDE8704010F0FEBBBDE8704082
:101D400010F0FABBBDE8704010F0F6BBBDE8704083
:101D500010F0F2BBBDE8704010F0EEBBBDE8704083
:101D600010F0EABBBDE8704010F0E6BB0220FFF7C0
:101D7000BFFE607B2022052111F0F8FABDE870401B
:101D80000021012011F0D2BAF403002044E9002020
:101D900055534243580400202DE9FF47044600688C
:101DA00010B115F025FA68B10022314850F8221020
:101DB00060680A2841D007DCF0B306280DD0072858
:101DC00054D106E00122F0E712280AD019284DD19B
:101DD00037E0204617F086FC48E0204619F07AFBF1
:101DE00044E0206805F0E4F90290B0F9548090F8DE
:101DF0005650476C466B02A805F044FA206800F084
:101E000039F88146684613F071FEBDF8001009EB01
:101E100005000844ADF80000246A304607F042FC93
:101E2000022007F0C9FC384607F013FC4246694619
:101E3000204605F09DFF19E007E020461AF021FC3E
:101E400014E0886904B0BDE8F087206814F048FE0B
:101E5000206805F0ADF90390B0F90610B0F9022042
:101E6000891A491CC16703A805F00CFA0020E9E7AC
:101E70003044050838B5044606F06AFD204605F0F2
:101E800097F90090C46F684605F0FCF908F024F952
:101E9000204638BD044A034911600449CA69C86133
:101EA00010467047A8060020740C0020780C002013
:101EB00000B589B024216846FEF7D8F919200190B1
:101EC00003480068806841686846884709B000BDDB
:101ED000740C00207CB5214C0546216831F8220F96
:101EE0004A8D104408804888CA8D1044488028468E
:101EF00006F07EFB2168498CADF800104618284694
:101F000009F0ECF83044401EADF8040006F0EAFB9E
:101F10002168898CADF802100844401EADF8060017
:101F2000684614F0F9FF04E0284603F057FE14F069
:101F3000A7FF0028F8D10A2D04D0BDF804002168BD
:101F4000401C4884206830F8221F428D891A018085
:101F50004188C28D891A41807CBD000004050020A3
:101F6000AFF3008002490020086000F009B80000CB
:101F70003400002001490860704700003400002050
:101F800010B50948016841F08071016007480021DF
:101F90004160016841F001010160FFF747FABDE8C7
:101FA0001040FFF7E7BF0000FCED00E0001000E08C
:101FB0000148406870470000001000E02DE9F04142
:101FC000194E1A4F1A4C1B4D28E047F6FF7020603F
:101FD000288800F00F01317007EB8100D0F8002C49
:101FE00092B213040CD5D0F8002C40F68F731A402F
:101FF000C0F8002C1048491E50F8210080470DE021
:1020000012060BD5D0F8002C48F60F731A40C0F812
:10201000002C0A48491E50F821008047206828807B
:102020000004D2D4BDE8F081240300200050004019
:10203000445C004054040020380400201C040020AC
:102040002DE9F84F002000904BF6BF7748F280084A
:10205000614E624D40F68F7ADFF8849148F60F7B2F
:10206000604C2CE0088800F00F0089F8000078B37D
:1020700004EB8001D1F8002C0092BDF8002012047E
:102080000AD5D1F8002C02EA0A02C1F8002C564900
:10209000401E51F820008047BDF8000000060ED514
:1020A00099F8000004EB8001D1F8002C02EA0B0241
:1020B000C1F8002C4D49401E51F820008047464889
:1020C000443000684A4908800004CBD4BDE8F88F4A
:1020D000FFE730682880288800F030006880288872
:1020E00000F4405028803068384080F4005080F080
:1020F000200040EA080030600888C00620D430681C
:1021000000EA0B0030600AF01DF930683840298879
:10211000C90401D580F480502988890401D580F450
:1021200000506988C90601D580F0100069888906C9
:1021300001D580F0200080B240EA08003060C5E799
:1021400030680090BDF80000000520D5306800EA36
:102150000A00306011F01CF9306838402988C90441
:1021600001D580F480502988890401D580F400507D
:102170006988C90601D580F010006988890601D5F3
:1021800080F0200080B240EA080030609EE7BDF891
:102190000000000493D5306800EA0A0030600EF0B9
:1021A000E3FF306838402988C90401D580F48050A5
:1021B0002988890401D580F400506988C90601D5B1
:1021C00080F010006988890601D580F0200080B277
:1021D00040EA0800306079E7005C004036030020E8
:1021E0002403002000500040380400201C0400207C
:1021F00054040020810008480844D0F8001C490419
:1022000009D5D0F8001C48F68F7211404CF28002BC
:102210001143C0F8001C704700500040810008487E
:102220000844D0F8001C490609D5D0F8001C48F62F
:102230008F72114048F2C0021143C0F8001C704771
:1022400000500040810006480844D0F8001C48F6C1
:102250008F62114048F280021143C0F8001C7047A1
:102260000050004070B586B013F06EFC30214FF482
:102270001472CDE9032105910321CDE9000116482F
:1022800000230293036A74224FF481713E2009F007
:10229000A8FD06460024114D11A2304655F8341011
:1022A00009F0D6FC641CE4B2022CF5D30D4A0121DE
:1022B000304609F00DFE4FF0FF31304609F052FE76
:1022C0000A220021304609F05CFE06B03046BDE827
:1022D0007040082109F02FBE48580020C8CF0208DE
:1022E0000000000080FFFF80F0B587B0002413F0ED
:1022F0002BFC2C4A0223CDE901322B4D0090042106
:1023000005F1080003910FC813F016FA68623A212C
:102310003022CDE90421002640F25123CDE90263A9
:102320000321CDE90001E8692A68143000EB40037D
:10233000D21E3146032009F054FD06461B4D6FF0B6
:102340007F4705EBC40055F834104268304609F069
:102350007FFC3A462146304609F034FE641CE4B264
:102360000C2CEED3124A0121304609F0B1FD11497F
:10237000304609F0C9FD4FF0FF31304609F0F2FD5B
:102380000A220021304609F0FCFD0C2201213046D2
:1023900009F0F7FD07B03046BDE8F040082109F02C
:1023A000CABD0000FD96020848580020D8CF020898
:1023B00080FFFF806CB2040870B586B013F0C4FBD8
:1023C0000C230226CDE901631DA14FF4B072CDE9C3
:1023D0000321009010233C223146002011F080FAA6
:1023E00004461A49204611F01DFB6FF07F4529462F
:1023F000204611F06DFB13F0A7FB15490E2440F2A7
:1024000061130A68CDE9016412A1CDE9033100909E
:1024100002EBD2706FF0180101EB60001023322242
:10242000022111F05DFA04462946204611F050FBC6
:1024300006B02046BDE87040094911F0F3BA00002B
:1024400057696C6466697265204F53006CB204086A
:102450004858002031313A35363A3030000000001B
:102460005CAB04080148006870470000F4060020D7
:10247000002904D0016841F0010101607047016842
:102480004FF6FE72114001607047000001684FF680
:10249000FE72114001600021016041608160C160F5
:1024A0003649364A0839904204D1486840F00F0056
:1024B00048607047314A1432904204D1486840F075
:1024C000F000486070472D4A2832904204D1486895
:1024D00040F4706048607047284A3C32904204D112
:1024E000486840F4704048607047244A5032904237
:1024F00004D1486840F47020486070471F4A643235
:10250000904204D1486840F47000486070471B4A0C
:102510007832904204D1486840F07060486070475B
:10252000174A111F904204D1086840F00F0008605C
:102530007047134A1432904204D1086840F0F0000A
:10254000086070470E4A2832904204D1086840F46F
:102550007060086070470A4A3C32904204D10868B3
:1025600040F4704008607047054A50329042FAD1FA
:10257000086840F4702008607047000008000240BE
:102580000804024030B5026847F6F0739A430C6ABB
:102590008B682343D1E904452C4323438C692343AF
:1025A000CC6923434C6A23438C6A2343134303605F
:1025B000CA6842600A6882604968C16030BD000034
:1025C000F8B50546006804F0F3FD0090448ED0F89D
:1025D0008860684604F056FE06B1012604F0010446
:1025E000286814F005FE0EB1002006E00CB10120B1
:1025F00003E008B1022000E003201B4951F820103D
:10260000686858B302280CD0052802D0122828D1B7
:1026100003E0284617F092F823E028461AF08DFDD3
:102620001FE06A69E8694FF0FF33801AA0F10802E1
:1026300003EB6204421CAB69001B4510A3EB62066E
:10264000C86907F006F806E03219311B284605F084
:10265000A7FD641E6D1C002CF6DA02E0286814F059
:102660003FFA0020F8BD000090440508044A0349E1
:10267000116004490A6B086310467047F806002091
:10268000B40C0020B80C002038B50D46002404F02E
:102690008FFD0090C06B294604F0B9FE05466846E0
:1026A00004F0F0FD1DB1284604F082FD04462046EA
:1026B00038BD10B500F094F800F03AF8CC2000F0E6
:1026C000A7F8442000F0A4F800F08AF800F030F8F1
:1026D000CC2000F09DF8BE2000F09AF800F072F8CF
:1026E000044600F06FF8000200B220436FF00304CC
:1026F00000280ADAC043401CFEF729F82246FEF7FC
:1027000001F8BDE81040FEF78BB8FEF720F822462E
:10271000FDF7F8FFBDE81040FEF782B810B511F0E4
:1027200067F800F05DF8BDE8104000F001B8000067
:1027300070B5002411F072F8124D04E0641CE4B28C
:10274000012027F0F1FC4021284603F03DFE08B1AE
:10275000642CF3D3642C01D3002070BD002404E06A
:10276000641CE4B2012027F0DFFC4021284603F07E
:102770002BFE08B9F02CF3D3F02C01D3002070BD50
:10278000012070BD0018014010B511F055F80C4C37
:102790004021204603F01FFE0A2027F0C5FC11F05F
:1027A0003DF84021204603F00FFE012805D000240B
:1027B0002D2027F0B9FC204610BD0124F8E70000C9
:1027C0000018014070B500250024FFF7DDFFA04090
:1027D0002843C5B2641CE4B2082CF6D3284670BD69
:1027E00010B511F029F8094C4021204603F0F3FD03
:1027F00040F2EE2027F098FC4021204603F0EDFD4A
:10280000BDE810400F2027F08FBC000000180140E9
:1028100070B5054611F010F80024134E05F00100C4
:102820006D0870B14021304603F0D5FD082027F037
:102830007BFC4021304603F0D0FD3A2027F074FCA9
:102840000DE04021304603F0C6FD462027F06CFC29
:102850004021304603F0C1FD022027F065FC641CD6
:10286000E4B2082CDAD370BD001801402DE9F0471E
:10287000DFF89880D8F8001001F1100528880E7A4A
:10288000234F4FF03009002801D1042E04D0AC882A
:10289000A04215D8042614E01E480178012903D06F
:1028A0000726102038802BE01B4A002112681B4BA2
:1028B00092B2921C43F81210A7F8009001701FE02A
:1028C0000226844200D90446A968A0B288478246FD
:1028D000002008F0A3FE0146A2B2504612F060FBB1
:1028E000A1B2002010F094FC2888001B2880688882
:1028F00020446880A7F8009009494FF440500880B0
:10290000D8F800000672BDE8F08700002803002018
:102910003803002020030020505C0040006000408D
:10292000360300202DE9F041214E34681034208810
:10293000A168002915D0A0B1A588854200D9054617
:10294000A8B2884707462088401B2080608828441A
:102950006080002008F042FE0146AAB238460EF020
:1029600061FC2088134F302538B1134928020880B4
:102970000021084610F04CFC3D802088A188884248
:1029800004D3316803200872BDE8F08118B13168C2
:1029900005200872F8E73168062008720748002110
:1029A0000068074A80B2801C42F810103D80EBE7B7
:1029B000280300203803002036030020505C00402C
:1029C000006000402DE9F843634E306842780024EF
:1029D000624D062A296801D08AB117E002785206B2
:1029E00069D18078012804D0022804D0032804D0BB
:1029F00061E0CC695FE00C6A5DE04C6A5BE04388B3
:102A000023B9C388022B01D1037923B1082A39D015
:102A10000A2A3CD04FE00278530601D1838833B1B3
:102A200002F07F02012A04D0022A0CD043E04C4C71
:102A300041E08A6940790021904710BB3068807A74
:102A4000F8B1474C37E0417901F00F0001F0700216
:102A50000B06444907D501EB8001D1F8001CC1F3F6
:102A60000111090106E001EB8001D1F8001CC1F35E
:102A7000013109033C4B1B7883421CD90AB901B1CF
:102A8000374C18E00078400615D1384C13E0027836
:102A900002F07F02012A0ED1827A62B1428852B9D5
:102AA000027942B9C288012A05D18A694079002198
:102AB000904700B92E4C09274FF000083CB1306810
:102AC000A0F8128084610020A047002006E0296859
:102AD0003068096940788847032816D031680A8A27
:102AE000A2F57F43FF3B0DD0022811D082B10878B8
:102AF00000062AD5C8880090009882420CD9009818
:102B000008821AE00F72BDE8F88330680772FAE7AE
:102B10004FF008000872F6E70FD22868154B90F8BE
:102B20002C00824202D283F8008006E0B2FBF0F46F
:102B300000FB142008B901201870286890F82C00B8
:102B40008882BDE8F843FFF791BE032008720A4966
:102B500000030880D7E70000280300202C03002092
:102B6000A935010800500040C4040020393501088F
:102B70008135010820030020360300207047000043
:102B80002DE9FF41224D4021284603F026FC8021FB
:102B9000284603F022FC0824019400268DF80A60E0
:102BA00001A800F0C1FE09208DF80C008DF80F601F
:102BB00003A80CF0E3FB10266E61164904200860A0
:102BC0002020286114480460081F046001210820A7
:102BD0000EF020FD4FF47F40ADF800008DF803604B
:102BE00003278DF8027069460C4803F06BFB012146
:102BF00010200EF00FFDADF800408DF803608DF849
:102C000002706946284603F05DFBBDE8FF810000C5
:102C1000001001401408014010140140000C014054
:102C20002DE9FC470E465FEA00097FD005F090FED3
:102C3000484604F0BDFA009090F85470D0F85880DF
:102C4000456BC46C684604F01DFBB8F1000F04D05E
:102C5000314648464246904761E0122E18D006DCC5
:102C6000082E43D0102E3CD0112E06D112E0132E88
:102C700021D01D2E43D01E2E3DD0202E4FDB17B16C
:102C8000484616F092F9B1B248461DF0E5FA60B335
:102C9000611C27E04DB3284604F08AFA0546214618
:102CA000019007F0F5F84419204607F091F8014625
:102CB0002346012210E0C5B1284604F079FA054602
:102CC0002146019007F0E4F84419204607F080F807
:102CD000014623464FF0FF32484615F025FE01A875
:102CE0001BE0611E484600F0B0FA18E0BCB1611E5E
:102CF000484600F0AAFA484616F057F90FE0484651
:102D000004F056FA0090012F12D0012180F85410DF
:102D10002146484600F099FA684604F0B3FA48465E
:102D200013F07CFB00E001E007F0D6F9BDE8FC877A
:102D3000002180F85410EFE7FEB5446805462046B0
:102D400014F056FA06462946204612F0ADF900283E
:102D500034D028680E283DD004DC0B282FD00C2856
:102D60004AD116E00F2825D0A0F58070133843D142
:102D7000204613F019FD204600211FF0DFF9204600
:102D800004F016FA0190C06F002113F0E5FC01A8D1
:102D90001DE0E86860B1017A29B10168204600F0C1
:102DA00012F9012100E00221204613F01AFC23E071
:102DB0000321F9E7012120461FF0C0F9FEBD20469E
:102DC00004F0F6F90090343004F04CF9684604F051
:102DD00059FA11E086B1E868416800290CDD016804
:102DE000092909D00A2907D00D2905D01B2903D0AC
:102DF0002046FFF715FFFEBD284612F057FDFEBD29
:102E0000F0B587B004460DF1080CD4E90567B0F9B8
:102E10000850408AACE8E1000020CDE90010B4F988
:102E20000C00B4F91060C118B4F90A00B4F90E50DE
:102E3000104433462A4600F009F8050002D0618AA2
:102E400000F09AF907B02846F0BD00002DE9FF5FB9
:102E50001F46DDE91254DDE90E6A90468946834635
:102E600005F076FD0DF1040C4AF4805058341E49EB
:102E70000096ACE813003B4642464946584612F0DD
:102E80005BFC04002AD004F093F910220090119901
:102E900012F05EFB00981C2214496030FDF7BFF968
:102EA000009A012082F85500681C00D0012082F8A9
:102EB0008000002D00DC08252DB2158700205087EA
:102EC00050636D1C684604F0DDF9294620461CF06D
:102ED000FCFF18B9204612F021FD002407F0FCF891
:102EE00004B02046BDE8F09F392D0008B40700204B
:102EF000F8B515460E46040021D005F029FD65B150
:102F0000002332461946204612F0E8FB05462046CB
:102F100004F04EF90090C5670CE0204604F048F933
:102F20000090C06F12F0E5FC00990020C8672046B1
:102F300013F074FA684604F0A5F907F0CDF8F8BD6F
:102F40002DE9FC4115460E00044627D0002C25D063
:102F500005F0FEFC204604F02BF9002701903770A5
:102F6000406BB0B104F024F9009008F09BF80146E2
:102F7000009806F08DFF0446681E844200DD04467A
:102F8000224630460099FDF74AF9684604F07AF97E
:102F9000375501A804F076F907F09EF8BDE8FC81EA
:102FA00038B505004FF000040BD005F0D1FC2846E1
:102FB00004F0FEF80090846C684604F063F907F0B2
:102FC0008BF8204638BD2DE9F04186B00C4606004E
:102FD00055D005F0BDFC304604F0EAF80090406B97
:102FE00098B304F0E5F803900098806E06F05AFB61
:102FF0008046304612F04AFF0746039805F0A9FBC9
:103000000546009890F8601001F00301012916D0E0
:1030100002290DD0416EC06A00680844241A641E5B
:10302000039808F03FF80146002C0FDA002115E064
:10303000781B401C00EBD070A4EB6004F0E7406EFE
:10304000791B081A241A641CEAE713E0AC4205DC79
:1030500002462146039807F0C5FF0146304600F0BE
:10306000F4F803A804F00EF9404606F01BFB3046C6
:1030700013F0D4F9684604F005F907F02DF806B00E
:10308000BDE8F08138B50C4605000FD005F060FCB6
:10309000284604F08DF8009018B18466284613F095
:1030A000BDF9684604F0EEF807F016F838BD2DE9D2
:1030B000FC4788465FEA00094FF000055AD005F04A
:1030C00047FC484604F074F80090B0F93860446B4F
:1030D000684604F0D7F80027B8F1000F3ED04CB195
:1030E000204604F065F80190FDF7DDF8451C01A8C5
:1030F00004F0C8F8404607F0D5FF0446B04200DDB2
:1031000034462146404606F0C3FE461C711B484625
:103110001DF085FA08B3484604F04AF80090406B69
:1031200004F046F8324641460190FDF778F80198E0
:10313000304400F8017C0098C464B0F938108C4227
:1031400005D190F85410012901D1641EC464684669
:1031500004F098F801A804F095F806E000983430DF
:1031600003F080FF00984787C764484613F056F97C
:1031700006F0B2FFBDE8FC8738B50C4605000FD05D
:1031800005F0E6FB284604F013F8009018B1046639
:10319000284613F043F9684604F074F806F09CFFE3
:1031A00038BDF8B515460C46060013D005F0D0FB27
:1031B000304603F0FDFF009038B1022C05D200EB41
:1031C0008400C566304613F029F9684604F05AF8C1
:1031D00006F082FFF8BD0000F8B51D4616460C4605
:1031E000074605F0B5FB2FB3384603F0E1FF00902A
:1031F000AC4201D92C4602E0B44200D234460F4919
:1032000081650F49C1650021C0E91241C0E90F6520
:10321000012180F85410B0F938100A2901DD0A2183
:103220000187684604F02EF8384622F0F3F9384654
:1032300013F0F4F806F050FFF8BD0000857B01089C
:1032400015560208002221F0F1BE1CB50C4603F011
:10325000AFFF0090406BF0B103F0AAFF019007F0C0
:1032600021FF009991F8542002B10122002C00DACC
:103270000024844200DD0446B1F93800801AA042DF
:1032800000DA0446C86CA04200D0CC640020086577
:1032900001A803F0F7FF684603F0F4FF1CBD01220C
:1032A00021F0C4BE08B568460CF050FA0BF0C8FF18
:1032B00068460CF06BFA08BD08B568460CF046FA93
:1032C0000BF0EEFF68460CF061FA08BD70B5002403
:1032D0004FF400710D4803F080F84FF47A7004F059
:1032E00001FC4FF4FA750CE02B46002208A109A05E
:1032F00000F012F808B1012070BD00F0B7F9641CAD
:10330000E4B20A2CF0D3002070BD0000000C014094
:103310004F4B0000415400002DE9F04184460C461B
:1033200015461F461D4EB6F800046FF30E00A6F8B2
:10333000000462461AA11C4811F054FC54EA05002E
:1033400010D0384604F0CEFBB6F800140020C1F3CC
:103350000E0170548CB185B121463046FCF791FFC7
:1033600048B902E00120BDE8F08129460B48FCF78E
:1033700088FF0028F7D00120F5E73CB12146074837
:10338000FCF77FFF0028EED00120ECE72946034838
:10339000FCF777FF0028E6D00120E4E71452002074
:1033A00025730D0A000000000048004000B585B0FC
:1033B000002801D0012200E0002208A1684622F086
:1033C000D5FE4FF4FA73002208A16846FFF7A4FF68
:1033D00010B1012005B000BD0020FBE741542B4394
:1033E00049504D55583D2564000000004F4B0000EA
:1033F00010B54FF47A7004F075FB05A1054811F083
:10340000F1FBBDE810404FF4FA7004F06BBB000014
:103410002B2B2B000048004038B5012108200EF06E
:10342000F9F84FF48070ADF8000010208DF803001B
:1034300003208DF80200064C6946204602F042FF48
:103440006115ADF800106946204602F03BFF38BD1B
:10345000000C014010B54FF4FA7300220DA10EA02C
:10346000FFF75AFFA0B110A11248FCF70AFF08B1FC
:10347000022010BD10A10F48FCF703FF08B1032084
:1034800010BD10A10B48FCF7FCFE08B1042010BDD4
:10349000002010BD4F4B000041542B434950535462
:1034A00041545553000000005354415455533A328F
:1034B0000D0A0000145200205354415455533A331E
:1034C0000D0A00005354415455533A340D0A00007C
:1034D00010B5FFF7A1FF00F025F9BDE810404FF44B
:1034E0000071014802F079BF000C014000B59FB0A7
:1034F0000B46024608A101A822F038FE41F28833AB
:1035000000220AA101A8FFF707FF10B101201FB098
:1035100000BD0020FBE7000041542B43574A4150B7
:103520003D222573222C2225732200004F4B0000E0
:10353000F0B5B9B004460F4615461E46642120A8D2
:10354000FCF794FE14B1012C0FD107E03B4612A208
:1035500012A120A8009522F009FE06E03B4613A226
:103560000EA120A8009522F001FE052E06D220AB68
:1035700032460FA102A822F0F9FD04E020AA11A111
:1035800002A822F0F3FD4FF47A6312A215A102A85B
:10359000FFF7C2FE39B0F0BD54435000222573221C
:1035A0002C222573222C2573000000005544500066
:1035B00041542B43495053544152543D25642C25CA
:1035C0007300000041542B43495053544152543D21
:1035D00025730000414C5245415920434F4E4E4502
:1035E000435400004F4B000070B50446002540F6E0
:1035F000C4165CB1012C10D0022C15D0002000287C
:1036000003D16D1CEDB20A2DF3D370BD33460AA26F
:103610000CA10DA0FFF780FEF1E7334606A209A139
:103620000CA0FFF779FEEAE7334603A205A10CA040
:10363000FFF772FEE3E700006E6F206368616E675C
:10364000650000004F4B000041542B43574D4F4441
:10365000453D310041542B43574D4F44453D3200C9
:1036600041542B43574D4F44453D330070B5084DF1
:103670004FF400742146284602F0ADFE4FF4FA7074
:1036800004F030FA21462846BDE8704002F0A5BE9D
:10369000000C014030B5044685B00D461846002C9C
:1036A00007D02A4611A1124811F09CFA012005B05A
:1036B00030BD052806D2931C02460EA1684622F0B2
:1036C00055FD04E0921C10A1684622F04FFD4FF416
:1036D0007A742346002210A16846FFF71DFE234698
:1036E00000220EA12846FFF717FEE0E72573000031
:1036F0000048004041542B43495053454E443D251A
:10370000642C25640000000041542B43495053456C
:103710004E443D25640000003E20000053454E44C9
:10372000204F4B0010B586B0012188040DF064FFD6
:10373000012108200DF06EFF4FF48060ADF81400F9
:1037400018208DF8170003208DF816001B4C05A9D2
:10375000204602F0B7FDE114ADF8141004218DF8F5
:10376000171005A9204602F0ADFD4FF4E13001909D
:103770000020ADF80800ADF80A00ADF80C00ADF877
:1037800010000C20ADF80E000D4C01A9204611F0E0
:10379000C3F9012240F22551204611F0A2F901227D
:1037A00040F22441204611F09CF900F00BF8012171
:1037B000204611F063F906B010BD0000000C014076
:1037C0000048004008B527208DF8000000208DF843
:1037D000010002208DF8020001208DF803006846E8
:1037E0000BF0CCFD08BD000010B54FF47A742346F1
:1037F000002207A107A0FFF78FFD38B12346BDE8DF
:10380000104008A202A108A0FFF786BD002010BD4D
:103810004F4B000041542B4349504D4F44453D31DF
:10382000000000003E00000041542B434950534526
:103830004E44000010B5FFF7EFFD114C4FF400713E
:10384000204602F0C8FDA115204602F0C4FD0D4C33
:10385000002240F22551204611F043F9002240F2A7
:103860002441204611F03DF90021204611F006F9CF
:10387000BDE8104000214FF480200DF0BDBE0000D7
:10388000000C01400048004070B5FCF781FC134A71
:103890001178491C1170FCF77FFC082000F034F807
:1038A000C0B10F490822087810B101280AD00EE0F3
:1038B0000C4B102058610C4C226001250D702260C9
:1038C000186104E00848001D02600220087008200A
:1038D00000F00CF8BDE870400BF09CBE40000020EA
:1038E0007B010020001001401014014001490860D4
:1038F000704700001404014002490A6802430A604C
:10390000704700001004014001460020054A12687B
:103910000A40044B14331B680B4202D0002A00D02B
:10392000012070470004014030B51B4A83790168CB
:10393000002B2AD013688B431360111D0B68046899
:10394000A3430B60017911440B68046823430B60A7
:10395000114C08342168036899432160231D1968BC
:103960000568A94319604179102905D011440A68F6
:10397000006802430A6030BD21680268114321607B
:10398000196800680143196030BD0079104402686D
:103990008A43026030BD0000000401402DE9F0417F
:1039A000CCB0054600244FF4967841466846FCF7B3
:1039B0005DFC012224A12B4827F0DEFB2A4F387042
:1039C00028B1284827F036FA4CB0BDE8F0814BA862
:1039D0000BF0BCFE05EB851000EB8001214827F0C1
:1039E00038FA3870224E214B40F245121D48F169D9
:1039F00027F0A8FC38701F4D002748B12F70F069E0
:103A000007704BA80BF0C2FE164827F013FADBE74D
:103A1000F16914220E46491D1648FCF700FC285D8A
:103A200020280FD0641CA4B2142CF8D3424606F10F
:103A300019016846FCF7F3FB42463146684628F018
:103A40006FF9DEE72F55F1E7303A2F53797374653C
:103A50006D2F6D6573736167656C6973742E74780F
:103A600074000000282C00202B0000202C000020D7
:103A7000EC020020606C00202DE9F84310258DF841
:103A8000035003268DF80260012120200DF0C2FDB5
:103A90000824ADF800406946234802F013FC0121D8
:103AA00010200DF0B7FDADF80050204F69463846A4
:103AB00002F008FC012104200DF0ACFD0425ADF856
:103AC0000050DFF86C806946404602F0FBFB0121A4
:103AD00004200DF09FFDADF800406946404602F01D
:103AE000F1FB012110200DF095FD2021ADF8001013
:103AF0006946384602F0E6FB012108200DF08AFDF8
:103B00004FF47F40ADF800008DF803508DF802604F
:103B10006946084802F0D6FB0548143004600248A4
:103B200010300460BDE8F88300140140001001402B
:103B300000080140000C01402DE9F04389B098468F
:103B400015460F4606004FF000042DD000F0DCFBB8
:103B50000446304600F09FFB814604F0F9FE03A9BD
:103B6000304600F064FDF80706D0BDF91C00001BCC
:103B7000401B401C822109E0B8070028BDF918004D
:103B8000284402DA40F2022100E002210096CDE949
:103B9000018123461A464946FDF736FD04460021B9
:103BA000FDF7EEFE06F098FA09B02046BDE8F08376
:103BB00010B50523FFF7C0FF0446054A0021FDF7B5
:103BC00004FF0449204612F040FE204610BD0000CC
:103BD000D9950108456302082DE9F0474568044678
:103BE0008EB00026284603F0E3FA00905C30B0F86F
:103BF00020A0D0F80C90D0F82480C76A006800B1EB
:103C00000668684603F03EFB05E079682046884771
:103C100000283DD13F68002FF7D12068142844D0F8
:103C200009DCA0F10B00072839D2DFE800F0BE392B
:103C300089B434B4110020287ED004DC17283ED08B
:103C40001E282CD14BE026283CD02A2827D110E072
:103C50002846E66803F0ACFA0190717A39B9317AF6
:103C6000012904D130F87C1F41F48071018001A842
:103C70008FE0284603F09CFA0090E16811B1C0F88B
:103C8000841002E0D0F88400E060684603F0FAFA9D
:103C90000EB0BDE8F087002E7DD02846B0477AE010
:103CA000214628461DF0C4FFF2E705A9284600F08A
:103CB000BEFCE0680699016007994160E8E7C4F836
:103CC0000C90E5E7E0680228E2D10C95E0680D90E1
:103CD00027200A900AA9A06813F0A4FCD8E7E0689E
:103CE000012804D00021284600F086FBD0E740469A
:103CF00012F0EFFB58B1404612F06CFE404612F055
:103D0000B9FA88B10121404611F05DFA0CE048464D
:103D100012F0B4FE8046284603F04AFA0090C0F83C
:103D20008080684603F0AEFA0121284600F064FB6B
:103D3000B8F1000FACD100E00EE00020E060A7E792
:103D40005FEA0A7027D4E068C06820B3007A10B335
:103D5000284612F03FFE1EE0E668E6B1294670688C
:103D600013F02FFA20B10121284620F0C3FA12E007
:103D70000021284620F0BEFA2946306813F010FAD8
:103D800048B1284603F014FA03903168C0F8801057
:103D900003A803F077FA2146284611F085F9002898
:103DA0008CD0204611F082FD72E7284603F000FA1D
:103DB0000090703003F056F96846EAE7F0B587B036
:103DC000B0F908400DF10C0C0C9E87694568ACE811
:103DD000F000448A0025CDE900150294B0F90C10DA
:103DE000B0F91050B0F90E40B0F90A00194410446F
:103DF0002B46224600F002F807B0F0BD2DE9F04F47
:103E00008BB09846DDE9155691468A468346149F45
:103E10001A9C04F09DFD6034314845F48055CDE98D
:103E20000204CDE9007543464A465146584611F012
:103E300083FC04004DD003F0BBF9302204901799A5
:103E400011F086FB0498282226493430FCF7E7F964
:103E5000049819995C30234F8160068400264662DD
:103E60000661083FC6627968016004A803F00AFA97
:103E700005A9204600F0DBFB1B4841F28271039646
:103E80000094CDE90110BDF91E00BDF91A10BDF96D
:103E90001C20431ABDF918005B1C121A521C11F0A9
:103EA0004BFC06467868416820468847204603F068
:103EB0007FF90490866604A803F0E4F942F2040056
:103EC000054202D1204611F091FD2046189900F0DC
:103ED00018FB06F001F90BB02046BDE8F08F00009A
:103EE000D93B0008D80700203D4900082DE9F041E2
:103EF000044694B0006800F0B7F908B1D94D01E06C
:103F0000D84D2C35606815281ED00CDC0B281FD02E
:103F100004DC00287ED005287DD12EE10E287BD040
:103F20001228F9D141E1162806D0172808D0182800
:103F300008D01C28F0D109E0E86914B0BDE8F08190
:103F4000286AFAE7686AF8E7A86AF6E76869F4E7B2
:103F500020680B901C200C90206803F029F9039036
:103F6000016D0BA88847064603A803F08BF9022EC3
:103F70000EDB95E807008DE80700D4E9040233461C
:103F8000A16906F027FE20698719A069801B2BE034
:103F9000286805F05EFB2169E8690A18521E60690D
:103FA00004F0FEF8A269E869111A491C606904F07E
:103FB000F7F8676920697F1C394604F041F93946F2
:103FC000A06904F03DF9686805F043FB20693946B3
:103FD000401C04F035F9A0693946401E04F030F960
:103FE0002769A069BF1C801E8046286805F031FB48
:103FF00042463946606904F0D3F8686805F029FB49
:1040000060694246401C394604F0CAF8686A0228D2
:104010000FDD02E015E1AFE000E1A86805F019FB53
:1040200061696A6A881C8B1801465B1E42463846E5
:1040300027E0296AB14226DD6069022E074600F1B9
:10404000020801DB374401E007F10207206901DBC8
:10405000304401E000F1020022693B460A44A2F12B
:104060000102414604F028FA022E02DBA069821BFD
:1040700001E0A269921EA069E9693B46401A401C12
:10408000414604F019FA022E02DB6069064401E0A1
:104090006669B61CE76928687F1E05F0DAFA3A46B9
:1040A0003146206904F052F93A463146A06904F0DD
:1040B0004DF9E7696868BF1E05F0CBFA20693A46FA
:1040C000401C314604F042F9A0693A46401E314690
:1040D00004F03CF9E869022802DC286A022823DDA2
:1040E000A86A022802DDE1690F1A01E0E769BF1E34
:1040F000A86805F0AEFAE969022909DD20693B46A6
:10410000421800F1020C521E3146604604F0D4F908
:10411000286A022808DDA269E8693B46101A401C9B
:10412000921E314604F0C8F9286805F092FAD4E9E5
:104130000620216904F034F8686805F08AFAA2695B
:104140002169E069521E491C401E04F029F8A86A42
:10415000022811DD2669A169E469B61C271AA1F1BC
:1041600002087F1CA41EA86805F073FA2346424685
:104170003946304604F0A0F972E0208A06B2ADF864
:104180001460A08A01B2ADF81610208B02B2ADF80F
:104190001820A08B03B2ADF81A30D5E90304CDE99D
:1041A0000004304603F096FF5AE0208A298B084429
:1041B000ADF81400A08AADF81600208B298B401AA8
:1041C000ADF81800A08BADF81A00206802F0F0FFDF
:1041D0000390006FF0B1022005F0EEFA039991F818
:1041E0007C00C0F3C00001EB8000006C05F031FAE8
:1041F0000398406B05F056FA0398006F02F0D8FF61
:1042000003990A90B1F95A2005A903F0B1FD0AA853
:1042100003F038F803A803F035F821E0208AADF860
:104220001400A08AADF81600208BADF81800A08B02
:10423000ADF81A00A86805F00CFA05A804F068F9B2
:104240000EE0206802F0B4FF039030F85A1F41F0EE
:104250000C01018003A803F015F8206812F040FC5F
:1042600000206AE61408002038B505004FF000046D
:104270000FD004F06DFB284602F09AFF009090F8F2
:104280007C00000700D50124684602F0FBFF05F022
:1042900023FF204638BD38B505004FF0000411D08B
:1042A00004F056FB284602F083FF0090C06D002109
:1042B00080680268284690470446684602F0E2FF9C
:1042C00005F00AFF204638BDF8B50E4605004FF050
:1042D000000411D004F03CFB284602F069FF009076
:1042E000C06D31468068026828469047044668469B
:1042F00002F0C8FF05F0F0FE2046F8BD0148006856
:1043000070470000D807002030B587B005004FF097
:10431000000413D004F01CFB01A9284600F087F923
:10432000284602F045FF0090B0F95440684602F07C
:10433000A9FF0CB9BDF9044005F0CEFE07B0204638
:1043400030BD30B504468BB0006802F031FF0090FC
:1043500090F87C10246A006FC1F3C00508B102F028
:1043600027FF0690E068029020690390A088401E15
:10437000ADF81000E089ADF812002089401CADF8BE
:104380001400608AADF81600BDF80800401CADF8B6
:104390000800BDF80A00401CADF80A00BDF80C008A
:1043A000401EADF80C000098406B05F07BF90098BA
:1043B00008AA02A9B0F95A30069806F04FF80098FA
:1043C00000EB8500806B08F03DFD009800EB850058
:1043D000006C08F06FFD08AB02AA04A9069810F063
:1043E000C7FF684602F04EFF069810B106A802F01B
:1043F00049FF0BB0002030BD70B50D46040009D058
:1044000004F0A6FA294620461FF074FFBDE870406C
:1044100005F062BE70BD38B50C46050011D004F041
:1044200097FA284602F0C4FE0090816CA14203D0A6
:104430008464806E11F0F2FF684602F023FF05F0FD
:104440004BFE38BD074A0649054B1160064A083B3A
:10445000D16958601B68C2E9063008467047000001
:1044600008080020D4070020D80700202DE9FC41CF
:104470000D46804604F06CFA5FEA080028D002F08E
:1044800097FE0190C16D8C6800F038F907460198DD
:10449000456301A802F0F6FE2268012140469047DC
:1044A00006462268032140469047054622680021BF
:1044B000404690470446404600F009FA2B463246F3
:1044C00039464046009400F091F9404611F0A6FFAD
:1044D00005F002FEBDE8FC8138B50C46054604F047
:1044E00037FA55B1284602F063FE0090046668462C
:1044F00002F0C8FE284611F091FFBDE8384005F0F3
:10450000EBBD7CB50D4604001DD004F021FA204619
:1045100002F04EFE0090006F0190684602F0B2FE7D
:10452000294601A806F03EFF58B1204602F040FEA1
:10453000009001990167684602F0A4FE204611F040
:104540006DFF05F0C9FD7CBD38B50C46050013D0E4
:1045500004F0FEF9284602F02BFE0090B0F95A1044
:10456000A14204D0A0F85A40284611F057FF6846EF
:1045700002F088FE05F0B0FD38BD000038B50C46ED
:10458000050015D004F0E4F9284602F011FE0022DF
:10459000CDF8000000EB8201521C0C64022AF9D312
:1045A000684602F06FFE284611F038FF05F094FDD2
:1045B00038BD2DE9FC470D465FEA00094FF00004C5
:1045C00032D004F0C5F9484602F0F2FD0190B0F98E
:1045D0005440A54223D000F091F880460198012173
:1045E000A0F85450C06D856848462A689047074631
:1045F0002A6803214846904706462A680021484613
:1046000090470546484600F062F933463A4641462F
:104610004846009500F0EAF8484611F0FFFE01A870
:1046200002F030FE05F058FD2046BDE8FC872DE97C
:10463000F34F85B000270C46B846059802F0B8FD48
:104640000090C06D0121856805982A6890478246D0
:104650002A6803210598904704902A68022105984A
:10466000904703902A6800210598904706460098D5
:1046700012F044FC8346009812F047FC81460098F3
:1046800090F83210890601D5B0F9588000F036F85C
:1046900005460098C06E10B111F00FFC074625804A
:1046A0006780A4F804A0049AABEB020006EB0802B2
:1046B000401E2A4420813A44E280039BA9EB030276
:1046C000521E6281A4F80CA020827019E681401E5F
:1046D0006082684602F0D6FDB4F90C000190B4F98E
:1046E0001000029002AA01A9059800F039F801987B
:1046F000A0810298208207B0BDE8F08F10B5014676
:10470000002091F83220920607D5B1F95400002814
:1047100003D1486B04F08CF8801C10BD70B58AB0D2
:104720000C46054602F044FD0990C06D866809A854
:1047300002F0A8FD009534B1012C06D0022C0BD05C
:10474000032C04D10AE0182000E0162001907168C3
:10475000684688470AB070BD1520F7E71720F5E7CF
:104760002DE9FC4790468946044602F021FD009061
:10477000C16D056868468E6802F084FD32680021CC
:10478000204690470646204611F005FA2F140446AD
:104790002DB227E002F00CFD0190B0F90010B0F945
:1047A0000420B0F90230491B521BDB1BB34212D16B
:1047B00090F82800000607D5D8F8000088420ADBE8
:1047C000491EC8F8001006E0D9F80000904202DC4B
:1047D000521CC9F8002001A802F054FD204611F037
:1047E0009FFA0446002CD5D1BDE8FC872DE9FF4F88
:1047F00083B00E460746DDF8409002F0D9FC0190E8
:10480000C16D8D68FFF77AFF044601A802F03AFDFA
:104810002A6801213846904783462A680321384692
:10482000904782462A680021384690470546B442A0
:1048300007D105998B4504D106998A4501D14D458B
:1048400042D0A41B0026B046384611F0A4F939E046
:1048500002F0AEFC0090806A010602D54FEA80505B
:1048600002E0810528D50006002825DB24B1224678
:104870001146384611F0F5FE009890F82800000621
:104880000AD50698A5EB0902A0EB0A0004FB160165
:10489000761C384611F096FE0098008D80050BD5E9
:1048A0000599A5EB0902ABEB010004FB080108F137
:1048B0000108384611F086FE684602F0E3FC3846EF
:1048C00011F02EFA0700C3D107B0BDE8F08F70B524
:1048D00086B0064602F06CFC0590D0E91A4505A8A2
:1048E00002F0D0FC54EA050026D069463046FFF7B6
:1048F0009EFEACB1BDF90620BDF90410204611F0B2
:1049000025FEBDF90A00BDF90610421ABDF90800DE
:10491000BDF90410521C411A491C204612F035F909
:10492000002D09D0BDF90600BDF90210421ABDF9EB
:104930000410284611F00AFE06B070BD2DE9F043C0
:104940000446406885B0064611F008FA814602F038
:104950002FFC0090D0F88080876C456E684602F08E
:1049600091FC2068172859D008DC0E2837D00F2872
:104970000BD0142852D015283AD14FE01E2818D059
:104980001F2827D0222833D146E06FF0704087429D
:1049900004D0384608F056FA02F0BCFE002D12D0C2
:1049A000D4E902122068CDE90106CDE9031201A87D
:1049B00022E0E068002806D05FEA080006D0B04593
:1049C00004D012F007F805B0BDE8F083304612F0CD
:1049D00055F816E02146484610F066FBF3E7E0681C
:1049E0004168002904DD00680928EFD00A2805D0B5
:1049F000A5B12046C4F80490A847E4E7304612F079
:104A00004CF80446484602F0D3FB0090C0F88040C2
:104A1000684602F037FCD6E7E760D4E7204610F09E
:104A200045FFD0E78000A0F1C040002904D0016814
:104A300041F00101016070470168024A11400160C4
:104A400070470000FEFF0F0010B5D0E901121143BE
:104A5000D0E903231A431143426911438269114388
:104A6000C2691143026A1143426A1143826A1143C7
:104A7000C26A1143026B114302689200A2F1C04264
:104A800011608168082907D101688900A1F1C0413E
:104A90000A6842F040020A60416BD1E9002342EA11
:104AA00003128B688C891B0243EA04431A430B8A66
:104AB00042EA03520B7D896942EA03620A430168B4
:104AC000491C8900A1F1C0410A60C16AB1F5804F5B
:104AD00008D000686FF070418000A0F1C040C0F8BD
:104AE000041110BD816BD1E9002342EA03128B68E7
:104AF0000C8A1B0243EA04531A430B7D896942EA7C
:104B0000036200680A438000A0F1C040C0F804219D
:104B100010BD00002DE9F0478AB0142105A8FBF76D
:104B2000A5FB00244E4D00262E7005F1100031210A
:104B30000170417032218170C6704AA021F006FBDD
:104B400011F002F8034600964E4A07214E4801969E
:104B500002F02CFE07464D480221CDE90071CDE957
:104B60000206BE23E6224121052010F0E5FD686023
:104B700010F064FD27F096FF454EDFF8188198B1DC
:104B8000022245A146A009F005FD03F063FC307840
:104B900010B1384610F0C2FE98F8000000285CD032
:104BA0000A2002F09FFFF2E725F01EFC45A248A173
:104BB00048480FF097FE4FF48079DFF81CA148E0D9
:104BC000642C3CD905A807F057FC88BB49465046E1
:104BD00001F003FC05A9E8680EF03BFF686811F0DE
:104BE00059FBA86811F056FB40F261142146384683
:104BF00010F0C0FF39A10EF02CFF2146384610F00E
:104C0000B9FF12F006F840F27111384610F0B2FF09
:104C100011F0FFFF4FF4B971384610F0ABFF11F0FF
:104C2000F8FF40F27311384610F0A4FF11F032FB88
:104C300025F0DAFB4946504601F0CDFB0024641C08
:104C4000E4B2307810B1384610F068FE0A2002F065
:104C500049FF98F800000028B2D10AB0BDE8F087FB
:104C6000C00200203C3C2D4F532D494E464F2D3E57
:104C70003E2050686F6E656170702063726561746C
:104C8000650A0A001D820208549E0408B58D0208B8
:104C900029000020850100206572726F72000000FB
:104CA0000D0A204E6F20646574656374656420533B
:104CB000494D39303041206D6F64756C6521200D90
:104CC0000A00000041542B434C49503D310D000077
:104CD000257300000044004000080140E696B0E65D
:104CE0009DA5E794B52E2E2E000000002DE9F0437F
:104CF000DBB00024142156A8FBF7B8FA502142A8D3
:104D0000FBF7B4FA4FF48078414602A8FBF7AEFAFD
:104D10004FF48051374825F0D8FB38493648C861F0
:104D200037A021F013FA3FA025F0BCFB10F00CFFD8
:104D300003460020009001903D4A07213D4802F0C3
:104D400035FD074627F0AEFE3B4D98B102223BA150
:104D50003CA009F01FFC03F07DFB434C287810B108
:104D6000384610F0DBFD2078002840D00A2002F001
:104D7000B9FEF3E725F038FBDFF8F0903C4E33E066
:104D8000642C27D907F036FB044620001BD041468F
:104D9000484601F022FB174A42A9204627F0F2FCC0
:104DA00038B102A9134827F045F902A942A827F013
:104DB00091FD22462FA156A821F0D8F956AA30A17C
:104DC00030480FF08FFD25F00FFB4146484601F0BB
:104DD00002FB0024641CE4B2287810B1384610F0BD
:104DE0009DFD0A2002F07EFE30780028C8D15BB01D
:104DF000BDE8F08370580020705C0020EC020020B9
:104E00003C3C2D4F532D494E464F2D3E3E204D6587
:104E10007373616765617070206372656174650AA0
:104E20000A000000303A2F53797374656D0000005A
:104E3000F57D0208189F0408290000206572726F32
:104E4000720000000D0A204E6F2064657465637463
:104E500065642053494D39303041206D6F64756C65
:104E60006521200D0A000000850100200008014096
:104E70008601002041542B434D47443D25640D00DD
:104E800025730000004400407CB510F05DFE034631
:104E9000002000900190224A0521224802F086FC61
:104EA000064621A021F052F92749284807F03EFB89
:104EB00026482749083007F039FB264C264D2BE0C1
:104EC000224807F041FB2148083007F03DFB002154
:104ED0001E4807F033FB38B1206880F001002060E5
:104EE00001211A4807F02AFB18480021083007F072
:104EF00025FB40B1206880F00200206013480121AA
:104F0000083007F01BFB1548007810B1304610F050
:104F100005FD0A2002F0E6FD28780028D0D17CBDEE
:104F20003D7B02083C2F04083C3C2D4F532D494E3D
:104F3000464F2D3E3E204B4559617070206372658F
:104F40006174650A0A00000039B600089C0100205F
:104F500055B600080C0C01408701002029000020F4
:104F60007CB5164CDA20207025206070C420A0701B
:104F700013A021F0EBF80EF0DFFEA2786178207824
:104F80000EF0AAF810F0E0FD03460020009001901A
:104F9000144A0721144802F009FC0646134C144D2C
:104FA00007E0217811B1304610F0B8FC0A2002F079
:104FB00099FD29780029F4D17CBD0000AC010020C6
:104FC0003C3C2D4F532D494E464F2D3E3E204272C4
:104FD00065617468696E6761707020637265617481
:104FE000650A0A0099640208C82F040829000020F5
:104FF000880100202DE9F04F8BB000261C2104A869
:10500000FBF734F959A021F0A1F810F09DFD00251F
:10501000034600955D4A03215D48019502F0C6FBF9
:105020008346584610F085FD02228DE825004FF496
:1050300008710391C823DC225021052001F05AFA9F
:10504000074600231A46FA21FF2001F0C1FA514C0D
:10505000A060012232231146192001F013FB814682
:10506000322300220221BE2001F00CFB82464FF6C3
:10507000FF784146504601F04FFB4749384610F053
:10508000BBF800231A4619463846009501F05EFB2E
:105090004249384601F0D5FB3221384601F077FB12
:1050A0000121384601F0B1FB0121384601F089FBAE
:1050B0000021A06801F0CCFA3949484601F00EFB06
:1050C0004146484601F028FB3846A16801F087F9BF
:1050D0004946384601F0A5F95146384601F0A1F994
:1050E000304F3CE0761CF6B2322E2FD32088064695
:1050F000FBF728FBFBF769FB4FF066322A4BFBF707
:1051000020FA6FF00B02FBF7FDFAFBF789FB6060FA
:10511000FBF75BFBCDE90001324624A104A821F096
:1051200025F88DF8285040F26111584610F022FD04
:1051300004A90EF08EFC21496068FBF729F9FBF702
:1051400017FB01B2A06801F025FA00261C48007880
:1051500010B1584610F0E2FB0A2002F0C3FC387888
:105160000028BFD10BB0BDE8F08F00003C3C2D4FB4
:10517000532D494E464F2D3E3E20414443617070B1
:10518000206372656174650A0A00000059630208B1
:10519000FC9604083C020020A84405083D5702087C
:1051A0000AD7A33C8901002066660A403078253082
:1051B0003458202D2D3E2025665600000000484220
:1051C000290000202DE9F041ADF5027D00253CA02D
:1051D00020F0BCFF10F0B8FC002703460097414ABE
:1051E00009214148019702F0E1FA0646012002F048
:1051F00079FCA02026F0AEFF25F05EFD3B4C4FF47D
:10520000B07140B101202070304610F0B3FC38A1DD
:105210000EF01FFC06E0304610F0ACFC36A10EF09C
:1052200018FC2770207840F2611770B3002042A963
:105230000854401C80B2FF28FAD94FF480784246C7
:10524000002142A825F078FD70B1FA24641E2404E0
:10525000240CFBD14246002102A825F038FD18B1EC
:10526000641CA4B2FF2CFBD93DB13946304610F086
:1052700081FC21A10EF0EDFB0FE03946304610F025
:1052800079FC1BA10EF0E5FB07E0FFE7394630464D
:1052900010F070FC18A10EF0DCFB194C194D07E062
:1052A000207810B1304610F039FB0A2002F01AFCC9
:1052B00028780028F4D10DF5027DBDE8F0810000CA
:1052C0003C3C2D4F532D494E464F2D3E3E204545EB
:1052D00050524F4D617070206372656174650A0AA7
:1052E0000000000081740208509704084802002062
:1052F000E68890E58A9F0000E587BAE99499000066
:10530000290000208A0100207CB51FA020F01EFF8C
:1053100010F01AFC0346002000900190224A0E2152
:10532000224802F043FA0646304610F002FC002301
:10533000FA22194610F0D2F90A2002F0D3FB1C4CD5
:10534000207818B11B480CF017FA2070207828B18B
:10535000012219A11AA003F083FF06E04FF4B871EF
:10536000304610F007FC10F056FB1B4C1B4D07E0BD
:10537000207810B1304610F0D1FA0A2002F0B2FBCA
:1053800028780028F4D17CBD3C3C2D4F532D494E4C
:10539000464F2D3E3E20436C6F636B6170702063FF
:1053A00072656174650A0A00296E02084C98040847
:1053B00098000020F85100206572726F72000000A2
:1053C0000D0A2052544320576F726B20446F776E42
:1053D000212121200D0A0000290000208B0100203E
:1053E0002DE9FC4710F0B0FB0026034600961E4A4C
:1053F00002211E48019602F0D9F982461CA020F035
:10540000A5FE4FF48051224825F05FF8214920483D
:1054100008600FF07BFC204D204C214FDFF884808A
:10542000DFF884901AE0287858B10DF0A5FF0DF050
:10543000A5FF0FF0ABFC0FF095FC20680528FCD110
:105440002E70386880F00100386098F8000010B1C4
:10545000504610F063FAC82002F044FB99F80000AF
:105460000028E0D1BDE8FC87DD850208D499040856
:105470003C3C2D4F532D494E464F2D3E3E2055531B
:1054800042617070206372656174650A0A000000F1
:1054900070580020700300204D020020EC04002012
:1054A0000C0C0140290000208C0100202DE9FE4F4A
:1054B0000025CCA020F04AFED24E002737700120F4
:1054C0007070B77010F040FB03460097CE4A0A2177
:1054D000CE48019702F06AF902904FF48051CC480F
:1054E00024F0F3FFDFF82C83DFF82CB372E1B078FF
:1054F00000287DD1307800287AD07078002878D0C4
:10550000DFF818A3DAF8000010F082FA4FF4B8714F
:10551000029810F02FFBC2A1FCF76DFA0A2002F0EE
:10552000E1FAFDF7D5FF4FF48071C04800F055FF58
:10553000FDF7CCFE18B9B07840F00100B070002043
:10554000FEF752F818B9B07840F00200B0700024AD
:105550004FF0FF090FE0AB492331A1F11500FDF732
:10556000C5FF60B998F8000008B9307808B986F826
:105570000290641CA4B2B07808B90A2CEBD30A2CB0
:1055800003D1B17841F00401B17000240CE0002097
:10559000FDF70CFF60B998F8000008B9307808B939
:1055A00086F80290641CA4B2B07808B90A2CEED335
:1055B0000A2C03D1B17841F00801B170002411E048
:1055C000904A0523083202F130010020FDF7B0FFB8
:1055D00060B998F8000008B9307808B986F80290E8
:1055E000641CA4B2B07808B90A2CE9D30A2C01E0F3
:1055F000E5E02BE003D1B17841F01001B170002457
:105600000BE0FEF7F1F860B998F8000008B93078BF
:1056100008B986F80290641CA4B2B07808B90A2CC4
:10562000EFD30A2C03D1B07840F02000B07080484E
:1056300001886FF30E010180018821F4004101808F
:105640007770DAF8000010F0E6F97BE0142D79D3DA
:105650004FF4B87A5146029810F08CFA75A1FCF715
:10566000CAF940F271194946029810F083FA10F015
:10567000D2F9734CB4F80004000422D54FF48061D1
:10568000634824F022FFB4F80004C0F30E0027544E
:1056900025460523002229460120FDF7FBFF5C4932
:1056A000284624F01AFF706809F000FBB0F57A7FF5
:1056B00003DB64A1706809F09AFB5549706809F032
:1056C00074F86148007890B3FDF792FEFDF7C2FED2
:1056D0000028FBD004282AD13770777040F20311DC
:1056E000029810F047FA10F096F94FF48171029881
:1056F00010F040FA10F08FF940F20111029810F00A
:1057000039FA10F088F94FF48071029810F032FAEB
:1057100010F081F94946029810F02CFA10F078F94F
:105720005146029810F026FA48A1FCF764F904F5F6
:10573000806420886FF30E002080208820F40040D1
:1057400020800025B078D0B39BF80000B8B340F2B9
:105750000311029810F00EFA10F05DF94FF4817108
:10576000029810F007FA10F056F940F20111029871
:1057700010F000FA10F04FF94FF48071029810F019
:10578000F9F910F048F940F27111029810F0F2F9AD
:1057900010F03EF94FF4B871029810F0EBF92BA11C
:1057A000FCF729F937707770B078FF2806D001220E
:1057B00029A12BA003F054FD01207070B7706D1C5F
:1057C000EDB298F8000010B1029810F0A7F80A2086
:1057D00002F088F99BF8000000287FF488AEBDE84D
:1057E000FE8F00003C3C2D4F532D494E464F2D3E21
:1057F0003E205769666961707020637265617465E7
:105800000A0A0000500200208D8702080C9A040842
:1058100070580020290000208D0100208001002008
:10582000E8BF9EE68EA5E4B8AD000000000C014084
:1058300014560020E9809AE4BFA1E4B8AD0000004E
:10584000145200200000000030000020E69CAAE86E
:10585000BF9EE68EA50000006572726F72000000A8
:105860000D0A20546865205769666920647269765C
:10587000652063616E6E6F7420776F726B21200DEF
:105880000A000000F0B587B00024002604960596B3
:10589000029603963EA020F059FC464D2E700DF066
:1058A000A7FFFCF73BFF012806D005F108000CF02C
:1058B00005F9012806D007E001202870FCF7F9FE61
:1058C000686001E00220287010F03EF9034600965F
:1058D000394A04213948019601F068FF0746384EDD
:1058E00051E0287808B1641CE4B2782C42D306A8B1
:1058F00009F02CFF2878022802D0012823D035E0B7
:105900002C4808300CF0DAF82A4C2EA1083404A8F0
:10591000E378A27820F02AFC40F26111384610F0BA
:1059200029F904A90EF095F86378227825A102A838
:1059300020F01CFC4FF4B171384610F01BF902A99D
:105940000EF087F812E0FCF7B4FE6860FAF73DFF4E
:1059500002460B461DA104A820F008FC4FF4B071CC
:10596000384610F007F904A90EF073F806A809F0FC
:105970000DFF00241748007810B138460FF0CEFF15
:105980000A2002F0AFF830780028AAD107B0F0BDA5
:105990003C3C2D4F532D494E464F2D3E3E204875E1
:1059A0006D6974757265617070206372656174658C
:1059B0000A0A000098020020B5780208249B040817
:1059C0008E01002025642E256400000025302E3233
:1059D00066000000290000202DE9F04F85B000246A
:1059E000FDF728FF43A020F0B1FB10F0ADF8002731
:1059F00002224949CDE90002CDE902174FF4A07314
:105A0000F022394638460FF097FE8346642002F0B4
:105A100069F80BF0CFFB4FF47A7507E00BF0D2FB7F
:105A200030B9284624F080FB641CE4B20A2CF5D37C
:105A3000DFF8E8A00A2C0CD00FF0F6FA384E3770D9
:105A4000022006F079FB0A2024F06EFB2024354D5D
:105A500049E0584610F0E2FC022233A134A008F0DD
:105A600099FD02F0F7FC58460FF058FF9AF8000035
:105A700000283CD00A2002F035F8F4E730780228FC
:105A800028D104A809F062FE3249042008606C6144
:105A90002C61091F08606C612C610021DFF8B8C01F
:105AA000DFF8B8804FF496396C61DCF8002002F41E
:105AB0007F422C616C61DCF80030C3F30723134391
:105AC0002C61A8F80030491C4945EDD304A809F021
:105AD0005DFE37702248007810B158460FF01EFF67
