:020000040800F2
:10000000A0FC002045010008C7CE0008199F000889
:10001000C5CE00081D1700086F2E01080000000063
:100020000000000000000000000000008915010829
:10003000F1250008000000008F0D00086DDB0008AE
:100040005F0100085F0100085F01000809F800086F
:100050005F0100085F0100085F0100085F01000800
:100060005F010008492D00085F0100085F010008DA
:100070005F0100085F0100085F0100085F010008E0
:100080005F0100085F0100085F010008752D01088D
:10009000E12D01085F0100085F0100085F01000811
:1000A0005F0100085F0100085F0100085F010008B0
:1000B0005F0100085F0100085F0100085F010008A0
:1000C0005F0100085F0100085F0100085F01000890
:1000D0005F0100085F010008F12A0108152B0108E3
:1000E0005F0100085F0100085F0100085F01000870
:1000F0005F0100085F0100085F0100085F01000860
:100100005F0100085F0100085F0100085F0100084F
:100110005F0100085F0100085F0100085F0100083F
:100120005F0100085F0100085F0100085F0100082F
:10013000DFF80CD000F0A8FB00480047C56A0208B1
:10014000A0FC00200648804706480047FEE7FEE77F
:10015000FEE7FEE7FEE7FEE7FEE7FEE7FEE7FEE777
:10016000E91D01083101000872B6704762B6704798
:10017000EFF3108072B6704780F31088704730BF7D
:10018000704720BF7047B0FA80F0704790FAA0F037
:10019000B0FA80F0704790FAA0F070472DE9F05F58
:1001A0000546002092469B468846064681464024E6
:1001B0001BE0284641464746224600F066FA534671
:1001C0005A46C01A914110D311461846224600F0F3
:1001D0004DFA2D1A67EB01084F46224601200021F7
:1001E00000F044FA17EB00094E41201EA4F101046F
:1001F000DFDC484631462A464346BDE8F09F000012
:100200000649074A0868504343F23902104408601F
:10021000400870470149086070470000E40C002066
:100220006D4EC64110B5431A934209D283188818FF
:1002300003E010F8011D03F8011D521EF9D210BD94
:1002400040EA01039B0703D009E008C9121F08C058
:10025000042AFAD203E011F8013B00F8013B521ED8
:10026000F9D210BDD2B201E000F8012B491EFBD239
:1002700070470022F6E710B513460A4604461946B1
:10028000FFF7F0FF204610BD30B505462A460B4665
:1002900012F8010B13F8014B08B1A042F8D01CB1C1
:1002A000002802D06D1CF1E7284630BD10B5044689
:1002B00004E00B7800F8013B03B1491C521EF8D250
:1002C000204610BD421C10F8011B0029FBD1801AEA
:1002D000704730B504460020034600E05B1C9342A3
:1002E00003D2E05CCD5C401BF8D030BD034611F872
:1002F000012B00F8012B002AF9D1184670472DE98F
:10030000FE4F804681EA0300C00F0C46009021F0AA
:10031000004123F00045B8EB0200A94105D2404658
:10032000214690461C460B46024623F000401043EF
:1003300047D0270DC7F30A00C3F30A510290401AB1
:10034000019040286BDAC3F3130040F4801B00983F
:10035000924620B10023D2EB030A63EB0B0B01980A
:100360005946C0F14002504600F080F906460D465D
:1003700050465946019A00F098F910EB0800614187
:10038000002487EA115284EAE7731A4340D0009AA6
:1003900062B3019A012A4FEA075215DC001B61EB98
:1003A00002014FF0004202EA0752CDE90042001C70
:1003B00041F5801132462B4600F0E7F903B0BDE865
:1003C000F08F40462146F9E7001B61EB0201001C5B
:1003D00041F5801300185B412018A2F5001747EB88
:1003E000030140EAD570B6196D4111E06D084FEA7E
:1003F000360645EAC0754FEA0752001B61EB020161
:10040000001C41F5801149084FEA300000195141A4
:1004100032462B4603B0BDE8F04F00F0A7B9009874
:10042000012240000023D0EB020263EBE07300984E
:1004300021464FEAE074B8EB000061EB0401E9E704
:1004400083F000435BE781F0004158E72DE9FE4F60
:1004500081EA030404F0004421F0004100944FF0CD
:10046000000B23F0004350EA01045ED052EA03047B
:100470005BD0C3F30A54C1F30A552C44A4F2F334FD
:100480000194A0FB0254C1F3130141F48011C3F3A2
:10049000130343F4801301FB024400FB034E840A60
:1004A000970A44EA815447EA8357A4FB07680295F8
:1004B0008D0A05FB07854FEA932C04FB0C54270596
:1004C000029D4FEA065847EA1637B5EB08056EEB72
:1004D000070C870E920E47EA811742EA8312A7FBA8
:1004E0000201B6EB0B0164EB00042B0D43EA0C3365
:1004F0005E1844EB1C50DA465146E7FB0201C5F397
:1005000013044FEA0B3343EA14534FEA0432019CBD
:1005100043EA0603A4F10C040294009CCDE900B464
:1005200000F033F903B0BDE8F08F00200146F9E791
:100530002DE9F04D81EA030404F0004B21F0004561
:1005400014464FF0000A23F0004150EA050220D083
:1005500054EA01021DD0C5F30A570246C5F313033E
:10056000C1F31300C1F30A5640F4801543F480131D
:10057000A7EB0608101BD64608F2FD3873EB050002
:1005800002D308F1010801E092185B41B8F1000FB5
:1005900003DA00200146BDE8F08D00204FF4801101
:1005A000064684460EE0171B73EB050705D3121BA6
:1005B00063EB050306434CEA010C49084FEA30009F
:1005C00092185B4150EA0107EDD152EA030012D0C4
:1005D00082EA040083EA0501084305D0101BAB4101
:1005E00006D20122002306E000224FF0004302E081
:1005F0006FF0010253101AEB06004CEB085110EBA0
:100600000A0041EB0B01BDE8F04D00F0AFB800006F
:1006100030B5041E71F1000404DB4FF00044404289
:1006200064EB0101141E73F1000405DB1C464FF05E
:100630000043524263EB04038B4208BF824230BD49
:1006400030B50B46014600202022012409E021FAA2
:1006500002F59D4205D303FA02F5491B04FA02F59F
:100660002844151EA2F10102F1DC30BD202A04DB72
:10067000203A00FA02F1002070479140C2F12003B5
:1006800020FA03F3194390407047202A04DB203AF4
:1006900021FA02F00021704721FA02F3D040C2F1A2
:1006A00020029140084319467047202A06DBCB17E9
:1006B000203A41FA02F043EAE07306E041FA02F31D
:1006C000D040C2F120029140084319467047000013
:1006D0000FB4002300B589B00CA900910B996FF0FD
:1006E0000042CB601E4B06931E4B07930423CDE9BB
:1006F00001321D4A089202466B46002000F05CF968
:1007000009B05DF814FB70B586B006464FF0FF30B7
:100710000091CDE90101002015460C4604903246B7
:10072000694604A8FFF7D4FF03460498211825B1B1
:1007300008B10A4600E022462A6000280DD0002BAE
:1007400002DD0098884208D0081B0094CDE901041E
:100750003246694604A8FFF7BBFF06B070BD000033
:10076000F10B00080F0C0008AD08000810B5141EAE
:1007700073F1000408DA401C41F1000192185B415A
:100780001A4301D120F0010010BD2DE9F04D924631
:100790009B4611B1B1FA81F202E0B0FA80F2203248
:1007A0009046FFF763FF04460F4640EA0A0041EA1D
:1007B0000B0153465A46084313D0114653EA010031
:1007C00019D0C8F140025046FFF75FFF05460E46BC
:1007D000504659464246FFF749FF084305D00120DD
:1007E00004E020463946BDE8F08D0020054346EA86
:1007F000E0762C4337430A986305E40AA0EB08002F
:100800000022FD0A44EA47540A3002D5002001467E
:10081000E9E7010510196941DDE908450019694159
:10082000BDE8F04DA2E7C1F30A52C1F3130140F253
:10083000FF3341F480119A4202DA002001467047EA
:1008400040F233439A42A2F2334202DC5242FFF7B3
:100850001CBFFFF70BBF000030B5041E71F1000490
:1008600004DB4FF00044404264EB0101141E73F1BD
:10087000000405DB1C464FF00043524263EB0403C7
:10088000994208BF904230BD064C074D06E0E06833
:1008900040F0010394E8070098471034AC42F6D3C7
:1008A000FFF74AFCA08F0408C08F0408C0B24FF4C1
:1008B000F05100F0BDB900002DE9FF4F087881B07C
:1008C0009946FF2805D0491C2D2804D00024002378
:1008D00008E000230BE00124F9E703EB830300EBBE
:1008E0004303491C0878FF28F7D104B15B4200207C
:1008F0000090147801462D2C01D02B2C04D1521CD1
:100900002D2C12D00024009400251678FF2E0ED036
:100910000A24A0FB04C801FB0481002700FB071187
:10092000521C16EB0C006941EFE70124EBE79944F8
:1009300050EA01020ED00024AA4D2646DFF8A88214
:1009400000F08AF982468B46B9F1000009DAC9F154
:1009500000071BE001980021C0E9001105B0BDE8C7
:10096000F08F074612E0F80707D022462B463046A4
:100970004146FFF76BFD0646884622462B46104649
:100980001946FFF763FD04460D467F10002FEAD19C
:10099000B9F1000F324643465046594602DAFFF796
:1009A000C7FD01E0FFF752FD009A0AB181F0004156
:1009B000019AC2E90001D1E72DE9FF4F1F468DB032
:1009C000D7E901464FF0FF382E2045464FF0000989
:1009D0000B90B9696D1C0E988847396A8246884722
:1009E0000028F6D1BAF1FF3F0AD024F4D064002EDB
:1009F00011DDBAF12B0F08D0BAF12D0F0BD102E0A7
:100A0000404611B0ABE744F48064B9696D1C0E98A0
:100A100088478246761E6946600501D52D2000E094
:100A20002B208DF8000001F1010B0DF1200809E0E9
:100A3000B9696D1C0E98884782460F9844F400747B
:100A4000761E0560002E02DDBAF1300FF0D00B9952
:100A50008A453ED144F0800406E00F99681CA9F154
:100A6000010944F400740860B9696D1C761E0E9883
:100A7000884782463028F0D02BE00B998A4505D173
:100A8000200603D444F08004761E18E0504624F07B
:100A900086F808B30DF11301761E44F400748B45FB
:100AA00008D2AAF130000BF8010B200607D5A9F1F6
:100AB000010003E0200602D409F101008146A005EF
:100AC00002D50F99681C0860B9696D1C0E9888479B
:100AD0008246002ED1DC53E0002E51DDBAF1650FC5
:100AE00002D0BAF1450F4BD1A00549D5B9696D1CAB
:100AF00024F44074761E0E9888478246002E0CDD42
:100B00002B2804D0BAF12D0F07D144F48074B969B1
:100B10006D1C0E9888478246761EE00501D52D2172
:100B200000E02B2108F8011BCDF82C8021E00DF10D
:100B30002901761E44F4007488450CD2AAF13000D5
:100B400010F0FF0088F8000002D10B99884509D900
:100B500008F1010806E0E00501D5244801E042F271
:100B60000F708146B9696D1C0E98884782460F98B0
:100B70000560002E04DD504624F011F80028D6D17F
:100B8000F9690E988847FF208BF8000088F800006C
:100B90000020069007904B466A4608A906A8FFF772
:100BA0008BFEA00502D46FF001002AE714F0240F99
:100BB0000AD0E00714D1DDE906123868031D3B6056
:100BC0000068C0E900120BE0DDE9060100F050F812
:100BD0000146E00704D13868021D3A6000680160F0
:100BE00028460EE7000024400000F03FF1D8FFFF48
:100BF000426842B1016811F8013B23B1521EC0E9BD
:100C00000012184670470121C160881E7047426873
:100C10005AB1C368016843B983688B4205D0491E45
:100C2000521CC0E90012002070474FF0FF3070479F
:100C30007F2801D9002208E0064A02EB5002C007D3
:100C4000127800D1120902F00F02012090400840F2
:100C500070470000188B04080EB540F23342029230
:100C60000022CDE900221346FFF78FFD03B000BD3F
:100C700001F0004330B421F0004150EA010206D0F7
:100C80000A0DA2F56072C1F31301002A02DC30BC28
:100C900000207047440F44EAC104C100E01830BC92
:100CA00000EBC250AFF300800029A8BF7047401C82
:100CB000490008BF20F00100704710B4B0FA80FC72
:100CC00000FA0CF050EA010404BF10BC704749B1AF
:100CD000CCF1200421FA04F411FA0CF118BF01211F
:100CE00021430843A3EB0C01CB1D4FEA00614FEAFF
:100CF000102042BF002010BC704700EBC3501044CE
:100D00000029A4BF10BC7047401C490008BF20F058
:100D1000010010BC704770B58C1810F8015B15F01D
:100D2000070301D110F8013B2A1106D110F8012B5D
:100D300003E010F8016B01F8016B5B1EF9D12B0782
:100D400005D40023521E0DD401F8013BFAE710F838
:100D5000013BCB1A921C03E013F8015B01F8015B25
:100D6000521EF9D5A142D8D3002070BD18484FF0CB
:100D7000FF010170002080F309881648016881F3A3
:100D8000088815484FF08051016062B6FEE772B6E0
:100D9000EFF3098028B1203880E8F00F0F49096887
:100DA000086000B50E4880475DF804EB0D480E4919
:100DB0000A78027009480D490A680260106890E8D4
:100DC000F00F203080F309884EF0040E62B67047B1
:100DD00022ED00E09000002004ED00E088000020FB
:100DE00095D9000844000020450000208C00002018
:100DF000002800DC404270477047000070B58AB0A0
:100E0000002405940C20144BCDE9013009AE0325D4
:100E1000CDE90756012180220694CDE903210090F7
:100E200023460E4A0EA112480CF0F0FB06AB0594C7
:100E300070C36802CDE9030499210E4ACDE901216E
:100E40000D2000900A4800230B4A0CA1B4300CF08E
:100E5000DDFB0AB070BD00000C110020350F00084A
:100E6000417070205461736B20557064617465002B
:100E7000A40D002010130020B10F00084170702055
:100E80005461736B205573657261707000000000CF
:100E90000EB500F0BFF800F00FFE00F041F902A817
:100EA0000CF05CFB0BA021F06DFFFFF7A7FF15A076
:100EB00021F068FFFFF7A0FF002502AC06F0D0FF8D
:100EC0000022CDE900540F23114610460CF0BCFD62
:100ED000F4E700003C3C2D4F532D494E464F2D3E2C
:100EE0003E204372656174696E67204170706C6961
:100EF000636174696F6E205461736B732E2E2E0ABA
:100F00000D0A00003C3C2D4F532D494E464F2D3EBF
:100F10003E204372656174696E67204170706C6930
:100F2000636174696F6E204576656E74732E2E2E24
:100F30000A0D0A000EB51B4C4FF47A7508E0A17833
:100F4000491CC9B2A1700A2906D2284624F0E0F94A
:100F500011F0C6FB0028F2D101274FF48079DFF8A9
:100F600048A0124E00250DF1080817E0002011F0EE
:100F700037FC38B13078012800D1677049465046B7
:100F800003F000FF0022CDE900586423114610460B
:100F90000CF05AFD4946504603F0F2FEA0780A28AC
:100FA000F0D2E3E72800002000080140AC01002057
:100FB00004480078552801D025F0BAFC11F058FFFC
:100FC000FCE700002800002010B501200EF088FA90
:100FD000BDE8104000200EF083BA000008B50349B8
:100FE000084400900098008808BD0000006C004094
:100FF00008B5034A104400900098016008BD000045
:10100000006C004000B585B068460EF077FA019894
:1010100005B000BD30B585B000200190029003906E
:1010200004902E4C2C486060012140200EF02EFAD6
:1010300000F070FB0AF0E4FB09F03AFC09F04EFC0A
:1010400000F02CFB11F008FD14F032FC042013F02A
:101050001DFC05F0A9FD012221A1606824F00AFF12
:10106000204D287020A021F08DFE2878254D30B12C
:1010700025A021F087FEE020287005B030BD0122B8
:101080004FF4FF111F4810F0C7F8287855281CD1DD
:101090001022214901A810F0BFF8BDF80800009007
:1010A000BDF81030BDF80C20BDF80410002006F08B
:1010B0007FFEBDF80A000090BDF81230BDF80E208A
:1010C000BDF80610012006F073FE0EF0C9FB1348B0
:1010D0000EF0A4FA2070D0E71C58002094000020E5
:1010E000303A00002B0000206D6F756E742066751D
:1010F0006E6374696F6E206973206F766572210A62
:1011000000000000280000204D6F756E74204661BD
:10111000696C65642100000002E01F00BC400020F3
:1011200010B5FFF76FFF04490968B0FBF1F0BDE8A7
:1011300010400CF02DBD00004470020838B5456821
:1011400004460146284611F099FF00282AD020685D
:10115000304A0F2819D006DC0B2824D00C2810D0D8
:101160000E2851D12FE0112802D028284CD145E07B
:101170009268002A16D02146284601B0BDE83040CA
:101180001047214628465268F7E7284604F038FA07
:101190000090406E0468684604F09CFA002C01D070
:1011A0002846A04738BD284604F02AFA0090683047
:1011B00004F080F9009803216C3004F089F9684646
:1011C00004F088FA20E0E168486809680D2902D037
:1011D000202913D105E0002810DD28461CF0B7FFB8
:1011E00006E0002804DD2846BDE838401CF0AFBF0B
:1011F0002846BDE8384002211CF0BFBFE06818B99E
:101200000021284600F0CAF92046BDE8384012F017
:1012100015BB00001C0500202DE9FF410AAF70CF6F
:10122000002703958DE8D00000F003F804B0BDE876
:10123000F081F0B585B00DF1280CBCE8F0004FF05E
:10124000000C8DE8F01000F025F805B0F0BDF0B509
:10125000044685B08069B4F90850668A0027CDE954
:101260000265CDE900170490B4F90C00B4F91060E0
:10127000C118B4F90A00B4F90E50104433462A4696
:1012800000F008F80546616800F0A7F905B02846A7
:10129000F0BD00002DE9F04F85B01F46DDE911B427
:1012A000DDE90E5690468946824605F0E7FC4C344F
:1012B0001548CDE90204CDE900563B464246494671
:1012C000504612F001FA040018D004F099F91022E7
:1012D0005946049012F004F9049830220B49343036
:1012E000FEF7A0FF094D04990C3D2868486604A844
:1012F00004F0F0F9286841682046884707F058F85C
:1013000005B02046BDE8F08F3D11000828050020FB
:10131000F0B5044680688B4989B051F82050606868
:1013200000287DD0052804D006287AD0122879D14B
:10133000AEE0E86900284FD095E80E008DE80F0078
:1013400004F110010FC907F0EBFD002655F8260047
:1013500006F015FBA169E8690A1A21690144606970
:10136000304405F0C1F8A169E8690A1A216901440D
:10137000E069801B05F0B8F8E169E8690A1A61695B
:1013800001442069304405F085F9E169E8690A1AE9
:1013900061690144A069801B05F07CF9761C022E6E
:1013A000D4DBA86806F0EBFAE069E9696669431ADC
:1013B00020694218521E3144801C05F021FAE1696F
:1013C000E869A2690B1A61690144101A401C921E57
:1013D00005F016FAEE6913E05FF0000655F82600F6
:1013E00006F0CDFAE069831BA069821B6069811950
:1013F0002069304405F0EEF8761C022EEEDB022662
:10140000D5E90301CDE900016169E06908444310B1
:10141000A069891C821B2069304405F029F802E08C
:1014200089E012E08AE0D5E90501CDE90001E36930
:1014300060690121184401EB6001A0699B1E821BB9
:101440002069304405F014F878E0206804F0D8F8FA
:101450000490206813F062FE40B1A06808B100203B
:1014600008E00498006F28B1012003E00498406F61
:1014700000B10220049901EB8000C56E04A804F0BD
:1014800029F900231A462846216804F0FBFC55E0A0
:10149000206804F0B5F80490866EEEB3B0F95C7085
:1014A000A168D1B3032942D05FF0000100EB8101B4
:1014B000406D0C6C06F09EFA204606F060FA05A816
:1014C00005F060FABDF81410A88B0144ADF81410B3
:1014D000BDF81810081AADF81800BDF81600801CE9
:1014E000ADF81600BDF81A00801EADF81A00049879
:1014F0005E30B0F90220B0F9001005A806F04DF8F2
:1015000004A804F0E7F8022006F0FEFA304604F0E2
:1015100077F83A4605A901E00BE006E0079004F0F1
:10152000F5FD07A804F0D6F808E00121BEE7022186
:10153000BCE704A8F6E7206813F068FA09B00020B9
:10154000F0BD0000C86B0408044A03491160044957
:101550004A6A486210467047580500201C05002062
:101560002805002000294FF0100101D011F015BE10
:1015700011F05DBD38B50D4604000ED005F07EFBC0
:10158000204604F03DF800904565684604F0A2F856
:10159000204612F0D9FE06F00BFF38BD4FF48072E2
:1015A0000029114601D011F0F8BD11F040BD08B579
:1015B0000023009300F001F808BD70B516460C46F4
:1015C000054619463046049A04F03EFC0246214680
:1015D0002846BDE8704000F042B82DE9FF410E46B4
:1015E00005004FF0010421D005F048FB284604F027
:1015F00007F80190876E01A8009704F06BF8314658
:10160000684608F073F878B100980024B84208D012
:10161000284603F0F5FF01900099816601A804F0C7
:1016200059F8284612F090FE06F0C2FE04B020469B
:10163000BDE8F08138B50C4605000FD005F01EFB63
:10164000284603F0DDFF0090A0F85C40684604F0F7
:1016500041F8284612F078FE06F0AAFE38BDF8B52B
:1016600015460C46060018D005F008FB304603F07E
:10167000C7FF0090032C0BD800EB84006C3003F004
:1016800019FF009800EB8400C566304612F05CFE3E
:10169000684604F01FF806F08BFEF8BD38B501214E
:1016A00004200DF00FFF4FF48074ADF800401020BF
:1016B0008DF8030003208DF80200054D6946284689
:1016C00003F004FB2146284603F05AFB38BD000016
:1016D0000008014010B500280FD04FF480540128B5
:1016E00011D0022815D11021012010F0CFF8214689
:1016F000BDE81040022010F07FB81021BDE8104076
:10170000012010F0C3B82146BDE81040022010F0BF
:1017100073B810BD4FF4A0600BF01EBCFEE7C1B261
:10172000000A40EA0120704770B500208F4B904CB2
:101730005988A4F1400202E0155C2554401C8842FF
:10174000FAD38B48626820304260A26882601F2909
:101750000FD00220FFF7BEFF00202060607B1A221E
:10176000052110F033F9BDE870400021012010F090
:101770000DB9E17B282901D02A290FD1207D627C77
:10178000E57C40EA0260A27C120442EA0522104392
:101790005860E07DA27D40EA02209860754A20688A
:1017A00090427DD1744A607B1268904203D8A27B3C
:1017B0000AB1102A0DD90220FFF78CFF607B24228A
:1017C000052110F003F9BDE870400021012010F060
:1017D000DDB8252968D01ADC15297CD00DDC082954
:1017E0007AD005DCF1B303293FD004292DD177E06D
:1017F0000A2972D0122928D13BE01A390A2924D2A9
:10180000DFE801F0433B237A3F232323234B8A293C
:101810007DD00EDC552967D006DC28294CD02A293A
:1018200050D02F2911D153E05A2932D088290CD118
:1018300072E0A82968D004DC8F2969D09E2904D1E0
:101840006EE0AA2974D0AF297AD00220FFF742FFB8
:10185000607B2022052110F0B9F8BDE8704000211E
:10186000012000E024E010F091B8BDE870400EF0D7
:10187000FDBDBDE870400EF007BDBDE870400EF044
:1018800001BEBDE870400EF0FDBDBDE870400EF039
:101890003BBDBDE870400EF031BDBDE8704001E0D9
:1018A00056E001E00EF0ACBDBDE870400EF06EBD3C
:1018B000BDE870400EF0EABDD3E90112BDE870400A
:1018C0000EF028BDD3E90112BDE870400EF018BE3D
:1018D000BDE8704002E00BE012E025E00EF0F2BD42
:1018E000BDE870400EF0B8BCBDE870400EF0E6BC3C
:1018F000BDE870400EF0E2BCBDE870400EF0DEBC0A
:10190000BDE870400EF0DABCBDE8704002E013E0C4
:101910001AE00DE00EF0D2BCBDE870400EF0CEBC77
:10192000BDE870400EF0CABCBDE870400EF0C6BC09
:10193000BDE870400EF0C2BCBDE870400EF0BEBC09
:10194000BDE870400EF0BABCBDE870400EF0B6BC09
:101950000220FFF7BFFE607B2022052110F036F841
:10196000BDE870400021012010F010B8880300206D
:10197000B0E9002055534243EC0300202DE9FF4716
:101980000446006810B113F0C9FB68B10022314869
:1019900050F8221060680A2841D007DCF0B306280E
:1019A0000DD0072854D106E00122F0E712280AD012
:1019B00019284DD137E0204615F064FE48E0204656
:1019C00017F0B2FB44E0206803F01AFE0290B0F971
:1019D000548090F85650476C466B02A803F07AFE8C
:1019E000206800F039F88146684612F045F8BDF8E5
:1019F000001009EB05000844ADF80000246A3046E9
:101A000005F0F8FF022006F07FF8384605F0B7FF32
:101A100042466946204604F079FB19E007E020467B
:101A200018F0DDFA14E0886904B0BDE8F08720689A
:101A300012F0ECFF206803F0E3FD0390B0F906100C
:101A4000B0F90220891A491CC16703A803F042FEBD
:101A50000020E9E7D86B040838B5044605F00EF914
:101A6000204603F0CDFD0090C46F684603F032FEBF
:101A700006F09EFC204638BD044A03491160044923
:101A8000CA69C86110467047E4050020440B002075
:101A9000480B002000B589B024216846FEF7E9FB19
:101AA00019200190034800688068416868468847AB
:101AB00009B000BD440B0020AFF3008002490020B4
:101AC000086000F009B800003000002001490860FB
:101AD000704700003000002010B50948016841F04F
:101AE00080710160074800214160016841F00101F7
:101AF0000160FFF787FABDE81040FFF7E7BF00007D
:101B0000FCED00E0001000E0014840687047000074
:101B1000001000E02DE9F041194E1A4F1A4C1B4DF0
:101B200028E047F6FF702060288800F00F01317030
:101B300007EB8100D0F8002C92B213040CD5D0F83A
:101B4000002C40F68F731A40C0F8002C1048491E34
:101B500050F8210080470DE012060BD5D0F8002C7C
:101B600048F60F731A40C0F8002C0A48491E50F876
:101B700021008047206828800004D2D4BDE8F0818D
:101B8000B802002000500040445C0040E803002000
:101B9000CC030020B00300202DE9F84F0020009076
:101BA0004BF6BF7748F28008614E624D40F68F7A5F
:101BB000DFF8849148F60F7B604C2CE0088800F039
:101BC0000F0089F8000078B304EB8001D1F8002CF5
:101BD0000092BDF8002012040AD5D1F8002C02EAC8
:101BE0000A02C1F8002C5649401E51F820008047D7
:101BF000BDF8000000060ED599F8000004EB800146
:101C0000D1F8002C02EA0B02C1F8002C4D49401E0D
:101C100051F8200080474648443000684A4908800F
:101C20000004CBD4BDE8F88FFFE73068288028880F
:101C300000F030006880288800F440502880306828
:101C4000384080F4005080F0200040EA0800306006
:101C50000888C00620D4306800EA0B00306008F025
:101C6000D9FD306838402988C90401D580F48050F6
:101C70002988890401D580F400506988C90601D5F6
:101C800080F010006988890601D580F0200080B2BC
:101C900040EA08003060C5E730680090BDF80000F9
:101CA000000520D5306800EA0A0030600FF094FE8D
:101CB000306838402988C90401D580F480502988CB
:101CC000890401D580F400506988C90601D580F0E7
:101CD00010006988890601D580F0200080B240EAB2
:101CE000080030609EE7BDF80000000493D530681E
:101CF00000EA0A0030600DF099F930683840298810
:101D0000C90401D580F480502988890401D580F464
:101D100000506988C90601D580F0100069888906DD
:101D200001D580F0200080B240EA0800306079E7F9
:101D3000005C0040CA020020B802002000500040B1
:101D4000CC030020B0030020E803002081000848F5
:101D50000844D0F8001C490409D5D0F8001C48F606
:101D60008F7211404CF280021143C0F8001C704782
:101D700000500040810008480844D0F8001C490683
:101D800009D5D0F8001C48F68F72114048F2C00205
:101D90001143C0F8001C7047005000408100064805
:101DA0000844D0F8001C48F68F62114048F28002C7
:101DB0001143C0F8001C70470050004070B500256A
:101DC0004FF4803400E0641E24B180200EF07CFCCF
:101DD0000028F8D02CB140F2FF500EF035FC284618
:101DE00070BD032070BD00000548416B11F0450F28
:101DF000FBD040F2FF518163406900F0080070475A
:101E00000080014010B500240E4A516B00E0516B78
:101E100011F0450FFBD0480705D5032404200EF030
:101E200013FC204610BDC80705D0012401200EF088
:101E30000BFC204610BD40F2FF500EF005FC204682
:101E400010BD00000080014010B500240A4A516B0B
:101E500000E0516B11F0450FFBD0480705D5032476
:101E600004200EF0F1FB204610BD40F2FF500EF0B2
:101E7000EBFB204610BD00000080014070B5064617
:101E80000C4600251C4A506B00E0506B10F0450FCB
:101E9000FBD0410705D5032404200EF0D5FB2046D6
:101EA00070BDC00705D0012401200EF0CDFB2046F7
:101EB00070BD0EF003FCB04201D0102070BD40F2A6
:101EC000FF500EF0C1FB00200EF010FC10F4604F2C
:101ED00003D0810405D5132070BD000C2080284656
:101EE00070BD410401D5102070BD000401D50F2044
:101EF00070BD284670BD00000080014010B5002074
:101F00004FF480310D4B5A6B01E0491E5A6B12F0B1
:101F1000450F01D10029F8D109B1510705D5032496
:101F200004200EF091FB204610BD5106FCD5002484
:101F300040200EF089FB204610BD000000800140CB
:101F400070B586B011F0C6FD30214FF41472CDE9A2
:101F5000032105910321CDE90001174800230293D5
:101F6000036A74224FF481713E2008F0AAF8134DE1
:101F7000E8610024124E13A2E86956F8341007F005
:101F8000D7FF641CE4B2022CF5D30F4A0121E869A3
:101F900008F00EF94FF0FF31E86908F053F90A2212
:101FA0000021E86908F05DF9E86906B00821BDE89C
:101FB000704008F030B90000F4570020AC01002058
:101FC000A07002080000000080FFFF80F0B587B01D
:101FD000002411F07FFD2C4A0223CDE901322B4D64
:101FE0000090042105F1080003910FC811F06CFB6B
:101FF00068623A213022CDE90421002640F25123C3
:10200000CDE902630321CDE90001E8692A681430B3
:1020100000EB4003D21E3146032008F052F81C4D5D
:1020200068611C4E6FF07F4706EBC40056F8341011
:102030004268686907F07CFF3A462146686908F003
:1020400031F9641CE4B2062CEED3134A012168690D
:1020500008F0AEF81149686908F0C6F84FF0FF3192
:10206000686908F0EFF80A220021686908F0F9F8B9
:102070000C220121686908F0F4F8686907B00821AA
:10208000BDE8F04008F0C7B889480208F4570020BE
:10209000AC010020B070020880FFFF8038EF030819
:1020A000F0B585B011F016FD0C230226CDE90163D1
:1020B0001CA14FF4B072CDE90321009010233C2203
:1020C000314600200FF0FAFE194C206119490FF03B
:1020D00097FF6FF07F45294620690FF0E7FF11F069
:1020E000F9FC15490E2740F261130A688DE8C1001A
:1020F00012A1CDE9033102EBD2706FF0180101EBB0
:1021000060001023322202210FF0D8FE2061294600
:102110000FF0CCFF206905B00B49BDE8F0400FF08F
:102120006FBF000057696C6466697265204F530089
:10213000AC01002038EF0308F457002031313A3564
:10214000363A30300000000028E8030801480068F3
:102150007047000030060020C10002D50249086027
:102160007047024948607047040402400000024082
:10217000002904D0016841F0010101607047016845
:102180004FF6FE72114001607047000002460020C9
:10219000D10002D50449096801E0044909681142E7
:1021A00000D00120704700000004024000000240FF
:1021B00030B5026847F6F0739A430C6A8B68234384
:1021C000D1E904452C4323438C692343CC69234341
:1021D0004C6A23438C6A234313430360CA684260FA
:1021E0000A6882604968C16030BD0000F8B50546E4
:1021F000006803F005FA0090448ED0F888606846C5
:1022000003F068FA06B1012604F00104286812F010
:1022100085FF0EB1002006E00CB1012003E008B1FB
:10222000022000E003201B4951F82010686858B3D1
:1022300002280CD0052802D0122828D103E0284615
:1022400015F04CFA23E0284618F0A3FA1FE06A695B
:10225000E8694FF0FF33801AA0F1080203EB620433
:10226000421CAB69001B4510A3EB6206C86905F070
:1022700086FB06E03219311B284604F035F9641E4E
:102280006D1C002CF6DA02E0286812F0BFFB00207B
:10229000F8BD0000386C0408044A03491160044981
:1022A0000A6B08631046704734060020840B002038
:1022B000880B002038B50D46002403F0A1F90090EA
:1022C000C06B294603F0CBFA0546684603F002FAD4
:1022D0001DB1284603F094F90446204638BD00009D
:1022E0002DE9F047DFF89880D8F8001001F11005CB
:1022F00028880E7A234F4FF03009002801D1042E90
:1023000004D0AC88A04215D8042614E01E480178F9
:10231000012903D00726102038802BE01B4A00211A
:1023200012681B4B92B2921C43F81210A7F800904F
:1023300001701FE00226844200D90446A968A0B2B9
:1023400088478246002007F00DFB0146A2B25046A6
:1023500010F010FEA1B200200FF08AFA2888001BAE
:102360002880688820446880A7F8009009494FF4C5
:1023700040500880D8F800000672BDE8F0870000E1
:10238000BC020020CC020020B4020020505C0040BF
:1023900000600040CA0200202DE9F041214E34685F
:1023A00010342088A168002915D0A0B1A5888542E5
:1023B00000D90546A8B2884707462088401B2080E0
:1023C000608828446080002007F0ACFA0146AAB279
:1023D00038460CF089FE2088134F302538B1134958
:1023E00028020880002108460FF042FA3D8020882C
:1023F000A188884204D3316803200872BDE8F081C7
:1024000018B1316805200872F8E7316806200872B3
:10241000074800210068074A80B2801C42F810106B
:102420003D80EBE7BC020020CC020020CA02002065
:10243000505C0040006000402DE9F843634E306876
:1024400042780024624D062A296801D08AB117E03B
:102450000278520669D18078012804D0022804D07D
:10246000032804D061E0CC695FE00C6A5DE04C6A4F
:102470005BE0438823B9C388022B01D1037923B1E0
:10248000082A39D00A2A3CD04FE00278530601D1FD
:10249000838833B102F07F02012A04D0022A0CD0D3
:1024A00043E04C4C41E08A6940790021904710BBE1
:1024B0003068807AF8B1474C37E0417901F00F007D
:1024C00001F070020B06444907D501EB8001D1F8F9
:1024D000001CC1F30111090106E001EB8001D1F8F4
:1024E000001CC1F3013109033C4B1B7883421CD90A
:1024F0000AB901B1374C18E00078400615D1384CC4
:1025000013E0027802F07F02012A0ED1827A62B1D2
:10251000428852B9027942B9C288012A05D18A6932
:1025200040790021904700B92E4C09274FF0000850
:102530003CB13068A0F8128084610020A0470020E0
:1025400006E029683068096940788847032816D072
:1025500031680A8AA2F57F43FF3B0DD0022811D0D3
:1025600082B1087800062AD5C88800900098824277
:102570000CD9009808821AE00F72BDE8F883306821
:102580000772FAE74FF008000872F6E70FD22868E2
:10259000154B90F82C00824202D283F8008006E0AE
:1025A000B2FBF0F400FB142008B901201870286871
:1025B00090F82C008882BDE8F843FFF791BE032015
:1025C00008720A4900030880D7E70000BC02002017
:1025D000C0020020F11B01080050004058040020F8
:1025E000811B0108C91B0108B4020020CA02002097
:1025F000704700002DE9FF41224D4021284602F09E
:10260000C1FB8021284602F0BDFB0824019400266E
:102610008DF80A6001A800F0E7FB09208DF80C0096
:102620008DF80F6003A80AF065FC10266E6116494C
:10263000042008602020286114480460081F0460FA
:10264000012108200CF03EFF4FF47F40ADF8000060
:102650008DF8036003278DF8027069460C4802F07C
:1026600035FB012110200CF02DFFADF800408DF856
:1026700003608DF802706946284602F027FBBDE82A
:10268000FF810000001001401408014010140140B7
:10269000000C01402DE9FC470E465FEA00097FD09F
:1026A00004F0ECFA484602F0ABFF009090F854704A
:1026B000D0F85880456BC46C684603F00BF8B8F14D
:1026C000000F04D0314648464246904761E0122E42
:1026D00018D006DC082E43D0102E3CD0112E06D187
:1026E00012E0132E21D01D2E43D01E2E3DD0202EC1
:1026F0004FDB17B1484614F09CFCB1B248461BF0C2
:102700000BF960B3611C27E04DB3284602F078FF57
:1027100005462146019005F027FD4419204605F0A5
:10272000C3FC01462346012210E0C5B1284602F051
:1027300067FF05462146019005F016FD4419204625
:1027400005F0B2FC014623464FF0FF32484614F034
:10275000ABF801A81BE0611E484600F06BFA18E0D8
:10276000BCB1611E484600F065FA484614F061FCB1
:102770000FE0484602F044FF0090012F12D00121E3
:1027800080F854102146484600F054FA684602F09A
:10279000A1FF484611F0D8FD00E001E005F008FE79
:1027A000BDE8FC87002180F85410EFE7FEB54468CF
:1027B0000546204612F0B2FC06462946204610F097
:1027C0005DFC002834D028680E283DD004DC0B289E
:1027D0002FD00C284AD116E00F2825D0A0F5807004
:1027E000133843D1204611F075FF204600211CF01C
:1027F0005CFB204602F004FF0190C06F002111F045
:1028000041FF01A81DE0E86860B1017A29B10168C3
:10281000204600F0EAF8012100E00221204611F0F4
:1028200076FE23E00321F9E7012120461CF03DFB61
:10283000FEBD204602F0E4FE0090343002F03AFE85
:10284000684602F047FF11E086B1E8684168002958
:102850000CDD0168092909D00A2907D00D2905D006
:102860001B2903D02046FFF715FFFEBD284610F0B8
:10287000E5FFFEBDF0B587B004460DF1080CD4E9C4
:102880000567B0F90850408AACE8E1000020CDE9C6
:102890000010B4F90C00B4F91060C118B4F90A00C2
:1028A000B4F90E50104433462A4600F009F80500EA
:1028B00002D0618A00F072F907B02846F0BD00002E
:1028C0002DE9FF5F1F46DDE91254DDE90E6A9046EF
:1028D0008946834604F0D2F90DF1040C4AF4805085
:1028E00058341E490096ACE813003B464246494620
:1028F000584610F0E9FE04002AD002F081FE1022B2
:102900000090119910F0ECFD00981C2214496030E1
:10291000FDF788FC009A012082F85500681C00D061
:10292000012082F88000002D00DC08252DB21587DB
:102930000020508750636D1C684602F0CBFE29468C
:1029400020461AF022FE18B9204610F0AFFF0024EE
:1029500005F02EFD04B02046BDE8F09FAD2700082D
:10296000F00600202DE9FC4115460E00044627D054
:10297000002C25D004F082F9204602F041FE002709
:1029800001903770406BB0B102F03AFE009006F053
:10299000F5FC0146009805F0E7FB0446681E8442FA
:1029A00000DD0446224630460099FDF73BFC6846B0
:1029B00002F090FE375501A802F08CFE05F0F8FCFD
:1029C000BDE8FC8138B505004FF000040BD004F0E1
:1029D00055F9284602F014FE0090846C684602F017
:1029E00079FE05F0E5FC204638BD2DE9F04186B0C2
:1029F0000C46060055D004F041F9304602F000FEC6
:102A00000090406B98B302F0FBFD03900098806E3D
:102A100004F0F0FF8046304611F0CEF907460398E7
:102A200004F02EF80546009890F8601001F00301BC
:102A3000012916D002290DD0416EC06A00680844F1
:102A4000241A641E039806F099FC0146002C0FDA44
:102A5000002115E0781B401C00EBD070A4EB600453
:102A6000F0E7406E791B081A241A641CEAE713E0A9
:102A7000AC4205DC02462146039806F01FFC0146E5
:102A8000304600F0D7F803A802F024FE404604F0D8
:102A9000B1FF304611F058FC684602F01BFE05F00D
:102AA00087FC06B0BDE8F08138B50C4605000FD0B4
:102AB00004F0E4F8284602F0A3FD009018B1846603
:102AC000284611F041FC684602F004FE05F070FC57
:102AD00038BD2DE9FC4788465FEA00094FF0000544
:102AE0005AD004F0CBF8484602F08AFD0090B0F9C5
:102AF0003860446B684602F0EDFD0027B8F1000F26
:102B00003ED04CB1204602F07BFD0190FDF7DAFB90
:102B1000451C01A802F0DEFD404606F02FFC0446ED
:102B2000B04200DD34462146404605F01DFB461C00
:102B3000711B48461BF078F808B3484602F060FD68
:102B40000090406B02F05CFD324641460190FDF77B
:102B500069FB0198304400F8017C0098C464B0F926
:102B600038108C4205D190F85410012901D1641E0F
:102B7000C464684602F0AEFD01A802F0ABFD06E0B9
:102B80000098343002F096FC00984787C7644846A6
:102B900011F0DAFB05F00CFCBDE8FC8738B50C46FB
:102BA00005000FD004F06AF8284602F029FD0090D5
:102BB00018B10466284611F0C7FB684602F08AFD8A
:102BC00005F0F6FB38BD0000F8B51D4616460C466C
:102BD000074604F053F82FB3384602F011FD009079
:102BE000AC4201D92C4602E0B44200D234460F492F
:102BF00081650F49C1650021C0E91241C0E90F6537
:102C0000012180F85410B0F938100A2901DD0A2199
:102C10000187684602F05EFD38461FF055FB3846D6
:102C200011F092FB05F0C4FBF8BD0000B15A010899
:102C3000C92202081CB50C4602F0E2FC0090406B71
:102C4000F0B102F0DDFC019006F098FB009991F8DC
:102C5000542002B10122002C00DA0024844200DD5D
:102C60000446B1F93800801AA04200DA0446C86C64
:102C7000A04200D0CC640020086501A802F02AFD23
:102C8000684602F027FD1CBD01221FF023B808B5DD
:102C900068460AF017FB0AF0A9F868460AF032FB0A
:102CA00008BD08B568460AF00DFB0AF0CFF8684683
:102CB0000AF028FB08BD000038B5012108200CF0FF
:102CC00001FC4FF48070ADF8000010208DF8030077
:102CD00003208DF80200064C6946204601F0F6FFFD
:102CE0006115ADF800106946204601F0EFFF38BDD0
:102CF000000C014010B5FFF7DFFF114C4FF40071DD
:102D0000204602F03DF8A115204602F039F80D4C9E
:102D1000002240F2255120460FF089FF002240F2A8
:102D2000244120460FF083FF002120460FF04CFF86
:102D3000BDE8104000214FF480200CF0B5BB00002E
:102D4000000C01400048004070B5FDF711FA134A2D
:102D50001178491C1170FDF70FFA082000F034F8C3
:102D6000C0B10F490822087810B101280AD00EE03E
:102D70000C4B102058610C4C226001250D70226014
:102D8000186104E00848001D026002200870082055
:102D900000F00CF8BDE870400AF0F8B93C000020E3
:102DA0008B0100200010014010140140014908600F
:102DB000704700001404014002490A6802430A6097
:102DC000704700001004014001460020054A1268C7
:102DD0000A40044B14331B680B4202D0002A00D077
:102DE000012070470004014030B51B4A8379016817
:102DF000002B2AD013688B431360111D0B680468E5
:102E0000A3430B60017911440B68046823430B60F2
:102E1000114C08342168036899432160231D196807
:102E20000568A94319604179102905D011440A6841
:102E3000006802430A6030BD2168026811432160C6
:102E4000196800680143196030BD007910440268B8
:102E50008A43026030BD0000000401402DE9F843C0
:102E600010258DF8035003268DF8026001212020E3
:102E70000CF028FB0824ADF800406946234801F017
:102E800025FF012110200CF01DFBADF80050204F54
:102E90006946384601F01AFF012104200CF012FBAC
:102EA0000425ADF80050DFF86C806946404601F01B
:102EB0000DFF012104200CF005FBADF80040694630
:102EC000404601F003FF012110200CF0FBFA202105
:102ED000ADF800106946384601F0F8FE01210820DF
:102EE0000CF0F0FA4FF47F40ADF800008DF803507D
:102EF0008DF802606946084801F0E8FE0548143084
:102F00000460024810300460BDE8F88300140140FA
:102F10000010014000080140000C01402DE9F04381
:102F200089B0984615460F4606004FF000042DD094
:102F300000F0DCFB0446304600F09FFB814603F0C6
:102F40009DFE03A9304600F064FDF80706D0BDF9E8
:102F50001C00001B401B401C822109E0B807002810
:102F6000BDF91800284402DA40F2022100E00221F3
:102F70000096CDE9018123461A464946FEF74CF9F1
:102F800004460021FEF7EEFA05F012FA09B02046D9
:102F9000BDE8F08310B50523FFF7C0FF0446054ADE
:102FA0000021FEF704FB0449204611F0E4FB204613
:102FB00010BD000079750108752F02082DE9F04752
:102FC000456804468EB00026284602F019FB0090A2
:102FD0005C30B0F820A0D0F80C90D0F82480C76AFC
:102FE000006800B10668684602F074FB05E0796885
:102FF0002046884700283DD13F68002FF7D1206840
:10300000142844D009DCA0F10B00072839D2DFE8EE
:1030100000F0BE3989B434B4110020287ED004DC1D
:1030200017283ED01E282CD14BE026283CD02A2839
:1030300027D110E02846E66802F0E2FA0190717AA2
:1030400039B9317A012904D130F87C1F41F48071FB
:10305000018001A88FE0284602F0D2FA0090E168D2
:1030600011B1C0F8841002E0D0F88400E060684636
:1030700002F030FB0EB0BDE8F087002E7DD0284670
:10308000B0477AE0214628461BF0F4FCF2E705A998
:10309000284600F0BEFCE06806990160079941608F
:1030A000E8E7C4F80C90E5E7E0680228E2D10C9567
:1030B000E0680D9027200A900AA9A06812F048FA4B
:1030C000D8E7E068012804D00021284600F086FBFC
:1030D000D0E7404611F093F958B1404611F010FC8A
:1030E000404611F05DF888B10121404610F055F8D6
:1030F0000CE0484611F058FC8046284602F080FA61
:103100000090C0F88080684602F0E4FA0121284669
:1031100000F064FBB8F1000FACD100E00EE000203D
:10312000E060A7E75FEA0A7027D4E068C06820B3D0
:10313000007A10B3284611F0E3FB1EE0E668E6B122
:103140002946706811F0D3FF20B1012128461DF0F7
:1031500065FF12E0002128461DF060FF2946306817
:1031600011F0B4FF48B1284602F04AFA03903168E2
:10317000C0F8801003A802F0ADFA214628460FF0EF
:103180007DFF00288CD0204610F058FB72E72846BF
:1031900002F036FA0090703002F08CF96846EAE7E7
:1031A000F0B587B0B0F908400DF10C0C0C9E8769A2
:1031B0004568ACE8F000448A0025CDE9001502948A
:1031C000B0F90C10B0F91050B0F90E40B0F90A0087
:1031D000194410442B46224600F002F807B0F0BD17
:1031E0002DE9F04F8BB09846DDE9155691468A4699
:1031F0008346149F1A9C03F041FD6034314845F426
:103200008055CDE90204CDE9007543464A46514652
:10321000584610F059FA04004DD002F0F1F930226E
:103220000490179910F05CF904982822264934304C
:10323000FCF7F8FF049819995C30234F81600684ED
:10324000002646620661083FC6627968016004A8EC
:1032500002F040FA05A9204600F0DBFB1B4841F2D2
:10326000827103960094CDE90110BDF91E00BDF9ED
:103270001A10BDF91C20431ABDF918005B1C121A64
:10328000521C10F021FA06467868416820468847AB
:10329000204602F0B5F90490866604A802F01AFAF6
:1032A00042F20400054202D1204610F067FB20469E
:1032B000189900F018FB05F07BF80BB02046BDE82C
:1032C000F08F0000BD2F000814070020213D0008EA
:1032D0002DE9F041044694B0006800F0B7F908B158
:1032E000D94D01E0D84D2C35606815281ED00CDC76
:1032F0000B281FD004DC00287ED005287DD12EE1CC
:103300000E287BD01228F9D141E1162806D01728C3
:1033100008D0182808D01C28F0D109E0E86914B0BA
:10332000BDE8F081286AFAE7686AF8E7A86AF6E774
:103330006869F4E720680B901C200C90206802F06C
:103340005FF90390016D0BA88847064603A802F0B9
:10335000C1F9022E0EDB95E807008DE80700D4E9DD
:1033600004023346A16905F0A1FD20698719A0690F
:10337000801B2BE0286804F002FB2169E8690A1829
:10338000521E606903F0B0F8A269E869111A491C7D
:10339000606903F0A9F8676920697F1C394603F06A
:1033A000F3F83946A06903F0EFF8686804F0E7FA2B
:1033B00020693946401C03F0E7F8A0693946401EF1
:1033C00003F0E2F82769A069BF1C801E80462868C8
:1033D00004F0D5FA42463946606903F085F868681A
:1033E00004F0CDFA60694246401C394603F07CF88F
:1033F000686A02280FDD02E015E1AFE000E1A8688D
:1034000004F0BDFA61696A6A881C8B1801465B1E6C
:103410004246384627E0296AB14226DD6069022E1D
:10342000074600F1020801DB374401E007F102071B
:10343000206901DB304401E000F1020022693B46D3
:103440000A44A2F10102414603F0DAF9022E02DB3E
:10345000A069821B01E0A269921EA069E9693B464E
:10346000401A401C414603F0CBF9022E02DB606992
:10347000064401E06669B61CE76928687F1E04F00F
:103480007EFA3A463146206903F004F93A4631465D
:10349000A06903F0FFF8E7696868BF1E04F06FFADF
:1034A00020693A46401C314603F0F4F8A0693A46D8
:1034B000401E314603F0EEF8E869022802DC286A73
:1034C000022823DDA86A022802DDE1690F1A01E063
:1034D000E769BF1EA86804F052FAE969022909DD0C
:1034E00020693B46421800F1020C521E31466046EC
:1034F00003F086F9286A022808DDA269E8693B46DC
:10350000101A401C921E314603F07AF9286804F024
:1035100036FAD4E90620216902F0E6FF686804F073
:103520002EFAA2692169E069521E491C401E02F070
:10353000DBFFA86A022811DD2669A169E469B61CCF
:10354000271AA1F102087F1CA41EA86804F017FA2C
:10355000234642463946304603F052F972E0208A4B
:1035600006B2ADF81460A08A01B2ADF81610208B37
:1035700002B2ADF81820A08B03B2ADF81A30D5E92D
:103580000304CDE90004304602F072FF5AE0208ABD
:10359000298B0844ADF81400A08AADF81600208BE2
:1035A000298B401AADF81800A08BADF81A002068DE
:1035B00002F026F80390006FF0B1022004F0A4FAA4
:1035C000039991F87C00C0F3C00001EB8000006C0F
:1035D00004F0D5F90398406B04F00CFA0398006FDF
:1035E00002F00EF803990A90B1F95A2005A902F0E9
:1035F0008DFD0AA802F06EF803A802F06BF821E036
:10360000208AADF81400A08AADF81600208BADF822
:103610001800A08BADF81A00A86804F0B0F905A84E
:1036200003F01AF90EE0206801F0EAFF039030F889
:103630005A1F41F00C01018003A802F04BF82068EA
:1036400011F0E4F900206AE65007002038B50500C3
:103650004FF000040FD003F011FB284601F0D0FF1B
:10366000009090F87C00000700D50124684602F025
:1036700031F804F09DFE204638BD38B505004FF006
:10368000000411D003F0FAFA284601F0B9FF0090C7
:10369000C06D00218068026828469047044668464D
:1036A00002F018F804F084FE204638BDF8B50E4646
:1036B00005004FF0000411D003F0E0FA284601F0B5
:1036C0009FFF0090C06D3146806802682846904791
:1036D0000446684601F0FEFF04F06AFE2046F8BD8D
:1036E00001480068704700001407002030B587B01B
:1036F00005004FF0000413D003F0C0FA01A92846DA
:1037000000F087F9284601F07BFF0090B0F95440A3
:10371000684601F0DFFF0CB9BDF9044004F048FE33
:1037200007B0204630BD30B504468BB0006801F0CC
:1037300067FF009090F87C10246A006FC1F3C00509
:1037400008B101F05DFF0690E068029020690390E7
:10375000A088401EADF81000E089ADF81200208965
:10376000401CADF81400608AADF81600BDF80800E2
:10377000401CADF80800BDF80A00401CADF80A0076
:10378000BDF80C00401EADF80C000098406B04F032
:1037900031F9009808AA02A9B0F95A30069804F045
:1037A000C9FF009800EB8500806B07F0EDFC0098E6
:1037B00000EB8500006C07F01FFD08AB02AA04A90E
:1037C00006980FF0B3FD684601F084FF069810B12B
:1037D00006A801F07FFF0BB0002030BD70B50D468C
:1037E000040009D003F04AFA294620461DF016FCD1
:1037F000BDE8704004F0DCBD70BD38B50C46050076
:1038000011D003F03BFA284601F0FAFE0090816CDB
:10381000A14203D08464806E10F096FD684601F0EA
:1038200059FF04F0C5FD38BD074A0649054B116034
:10383000064A083BD16958601B68C2E90630084651
:1038400070470000440700201007002014070020E4
:103850002DE9FC410D46804603F010FA5FEA0800AE
:1038600028D001F0CDFE0190C16D8C6800F038F9D0
:1038700007460198456301A801F02CFF2268012149
:103880004046904706462268032140469047054639
:1038900022680021404690470446404600F009FA5D
:1038A0002B46324639464046009400F091F9404696
:1038B00010F04AFD04F07CFDBDE8FC8138B50C46F3
:1038C000054603F0DBF955B1284601F099FE00905A
:1038D0000466684601F0FEFE284610F035FDBDE89E
:1038E000384004F065BD7CB50D4604001DD003F0E2
:1038F000C5F9204601F084FE0090006F01906846F3
:1039000001F0E8FE294601A805F0F0FE58B1204676
:1039100001F076FE009001990167684601F0DAFE39
:10392000204610F011FD04F043FD7CBD38B50C4677
:10393000050013D003F0A2F9284601F061FE0090C3
:10394000B0F95A10A14204D0A0F85A40284610F00D
:10395000FBFC684601F0BEFE04F02AFD38BD000005
:1039600038B50C46050015D003F088F9284601F05B
:1039700047FE0022CDF8000000EB8201521C0C64CF
:10398000022AF9D3684601F0A5FE284610F0DCFCB7
:1039900004F00EFD38BD2DE9FC470D465FEA000935
:1039A0004FF0000432D003F069F9484601F028FED8
:1039B0000190B0F95440A54223D000F091F8804620
:1039C00001980121A0F85450C06D856848462A68C6
:1039D000904707462A6803214846904706462A68CA
:1039E0000021484690470546484600F062F93346B4
:1039F0003A4641464846009500F0EAF8484610F03D
:103A0000A3FC01A801F066FE04F0D2FC2046BDE84C
:103A1000FC872DE9F34F85B000270C46B846059882
:103A200001F0EEFD0090C06D0121856805982A68BF
:103A3000904782462A6803210598904704902A6897
:103A400002210598904703902A6800210598904725
:103A50000646009811F0E8F98346009811F0EBF95A
:103A60008146009890F83210890601D5B0F9588047
:103A700000F036F805460098C06E10B110F0B3F9AA
:103A8000074625806780A4F804A0049AABEB0200E7
:103A900006EB0802401E2A4420813A44E280039B40
:103AA000A9EB0302521E6281A4F80CA020827019B7
:103AB000E681401E6082684601F00CFEB4F90C00FD
:103AC0000190B4F91000029002AA01A9059800F033
:103AD00039F80198A0810298208207B0BDE8F08FE4
:103AE00010B50146002091F83220920607D5B1F9B1
:103AF0005400002803D1486B03F030F8801C10BD3F
:103B000070B58AB00C46054601F07AFD0990C06D8B
:103B1000866809A801F0DEFD009534B1012C06D0BD
:103B2000022C0BD0032C04D10AE0182000E0162050
:103B300001907168684688470AB070BD1520F7E7A4
:103B40001720F5E72DE9FC4790468946044601F029
:103B500057FD0090C16D056868468E6801F0BAFD9A
:103B60003268002120469047064620460FF0D9FFD4
:103B70002F1404462DB227E001F042FD0190B0F968
:103B80000010B0F90420B0F90230491B521BDB1BB6
:103B9000B34212D190F82800000607D5D8F80000EB
:103BA00088420ADB491EC8F8001006E0D9F8000078
:103BB000904202DC521CC9F8002001A801F08AFDE5
:103BC000204610F053F80446002CD5D1BDE8FC8700
:103BD0002DE9FF4F83B00E460746DDF8409001F017
:103BE0000FFD0190C16D8D68FFF77AFF044601A8B3
:103BF00001F070FD2A6801213846904783462A6803
:103C000003213846904782462A680021384690476B
:103C10000546B44207D105998B4504D106998A45DA
:103C200001D14D4542D0A41B0026B04638460FF0C6
:103C300078FF39E001F0E4FC0090806A010602D5CB
:103C40004FEA805002E0810528D50006002825DBD8
:103C500024B122461146384610F099FC009890F89D
:103C6000280000060AD50698A5EB0902A0EB0A0079
:103C700004FB1601761C384610F03AFC0098008DC3
:103C800080050BD50599A5EB0902ABEB010004FB00
:103C9000080108F10108384610F02AFC684601F0D6
:103CA00019FD38460FF0E2FF0700C3D107B0BDE8A9
:103CB000F08F70B586B0064601F0A2FC0590D0E901
:103CC0001A4505A801F006FD54EA050026D069460C
:103CD0003046FFF79EFEACB1BDF90620BDF90410D9
:103CE000204610F0C9FBBDF90A00BDF90610421AC2
:103CF000BDF90800BDF90410521C411A491C2046A8
:103D000010F0D9FE002D09D0BDF90600BDF9021052
:103D1000421ABDF90410284610F0AEFB06B070BD83
:103D20002DE9F0430446406885B006460FF0ABFF2E
:103D3000814601F065FC0090D0F88080876C456E6C
:103D4000684601F0C7FC2068172859D008DC0E2807
:103D500037D00F280BD0142852D015283AD14FE075
:103D60001E2818D01F2827D0222833D146E06FF014
:103D70007040874204D0384607F006FA01F0F2FEA0
:103D8000002D12D0D4E902122068CDE90106CDE958
:103D9000031201A822E0E068002806D05FEA0800CC
:103DA00006D0B04504D010F0ABFD05B0BDE8F083FF
:103DB000304610F0F9FD16E0214648460FF05EF956
:103DC000F3E7E0684168002904DD00680928EFD0C6
:103DD0000A2805D0A5B12046C4F80490A847E4E716
:103DE000304610F0F0FD0446484601F009FC009012
:103DF000C0F88040684601F06DFCD6E7E760D4E784
:103E000020460FF01BFDD0E78000A0F1C040002944
:103E100004D0016841F00101016070470168024A65
:103E20001140016070470000FEFF0F0010B5D0E99F
:103E300001121143D0E903231A431143426911438C
:103E400082691143C2691143026A1143426A1143F4
:103E5000826A1143C26A1143026B114302689200E5
:103E6000A2F1C04211608168082907D10168890068
:103E7000A1F1C0410A6842F040020A60416BD1E9F9
:103E8000002342EA03128B688C891B0243EA044335
:103E90001A430B8A42EA03520B7D896942EA0362A4
:103EA0000A430168491C8900A1F1C0410A60C16A46
:103EB000B1F5804F08D000686FF070418000A0F12C
:103EC000C040C0F8041110BD816BD1E9002342EA63
:103ED00003128B680C8A1B0243EA04531A430B7DBE
:103EE000896942EA036200680A438000A0F1C04089
:103EF000C0F8042110BD00007CB51FA01EF042FFD9
:103F00000FF0E8FD0346002000900190224A0E21A8
:103F1000224801F073FE064630460FF0D0FD002324
:103F2000FA2219460FF0A2FB0A2001F0E3FF1C4C15
:103F3000207818B11B480BF071FB2070207828B155
:103F4000012219A11AA003F021FB06E04FF4B87179
:103F500030460FF0D5FD0FF023FD1B4C1B4D07E045
:103F6000207810B130460FF0A1FC0A2001F0C2FF0A
:103F700028780028F4D17CBD3C3C2D4F532D494E70
:103F8000464F2D3E3E20436C6F636B617070206323
:103F900072656174650A0A0065360208D8B40308C0
:103FA00094000020BC4000206572726F7200000017
:103FB0000D0A2052544320576F726B20446F776E66
:103FC000212121200D0A000029000020B30100203A
:103FD0001CB50FF07FFD0346002000900190034ABE
:103FE0000421034801F00AFE1CBD0000892F0208CD
:103FF00054DC03082DE9F04F8DB00024FEF77AFE63
:104000007CA01EF0BFFE0FF065FDA246824902268D
:10401000CDE9021ACDE900064FF4A073F022514613
:1040200050460FF051FB0C90642001F063FF0BF041
:1040300023F84FF47A7507E00BF026F830B92846DC
:1040400021F066F9641CE4B20A2CF5D30A2C5AD08C
:1040500006F02EFC07F0D4FB70A01EF093FE724811
:10406000012270A1006821F005FF704C207070A043
:104070001EF088FE207810B16FA01EF083FE0EF0B7
:10408000BDFFDFF8D4B18BF800A0022006F0CBF919
:104090000A2021F03DF9DFF8C49199F813000AF0E5
:1040A000F8FE99F80F000AF065FE99F910000AF081
:1040B00045FE99F911000AF013FE99F912000AF071
:1040C0004DFE99F813000AF0E4FE99F80000009004
:1040D000B9F80830B9F80620B9F80410B9F80200A8
:1040E0000AF03BFF99F80E0006F09DF95C4C0127A1
:1040F000202504F104085BA01EF044FE9BF800009C
:10410000022815D034E00C9810F01EF9022256A1B6
:1041100057A008F0D1FA02F041FB5E4C0C980FF06A
:10412000C5FB2078002861D00A2001F0E3FEF5E706
:1041300059A01EF027FE0BA809F0C4F85748042127
:104140000160574845610561544A121F116045617D
:104150000561B9F80830B9F80620B9F80C10B9F8BB
:104160000A0006F027FB0BA809F0CCF88BF800A09A
:104170004A480121143806F0C7FB012824D14948D8
:104180000178491CCAB2027047A101A81EF00AFEBC
:1041900027602660C8F8005047A01EF0F3FD99F88C
:1041A0000E0006F040F901A8002100904FF4A07322
:1041B000F02208460DF0EAF980B146A01EF0E2FDBB
:1041C000C8F80070266025604648007810B10C9849
:1041D0000FF06CFB012001F08DFE8CE742A01EF079
:1041E000D1FD2760C8F800602560EDE70DB0BDE89F
:1041F000F08F00003C3C2D4F532D494E464F2D3E35
:104200003E2043616D65726161707020637265610B
:1042100074650A0A00000000DD530208302D300AE0
:1042200000000000303A0000980000202B00002021
:10423000302D310A000000000D0A53442D43415235
:10424000442046494C452053595354454D2045522E
:10425000524F52210D0A00008B010020DC0000208B
:10426000100C0140310000006572726F7200000096
:104270000D0A205468652043616D65726120647287
:104280006976652063616E6E6F7420776F726B2143
:10429000200D0A00B1010020320000001408014086
:1042A0000010014060020020303A70686F746F5F48
:1042B00025642E626D7000000D0A43617074757282
:1042C000696E672074686520706963747572652E05
:1042D0002E2E00000D0A2073617665206661696CE0
:1042E00065642100290000200D0A53617665207362
:1042F00075636365737366756C6C792100000000EB
:104300007CB50FA01EF03EFD0FF0E4FB034600203D
:1043100000900190144A0321144801F06FFC0646F6
:10432000134C144D07E0217811B130460FF0BEFA5E
:104330000A2001F0DFFD29780029F4D17CBD0000BE
:104340003C3C2D4F532D494E464F2D3E3E20436160
:104350006C63756C61746F726170702063726561FB
:1043600074650A0A00000000BD300208DCB70308CB
:1043700029000020B20100207CB50FA01EF002FD34
:104380000FF0A8FB0346002000900190124A012183
:10439000124801F033FC0646114C124D07E021781B
:1043A00011B130460FF082FA0A2001F0A3FD2978FE
:1043B0000029F4D17CBD00003C3C2D4F532D494ECB
:1043C000464F2D3E3E20555345526170702063721A
:1043D000656174650A0A0000213F0208FCDB0308DE
:1043E00029000020B30100207CB50FA01EF0CAFCFC
:1043F0000FF070FB0346002000900190124A01214B
:10440000124801F0FBFB0646114C124D07E02178E3
:1044100011B130460FF04AFA0A2001F06BFD2978FD
:104420000029F4D17CBD00003C3C2D4F532D494E5A
:10443000464F2D3E3E20534E414B452063726561F1
:1044400074650A0A00000000BD3C020838DC03085D
:1044500029000020B40100202DE9FC470E4600246D
:10446000002700970197584D4FF0080AC5F800A0A3
:10447000102068604FF04008C5F80880EF604FF4E6
:104480008069C5F8109028460CF064F91020FDF7FB
:10449000ABFC002832D14D48008900042860372049
:1044A0006860C5F80880EF60C5F8109028460CF0E9
:1044B00051F93720FDF798FC00281FD1411E05F166
:1044C00014000160C0F804A0302181600221C160A5
:1044D0000761012141610CF0C9F82F603320686049
:1044E000C5F80880EF60C5F8109028460CF032F946
:1044F0003320FDF779FC0546280001D0BDE8FC8794
:104500004FF4001A6F46DFF8C88040F22A690AE0CB
:1045100050460CF0D9F830B10CF016F947F82400E9
:10452000641C012C04D8D8F8340010EA090FEFD02D
:1045300008200CF0C9F820B108200CF085F8042000
:10454000DCE702200CF0C0F820B102200CF07CF86F
:104550000220D3E720200CF0B7F820B120200CF087
:1045600073F80620CAE74FF4007420460CF0ACF84C
:1045700020B120460CF068F80720BFE740F2FF505A
:104580000CF062F800980099000601F47F4140EABF
:104590000120009901F47F0140EA1120009940EACE
:1045A0001160706001980199000601F47F4140EAB2
:1045B0000120019901F47F0140EA1120019940EAAC
:1045C00011603060284699E7985700209801002034
:1045D000008001402DE9F0430446C56887B090464D
:1045E0008946002003F0F9F9064625B1287910B173
:1045F00046F0020001E026F0020003F0EEF9206927
:10460000012558B1D4E902128DE82600039563888C
:104610002288046841464846A0471EE0124F134BCB
:10462000214638681B68427CE068984730B9E088CA
:10463000012801D0002001E03868806BA288E3885F
:10464000A1680095CDE90410CDE902320195638897
:1046500022884146484606F099F907B03046BDE841
:10466000F04303F0BAB90000740400206C04002089
:104670001CB50024019401AC009400F0E7F81CBDC7
:104680002DE9FF4F83B0814606988A46A0EB0A08C1
:10469000109E00200090A2EB09043568934654EA6E
:1046A000080018D02046FCF7A3FB07464046FCF75D
:1046B0009FFB87420BDA2046444680464846D14657
:1046C00082465846DDF818B0069001200090002C74
:1046D00007DD204606E007B04846BDE8F04F00F091
:1046E0003BB96042A0420AD04846D9466442C8F16C
:1046F000000883464FF0FF37DDF818A000E00127DF
:104700005148B8F1000F11D004EBD4714FEA610B9E
:1047100001DACBF1000B4C480068807E88B3002F93
:1047200002DA30682044306000257BE000990029DF
:10473000016821D0897E11B10027804615E007B0BD
:104740005A4649465046BDE8F04F06F083BA28461F
:104750006D1C1CF027FE38B9D8F8000009EB0701E2
:10476000C06E4268504690477F1CA742EFDD6D1E29
:10477000356007B0BDE8F08F8A7E1AB10027804609
:1047800017E019E0C86E5A465146036807B048461C
:10479000BDE8F04F184728466D1C1CF003FE38B9E1
:1047A000D8F8001009EB0700C96E4A6851469047D7
:1047B0007F1CA742EFDDDAE700250FE008FB05B01C
:1047C00090FBF4F101EB0A00009951B11E4A09EB8C
:1047D00005011268D26E526890476D1CA542EDDD4E
:1047E000C7E7194909EB05030968C96E4A6801461C
:1047F0001846F1E708FB05B090FBF4F101EB0A0065
:1048000001903068384430601CF0CCFD48B9009805
:1048100090B10D4809EB05010068C06E426801982F
:1048200090476D1CA542E5DD3068002F01DA204479
:104830003060C01B30609CE7034909EB0500096844
:10484000C96E4A680199EBE7740400202DE9FF471F
:104850000F4640491646804609680C981D460A7E58
:10486000012A1CD0A8EB0600791B50EA01031CD0DA
:10487000A2F101091EF0C6FA00F58060824605F03B
:1048800023F800FB09F4504605F022F800FB09F17B
:10489000002C0CDAC4F50070801240420AE000904F
:1048A000324639464046FFF7EBFEBDE8FF8704F588
:1048B0000074A012002904DAC1F5007189124C427B
:1048C00002E001F500718C12002804DD411C01EBAF
:1048D000D171491003E000EBD0714910401E00EB8C
:1048E000D0704210002C04DD601C00EBD070401032
:1048F00003E004EBD4704010641E04EBD47308EBA7
:104900000104ADF800403C18ADF80240A8EB0204E9
:104910005B10B21AADF80440ADF808203144FC1A1F
:10492000EA1AADF80C102844ADF80A20ADF80E00D4
:104930000023ADF806401A460421684600F07AF8D4
:104940003946404615F022FE2946304615F01EFE37
:10495000ABE7000074040020064A13681A7E012A9F
:1049600005D0521E02EBD272521000F005B8DA6E7A
:1049700052681047740400202DE9F05F064688460F
:1049800040F2C32050434FF47A7190FBF1F702FBE1
:1049900002F002EBD27100EB610B254914467F1C3B
:1049A00009683244301BC96E0B684146984701259F
:1049B0003AE000BF05FB05F004FB040159451CDD8E
:1049C000BC4219DD1A4B06EB050AA6EB05091B686C
:1049D000AAF1010208EB0401DB6E09F101001B687A
:1049E0009847134BAAF10102A8EB04011B6809F1D7
:1049F0000100DB6E1B689847641E0D4806EB040A35
:104A0000A6EB0409006808EB05015246C06E036876
:104A1000484698470648A8EB050152460068C06E14
:104A20000368484698476D1CBD42C3DDBDE8F09F52
:104A3000740400202DE9FF4F40F6FF740F466642D4
:104A400083B09B46814600210BE000BF09EB81004B
:104A5000B0F90200A04200DA0446B04200DD06468A
:104A6000491CB942F2DB68480068406900280DD053
:104A7000B0F906101A46A1EB0B01B14200DA0E465E
:104A8000B0F90200801AA04200DD0446B5E0DFF86C
:104A90007CA100200546CAF8000089E0781E854206
:104AA00001DA6B1C00E0002309EB850C09EB8302A3
:104AB000BCF90200B2F90210A04245D1A14215D1C1
:104AC00039F92330059A39F9251003EB020C4E4AC7
:104AD00005981268084404EB0B01D26E6045136818
:104AE00001DA62462BE00246604628E02846A446EA
:104AF0004FF000087A1E0BE008B1401E00E0781E5F
:104B000009EB8003B3F90230634504D108F10108D1
:104B10009045F1DB2346A34249D0A3EB040239F9C7
:104B20002500A1EB040C059B92EA0C0209D4364A3D
:104B3000184404EB0B011268D26E136802469847C2
:104B400035E010F05DFF32E0A14230D001DBA04241
:104B500003DDA0422BDBA14229DCE04688420ADCCF
:104B60000346A04223DC0846A14220DBB8F900C07E
:104B7000B2F9001008E00B46A14218DCA04216DB97
:104B8000B2F900C0B8F90010E21AA1EB0C015143D0
:104B90000029A0EB030202DD01EB620102E0A1EBC0
:104BA0006201491CC01A91FBF0F06044C9E76D1C1A
:104BB000BD42FFF673AF0598009004EB0B00019027
:104BC00000208046054613E01149B8F1000F31F985
:104BD00015A009D0009901EB0A0208440A490968A6
:104BE000C96E0B680199984788F0010850466D1C02
:104BF000064909688D42E7DB641CB4427FF747AF82
:104C000007B0BDE8F08F000074040020B80C00204D
:104C100064EC002010B5002002F09AFE6FF07F4097
:104C200002F0ADFE012002F051FF002002F05CFF17
:104C3000002002F069FF002002F0CFFE0448006867
:104C400002F0D8FEBDE81040002002F011BF0000C5
:104C50007004002008B5012130200AF033FC4FF425
:104C6000F850ADF8000003208DF8020018208DF8F0
:104C700003006946094800F029F80420ADF8000057
:104C80006946074800F022F8012188020AF0FEFB7D
:104C9000012102200AF0FAFB08BD000000100140CB
:104CA0000014014010B58A07120F0F23934021F022
:104CB0000304054921448C689C438C608B689040B8
:104CC00003438B6010BD0000000001402DE9F0415E
:104CD0000022CC7804F00F03E40601D58C7823433E
:104CE0000C784FF00F0714F0FF0F4FF0010C1CD0A1
:104CF00005680CFA02F40E882640A64211D19600EF
:104D000007FA06F825EA080503FA06F848EA050551
:104D1000CE78282E02D0482E02D002E0446100E076
:104D20000461521C082AE4D305600A88FF2A1ED9B0
:104D30004568002202F108060CFA06F40E882640A7
:104D4000A64210D1960007FA06F825EA080503FAEC
:104D500006F848EA0505CE78282E00D14461CE78C1
:104D6000482E00D10461521C082AE3D34560BDE8F7
:104D7000F0810246002092680A4200D0012070476C
:104D8000416170470161704770B50C46054600F0FF
:104D9000F1F8A8682168C16261680163A168416394
:104DA000490707D5D0E90021C0E90012D0E9022166
:104DB000C0E90212A18981842169002903D001DCA4
:104DC0004FF00001016270BD2DE9F0411E4617460B
:104DD0008846054600F0CEF8AC686822414604F5E6
:104DE0008470FBF71FFA2846B8472846B047286961
:104DF00080688047A062BDE8F081000010B50446DD
:104E000000F0B8F8A0680E494C30114AC1650D4950
:104E100081650D4901660D4981660021C1661368EF
:104E200043660C4BC0E91E315168416730F8261CBF
:104E300021F0030120F8261C0749416410BD000041
:104E4000B11402084D19020879140208610C020815
:104E500014050020C50D02087513020810B504469C
:104E600000F088F8A4680C489034102120650B48A5
:104E700060650B48A0650B48E0650B48E0600B4897
:104E80002061206BA06654F890292046904710209E
:104E9000A0630748606410BD3590010859B401084B
:104EA000B54E0008E54F00081B0C02085925020802
:104EB000907E0408F8B5846815460F4694F82600DD
:104EC00080074CD5D4F8FC30204698470646D4F8E5
:104ED00000312A46394620469847D4F89430054692
:104EE0001BB100220121204698472069B04201DD14
:104EF000012000E00020A169B14201DA012100E0B7
:104F0000002108436169A94201DD012100E000217F
:104F10000843E169A94201DA012100E000210843C8
:104F20000AD06068401E00902368D4F8A4705B1E0D
:104F3000002211462046B847D4F8A8302A46314608
:104F400020469847D4F89C1020468847D4F89430DF
:104F500005466BB1012200212046984708E0D4F8AD
:104F6000A83020469847D4F89C102046884705462C
:104F70002846F8BD70B504468068002812D14FF469
:104F8000B875284600F0B2FA2A460021A06004F065
:104F90001FFCA0680221C18401210464016202494E
:104FA000C0F8041170BD0000AD4F000810B590B0FE
:104FB000044620220A496846FBF734F908492022B2
:104FC000203108A8FBF72EF9606B5DF82010C4F8BB
:104FD000FC1008A951F82000C4F8000110B010BD61
:104FE000ECE103082DE9F84384689846154694F8E7
:104FF00026000F46800740D5D4F8FC30204698475D
:105000000646D4F800312A463946204698470546D8
:105010002069B04201DD012000E00020A169B14219
:1050200001DA012100E0002108436169A94201DDA4
:10503000012100E000210843E169A94201DA0121D0
:1050400000E0002108430AD06068401E00902368F9
:10505000D4F8A4705B1E002211462046B847D4F84D
:10506000A8302A46314620469847D4F8A02001B0FF
:1050700041462046BDE8F0431047D4F8A830F2E797
:105080002DE9F04FDFF828B191B04FF0FF35DBF894
:105090000030B3F922100691DE69B3F924A0F46957
:1050A000A189814206D8E289824203D3471AD4F803
:1050B000008012E0D4E90181002970D00A88824280
:1050C0006DD84D8885426AD3801A82B2486800EB59
:1050D0008200B0F90070B0F90250781C5FD0307EC9
:1050E000A27C014600FB02F9207CCDE90810B3F94F
:1050F0002A60304606F092F8C0B20E90DBF800103D
:1051000007FB0980A37C8A6B0127CDE90402CDE966
:105110000273C869DDE90832C17E807ECDE90001F5
:105120005146069805F032FC681C18D046F0020083
:1051300006F074F8DBF80000A37C05FB0981826BA4
:10514000CDE90273CDE90412C069DDE90832C17E00
:10515000807ECDE900015146069805F017FCDBF88A
:1051600000005D46C069417E007E814214D9022E56
:1051700012D086F0040006F051F82868C069027E5B
:10518000C37E857E02FB03A1437E099A06985344A1
:1051900002FB050205F088FD0E9806F03FF8DBF8EB
:1051A0000000627C418C1144418411B0BDE8F08F55
:1051B0007404002004480068C069C06909B1027C19
:1051C0000A60407C704700007404002002200880C0
:1051D0007047C06982898A4202D8C2898A4210D245
:1051E000806880B102888A420DD843888B420AD3F6
:1051F000406800EB8100A0EB8200B0F900000028BD
:1052000001DB012070470020704700002DE9F043CA
:105210002F4C034687B020681946B0F92A80C06930
:10522000C06900F082F800284ED041680088181A42
:1052300001EBC0054046AE7805F0F0FF81462068DE
:105240006A680123816BCDE90236CDE90421C16989
:10525000CB7E8A7ECDE900230B7EB0F924102A781C
:10526000B0F9220005F092FB2068C069477E067EF7
:10527000B7421DD9C07E47434643B8F1020F17D04D
:1052800001F085FB804601F04BFB02F078FB2168C2
:105290002A78CB69B1F92200B1F92410DB7E02FB38
:1052A0000302CB19314405F0FFFC404602F067FBD6
:1052B000484605F0B3FF20686A78C369B0F9221048
:1052C0009B7E02FB0311418407B0BDE8F083000020
:1052D0007404002030B50E4C05460B462068294664
:1052E000C069C06900F021F8002810D0416800882A
:1052F00024682A1A0120E46900EBC200085CA47E3D
:105300006043002B03D011F832106143196030BDA7
:105310007404002001200880704700B5C06900F0C7
:1053200004F8002800D0012000BD06E002888A426F
:1053300002D842888A4202D280680028F6D170479B
:1053400070B500240E4D16E028690E4900EBC4101C
:10535000001D78220968FAF765FF2869002100EB33
:10536000C410016000F10C018161011D0A1DC0E93A
:105370000F12641C4164A8688442E5DB70BD000024
:10538000DC0A00207404002070B50D490B48086049
:10539000084604F06BF90A4C143CA068C501284685
:1053A00000F0A4F82A460021206104F011FA4FF021
:1053B000FF302060BDE8704003F060B9A9E2010849
:1053C000F00A0020F8B50C0005460FD001F056FC9D
:1053D000204600F017F8060010D000F011F9224620
:1053E00000902DB12946FAF71DFF04E00020F8BD1A
:1053F000002104F0EDF9684600F06CF902F0D8FFE6
:105400003046F8BD10B5040009D001F037FC204645
:1054100010F0C2FE044602F0CBFF204610BD002073
:1054200010BD38B5054601F029FC2846FFF7EAFF14
:10543000040009D000F0E4F82A460021009004F0AE
:10544000C7F9684600F046F902F0B2FF204638BDC1
:10545000024A106021F00300506070479CEA00206F
:1054600010B5040016D001F009FC0B48006B10F8D1
:10547000341059B1022909D2042101EBC401415869
:10548000486810F0D9FA20461BF0AAFBBDE810408E
:1054900002F08EBF10BD0000E0E90020002805D01A
:1054A000034A916B016001B148609063704700004E
:1054B000E0E9002010B5044601F0E0FB2068FFF7AA
:1054C000CFFF00202060BDE8104002F071BF000057
:1054D00070B50D460646002405E000BF06EB8400CB
:1054E000FFF7E8FF641CAC42F8DB70BD2DE9F0412A
:1054F000044618F0BFF92648E41C24F00305C16BEC
:105500002D1DA94200D90D46846B13E054F8042CDC
:10551000AA420ED184B1216809B162684A6061680B
:1055200009B122680A60826BA2422ED12168816390
:105530002BE02468002CE9D18046416B80680F186D
:1055400057F8040C3E1A306838B100201BF0C0FC3C
:1055500057F8040C3E1A3068B8B97068A84214DBDA
:105560003044441B30461BF06BFCD8F80810491B34
:10557000C8F80810D8F810102944C8F8101070683E
:105580003146401B10F058FA20C42046BDE8F08197
:10559000E0E9002010B5002418F06CF90C490F2048
:1055A00001EBC002126C1AB101EBC000006C08E004
:1055B000401EF5D508E04168A14200D90C4680683C
:1055C00010B180680028F6D1A4F10C0010BD0000D5
:1055D000E0E90020002138B10449042202EBC000B8
:1055E000096B085841680C3908467047E0E900200B
:1055F00002484169491C416170470000E0E9002010
:1056000005498A69521C8A61096B01EBC0010A785D
:10561000521C0A7000F076B8E0E900207CB506461E
:105620000C460846FFF7EEFE050020D0FEB13046DE
:10563000FFF7D0FFA04200DA044601F01FFB284626
:10564000FFF7DEFF00903046FFF7DAFF01460190DA
:1056500022460098FAF7E6FD684600F03BF801A8FC
:1056600000F038F83046FFF7FBFE02F0A1FE2846B6
:105670007CBD000010B501F001FBFFF78BFF642239
:105680000849B0F5800F04D990FBF2F4C86944438F
:1056900003E0C9694143B1FBF2F402F089FE204600
:1056A00010BD0000E0E900200549102805D94A682E
:1056B000B0EB520F02D3500800E010208860704712
:1056C0009CEA002002484169491E41617047000080
:1056D000E0E900200A4902680B6B52F8082C03EB42
:1056E000C2021378022B03D38B690BB15B1E8B6153
:1056F0001178491E117000210160084670470000B2
:10570000E0E90020002806D00349042202EBC00093
:10571000096B085808307047E0E900202DE9FC418A
:105720004FF000060B465FEA000834462BD032B13A
:1057300011461846FFF746FE060000D101244046F8
:10574000FFF75EFF0090078845686846FFF7C2FFD5
:10575000CCB9B900091D2846FFF760FF050015D038
:10576000FFF74EFF019040F8276001A8FFF7B2FF56
:105770004046FFF745FF009045600188491C0180C5
:105780006846FFF7A7FF2046BDE8FC813046FFF7DB
:1057900067FE0124F7E70820FFF743BE7CB505004C
:1057A00023D0FFF72DFF00904068C0B1FFF728FF1E
:1057B0000024019005E0019800EB8400FFF77AFED9
:1057C000641C00980088A042F5DC01A8FFF782FF66
:1057D0000098001DFFF76EFE0099002008806846C3
:1057E000FFF778FF2846FFF73BFE7CBD7CB50C46F3
:1057F000FFF706FF00900188A14220D94568F5B166
:1058000001F03CFA2846FFF7FBFE019000EB840014
:10581000FFF750FE00990888401E80B20880401EA5
:10582000019905E001EB8402526841F82420641CD0
:105830008442F7DD01A8FFF74DFF02F0B9FD68468D
:10584000FFF748FF7CBD38B5002430B1FFF7D8FE24
:10585000009004886846FFF73DFF204638BD38B504
:105860000D46002448B1FFF7CBFE2946009000F01A
:1058700016F804466846FFF72DFF204638BD38B5B8
:105880000D46002448B1FFF7BBFE2946009000F00A
:1058900018F804466846FFF71DFF204638BD38B5A6
:1058A0000D4601880024A94209D9406838B1FFF7A4
:1058B000A7FE009050F825406846FFF70BFF2046F2
:1058C00038BD10B50024FFF7EAFF10B1FFF798FECE
:1058D0000446204610BD70B50C46054601F012FA8C
:1058E000C1B223462846BDE870400022AFF30080D5
:1058F000F0B52D271C68B0F1004F08D00025002816
:105900000DDA661C1E6027704042012408E0661C08
:1059100001251E606FF000402770491E01E0002441
:10592000091BC9B22AB3491EC9B222E00C46491E5E
:10593000C9B2944205D1124C27781C68661C1E60BF
:105940002770104C54F8216090FBF6F4E4B20A2C56
:1059500011D804FB160011B90DB1641CE4B20A2C75
:1059600002D10124491CC9B21E683034771C1F6063
:1059700034700029DAD1196800200870F0BD0000E9
:1059800068040020B06E040810B5136808290FD809
:105990005C18146000222270064A04E000F00F0434
:1059A0000009145D5C540C00A1F10101C9B2F5D1EC
:1059B00010BD0000648A040810B5044601F05EF9C9
:1059C000044904EB840001EB8000447902F0F0FC10
:1059D000204610BD3CEC00202DE9FC5F89460446C2
:1059E00001F04CF9484600F0DFFF2C4E09EB890727
:1059F000824656F82700019029484FF001080168B7
:105A000041B92749C0F80080091D264808600846AA
:105A100003F02CFE214A09EB89015FEA0A0002EB40
:105A200081051BD001F040FF83464FF07F4001F01D
:105A30008FFF00F097F800221146206800F05AFC12
:105A4000206842880188504601F0F4FF46F827405C
:105A500085F80580584601F027FF17E046F82740F3
:105A600085F805802869464618B101F053FE0020EC
:105A7000286174B10096E868A1684B46421AA8688C
:105A80006168411A206801F09FFE286148461CF0B9
:105A900055F902F08DFC0198BDE8FC9F3CEC00201C
:105AA000AC0C0020E1E2010870B514460D46064634
:105AB00001F0E4F8204600F077FF0300174804EBFC
:105AC000840109D050F8210041688068711A2A1AAF
:105AD000184601F09FFF1CE000EB8104A268B2426F
