:020000040800F2
:1000000080FE0020650100086FF400083DBD000877
:100010006DF40008611B0008AF4F010800000000EC
:100020000000000000000000000000001530010882
:10003000B12B000800000000AB0F00080901010807
:100040007F0100087F0100087F010008791A01087C
:100050007F0100087F0100087F0100087F01000880
:100060007F010008BD3800087F0100087F010008FB
:100070007F0100087F0100087F0100087F01000860
:100080007F0100087F0100087F010008554E01082C
:10009000214F01087F0100087F0100087F0100084F
:1000A0007F0100087F0100087F0100087F01000830
:1000B0007F0100087F0100087F0100087F01000820
:1000C0007F0100087F0100087F0100087F01000810
:1000D0007F0100087F010008D5490108DD4A0108B9
:1000E0007F0100087F0100087F0100087F010008F0
:1000F0007F0100087F0100087F0100087F010008E0
:100100007F0100087F0100087F0100087F010008CF
:100110007F0100087F0100087F0100087F010008BF
:100120007F0100087F0100087F0100087F010008AF
:10013000DFF80CD000F008FD0048004739CB02087A
:1001400080FE0020EFF30980704780F30988704734
:10015000EFF30880704780F30888704740BA704713
:10016000C0BA70470648804706480047FEE7FEE7EA
:10017000FEE7FEE7FEE7FEE7FEE7FEE7FEE7FEE757
:10018000B53801083101000872B6704762B6704791
:10019000EFF3108072B6704780F31088704730BF5D
:1001A000704720BF7047B0FA80F0704790FAA0F017
:1001B000B0FA80F0704790FAA0F070472DE9F05F38
:1001C0000546002092469B468846064681464024C6
:1001D0001BE0284641464746224600F080FB534636
:1001E0005A46C01A914110D311461846224600F0D3
:1001F00067FB2D1A67EB01084F46224601200021BC
:1002000000F05EFB17EB00094E41201EA4F1010433
:10021000DFDC484631462A464346BDE8F09F0000F1
:100220000649074A0868504343F2390210440860FF
:10023000400870470149086070470000080E002020
:100240006D4EC64110B5431A934209D283188818DF
:1002500003E010F8011D03F8011D521EF9D210BD74
:1002600040EA01039B0703D009E008C9121F08C038
:10027000042AFAD203E011F8013B00F8013B521EB8
:10028000F9D210BDD2B201E000F8012B491EFBD219
:1002900070470022F6E710B513460A460446194691
:1002A000FFF7F0FF204610BD30B505462A460B4645
:1002B00012F8010B13F8014B08B1A042F8D01CB1A1
:1002C000002802D06D1CF1E7284630BD421C10F812
:1002D000011B0029FBD1801A704730B5044600206D
:1002E000034600E05B1C934203D2E05CCD5C401B04
:1002F000F8D030BD034611F8012B00F8012B002A7D
:10030000F9D118467047F0B480EA0102D40F4200D8
:10031000B2EB410F02D20246084611464A0042D0D3
:10032000C30DDDB2C1F3C752AD1A202D35DAC1F3CA
:10033000160141F4000204B15242C5F1200602FA4E
:1003400006F12A411044B3EBD05F23D0C4B1012D94
:10035000A0EBC35009DCF0BC4FF0004202EAC352EC
:10036000DBB200F5000000F034BB400000F180700B
:1003700000EBC350A0F1807040EAD170490009E061
:10038000490841EAC071A0EBC35000F500004008E5
:1003900000EBC350F0BC00F013BB6142012202EB42
:1003A0004101001BF6E7F0BC704781F00041AAE76D
:1003B00080F00040A7E780EA010210B502F0004398
:1003C000400022D04A001FD0010E01EB1261C0F3A1
:1003D0005600C2F3560240F4000042F40002A0FBB3
:1003E000022000047F39140400D0401C50EA12405F
:1003F00001D44000491EC2B20C0604EBD010401CD0
:100400004008802A02D003E0002010BD20F0010047
:10041000002900DA0020184310BD2DE9FE4F804668
:1004200081EA0300C00F0C46009021F0004123F048
:100430000045B8EB0200A94105D24046214690464E
:100440001C460B46024623F00040104347D0270DC0
:10045000C7F30A00C3F30A510290401A01904028E2
:100460006BDAC3F3130040F4801B0098924620B16E
:100470000023D2EB030A63EB0B0B01985946C0F142
:100480004002504600F01CFA06460D4650465946BA
:10049000019A00F034FA10EB08006141002487EA69
:1004A000115284EAE7731A4340D0009A62B3019A6A
:1004B000012A4FEA075215DC001B61EB02014FF0E5
:1004C000004202EA0752CDE90042001C41F58011CA
:1004D00032462B4600F0BAFA03B0BDE8F08F404632
:1004E0002146F9E7001B61EB0201001C41F5801376
:1004F00000185B412018A2F5001747EB030140EA02
:10050000D570B6196D4111E06D084FEA360645EA1F
:10051000C0754FEA0752001B61EB0201001C41F558
:10052000801149084FEA30000019514132462B46EC
:1005300003B0BDE8F04F00F07ABA00980122400005
:100540000023D0EB020263EBE073009821464FEAF0
:10055000E074B8EB000061EB0401E9E783F00043CD
:100560005BE781F0004158E72DE9FE4F81EA030483
:1005700004F0004421F0004100944FF0000B23F000
:10058000004350EA01045ED052EA03045BD0C3F397
:100590000A54C1F30A552C44A4F2F3340194A0FB8D
:1005A0000254C1F3130141F48011C3F3130343F464
:1005B000801301FB024400FB034E840A970A44EABD
:1005C000815447EA8357A4FB076802958D0A05FB0F
:1005D00007854FEA932C04FB0C542705029D4FEA34
:1005E000065847EA1637B5EB08056EEB070C870E81
:1005F000920E47EA811742EA8312A7FB0201B6EB8B
:100600000B0164EB00042B0D43EA0C335E1844EB42
:100610001C50DA465146E7FB0201C5F313044FEACA
:100620000B3343EA14534FEA0432019C43EA0603B6
:10063000A4F10C040294009CCDE900B400F006FA89
:1006400003B0BDE8F08F00200146F9E72DE9F04D39
:1006500081EA030404F0004B21F0004514464FF0FA
:10066000000A23F0004150EA050220D054EA0102BA
:100670001DD0C5F30A570246C5F31303C1F3130097
:10068000C1F30A5640F4801543F48013A7EB060823
:10069000101BD64608F2FD3873EB050002D308F1B3
:1006A000010801E092185B41B8F1000F03DA002065
:1006B0000146BDE8F08D00204FF4801106468446C7
:1006C0000EE0171B73EB050705D3121B63EB050345
:1006D00006434CEA010C49084FEA300092185B418E
:1006E00050EA0107EDD152EA030012D082EA040079
:1006F00083EA0501084305D0101BAB4106D2012255
:10070000002306E000224FF0004302E06FF00102F8
:1007100053101AEB06004CEB085110EB0A0041EBAA
:100720000B01BDE8F04D00F082B970B521F0004337
:1007300003430CD0C1F30A550024D5EB040564EB48
:100740000403D617AD1AB34102DB0020014670BD89
:10075000201841EB025170BDC10F80EAE0700844DF
:10076000CA079623002100F034B9962300221146CF
:1007700000F02FB90EB5C10F80EAE0700844CA0737
:10078000002140F233438DE80E000A460B4600F08C
:100790005DF903B000BD00F0004220F00040C10D43
:1007A000C0F3160040F400007F2901DA00207047F2
:1007B000962903DCC1F19601C84001E096398840D2
:1007C000002AF4D04042704720F00040C10DC0F331
:1007D000160040F400007F2901DA002070479629B6
:1007E00003DCC1F19601C8407047963988407047D4
:1007F00000F0004230F000400AD0C10D01F56071F8
:10080000C0F3160042EA0151C20840071143704785
:10081000002001467047000030B5041E71F100044D
:1008200004DB4FF00044404264EB0101141E73F1FD
:10083000000405DB1C464FF00043524263EB040307
:100840008B4208BF824230BD01F0004330B421F03A
:10085000004150EA010206D00A0DA2F56072C1F310
:100860001301002A02DC30BC00207047440F44EA28
:10087000C104C100E01830BC00EBC25000F0A0B8C9
:10088000002801DBC0F10040002901DBC1F100417B
:100890008142704730B50B460146002020220124DA
:1008A00009E021FA02F59D4205D303FA02F5491B3E
:1008B00004FA02F52844151EA2F10102F1DC30BD54
:1008C000202A04DB203A00FA02F100207047914010
:1008D000C2F1200320FA03F3194390407047202A05
:1008E00004DB203A21FA02F00021704721FA02F3DA
:1008F000D040C2F120029140084319467047202A97
:1009000006DBCB17203A41FA02F043EAE07306E037
:1009100041FA02F3D040C2F1200291400843194647
:10092000704700000FB4002300B589B00CA90091F6
:100930000B996FF00042CB601E4B06931E4B079342
:100940000423CDE901321D4A089202466B4600207D
:1009500000F092F909B05DF814FB70B586B0064658
:100960004FF0FF300091CDE90101002015460C4603
:1009700004903246694604A8FFF7D4FF0346049862
:10098000211825B108B10A4600E022462A60002855
:100990000DD0002B02DD0098884208D0081B00947F
:1009A000CDE901043246694604A8FFF7BBFF06B053
:1009B00070BD0000B10E0008CF0E00086D0B0008DE
:1009C0000029A8BF7047401C490008BF20F0010063
:1009D000704710B4B0FA80FC00FA0CF050EA010441
:1009E00004BF10BC704749B1CCF1200421FA04F4D3
:1009F00011FA0CF118BF012121430843A3EB0C01AC
:100A0000CB1D4FEA00614FEA102042BF002010BC0E
:100A1000704700EBC35010440029A4BF10BC7047BE
:100A2000401C490008BF20F0010010BC704710B501
:100A3000141E73F1000408DA401C41F10001921801
:100A40005B411A4301D120F0010010BD2DE9F04DAA
:100A500092469B4611B1B1FA81F202E0B0FA80F2FF
:100A600020329046FFF72CFF04460F4640EA0A006A
:100A700041EA0B0153465A46084313D0114653EA44
:100A8000010019D0C8F140025046FFF728FF054683
:100A90000E46504659464246FFF712FF084305D01E
:100AA000012004E020463946BDE8F08D00200543D2
:100AB00046EAE0762C4337430A986305E40AA0EB44
:100AC00008000022FD0A44EA47540A3002D50020FB
:100AD0000146E9E7010510196941DDE908450019FA
:100AE0006941BDE8F04DA2E7C1F30A52C1F3130119
:100AF00040F2FF3341F480119A4202DA00200146AD
:100B0000704740F233439A42A2F2334202DC52422F
:100B1000FFF7E5BEFFF7D4BE30B5041E71F1000447
:100B200004DB4FF00044404264EB0101141E73F1FA
:100B3000000405DB1C464FF00043524263EB040304
:100B4000994208BF904230BD064C074D06E0E06870
:100B500040F0010394E8070098471034AC42F6D304
:100B6000FFF7EAFA248C0508448C0508C0B24FF45C
:100B7000F05100F0BDB900002DE9FF4F087881B0B9
:100B80009946FF2805D0491C2D2804D000240023B5
:100B900008E000230BE00124F9E703EB830300EBFB
:100BA0004303491C0878FF28F7D104B15B420020B9
:100BB0000090147801462D2C01D02B2C04D1521C0E
:100BC0002D2C12D00024009400251678FF2E0ED074
:100BD0000A24A0FB04C801FB0481002700FB0711C5
:100BE000521C16EB0C006941EFE70124EBE7994436
:100BF00050EA01020ED00024AA4D2646DFF8A88252
:100C000000F08AF982468B46B9F1000009DAC9F191
:100C100000071BE001980021C0E9001105B0BDE804
:100C2000F08F074612E0F80707D022462B463046E1
:100C30004146FFF799FC0646884622462B46104659
:100C40001946FFF791FC04460D467F10002FEAD1AC
:100C5000B9F1000F324643465046594602DAFFF7D3
:100C6000F5FC01E0FFF780FC009A0AB181F0004139
:100C7000019AC2E90001D1E72DE9FF4F1F468DB06F
:100C8000D7E901464FF0FF382E2045464FF00009C6
:100C90000B90B9696D1C0E988847396A824688475F
:100CA0000028F6D1BAF1FF3F0AD024F4D064002E18
:100CB00011DDBAF12B0F08D0BAF12D0F0BD102E0E4
:100CC000404611B0ABE744F48064B9696D1C0E98DE
:100CD00088478246761E6946600501D52D2000E0D2
:100CE0002B208DF8000001F1010B0DF1200809E027
:100CF000B9696D1C0E98884782460F9844F40074B9
:100D0000761E0560002E02DDBAF1300FF0D00B998F
:100D10008A453ED144F0800406E00F99681CA9F191
:100D2000010944F400740860B9696D1C761E0E98C0
:100D3000884782463028F0D02BE00B998A4505D1B0
:100D4000200603D444F08004761E18E0504629F0B3
:100D5000A1F908B30DF11301761E44F400748B451C
:100D600008D2AAF130000BF8010B200607D5A9F133
:100D7000010003E0200602D409F101008146A0052C
:100D800002D50F99681C0860B9696D1C0E988847D8
:100D90008246002ED1DC53E0002E51DDBAF1650F02
:100DA00002D0BAF1450F4BD1A00549D5B9696D1CE8
:100DB00024F44074761E0E9888478246002E0CDD7F
:100DC0002B2804D0BAF12D0F07D144F48074B969EF
:100DD0006D1C0E9888478246761EE00501D52D21B0
:100DE00000E02B2108F8011BCDF82C8021E00DF14B
:100DF0002901761E44F4007488450CD2AAF1300013
:100E000010F0FF0088F8000002D10B99884509D93D
:100E100008F1010806E0E00501D5244801E042F2AE
:100E20000F708146B9696D1C0E98884782460F98ED
:100E30000560002E04DD504629F02CF90028D6D19B
:100E4000F9690E988847FF208BF8000088F80000A9
:100E50000020069007904B466A4608A906A8FFF7AF
:100E60008BFEA00502D46FF001002AE714F0240FD6
:100E70000AD0E00714D1DDE906123868031D3B6093
:100E80000068C0E900120BE0DDE90601FFF7DCFCB9
:100E90000146E00704D13868021D3A60006801602D
:100EA00028460EE7000024400000F03FF1D8FFFF85
:100EB000426842B1016811F8013B23B1521EC0E9FA
:100EC0000012184670470121C160881E70474268B1
:100ED0005AB1C368016843B983688B4205D0491E83
:100EE000521CC0E90012002070474FF0FF307047DD
:100EF0007F2801D9002208E0064A02EB5002C00711
:100F0000127800D1120902F00F020120904008402F
:100F100070470000808605080EB540F23342029209
:100F20000022CDE900221346FFF790FD03B000BD7B
:100F300070B58C1810F8015B15F0070301D110F89B
:100F4000013B2A1106D110F8012B03E010F8016BC8
:100F500001F8016B5B1EF9D12B0705D40023521E4B
:100F60000DD401F8013BFAE710F8013BCB1A921CB3
:100F700003E013F8015B01F8015B521EF9D5A142B1
:100F8000D8D3002070BD000018484FF0FF01017059
:100F9000002080F309881648016881F30888154805
:100FA0004FF08051016062B6FEE772B6EFF3098040
:100FB00028B1203880E8F00F0F490968086000B5B3
:100FC0000E4880475DF804EB0D480E490A78027020
:100FD00009480D490A680260106890E8F00F203057
:100FE00080F309884EF0040E62B6704722ED00E0EF
:100FF0009400002004ED00E08C00002031FF000888
:1010000048000020490000209000002008B5012180
:10101000084610F06DFB01214FF4047010F084FBC2
:101020000220ADF8000000208DF803006946024858
:1010300005F09AF908BD00000010014010B5FFF757
:10104000E5FFBDE8104000F001B8000070B590B0B9
:101050002B4E304601F034FA2A4805902A48069073
:10106000002407940125089509940A9428020B90FE
:1010700080000C9020200D9000020E900F9405A986
:10108000304601F099FA0121304601F00BFA009444
:101090008DF804408DF805504FF4602002900394C1
:1010A0008DF81050174C69464C3C204600F054F81F
:1010B0004FF4404010F012FB052301220B21204683
:1010C00000F06EF80121204600F02CF801212046A6
:1010D00000F01CF8204600F09DF8204600F035F89E
:1010E0000028FAD1204600F0A6F8204600F026F8A5
:1010F0000028FAD10121204600F091F810B070BD0F
:10110000080002404C2401404C020020002904D079
:10111000816841F0010181607047816821F001011F
:1011200081607047002904D0816841F4807181603A
:101130007047816821F4807181607047014600200A
:101140008968490700D50120704701460020896859
:10115000090700D50120704710B542680E4B1A40B0
:101160000C790B6842EA04221343436082680B4BFC
:101170001A40D1E9024323434C7942EA4402134323
:101180008360C26A22F47002097C491EC9B242EA35
:101190000151C16210BD0000FFFEF0FFFDF7F1FF3D
:1011A00070B5072609290AD9C568A1F10A0404EB1C
:1011B0004404A640B543A3401D43C56007E005694C
:1011C00001EB4104A640B543A3401D4305611F2325
:1011D000072A09D2446B521E02EB820293409C43C1
:1011E00091400C43446370BD0D2A09D2046BD21F99
:1011F00002EB820293409C4391400C43046370BD18
:10120000C46A0D3A02EB820293409C4391400C4326
:10121000C46270BD816841F0080181607047002997
:1012200004D0816841F4A00181607047816821F495
:10123000A00181607047816841F0040181607047BE
:10124000002800DC404270477047000070B58AB04B
:10125000002405940C20144BCDE9013009AE032580
:10126000CDE90756012180220694CDE903210090A3
:1012700023460E4A0EA112480EF096FC06AB0594CA
:1012800070C36802CDE9030499210E4ACDE901211A
:101290000D2000900A4800230B4A0CA1B4300EF038
:1012A00083FC0AB070BD00003C12002085130008CA
:1012B000417070205461736B2055706461746500D7
:1012C000D40E00204014002001140008417070204A
:1012D0005461736B2055736572617070000000007B
:1012E0000EB500F0BFF800F04FFE00F025F902A89F
:1012F0000EF002FC0BA025F0EBF9FFF7A7FF15A0FD
:1013000025F0E6F9FFF7A0FF002502AC08F082FC0B
:101310000022CDE900540F23114610460EF062FE64
:10132000F4E700003C3C2D4F532D494E464F2D3ED7
:101330003E204372656174696E67204170706C690C
:10134000636174696F6E205461736B732E2E2E0A65
:101350000D0A00003C3C2D4F532D494E464F2D3E6B
:101360003E204372656174696E67204170706C69DC
:10137000636174696F6E204576656E74732E2E2ED0
:101380000A0D0A000EB51B4C4FF47A7508E0A178DF
:10139000491CC9B2A1700A2906D2284629F034FA9C
:1013A00013F0C8F80028F2D101274FF48079DFF854
:1013B00048A0124E00250DF1080817E0002013F098
:1013C00039F938B13078012800D167704946504664
:1013D00005F055F80022CDE9005864231146104667
:1013E0000EF000FE4946504605F047F8A0780A285E
:1013F000F0D2E3E72800002000080140800100202F
:1014000004480078552801D02BF02CF913F0D0FDBA
:10141000FCE700002800002010B5012010F092F930
:10142000BDE81040002010F08DB9000008B5034958
:10143000084400900098008808BD0000006C00403F
:1014400008B5034A104400900098016008BD0000F0
:10145000006C004000B585B0684610F081F9019835
:1014600005B000BD30B585B000200190029003901A
:1014700004902B4C294860600121402010F038F97D
:1014800000F06AFB0CF0A4F80BF0A6F80BF0BAF829
:1014900000F026FB13F00AFA16F0FEFA042015F00D
:1014A000E9FA07F06DFA01221EA160682AF0AEF990
:1014B0001D4908701D4D18B1E020287005B030BDE1
:1014C00001224FF4FF11194811F0ECFB2878552840
:1014D0001CD11022164901A811F0E4FBBDF8080048
:1014E0000090BDF81030BDF80C20BDF804100020AD
:1014F00008F038FBBDF80A000090BDF81230BDF8C6
:101500000E20BDF80610012008F02CFB10F0E0FAC8
:10151000084810F0BBF92070D0E700008858002080
:1015200098000020303A00002B0000202800002006
:1015300002E01F001052002010B5FFF78BFF044996
:101540000968B0FBF1F0BDE810400EF0EFBD0000FF
:101550004CD6020838B5456804460146284613F0C3
:101560002DFE00282AD02068304A0F2819D006DC2A
:101570000B2824D00C2810D00E2851D12FE0112890
:1015800002D028284CD145E09268002A16D0214686
:10159000284601B0BDE83040104721462846526831
:1015A000F7E7284605F056FE0090406E046868464E
:1015B00005F0BAFE002C01D02846A04738BD2846C9
:1015C00005F048FE0090683005F09EFD009803216C
:1015D0006C3005F0A7FD684605F0A6FE20E0E16846
:1015E000486809680D2902D0202913D105E0002898
:1015F00010DD28461FF023FE06E0002804DD284603
:10160000BDE838401FF01BBE2846BDE83840022127
:101610001FF02BBEE06818B90021284600F0E0F961
:101620002046BDE8384014F0CBB90000F805002092
:101630002DE9FF410AAF70CF002703958DE8D00058
:1016400000F003F804B0BDE8F081F0B585B00DF10D
:10165000280CBCE8F0004FF0000C8DE8F01000F012
:1016600025F805B0F0BDF0B5044685B08069B4F941
:101670000850668A0027CDE90265CDE9001704907D
:10168000B4F90C00B4F91060C118B4F90A00B4F947
:101690000E50104433462A4600F008F805466168AB
:1016A00000F0BDF905B02846F0BD00002DE9F04F6F
:1016B00085B01F46DDE911B4DDE90E569046894636
:1016C000824607F0C7F94C341548CDE90204CDE94C
:1016D00000563B4642464946504614F0B7F80400CF
:1016E00018D005F0B7FD10225946049013F0BAFF48
:1016F000049830220B493430FEF7A4FD094D0499BB
:101700000C3D2868486604A805F00EFE286841686C
:101710002046884708F062FD05B02046BDE8F08FFE
:101720005515000804060020F0B5044680688B4972
:1017300089B051F82050606800287DD0052804D079
:1017400006287AD0122879D1AEE0E86900284FD077
:1017500095E80E008DE80F0004F110010FC909F0A3
:10176000F5FA002655F8260007F0F5FFA169E869AB
:101770000A1A216901446069304406F093FDA169A9
:10178000E8690A1A21690144E069801B06F08AFDB4
:10179000E169E8690A1A616901442069304406F088
:1017A00057FEE169E8690A1A61690144A069801B72
:1017B00006F04EFE761C022ED4DBA86807F0CBFFA5
:1017C000E069E9696669431A20694218521E31448A
:1017D000801C06F0F3FEE169E869A2690B1A6169F1
:1017E0000144101A401C921E06F0E8FEEE6913E058
:1017F0005FF0000655F8260007F0ADFFE069831B97
:10180000A069821B606981192069304406F0C0FD1F
:10181000761C022EEEDB0226D5E90301CDE900019C
:101820006169E06908444310A069891C821B206932
:10183000304406F0D1FC02E089E012E08AE0D5E90C
:101840000501CDE90001E36960690121184401EB5C
:101850006001A0699B1E821B2069304406F0BCFC1D
:1018600078E0206805F0F6FC0490206815F04AFD49
:1018700040B1A06808B1002008E00498006F28B1CA
:10188000012003E00498406F00B10220049901EBAD
:101890008000C56E04A805F047FD00231A462846BF
:1018A000216806F045F955E0206805F0D3FC049066
:1018B000866EEEB3B0F95C70A168D1B3032942D053
:1018C0005FF0000100EB8101406D0C6C07F06CFFD4
:1018D000204607F040FF05A806F032FFBDF81410BF
:1018E000A88B0144ADF81410BDF81810081AADF813
:1018F0001800BDF81600801CADF81600BDF81A00DF
:10190000801EADF81A0004985E30B0F90220B0F9DC
:10191000001005A807F02DFD04A805F005FD022024
:1019200007F0CCFF304605F095FC3A4605A901E0EA
:101930000BE006E0079006F09DFA07A805F0F4FC1E
:1019400008E00121BEE70221BCE704A8F6E7206811
:1019500015F050F909B00020F0BD0000086F05082F
:1019600008B50023009300F001F808BD70B51646D5
:101970000C46054619463046049A06F09BF8024686
:1019800021462846BDE8704000F08BB8044A034960
:10199000116004494A6A48621046704734060020C4
:1019A000F80500200406002000294FF0100101D0A6
:1019B00013F093BC13F0DBBB38B50D4604000ED01A
:1019C00007F048F8204605F045FC0090456568465C
:1019D00005F0AAFC204614F0ABFD08F0FFFB38BD73
:1019E0004FF480720029114601D013F076BC13F039
:1019F000BEBB08B50023009300F001F808BD70B528
:101A000016460C46054619463046049A06F072F80A
:101A1000024621462846BDE8704000F042B82DE954
:101A2000FF410E4605004FF0010421D007F012F8E7
:101A3000284605F00FFC0190876E01A8009705F07D
:101A400073FC3146684609F02FFD78B100980024F8
:101A5000B84208D0284605F0FDFB01900099816648
:101A600001A805F061FC284614F062FD08F0B6FB01
:101A700004B02046BDE8F08138B50C4605000FD013
:101A800006F0E8FF284605F0E5FB0090A0F85C4072
:101A9000684605F049FC284614F04AFD08F09EFB14
:101AA00038BDF8B515460C46060018D006F0D2FF32
:101AB000304605F0CFFB0090032C0BD800EB8400E0
:101AC0006C3005F021FB009800EB8400C5663046C1
:101AD00014F02EFD684605F027FC08F07FFBF8BDEA
:101AE00038B5012104200FF01FFE4FF48074ADF8CB
:101AF000004010208DF8030003208DF80200054DF2
:101B00006946284604F030FC2146284604F0B5FC1E
:101B100038BD00000008014010B500280FD04FF478
:101B20008054012811D0022815D11021012011F074
:101B300007FC2146BDE81040022011F0B7BB102180
:101B4000BDE81040012011F0FBBB2146BDE810406C
:101B5000022011F0ABBB10BD4FF4A0600DF0CABC69
:101B6000FEE7C1B2000A40EA0120704770B50020CC
:101B70008F4B904C5988A4F1400202E0155C25542B
:101B8000401C8842FAD38B48626820304260A268C9
:101B900082601F290FD00220FFF7BEFF00202060C7
:101BA000607B1A22052111F06BFCBDE8704000211A
:101BB000012011F045BCE17B282901D02A290FD151
:101BC000207D627CE57C40EA0260A27C120442EA4D
:101BD000052210435860E07DA27D40EA0220986013
:101BE000754A206890427DD1744A607B12689042A9
:101BF00003D8A27B0AB1102A0DD90220FFF78CFF6F
:101C0000607B2422052111F03BFCBDE870400021DF
:101C1000012011F015BC252968D01ADC15297CD0CB
:101C20000DDC08297AD005DCF1B303293FD0042963
:101C30002DD177E00A2972D0122928D13BE01A3938
:101C40000A2924D2DFE801F0433B237A3F232323F0
:101C5000234B8A297DD00EDC552967D006DC282944
:101C60004CD02A2950D02F2911D153E05A2932D0F3
:101C700088290CD172E0A82968D004DC8F2969D0AA
:101C80009E2904D16EE0AA2974D0AF297AD002200F
:101C9000FFF742FF607B2022052111F0F1FBBDE838
:101CA00070400021012000E024E011F0C9BBBDE834
:101CB000704010F0A3BDBDE8704010F0ADBCBDE8B1
:101CC000704010F0A7BDBDE8704010F0A3BDBDE8A6
:101CD000704010F0E1BCBDE8704010F0D7BCBDE82A
:101CE000704001E056E001E010F052BDBDE87040E8
:101CF00010F014BDBDE8704010F090BDD3E90112A2
:101D0000BDE8704010F0CEBCD3E90112BDE87040D0
:101D100010F0BEBDBDE8704002E00BE012E025E02F
:101D200010F098BDBDE8704010F05EBCBDE870409A
:101D300010F08CBCBDE8704010F088BCBDE870406D
:101D400010F084BCBDE8704010F080BCBDE870406D
:101D500002E013E01AE00DE010F078BCBDE870403E
:101D600010F074BCBDE8704010F070BCBDE870406D
:101D700010F06CBCBDE8704010F068BCBDE870406D
:101D800010F064BCBDE8704010F060BCBDE870406D
:101D900010F05CBC0220FFF7BFFE607B2022052113
:101DA00011F06EFBBDE870400021012011F048BB2E
:101DB000040400205CE900205553424368040020DD
:101DC0002DE9FF470446006810B115F09BFA68B191
:101DD0000022314850F8221060680A2841D007DC00
:101DE000F0B306280DD0072854D106E00122F0E711
:101DF00012280AD019284DD137E0204617F0A8FD47
:101E000048E0204619F09CFC44E0206805F022FAE6
:101E10000290B0F9548090F85650476C466B02A877
:101E200005F082FA206800F039F88146684613F020
:101E3000E7FEBDF8001009EB05000844ADF800000E
:101E4000246A304607F0B0FC022007F037FD384620
:101E500007F081FC42466946204606F00BF819E07F
:101E600007E020461AF043FD14E0886904B0BDE89D
:101E7000F087206814F0BEFE206805F0EBF90390AF
:101E8000B0F90610B0F90220891A491CC16703A8ED
:101E900005F04AFA0020E9E7186F050838B504464E
:101EA00006F0D8FD204605F0D5F90090C46F6846CD
:101EB00005F03AFA08F092F9204638BD044A034981
:101EC00011600449CA69C86110467047C006002005
:101ED000840C0020880C002000B589B024216846BD
:101EE000FEF7D7F91920019003480068806841681F
:101EF0006846884709B000BD840C00207CB5214CA1
:101F00000546216831F8220F4A8D10440880488820
:101F1000CA8D10444880284606F0ECFB2168498CA5
:101F2000ADF800104618284609F05AF93044401E12
:101F3000ADF8040006F058FC2168898CADF8021059
:101F40000844401EADF80600684615F06FF804E03E
:101F5000284603F095FE15F01DF80028F8D10A2D4B
:101F600004D0BDF804002168401C4884206830F883
:101F7000221F428D891A01804188C28D891A4180B1
:101F80007CBD000014050020AFF300800249002052
:101F9000086000F009B80000340000200149086022
:101FA000704700003400002010B50948016841F076
:101FB00080710160074800214160016841F0010122
:101FC0000160FFF747FABDE81040FFF7E7BF0000E8
:101FD000FCED00E0001000E00148406870470000A0
:101FE000001000E02DE9F041194E1A4F1A4C1B4D1C
:101FF00028E047F6FF702060288800F00F0131705C
:1020000007EB8100D0F8002C92B213040CD5D0F865
:10201000002C40F68F731A40C0F8002C1048491E5F
:1020200050F8210080470DE012060BD5D0F8002CA7
:1020300048F60F731A40C0F8002C0A48491E50F8A1
:1020400021008047206828800004D2D4BDE8F081B8
:102050003403002000500040445C00406404002031
:10206000480400202C0400202DE9F84F00200090A7
:102070004BF6BF7748F28008614E624D40F68F7A8A
:10208000DFF8849148F60F7B604C2CE0088800F064
:102090000F0089F8000078B304EB8001D1F8002C20
:1020A0000092BDF8002012040AD5D1F8002C02EAF3
:1020B0000A02C1F8002C5649401E51F82000804702
:1020C000BDF8000000060ED599F8000004EB800171
:1020D000D1F8002C02EA0B02C1F8002C4D49401E39
:1020E00051F8200080474648443000684A4908803B
:1020F0000004CBD4BDE8F88FFFE73068288028883B
:1021000000F030006880288800F440502880306853
:10211000384080F4005080F0200040EA0800306031
:102120000888C00620D4306800EA0B0030600AF04E
:102130008BF9306838402988C90401D580F4805073
:102140002988890401D580F400506988C90601D521
:1021500080F010006988890601D580F0200080B2E7
:1021600040EA08003060C5E730680090BDF8000024
:10217000000520D5306800EA0A00306011F092F9BD
:10218000306838402988C90401D580F480502988F6
:10219000890401D580F400506988C90601D580F012
:1021A00010006988890601D580F0200080B240EADD
:1021B000080030609EE7BDF80000000493D5306849
:1021C00000EA0A0030600FF059F83068384029887A
:1021D000C90401D580F480502988890401D580F490
:1021E00000506988C90601D580F010006988890609
:1021F00001D580F0200080B240EA0800306079E725
:10220000005C0040460300203403002000500040E2
:10221000480400202C0400206404002081000848A9
:102220000844D0F8001C490409D5D0F8001C48F631
:102230008F7211404CF280021143C0F8001C7047AD
:1022400000500040810008480844D0F8001C4906AE
:1022500009D5D0F8001C48F68F72114048F2C00230
:102260001143C0F8001C7047005000408100064830
:102270000844D0F8001C48F68F62114048F28002F2
:102280001143C0F8001C70470050004070B586B084
:1022900013F0E4FC30214FF41472CDE903210591D1
:1022A0000321CDE90001174800230293036A742239
:1022B0004FF481713E2009F016FE134D2862002470
:1022C000124E13A2286A56F8341009F043FD641C1C
:1022D000E4B2022CF5D30F4A0121286A09F07AFEF4
:1022E0004FF0FF31286A09F0BFFE0A220021286A58
:1022F00009F0C9FE286A06B00821BDE8704009F05F
:102300009CBE00006058002080010020A8D6020872
:102310000000000080FFFF80F0B587B0002413F0BC
:102320009DFC2C4A0223CDE901322B4D0090042163
:1023300005F1080003910FC813F088FA68623A218A
:102340003022CDE90421002640F25123CDE9026379
:102350000321CDE90001E8692A68143000EB40034D
:10236000D21E3146032009F0BEFD1C4DA8611C4E53
:102370006FF07F4706EBC40056F834104268A86936
:1023800009F0E8FC3A462146A86909F09DFE641C64
:10239000E4B20C2CEED3134A0121A86909F01AFE0D
:1023A0001149A86909F032FE4FF0FF31A86909F020
:1023B0005BFE0A220021A86909F065FE0C220121BA
:1023C000A86909F060FEA86907B00821BDE8F040DF
:1023D00009F033BE899D020860580020800100206A
:1023E000B8D6020880FFFF8054DD0408F0B585B040
:1023F00013F034FC0C230226CDE901631CA14FF439
:10240000B072CDE90321009010233C223146002018
:1024100011F0F0FA194C6061194911F08DFB6FF061
:102420007F452946606911F0DDFB13F017FC154963
:102430000E2740F261130A688DE8C10012A1CDE9B0
:10244000033102EBD2706FF0180101EB6000102332
:102450003222022111F0CEFA6061294611F0C2FB4E
:10246000606905B00B49BDE8F04011F065BB0000A4
:1024700057696C6466697265204F530080010020C3
:1024800054DD04086058002031313A35363A303096
:102490000000000044D604080148006870470000AE
:1024A0000C070020002904D0016841F001010160FF
:1024B000704701684FF6FE721140016070470000DE
:1024C00001684FF6FE721140016000210160416019
:1024D0008160C1603649364A0839904204D1486863
:1024E00040F00F0048607047314A1432904204D1E6
:1024F000486840F0F000486070472D4A283290420A
:1025000004D1486840F4706048607047284A3C3203
:10251000904204D1486840F4704048607047244AB3
:102520005032904204D1486840F4702048607047AF
:102530001F4A6432904204D1486840F470004860F9
:1025400070471B4A7832904204D1486840F070606E
:1025500048607047174A111F904204D1086840F044
:102560000F0008607047134A1432904204D1086883
:1025700040F0F000086070470E4A2832904204D1C3
:10258000086840F47060086070470A4A3C32904224
:1025900004D1086840F4704008607047054A503222
:1025A0009042FAD1086840F470200860704700003B
:1025B000080002400804024030B5026847F6F07394
:1025C0009A430C6A8B682343D1E904452C43234387
:1025D0008C692343CC6923434C6A23438C6A23438D
:1025E00013430360CA6842600A6882604968C16038
:1025F00030BD0000F8B50546006804F02BFE0090E1
:10260000448ED0F88860684604F08EFE06B101263C
:1026100004F00104286814F075FE0EB1002006E0F5
:102620000CB1012003E008B1022000E003201B49A7
:1026300051F82010686858B302280CD0052802D041
:10264000122828D103E0284617F0AEF923E02846E7
:102650001AF0A9FE1FE06A69E8694FF0FF33801A9B
:10266000A0F1080203EB6204421CAB69001B451099
:10267000A3EB6206C86907F06EF806E03219311B59
:10268000284605F00FFE641E6D1C002CF6DA02E0F1
:10269000286814F0AFFA0020F8BD0000786F050834
:1026A000044A0349116004490A6B086310467047E5
:1026B00010070020C40C0020C80C002038B50D46BF
:1026C000002404F0C7FD0090C06B294604F0F1FE21
:1026D0000546684604F028FE1DB1284604F0BAFD00
:1026E0000446204638BD10B500F094F800F03AF8E2
:1026F000CC2000F0A7F8442000F0A4F800F08AF8FD
:1027000000F030F8CC2000F09DF8BE2000F09AF8E0
:1027100000F072F8044600F06FF8000200B22043A7
:102720006FF0030400280ADAC043401CFEF722F8C9
:102730002246FDF7FAFFBDE81040FEF785B8FEF728
:1027400019F82246FDF7F1FFBDE81040FEF77CB80E
:1027500010B511F0D7F800F05DF8BDE8104000F0BA
:1027600001B8000070B5002411F0E2F8124D04E049
:10277000641CE4B2012028F047F84021284603F009
:1027800075FE08B1642CF3D3642C01D3002070BD16
:10279000002404E0641CE4B2012028F035F8402154
:1027A000284603F063FE08B9F02CF3D3F02C01D3D4
:1027B000002070BD012070BD0018014010B511F05F
:1027C000C5F80C4C4021204603F057FE0A2028F0A3
:1027D0001BF811F0ADF84021204603F047FE012818
:1027E00005D000242D2028F00FF8204610BD01242C
:1027F000F8E700000018014070B500250024FFF73D
:10280000DDFFA0402843C5B2641CE4B2082CF6D317
:10281000284670BD10B511F099F8094C40212046AA
:1028200003F02BFE40F2EE2027F0EEFF4021204681
:1028300003F025FEBDE810400F2027F0E5BF0000A3
:102840000018014070B5054611F080F80024134EC1
:1028500005F001006D0870B14021304603F00DFE17
:10286000082027F0D1FF4021304603F008FE3A202F
:1028700027F0CAFF0DE04021304603F0FEFD462060
:1028800027F0C2FF4021304603F0F9FD022027F077
:10289000BBFF641CE4B2082CDAD370BD0018014001
:1028A0002DE9F047DFF89880D8F8001001F1100505
:1028B00028880E7A234F4FF03009002801D1042ECA
:1028C00004D0AC88A04215D8042614E01E48017834
:1028D000012903D00726102038802BE01B4A002155
:1028E00012681B4B92B2921C43F81210A7F800908A
:1028F00001701FE00226844200D90446A968A0B2F4
:1029000088478246002008F00BFF0146A2B25046DD
:1029100012F0D0FBA1B2002010F004FD2888001BAB
:102920002880688820446880A7F8009009494FF4FF
:1029300040500880D8F800000672BDE8F08700001B
:10294000380300204803002030030020505C004082
:1029500000600040460300202DE9F041214E34681C
:1029600010342088A168002915D0A0B1A58885421F
:1029700000D90546A8B2884707462088401B20801A
:10298000608828446080002008F0AAFE0146AAB2B0
:1029900038460EF0D1FC2088134F302538B113494A
:1029A000280208800021084610F0BCFC3D802088E9
:1029B000A188884204D3316803200872BDE8F08101
:1029C00018B1316805200872F8E7316806200872EE
:1029D000074800210068074A80B2801C42F81010A6
:1029E0003D80EBE738030020480300204603002029
:1029F000505C0040006000402DE9F843634E3068B1
:102A000042780024624D062A296801D08AB117E075
:102A10000278520669D18078012804D0022804D0B7
:102A2000032804D061E0CC695FE00C6A5DE04C6A89
:102A30005BE0438823B9C388022B01D1037923B11A
:102A4000082A39D00A2A3CD04FE00278530601D137
:102A5000838833B102F07F02012A04D0022A0CD00D
:102A600043E04C4C41E08A6940790021904710BB1B
:102A70003068807AF8B1474C37E0417901F00F00B7
:102A800001F070020B06444907D501EB8001D1F833
:102A9000001CC1F30111090106E001EB8001D1F82E
:102AA000001CC1F3013109033C4B1B7883421CD944
:102AB0000AB901B1374C18E00078400615D1384CFE
:102AC00013E0027802F07F02012A0ED1827A62B10D
:102AD000428852B9027942B9C288012A05D18A696D
:102AE00040790021904700B92E4C09274FF000088B
:102AF0003CB13068A0F8128084610020A04700201B
:102B000006E029683068096940788847032816D0AC
:102B100031680A8AA2F57F43FF3B0DD0022811D00D
:102B200082B1087800062AD5C888009000988242B1
:102B30000CD9009808821AE00F72BDE8F88330685B
:102B40000772FAE74FF008000872F6E70FD228681C
:102B5000154B90F82C00824202D283F8008006E0E8
:102B6000B2FBF0F400FB142008B9012018702868AB
:102B700090F82C008882BDE8F843FFF791BE03204F
:102B800008720A4900030880D7E7000038030020D4
:102B90003C030020BD36010800500040D404002052
:102BA0004D36010895360108300300204603002009
:102BB000704700002DE9FF41224D4021284603F0D7
:102BC0005EFC8021284603F05AFC0824019400266C
:102BD0008DF80A6001A800F0C1FE09208DF80C00F4
:102BE0008DF80F6003A80CF053FC10266E61164997
:102BF000042008602020286114480460081F046035
:102C0000012108200EF090FD4FF47F40ADF8000048
:102C10008DF8036003278DF8027069460C4803F0B5
:102C2000A3FB012110200EF07FFDADF800408DF8D0
:102C300003608DF802706946284603F095FBBDE8F5
:102C4000FF810000001001401408014010140140F1
:102C5000000C01402DE9FC470E465FEA00097FD0D9
:102C600005F0F8FE484604F0F5FA009090F854702C
:102C7000D0F85880456BC46C684604F055FBB8F139
:102C8000000F04D0314648464246904761E0122E7C
:102C900018D006DC082E43D0102E3CD0112E06D1C1
:102CA00012E0132E21D01D2E43D01E2E3DD0202EFB
:102CB0004FDB17B1484616F0AEFAB1B248461DF0E8
:102CC000DBFC60B3611C27E04DB3284604F0C2FA78
:102CD00005462146019007F05DF94419204607F0AA
:102CE000F9F801462346012210E0C5B1284604F058
:102CF000B1FA05462146019007F04CF944192046E7
:102D000007F0E8F8014623464FF0FF32484615F039
:102D1000BFFE01A81BE0611E484600F0B0FA18E0B3
:102D2000BCB1611E484600F0AAFA484616F073FA94
:102D30000FE0484604F08EFA0090012F12D00121D6
:102D400080F854102146484600F099FA684604F08D
:102D5000EBFA484613F0ECFB00E001E007F03EFA26
:102D6000BDE8FC87002180F85410EFE7FEB5446809
:102D70000546204614F0C6FA06462946204612F0BB
:102D80001DFA002834D028680E283DD004DC0B281A
:102D90002FD00C284AD116E00F2825D0A0F580703E
:102DA000133843D1204613F089FD204600211FF03F
:102DB0000DFC204604F04EFA0190C06F002113F084
:102DC00055FD01A81DE0E86860B1017A29B10168EC
:102DD000204600F012F9012100E00221204613F004
:102DE0008AFC23E00321F9E7012120461FF0EEFBD6
:102DF000FEBD204604F02EFA0090343004F084F931
:102E0000684604F091FA11E086B1E868416800294B
:102E10000CDD0168092909D00A2907D00D2905D040
:102E20001B2903D02046FFF715FFFEBD284612F0F0
:102E3000C7FDFEBDF0B587B004460DF1080CD4E91E
:102E40000567B0F90850408AACE8E1000020CDE900
:102E50000010B4F90C00B4F91060C118B4F90A00FC
:102E6000B4F90E50104433462A4600F009F8050024
:102E700002D0618A00F09AF907B02846F0BD000040
:102E80002DE9FF5F1F46DDE91254DDE90E6A904629
:102E90008946834605F0DEFD0DF1040C4AF48050AE
:102EA00058341E490096ACE813003B46424649465A
:102EB000584612F0CBFC04002AD004F0CBF91022C3
:102EC0000090119912F0CEFB00981C22144960303A
:102ED000FDF7B8F9009A012082F85500681C00D06F
:102EE000012082F88000002D00DC08252DB2158716
:102EF0000020508750636D1C684604F015FA29467F
:102F000020461DF0F2F918B9204612F091FD002478
:102F100007F064F904B02046BDE8F09F6D2D00086D
:102F2000CC070020F8B515460E46040021D005F068
:102F300091FD65B1002332461946204612F058FC37
:102F40000546204604F086F90090C5670CE020464F
:102F500004F080F90090C06F12F055FD0099002038
:102F6000C867204613F0E4FA684604F0DDF907F07C
:102F700035F9F8BD2DE9FC4115460E00044627D071
:102F8000002C25D005F066FD204604F063F90027EB
:102F900001903770406BB0B104F05CF9009008F01C
:102FA00003F90146009806F0F5FF0446681E8442C6
:102FB00000DD0446224630460099FDF743F9684695
:102FC00004F0B2F9375501A804F0AEF907F006F99C
:102FD000BDE8FC8138B505004FF000040BD005F0CA
:102FE00039FD284604F036F90090846C684604F0F8
:102FF0009BF907F0F3F8204638BD2DE9F04186B083
:103000000C46060055D005F025FD304604F022F9A7
:103010000090406B98B304F01DF903900098806E07
:1030200006F0C2FB8046304612F0BAFF074603980E
:1030300005F011FC0546009890F8601001F00301BE
:10304000012916D002290DD0416EC06A00680844DB
:10305000241A641E039808F0A7F80146002C0FDA22
:10306000002115E0781B401C00EBD070A4EB60043D
:10307000F0E7406E791B081A241A641CEAE713E093
:10308000AC4205DC02462146039808F02DF80146C3
:10309000304600F0F4F803A804F046F9404606F084
:1030A00083FB304613F044FA684604F03DF907F01C
:1030B00095F806B0BDE8F08138B50C4605000FD094
:1030C00005F0C8FC284604F0C5F8009018B18466E5
:1030D000284613F02DFA684604F026F907F07EF82A
:1030E00038BD2DE9FC4788465FEA00094FF000052E
:1030F0005AD005F0AFFC484604F0ACF80090B0F9A7
:103100003860446B684604F00FF90027B8F1000FEF
:103110003ED04CB1204604F09DF80190FDF7D6F862
:10312000451C01A804F000F9404608F03DF80446AB
:10313000B04200DD34462146404606F02BFF461CD7
:10314000711B48461DF0B3FC08B3484604F082F8F2
:103150000090406B04F07EF8324641460190FDF746
:1031600071F80198304400F8017C0098C464B0F90B
:1031700038108C4205D190F85410012901D1641EF9
:10318000C464684604F0D0F801A804F0CDF806E065
:103190000098343003F0B8FF00984787C76448466A
:1031A00013F0C6F907F01AF8BDE8FC8738B50C46ED
:1031B00005000FD005F04EFC284604F04BF80090B7
:1031C00018B10466284613F0B3F9684604F0ACF869
:1031D00007F004F838BDF8B515460C46060013D0C4
:1031E00005F038FC304604F035F8009038B1022C78
:1031F00005D200EB8400C566304613F099F96846A5
:1032000004F092F806F0EAFFF8BD0000F8B51D469C
:1032100016460C46074605F01DFC2FB3384604F051
:1032200019F80090AC4201D92C4602E0B44200D219
:1032300034460F4981650F49C1650021C0E912413B
:10324000C0E90F65012180F85410B0F938100A293F
:1032500001DD0A210187684604F066F8384622F04D
:103260009BFC384613F064F906F0B8FFF8BD000087
:10327000997C0108995B0208002222F01FB91CB555
:103280000C4603F0E7FF0090406BF0B103F0E2FF63
:10329000019007F089FF009991F8542002B10122B2
:1032A000002C00DA0024844200DD0446B1F9380025
:1032B000801AA04200DA0446C86CA04200D0CC6458
:1032C0000020086501A804F02FF8684604F02CF8E7
:1032D0001CBD012222F0F2B808B568460CF0C0FA15
:1032E0000CF038F868460CF0DBFA08BD08B5684603
:1032F0000CF0B6FA0CF05EF868460CF0D1FA08BD96
:1033000070B500244FF400710D4803F0B8F84FF485
:103310007A7004F045FC4FF4FA750CE02B4600225D
:1033200008A109A000F012F808B1012070BD00F05A
:10333000B7F9641CE4B20A2CF0D3002070BD000081
:10334000000C01404F4B0000415400002DE9F041BA
:1033500084460C4615461F461D4EB6F800046FF312
:103360000E00A6F8000462461AA11C4811F0C4FC25
:1033700054EA050010D0384604F012FCB6F80014E8
:103380000020C1F30E0170548CB185B12146304646
:10339000FCF78AFF48B902E00120BDE8F081294628
:1033A0000B48FCF781FF0028F7D00120F5E73CB17E
:1033B00021460748FCF778FF0028EED00120ECE713
:1033C00029460348FCF770FF0028E6D00120E4E717
:1033D0002C52002025730D0A000000000048004018
:1033E00000B585B0002801D0012200E0002208A12C
:1033F000684623F07DF94FF4FA73002208A168466D
:10340000FFF7A4FF10B1012005B000BD0020FBE7CD
:1034100041542B4349504D55583D25640000000050
:103420004F4B000010B54FF47A7004F0B9FB05A1C2
:10343000054811F061FCBDE810404FF4FA7004F04B
:10344000AFBB00002B2B2B000048004038B50121FA
:1034500008200EF069F94FF48070ADF800001020DC
:103460008DF8030003208DF80200064C69462046C3
:1034700002F07AFF6115ADF800106946204602F0AF
:1034800073FF38BD000C014010B54FF4FA730022F1
:103490000DA10EA0FFF75AFFA0B110A11248FCF732
:1034A00003FF08B1022010BD10A10F48FCF7FCFE7D
:1034B00008B1032010BD10A10B48FCF7F5FE08B1C0
:1034C000042010BD002010BD4F4B000041542B4381
:1034D0004950535441545553000000005354415433
:1034E00055533A320D0A00002C52002053544154D7
:1034F00055533A330D0A00005354415455533A344E
:103500000D0A000010B5FFF7A1FF00F025F9BDE896
:1035100010404FF40071014802F0B1BF000C0140AF
:1035200000B59FB00B46024608A101A823F0E0F8C1
:1035300041F2883300220AA101A8FFF707FF10B16A
:1035400001201FB000BD0020FBE7000041542B43C9
:10355000574A41503D222573222C22257322000018
:103560004F4B0000F0B5B9B004460F4615461E4655
:10357000642120A8FCF78DFE14B1012C0FD107E0C7
:103580003B4612A212A120A8009523F0B1F806E054
:103590003B4613A20EA120A8009523F0A9F8052E02
:1035A00006D220AB32460FA102A823F0A1F804E016
:1035B00020AA11A102A823F09BF84FF47A6312A26B
:1035C00015A102A8FFF7C2FE39B0F0BD5443500068
:1035D000222573222C222573222C25730000000043
:1035E0005544500041542B43495053544152543D8B
:1035F00025642C257300000041542B43495053543B
:103600004152543D25730000414C524541592043DD
:103610004F4E4E45435400004F4B000070B50446DA
:10362000002540F6C4165CB1012C10D0022C15D038
:103630000020002803D16D1CEDB20A2DF3D370BD1C
:1036400033460AA20CA10DA0FFF780FEF1E7334636
:1036500006A209A10CA0FFF779FEEAE7334603A210
:1036600005A10CA0FFF772FEE3E700006E6F206378
:1036700068616E67650000004F4B000041542B43AA
:10368000574D4F44453D310041542B43574D4F4416
:10369000453D320041542B43574D4F44453D330087
:1036A00070B5084D4FF400742146284602F0E5FE3F
:1036B0004FF4FA7004F074FA21462846BDE87040D1
:1036C00002F0DDBE000C014030B5044685B00D4669
:1036D0001846002C07D02A4611A1124811F00CFB05
:1036E000012005B030BD052806D2931C02460EA16C
:1036F000684622F0FDFF04E0921C10A1684622F00B
:10370000F7FF4FF47A742346002210A16846FFF7B2
:103710001DFE234600220EA12846FFF717FEE0E714
:10372000257300000048004041542B434950534545
:103730004E443D25642C25640000000041542B4379
:10374000495053454E443D25640000003E20000092
:1037500053454E44204F4B0010B586B001218804DC
:103760000DF0D4FF012108200DF0DEFF4FF4806042
:10377000ADF8140018208DF8170003208DF81600FE
:103780001B4C05A9204602F0EFFDE114ADF8141022
:1037900004218DF8171005A9204602F0E5FD4FF42D
:1037A000E13001900020ADF80800ADF80A00ADF856
:1037B0000C00ADF810000C20ADF80E000D4C01A966
:1037C000204611F033FA012240F22551204611F033
:1037D00012FA012240F22441204611F00CFA00F0C6
:1037E0000BF80121204611F0D3F906B010BD0000FE
:1037F000000C01400048004008B527208DF800006B
:1038000000208DF8010002208DF8020001208DF8C3
:10381000030068460BF03CFE08BD000010B54FF4F5
:103820007A742346002207A107A0FFF78FFD38B165
:103830002346BDE8104008A202A108A0FFF786BDFC
:10384000002010BD4F4B000041542B4349504D4FB9
:1038500044453D31000000003E00000041542B4330
:10386000495053454E44000010B5FFF7EFFD114C91
:103870004FF40071204602F000FEA115204602F030
:10388000FCFD0D4C002240F22551204611F0B3F909
:10389000002240F22441204611F0ADF900212046DB
:1038A00011F076F9BDE8104000214FF480200DF0B2
:1038B0002DBF0000000C01400048004070B5FCF72F
:1038C00067FC134A1178491C1170FCF765FC08204D
:1038D00000F034F8C0B10F490822087810B101286F
:1038E0000AD00EE00C4B102058610C4C22600125D0
:1038F0000D702260186104E00848001D026002207B
:103900000870082000F00CF8BDE870400BF00CBF08
:10391000400000207B0100200010014010140140F5
:1039200001490860704700001404014002490A6818
:1039300002430A6070470000100401400146002065
:10394000054A12680A40044B14331B680B4202D02C
:10395000002A00D0012070470004014030B51B4A06
:1039600083790168002B2AD013688B431360111DE3
:103970000B680468A3430B60017911440B68046869
:1039800023430B60114C083421680368994321607C
:10399000231D19680568A94319604179102905D0CC
:1039A00011440A68006802430A6030BD2168026859
:1039B00011432160196800680143196030BD007926
:1039C000104402688A43026030BD000000040140D8
:1039D0002DE9F041CCB0054600244FF496784146DD
:1039E0006846FCF756FC012224A12B4827F034FF3F
:1039F0002A4F387028B1284827F08CFD4CB0BDE81C
:103A0000F0814BA80BF02CFF05EB851000EB80013B
:103A1000214827F08EFD3870224E214B40F245128E
:103A20001D48F16927F0FEFF38701F4D002748B18F
:103A30002F70F06907704BA80BF032FF164827F083
:103A400069FDDBE7F16914220E46491D1648FCF7B3
:103A5000F9FB285D20280FD0641CA4B2142CF8D3E5
:103A6000424606F119016846FCF7ECFB4246314636
:103A7000684628F0C5FCDEE72F55F1E7303A2F53B2
:103A8000797374656D2F6D6573736167656C6973A8
:103A9000742E747874000000402C00202B0000204D
:103AA0002C000020FC020020786C00202DE9F84357
:103AB00010258DF8035003268DF802600121202087
:103AC0000DF032FE0824ADF800406946234802F0AC
:103AD0004BFC012110200DF027FEADF80050204FC7
:103AE0006946384602F040FC012104200DF01CFE1E
:103AF0000425ADF80050DFF86C806946404602F0BE
:103B000033FC012104200DF00FFEADF800406946A2
:103B1000404602F029FC012110200DF005FE202175
:103B2000ADF800106946384602F01EFC012108205D
:103B30000DF0FAFD4FF47F40ADF800008DF8035012
:103B40008DF802606946084802F00EFC0548143002
:103B50000460024810300460BDE8F883001401409E
:103B60000010014000080140000C01402DE9F04325
:103B700089B0984615460F4606004FF000042DD038
:103B800000F0DCFB0446304600F09FFB814604F069
:103B900061FF03A9304600F064FDF80706D0BDF9C7
:103BA0001C00001B401B401C822109E0B8070028B4
:103BB000BDF91800284402DA40F2022100E0022197
:103BC0000096CDE9018123461A464946FDF730FDAE
:103BD00004460021FDF7E8FE06F000FB09B0204690
:103BE000BDE8F08310B50523FFF7C0FF0446054A82
:103BF0000021FDF7FEFE0449204612F0B0FE2046EB
:103C000010BD000045980108C96802082DE9F04779
:103C1000456804468EB00026284603F01BFB009042
:103C20005C30B0F820A0D0F80C90D0F82480C76A9F
:103C3000006800B10668684603F076FB05E0796825
:103C40002046884700283DD13F68002FF7D12068E3
:103C5000142844D009DCA0F10B00072839D2DFE892
:103C600000F0BE3989B434B4110020287ED004DCC1
:103C700017283ED01E282CD14BE026283CD02A28DD
:103C800027D110E02846E66803F0E4FA0190717A43
:103C900039B9317A012904D130F87C1F41F480719F
:103CA000018001A88FE0284603F0D4FA0090E16873
:103CB00011B1C0F8841002E0D0F88400E0606846DA
:103CC00003F032FB0EB0BDE8F087002E7DD0284611
:103CD000B0477AE0214628461EF0F2F9F2E705A93E
:103CE000284600F0BEFCE068069901600799416033
:103CF000E8E7C4F80C90E5E7E0680228E2D10C950B
:103D0000E0680D9027200A900AA9A06813F014FD1E
:103D1000D8E7E068012804D00021284600F086FB9F
:103D2000D0E7404612F05FFC58B1404612F0DCFE8E
:103D3000404612F029FB88B10121404611F0CDFA2E
:103D40000CE0484612F024FF8046284603F082FA31
:103D50000090C0F88080684603F0E6FA012128460A
:103D600000F064FBB8F1000FACD100E00EE00020E1
:103D7000E060A7E75FEA0A7027D4E068C06820B374
:103D8000007A10B3284612F0AFFE1EE0E668E6B1F6
:103D90002946706813F09FFA20B10121284620F0CF
:103DA000F1FC12E00021284620F0ECFC29463068A6
:103DB00013F080FA48B1284603F04CFA03903168BA
:103DC000C0F8801003A803F0AFFA2146284611F08E
:103DD000F5F900288CD0204611F0F2FD72E7284654
:103DE00003F038FA0090703003F08EF96846EAE785
:103DF000F0B587B0B0F908400DF10C0C0C9E876946
:103E00004568ACE8F000448A0025CDE9001502942D
:103E1000B0F90C10B0F91050B0F90E40B0F90A002A
:103E2000194410442B46224600F002F807B0F0BDBA
:103E30002DE9F04F8BB09846DDE9155691468A463C
:103E40008346149F1A9C04F005FE6034314845F403
:103E50008055CDE90204CDE9007543464A465146F6
:103E6000584611F0F3FC04004DD003F0F3F9302272
:103E70000490179911F0F6FB049828222649343053
:103E8000FCF7E0F9049819995C30234F81600684AF
:103E9000002646620661083FC6627968016004A890
:103EA00003F042FA05A9204600F0DBFB1B4841F273
:103EB000827103960094CDE90110BDF91E00BDF991
:103EC0001A10BDF91C20431ABDF918005B1C121A08
:103ED000521C11F0BBFC06467868416820468847B2
:103EE000204603F0B7F90490866604A803F01CFA94
:103EF00042F20400054202D1204611F001FE2046A4
:103F0000189900F018FB06F069F90BB02046BDE8DF
:103F1000F08F00000D3C0008F007002071490008F8
:103F20002DE9F041044694B0006800F0B7F908B1FB
:103F3000D94D01E0D84D2C35606815281ED00CDC19
:103F40000B281FD004DC00287ED005287DD12EE16F
:103F50000E287BD01228F9D141E1162806D0172867
:103F600008D0182808D01C28F0D109E0E86914B05E
:103F7000BDE8F081286AFAE7686AF8E7A86AF6E718
:103F80006869F4E720680B901C200C90206803F00F
:103F900061F90390016D0BA88847064603A803F05A
:103FA000C3F9022E0EDB95E807008DE80700D4E97F
:103FB00004023346A16906F08FFE20698719A069C3
:103FC000801B2BE0286805F0C6FB2169E8690A1808
:103FD000521E606904F066F9A269E869111A491C69
:103FE000606904F05FF9676920697F1C394604F055
:103FF000A9F93946A06904F0A5F9686805F0ABFB9A
:1040000020693946401C04F09DF9A0693946401EDC
:1040100004F098F92769A069BF1C801E80462868B3
:1040200005F099FB42463946606904F03BF968683F
:1040300005F091FB60694246401C394604F032F9B4
:10404000686A02280FDD02E015E1AFE000E1A86830
:1040500005F081FB61696A6A881C8B1801465B1E4A
:104060004246384627E0296AB14226DD6069022EC1
:10407000074600F1020801DB374401E007F10207BF
:10408000206901DB304401E000F1020022693B4677
:104090000A44A2F10102414604F090FA022E02DB2A
:1040A000A069821B01E0A269921EA069E9693B46F2
:1040B000401A401C414604F081FA022E02DB60697E
:1040C000064401E06669B61CE76928687F1E05F0B2
:1040D00042FB3A463146206904F0BAF93A46314685
:1040E000A06904F0B5F9E7696868BF1E05F033FB05
:1040F00020693A46401C314604F0AAF9A0693A46C4
:10410000401E314604F0A4F9E869022802DC286A5E
:10411000022823DDA86A022802DDE1690F1A01E006
:10412000E769BF1EA86805F016FBE969022909DDE9
:1041300020693B46421800F1020C521E314660468F
:1041400004F03CFA286A022808DDA269E8693B46C7
:10415000101A401C921E314604F030FA286805F00F
:10416000FAFAD4E90620216904F09CF8686805F0A1
:10417000F2FAA2692169E069521E491C401E04F04E
:1041800091F8A86A022811DD2669A169E469B61CC4
:10419000271AA1F102087F1CA41EA86805F0DBFA0B
:1041A000234642463946304604F008FA72E0208A37
:1041B00006B2ADF81460A08A01B2ADF81610208BDB
:1041C00002B2ADF81820A08B03B2ADF81A30D5E9D1
:1041D0000304CDE90004304603F0FEFF5AE0208AD4
:1041E000298B0844ADF81400A08AADF81600208B86
:1041F000298B401AADF81800A08BADF81A00206882
:1042000003F028F80390006FF0B1022005F056FB90
:10421000039991F87C00C0F3C00001EB8000006CB2
:1042200005F099FA0398406B05F0BEFA0398006F09
:1042300003F010F803990A90B1F95A2005A903F088
:1042400019FE0AA803F070F803A803F06DF821E046
:10425000208AADF81400A08AADF81600208BADF8C6
:104260001800A08BADF81A00A86805F074FA05A82C
:1042700004F0D0F90EE0206802F0ECFF039030F873
:104280005A1F41F00C01018003A803F04DF820688B
:1042900012F0B0FC00206AE62C08002038B50500BA
:1042A0004FF000040FD004F0D5FB284602F0D2FFF7
:1042B000009090F87C00000700D50124684603F0C8
:1042C00033F805F08BFF204638BD38B505004FF0B8
:1042D000000411D004F0BEFB284602F0BBFF0090A2
:1042E000C06D0021806802682846904704466846F1
:1042F00003F01AF805F072FF204638BDF8B50E46F7
:1043000005004FF0000411D004F0A4FB284602F091
:10431000A1FF0090C06D3146806802682846904732
:104320000446684603F000F805F058FF2046F8BD43
:104330000148006870470000F007002030B587B0E2
:1043400005004FF0000413D004F084FB01A92846B7
:1043500000F087F9284602F07DFF0090B0F9544044
:10436000684602F0E1FF0CB9BDF9044005F036FFE4
:1043700007B0204630BD30B504468BB0006802F06F
:1043800069FF009090F87C10246A006FC1F3C005AB
:1043900008B102F05FFF0690E06802902069039088
:1043A000A088401EADF81000E089ADF81200208909
:1043B000401CADF81400608AADF81600BDF8080086
:1043C000401CADF80800BDF80A00401CADF80A001A
:1043D000BDF80C00401EADF80C000098406B05F0D5
:1043E000E3F9009808AA02A9B0F95A30069806F035
:1043F000B7F8009800EB8500806B08F0ADFD0098E1
:1044000000EB8500006C08F0DFFD08AB02AA04A9F0
:10441000069811F037F8684602F086FF069810B14A
:1044200006A802F081FF0BB0002030BD70B50D462C
:10443000040009D004F00EFB2946204620F0A2F922
:10444000BDE8704005F0CABE70BD38B50C46050029
:1044500011D004F0FFFA284602F0FCFE0090816CB7
:10446000A14203D08464806E12F062F8684602F0C4
:104470005BFF05F0B3FE38BD074A0649054B1160E6
:10448000064A083BD16958601B68C2E906300846F5
:104490007047000020080020EC070020F0070020F3
:1044A0002DE9FC410D46804604F0D4FA5FEA08008D
:1044B00028D002F0CFFE0190C16D8C6800F038F971
:1044C00007460198456301A802F02EFF22680121EA
:1044D00040469047064622680321404690470546DD
:1044E00022680021404690470446404600F009FA01
:1044F0002B46324639464046009400F091F940463A
:1045000012F016F805F06AFEBDE8FC8138B50C46DD
:10451000054604F09FFA55B1284602F09BFE009034
:104520000466684602F000FF284612F001F8BDE874
:10453000384005F053BE7CB50D4604001DD004F094
:1045400089FA204602F086FE0090006F01906846CE
:1045500002F0EAFE294601A806F0A6FF58B120465F
:1045600002F078FE009001990167684602F0DCFED7
:10457000204611F0DDFF05F031FE7CBD38B50C465C
:10458000050013D004F066FA284602F063FE00909E
:10459000B0F95A10A14204D0A0F85A40284611F0B0
:1045A000C7FF684602F0C0FE05F018FE38BD0000E7
:1045B00038B50C46050015D004F04CFA284602F038
:1045C00049FE0022CDF8000000EB8201521C0C6471
:1045D000022AF9D3684602F0A7FE284611F0A8FF88
:1045E00005F0FCFD38BD2DE9FC470D465FEA0009EA
:1045F0004FF0000432D004F02DFA484602F02AFEB3
:104600000190B0F95440A54223D000F091F88046C3
:1046100001980121A0F85450C06D856848462A6869
:10462000904707462A6803214846904706462A686D
:104630000021484690470546484600F062F9334657
:104640003A4641464846009500F0EAF8484611F0DF
:104650006FFF01A802F068FE05F0C0FD2046BDE82E
:10466000FC872DE9F34F85B000270C46B846059826
:1046700002F0F0FD0090C06D0121856805982A6860
:10468000904782462A6803210598904704902A683B
:1046900002210598904703902A68002105989047C9
:1046A0000646009812F0B4FC8346009812F0B7FC5E
:1046B0008146009890F83210890601D5B0F95880EB
:1046C00000F036F805460098C06E10B111F07FFC7E
:1046D000074625806780A4F804A0049AABEB02008B
:1046E00006EB0802401E2A4420813A44E280039BE4
:1046F000A9EB0302521E6281A4F80CA0208270195B
:10470000E681401E6082684602F00EFEB4F90C009D
:104710000190B4F91000029002AA01A9059800F0D6
:1047200039F80198A0810298208207B0BDE8F08F87
:1047300010B50146002091F83220920607D5B1F954
:104740005400002803D1486B04F0F4F8801C10BD1D
:1047500070B58AB00C46054602F07CFD0990C06D2C
:10476000866809A802F0E0FD009534B1012C06D05E
:10477000022C0BD0032C04D10AE0182000E01620F4
:1047800001907168684688470AB070BD1520F7E748
:104790001720F5E72DE9FC4790468946044602F0CC
:1047A00059FD0090C16D056868468E6802F0BCFD39
:1047B00032680021204690470646204611F075FADF
:1047C0002F1404462DB227E002F044FD0190B0F909
:1047D0000010B0F90420B0F90230491B521BDB1B5A
:1047E000B34212D190F82800000607D5D8F800008F
:1047F00088420ADB491EC8F8001006E0D9F800001C
:10480000904202DC521CC9F8002001A802F08CFD85
:10481000204611F00FFB0446002CD5D1BDE8FC87E3
:104820002DE9FF4F83B00E460746DDF8409002F0B9
:1048300011FD0190C16D8D68FFF77AFF044601A854
:1048400002F072FD2A6801213846904783462A68A3
:1048500003213846904782462A680021384690470F
:104860000546B44207D105998B4504D106998A457E
:1048700001D14D4542D0A41B0026B046384611F068
:1048800014FA39E002F0E6FC0090806A010602D5D5
:104890004FEA805002E0810528D50006002825DB7C
:1048A00024B122461146384611F065FF009890F871
:1048B000280000060AD50698A5EB0902A0EB0A001D
:1048C00004FB1601761C384611F006FF0098008D97
:1048D00080050BD50599A5EB0902ABEB010004FBA4
:1048E000080108F10108384611F0F6FE684602F0AA
:1048F0001BFD384611F09EFA0700C3D107B0BDE892
:10490000F08F70B586B0064602F0A4FC0590D0E9A1
:104910001A4505A802F008FD54EA050026D06946AC
:104920003046FFF79EFEACB1BDF90620BDF904107C
:10493000204611F095FEBDF90A00BDF90610421A95
:10494000BDF90800BDF90410521C411A491C20464B
:1049500012F0A5F9002D09D0BDF90600BDF902102D
:10496000421ABDF90410284611F07AFE06B070BD57
:104970002DE9F0430446406885B0064611F078FA08
:10498000814602F067FC0090D0F88080876C456E0D
:10499000684602F0C9FC2068172859D008DC0E28A8
:1049A00037D00F280BD0142852D015283AD14FE019
:1049B0001E2818D01F2827D0222833D146E06FF0B8
:1049C0007040874204D0384608F0C6FA02F000FF73
:1049D000002D12D0D4E902122068CDE90106CDE9FC
:1049E000031201A822E0E068002806D05FEA080070
:1049F00006D0B04504D012F077F805B0BDE8F083DA
:104A0000304612F0C5F816E02146484610F0D6FBB5
:104A1000F3E7E0684168002904DD00680928EFD069
:104A20000A2805D0A5B12046C4F80490A847E4E7B9
:104A3000304612F0BCF80446484602F00BFC0090E9
:104A4000C0F88040684602F06FFCD6E7E760D4E724
:104A5000204610F0B5FFD0E78000A0F1C04000294B
:104A600004D0016841F00101016070470168024A09
:104A70001140016070470000FEFF0F0010B5D0E943
:104A800001121143D0E903231A4311434269114330
:104A900082691143C2691143026A1143426A114398
:104AA000826A1143C26A1143026B11430268920089
:104AB000A2F1C04211608168082907D1016889000C
:104AC000A1F1C0410A6842F040020A60416BD1E99D
:104AD000002342EA03128B688C891B0243EA0443D9
:104AE0001A430B8A42EA03520B7D896942EA036248
:104AF0000A430168491C8900A1F1C0410A60C16AEA
:104B0000B1F5804F08D000686FF070418000A0F1CF
:104B1000C040C0F8041110BD816BD1E9002342EA06
:104B200003128B680C8A1B0243EA04531A430B7D61
:104B3000896942EA036200680A438000A0F1C0402C
:104B4000C0F8042110BD00002DE9F0478AB01421FF
:104B500005A8FBF79EFB00244E4D00262E7005F1A4
:104B6000100031210170417032218170C6704AA05D
:104B700021F0AEFD11F072F8034600964E4A07216F
:104B80004E48019602F070FE07464D480221CDE9DD
:104B90000071CDE90206BE23E6224121052010F076
:104BA00055FE686010F0D4FD28F0ECFA454EDFF8B1
:104BB000188198B1022245A146A009F075FD03F0C5
:104BC000CBFC307810B1384610F032FF98F8000076
:104BD00000285CD00A2002F0E3FFF2E725F074FF22
:104BE00045A248A148480FF007FF4FF48079DFF84D
:104BF0001CA148E0642C3CD905A807F0BFFC88BB89
:104C00004946504601F03BFC05A9E8680EF0ABFFB1
:104C1000686811F0C9FBA86811F0C6FB40F2611486
:104C20002146384611F030F839A10EF09CFF21469C
:104C3000384611F029F812F076F840F27111384632
:104C400011F022F812F06FF84FF4B971384611F0F4
:104C50001BF812F068F840F27311384611F014F89E
:104C600011F0A2FB25F030FF4946504601F005FC4B
:104C70000024641CE4B2307810B1384610F0D8FE3D
:104C80000A2002F08DFF98F800000028B2D10AB087
:104C9000BDE8F087D00200203C3C2D4F532D494EFB
:104CA000464F2D3E3E2050686F6E656170702063E8
:104CB00072656174650A0A00A187020834A50408B8
:104CC0004194020829000020810100206572726F62
:104CD000720000000D0A204E6F20646574656374D5
:104CE00065642053494D39303041206D6F64756CD7
:104CF0006521200D0A00000041542B434C49503DD2
:104D0000310D000025730000004400400008014000
:104D1000E696B0E69DA5E794B52E2E2E0000000085
:104D20002DE9F043DBB00024142156A8FBF7B1FABB
:104D3000502142A8FBF7ADFA4FF48078414602A813
:104D4000FBF7A7FA4FF48051374825F02EFF38497A
:104D50003648C86137A021F0BBFC3FA025F012FF08
:104D600010F07CFF03460020009001903D4A07218F
:104D70003D4802F079FD074628F004FA3B4D98B112
:104D800002223BA13CA009F08FFC03F0E5FB434C61
:104D9000287810B1384610F04BFE2078002840D01B
:104DA0000A2002F0FDFEF3E725F08EFEDFF8F0901A
:104DB0003C4E33E0642C27D907F09EFB04462000CC
:104DC0001BD04146484601F05AFB174A42A92046EB
:104DD00028F048F838B102A9134827F09BFC02A933
:104DE00042A828F0E7F822462FA156A821F080FC1F
:104DF00056AA30A130480FF0FFFD25F065FE414670
:104E0000484601F03AFB0024641CE4B2287810B153
:104E1000384610F00DFE0A2002F0C2FE307800285D
:104E2000C8D15BB0BDE8F08388580020885C0020C2
:104E3000FC0200203C3C2D4F532D494E464F2D3E49
:104E40003E204D65737361676561707020637265A4
:104E50006174650A0A000000303A2F537973746553
:104E60006D00000079830208F8A5040829000020DD
:104E70006572726F720000000D0A204E6F2064652B
:104E80007465637465642053494D39303041206D39
:104E90006F64756C6521200D0A00000081010020FF
:104EA000000801408201002041542B434D47443DFE
:104EB00025640D0025730000004400407CB510F00F
:104EC000CDFE0346002000900190224A0521224891
:104ED00002F0CAFC064621A021F0FAFB2749284827
:104EE00007F0A6FB26482749083007F0A1FB264C0F
:104EF000264D2BE0224807F0A9FB2148083007F097
:104F0000A5FB00211E4807F09BFB38B1206880F00C
:104F10000100206001211A4807F092FB1848002187
:104F2000083007F08DFB40B1206880F0020020605F
:104F300013480121083007F083FB1548007810B1B1
:104F4000304610F075FD0A2002F02AFE287800286D
:104F5000D0D17CBDC18002081C3604083C3C2D4FDA
:104F6000532D494E464F2D3E3E204B4559617070A2
:104F7000206372656174650A0A0000003DB700088D
:104F8000AC01002059B700080C0C0140830100203F
:104F9000290000207CB5164CDA2020702520607096
:104FA000C420A07013A021F093FB0EF04FFFA27855
:104FB000617820780EF01AF910F050FE03460020B8
:104FC00000900190144A0721144802F04DFC064657
:104FD000134C144D07E0217811B1304610F028FD34
:104FE0000A2002F0DDFD29780029F4D17CBD000003
:104FF000BC0100203C3C2D4F532D494E464F2D3EC9
:105000003E20427265617468696E676170702063EA
:1050100072656174650A0A001D6A0208A8360408F0
:1050200029000020840100202DE9F04F8BB00026DC
:105030001C2104A8FBF72DF959A021F049FB10F021
:105040000DFE0025034600955D4A03215D4801954C
:1050500002F00AFC8346584610F0F5FD02228DE866
:1050600025004FF408710391C823DC22502105204C
:1050700001F092FA074600231A46FA21FF2001F0B8
:10508000F9FA514CA060012232231146192001F097
:105090004BFB8146322300220221BE2001F044FB5B
:1050A00082464FF6FF784146504601F087FB47495C
:1050B000384610F02BF900231A4619463846009559
:1050C00001F096FB4249384601F00DFC322138468A
:1050D00001F0AFFB0121384601F0E9FB0121384620
:1050E00001F0C1FB0021A06801F004FB39494846EA
:1050F00001F046FB4146484601F060FB3846A16896
:1051000001F0BFF94946384601F0DDF9514638460D
:1051100001F0D9F9304F3CE0761CF6B2322E2FD395
:1051200020880646FBF721FBFBF762FB4FF0663257
:105130002A4BFBF719FA6FF00B02FBF7F6FAFBF7B5
:1051400083FB6060FBF754FBCDE90001324624A1EC
:1051500004A821F0CDFA8DF8285040F2611158468C
:1051600010F092FD04A90EF0FEFC21496068FBF7E7
:1051700022F9FBF710FB01B2A06801F05DFA0026EE
:105180001C48007810B1584610F052FC0A2002F07A
:1051900007FD38780028BFD10BB0BDE8F08F0000C4
:1051A0003C3C2D4F532D494E464F2D3E3E20414411
:1051B00043617070206372656174650A0A000000C3
:1051C000DD680208DC9D04084C020020906F050891
:1051D000C15C02080AD7A33C8501002066660A402C
:1051E000307825303458202D2D3E2025665600007D
:1051F00000004842290000202DE9F041ADF5027D74
:1052000000253CA021F064FA10F028FD0027034699
:105210000097414A09214148019702F025FB0646C3
:10522000012002F0BDFCA02027F004FB26F0B4F81A
:105230003B4C4FF4B07140B101202070304610F06B
:1052400023FD38A10EF08FFC06E0304610F01CFD67
:1052500036A10EF088FC2770207840F2611770B3F9
:10526000002042A90854401C80B2FF28FAD94FF40C
:1052700080784246002142A826F0CEF870B1FA2488
:10528000641E2404240CFBD14246002102A826F00F
:105290008EF818B1641CA4B2FF2CFBD93DB139467D
:1052A000304610F0F1FC21A10EF05DFC0FE0394614
:1052B000304610F0E9FC1BA10EF055FC07E0FFE7BB
:1052C0003946304610F0E0FC18A10EF04CFC194CA9
:1052D000194D07E0207810B1304610F0A9FB0A20E4
:1052E00002F05EFC28780028F4D10DF5027DBDE8BF
:1052F000F08100003C3C2D4F532D494E464F2D3E32
:105300003E20454550524F4D61707020637265617B
:1053100074650A0A00000000057A0208309E04083D
:1053200058020020E68890E58A9F0000E587BAE9E8
:105330009499000029000020860100207CB51FA060
:1053400021F0C6F910F08AFC03460020009001907D
:10535000224A0E21224802F087FA0646304610F013
:1053600072FC0023FA22194610F042FA0A2002F0D9
:1053700017FC1C4C207818B11B480CF087FA2070E1
:10538000207828B1012219A11AA003F0EBFF06E052
:105390004FF4B871304610F077FC10F0C6FB1B4C90
:1053A0001B4D07E0207810B1304610F041FB0A2079
:1053B00002F0F6FB28780028F4D17CBD3C3C2D4F50
:1053C000532D494E464F2D3E3E20436C6F636B611B
:1053D0007070206372656174650A0A00AD7302081B
:1053E0002C9F040898000020105200206572726FF4
:1053F000720000000D0A2052544320576F726B2038
:10540000446F776E212121200D0A00002900002021
:10541000870100202DE9FC4710F020FC0026034600
:1054200000961E4A02211E48019602F01DFA82468D
:105430001CA021F04DF94FF48051224825F0B5FB16
:105440002149204808600FF0EBFC204D204C214FF3
:10545000DFF88480DFF884901AE0287858B10EF0E5
:1054600015F80EF015F80FF01BFD0FF005FD206884
:105470000528FCD12E70386880F00100386098F85B
:10548000000010B1504610F0D3FAC82002F088FB9B
:1054900099F800000028E0D1BDE8FC87618B020884
:1054A000B4A004083C3C2D4F532D494E464F2D3E91
:1054B0003E20555342617070206372656174650AC5
:1054C0000A00000088580020800300205D020020B0
:1054D000FC0400200C0C0140290000208801002061
:1054E0002DE9FE4F0025CCA021F0F2F8D24E002786
:1054F000377001207070B77010F0B0FB0346009752
:10550000CE4A0A21CE48019702F0AEF902904FF43C
:105510008051CC4825F049FBDFF82C83DFF82CB311
:1055200072E1B07800287DD1307800287AD0707888
:10553000002878D0DFF818A3DAF8000010F0F2FAAB
:105540004FF4B871029810F09FFBC2A1FCF767FA04
:105550000A2002F025FBFDF7D5FF4FF48071C0480B
:1055600000F08DFFFDF7CCFE18B9B07840F00100D7
:10557000B0700020FEF752F818B9B07840F0020081
:10558000B07000244FF0FF090FE0AB492331A1F1C7
:105590001500FDF7C5FF60B998F8000008B930782C
:1055A00008B986F80290641CA4B2B07808B90A2C35
:1055B000EBD30A2C03D1B17841F00401B17000247F
:1055C0000CE00020FDF70CFF60B998F8000008B966
:1055D000307808B986F80290641CA4B2B07808B993
:1055E0000A2CEED30A2C03D1B17841F00801B17036
:1055F000002411E0904A0523083202F13001002016
:10560000FDF7B0FF60B998F8000008B9307808B924
:1056100086F80290641CA4B2B07808B90A2CE9D3C9
:105620000A2C01E0E5E02BE003D1B17841F0100154
:10563000B17000240BE0FEF7F1F860B998F80000B3
:1056400008B9307808B986F80290641CA4B2B07822
:1056500008B90A2CEFD30A2C03D1B07840F020000F
:10566000B070804801886FF30E010180018821F439
:10567000004101807770DAF8000010F056FA7BE004
:10568000142D79D34FF4B87A5146029810F0FCFAF1
:1056900075A1FCF7C4F940F271194946029810F05F
:1056A000F3FA10F042FA734CB4F80004000422D567
:1056B0004FF48061634825F078FAB4F80004C0F331
:1056C0000E00275425460523002229460120FDF718
:1056D000FBFF5C49284625F070FA706809F070FB02
:1056E000B0F57A7F03DB64A1706809F00AFC5549C4
:1056F000706809F0E4F86148007890B3FDF792FE15
:10570000FDF7C2FE0028FBD004282AD1377077703D
:1057100040F20311029810F0B7FA10F006FA4FF4B5
:105720008171029810F0B0FA10F0FFF940F2011107
:10573000029810F0A9FA10F0F8F94FF4807102986D
:1057400010F0A2FA10F0F1F94946029810F09CFA14
:1057500010F0E8F95146029810F096FA48A1FCF7CB
:105760005EF904F5806420886FF30E0020802088A5
:1057700020F4004020800025B078D0B39BF80000D2
:10578000B8B340F20311029810F07EFA10F0CDF990
:105790004FF48171029810F077FA10F0C6F940F2D8
:1057A0000111029810F070FA10F0BFF94FF48071F7
:1057B000029810F069FA10F0B8F940F271110298ED
:1057C00010F062FA10F0AEF94FF4B871029810F0D0
:1057D0005BFA2BA1FCF723F937707770B078FF28BC
:1057E00006D0012229A12BA003F0BCFD012070707E
:1057F000B7706D1CEDB298F8000010B1029810F06F
:1058000017F90A2002F0CCF99BF8000000287FF479
:1058100088AEBDE8FE8F00003C3C2D4F532D494E15
:10582000464F2D3E3E205769666961707020637255
:10583000656174650A0A000060020020198E020882
:10584000ECA00408885800202900002089010020CD
:1058500090010020E8BF9EE68EA5E4B8AD000000F0
:10586000000C01402C560020E9809AE4BFA1E4B866
:10587000AD0000002C52002000000000300000208D
:10588000E69CAAE8BF9EE68EA50000006572726FD6
:10589000720000000D0A205468652057696669206F
:1058A00064726976652063616E6E6F7420776F72C3
:1058B0006B21200D0A000000F0B587B000240026FF
:1058C00004960596029603963EA020F001FF464DF1
:1058D0002E700EF017F8FCF73BFF012806D005F1FB
:1058E00008000CF075F9012806D007E001202870A7
:1058F000FCF7F9FE686001E00220287010F0AEF9B4
:1059000003460096394A04213948019601F0ACFF5C
:105910000746384E51E0287808B1641CE4B2782C70
:1059200042D306A809F09CFF2878022802D001285B
:1059300023D035E02C4808300CF04AF92A4C2EA12F
:10594000083404A8E378A27820F0D2FE40F2611176
:10595000384610F099F904A90EF005F96378227819
:1059600025A102A820F0C4FE4FF4B171384610F012
:105970008BF902A90EF0F7F812E0FCF7B4FE6860AC
:10598000FAF736FF02460B461DA104A820F0B0FE30
:105990004FF4B071384610F077F904A90EF0E3F82F
:1059A00006A809F07DFF00241748007810B138469A
:1059B00010F03EF80A2002F0F3F830780028AAD15F
:1059C00007B0F0BD3C3C2D4F532D494E464F2D3E68
:1059D0003E2048756D6974757265617070206372E0
:1059E000656174650A0A0000A8020020397E020879
:1059F00004A204088A01002025642E25640000000A
:105A000025302E3266000000290000202DE9F04FDD
:105A100085B00024FDF728FF43A020F059FE10F0C8
:105A20001DF9002702224949CDE90002CDE90217FC
:105A30004FF4A073F022394638460FF007FF834633
:105A4000642002F0ADF80BF03FFC4FF47A7507E0EC
:105A50000BF042FC30B9284624F0D6FE641CE4B2B8
:105A60000A2CF5D3DFF8E8A00A2C0CD00FF066FB67
:105A7000384E3770022006F0E1FB0A2024F0C4FE05
:105A80002024354D49E0584610F052FD022233A142
:105A900034A008F009FE02F05FFD58460FF0C8FF81
:105AA0009AF8000000283CD00A2002F079F8F4E7C8
:105AB0003078022828D104A809F0D2FE3249042007
:105AC00008606C612C61091F08606C612C61002109
:105AD000DFF8B8C0DFF8B8804FF496396C61DCF8B5
